ACAM4LL
HFDTE300518
HFFXA050
HFPLTPILOT:Alexander Mueller       
HFGTYGLIDERTYPE:EB29        
HFGIDGLIDERID:D-KPAM      
HFDTM000GPSDATUM:
HFRFWFIRMWAREVERSION:F2.6
HFRHWHARDWAREVERSION:300 Series Version 2
HFFTYFRTYPE:CAMBRIDGE AERO INSTRUMENTS, 302+
HFGPS:GARMIN,LVS-25,12,18000
HFPRSPRESSALTSENSOR:INTERSEMA, MS5534-AP, 20000
I033638FXA3941ENL4247REX
LCAMSBVER:5FWVER:F26300
C220899001608220899000104
C0000000N00000000WTAKEOFF     
C2339000S01743800EPOKWENI     
C2257762S01617502EAM_4.2      
C2652932S01655434EAM_3.2      
C2347166S01945324EAM_0        
C2330210S02000618EAM_1.3      
C2339000S01743800EPOKWENI     
C0000000N00000000WLANDING     
B1106224959197N01138695EA0046800481000112000000
B1106244959197N01138695EA0046800481000112000000
B1106264959197N01138695EA0046800481000100000000
B1106284959197N01138695EA0046900481000084000000
B1106304959197N01138695EA0046900481000076000000
B1106324959197N01138695EA0046900481000068000000
B1106344959197N01138695EA0046800481000068000000
B1106364959197N01138695EA0046700481000060000000
B1106384959197N01138695EA0046700480000060000000
B1106404959197N01138695EA0046800480000052000000
B1106424959197N01138695EA0046800480000084000000
B1106444959198N01138695EA0046700480000180000000
B1106464959198N01138695EA0046800480000420000000
B1106484959197N01138693EA0046800480000716000000
B1106504959196N01138689EA0046800480000976000000
B1106514959193N01138684EA0046800480000996000000
B1106544959186N01138667EA0046900480000996000000
B1106574959177N01138644EA0047000480000996000000
B1107004959166N01138611EA0046900480000996000000
B1107034959151N01138574EA0047000480000996000000
B1107064959134N01138529EA0046900480000996000000
B1107094959116N01138479EA0047000480000996000000
B1107124959095N01138424EA0047200481000996000000
B1107154959075N01138364EA0047400482000996000000
B1107184959051N01138302EA0047600484000996000000
B1107214959027N01138236EA0047600486000996000000
B1107244958999N01138169EA0048100492000996000000
B1107274958973N01138104EA0048800500000996000000
B1107304958947N01138039EA0049700511000996000000
B1107334958923N01137978EA0050800524000996000000
B1107364958898N01137917EA0051600528000996000000
B1107394958868N01137857EA0051800530000996000000
B1107424958832N01137804EA0052300541000996000000
B1107454958793N01137759EA0053800557000996000000
B1107484958752N01137720EA0055300572000996000000
B1107514958709N01137688EA0056100577000996000000
B1107544958666N01137661EA0056800584000996000000
B1107574958621N01137639EA0057300587000996000000
B1108004958575N01137619EA0057400587000996000000
B1108034958527N01137605EA0057500589000996000000
B1108064958479N01137596EA0057900594000996000000
B1108094958431N01137592EA0058300597000996000000
B1108124958383N01137591EA0058800602000996000000
B1108154958336N01137593EA0059300607000996000000
B1108184958288N01137600EA0059500608000996000000
B1108214958237N01137613EA0059800614000996000000
B1108244958189N01137626EA0061100628000996000000
B1108274958141N01137643EA0062300641000996000000
B1108304958094N01137657EA0063100651000996000000
B1108334958046N01137673EA0063300651000996000000
B1108364957998N01137691EA0062600655000996000000
B1108394957951N01137712EA0062900659000996000000
B1108424957905N01137733EA0063300661000996000000
B1108454957858N01137753EA0063500663000996000000
B1108484957811N01137773EA0063700664000996000000
B1108514957763N01137792EA0064000673000996000000
B1108544957716N01137816EA0065200688000996000000
B1108574957671N01137839EA0066700700000996000000
B1109004957626N01137861EA0067300704000996000000
B1109034957584N01137885EA0067500704000996000000
B1109064957541N01137912EA0067700708000996000000
B1109094957499N01137942EA0068400717000996000000
B1109124957457N01137978EA0069000723000996000000
B1109154957413N01138019EA0069700732000996000000
B1109184957368N01138064EA0070700744000996000000
B1109214957325N01138115EA0071700754000996000000
B1109244957283N01138172EA0072700764000996000000
B1109274957249N01138241EA0073500772000996000000
B1109304957227N01138320EA0074700786000996000000
B1109334957221N01138403EA0075500797000996000000
B1109364957229N01138487EA0076600807000996000000
B1109394957249N01138562EA0077500809000996000000
B1109424957286N01138628EA0077600811000996000000
B1109454957334N01138670EA0077800814000996000000
B1109484957389N01138684EA0078100816000996000000
B1109514957442N01138672EA0078500819000996000000
B1109544957487N01138632EA0079000826000996000000
B1109574957519N01138572EA0079500831000996000000
B1110004957539N01138501EA0080000837000996000000
B1110034957550N01138428EA0080900849000996000000
B1110064957551N01138355EA0082200861000996000000
B1110094957539N01138284EA0082800867000996000000
B1110124957515N01138219EA0083400872000996000000
B1110154957480N01138163EA0083700876000996000000
B1110184957435N01138120EA0084400890000996000000
B1110214957386N01138098EA0085800903000996000000
B1110244957334N01138100EA0086900911000996000000
B1110274957283N01138123EA0087700920000996000000
B1110304957239N01138173EA0088800930000996000000
B1110334957212N01138247EA0089500936000996000000
B1110364957205N01138333EA0090200944000996000000
B1110394957226N01138414EA0091100952000996000000
B1110424957261N01138481EA0091900960000996000000
B1110454957309N01138526EA0092300963000996000000
B1110484957364N01138552EA0092600968000996000000
B1110514957418N01138548EA0093300976000996000000
B1110544957464N01138506EA0093800982000996000000
B1110574957490N01138437EA0094600995000996000000
B1111004957498N01138362EA0095701003000996000000
B1111034957487N01138288EA0096901014000996000000
B1111064957460N01138225EA0097901025000996000000
B1111094957418N01138181EA0098801035000996000000
B1111124957369N01138160EA0099801044000996000000
B1111154957317N01138172EA0100601050000996000000
B1111184957272N01138217EA0101001054000996000000
B1111214957236N01138286EA0101401058000996000000
B1111244957213N01138370EA0101901063000996000000
B1111274957205N01138458EA0102701074000996000000
B1111304957212N01138544EA0103501084000996000000
B1111334957231N01138622EA0104501090000996000000
B1111364957261N01138684EA0105101093000996000000
B1111394957299N01138728EA0105301088000996000000
B1111424957344N01138754EA0104701077000868000000
B1111454957394N01138765EA0103601067000628000000
B1111484957444N01138766EA0102901064000436000000
B1111514957494N01138763EA0102801066000344000000
B1111544957539N01138753EA0103101069000252000000
B1111574957582N01138735EA0103401068000180000000
B1112004957621N01138706EA0102901064000132000000
B1112034957655N01138667EA0102401056000108000000
B1112064957686N01138617EA0101301046000084000000
B1112094957711N01138555EA0100401038000076000000
B1112124957724N01138487EA0099601033000064000000
B1112154957723N01138415EA0099301028000068000000
B1112184957704N01138351EA0099501025000052000000
B1112214957671N01138303EA0099101017000048000000
B1112244957625N01138272EA0098301006000036000000
B1112274957573N01138255EA0097401007000028000000
B1112304957524N01138256EA0097801016000028000000
B1112334957478N01138273EA0098701025000024000000
B1112364957438N01138305EA0099201025000020000000
B1112394957402N01138353EA0099001020000016000000
B1112424957368N01138418EA0098601017000020000000
B1112454957351N01138503EA0098501021000020000000
B1112484957355N01138596EA0098601020000024000000
B1112514957382N01138679EA0098701022000020000000
B1112544957425N01138743EA0098701020000016015000
B1112574957480N01138784EA0098601020000016015000
B1113004957539N01138800EA0098601019000016015000
B1113034957599N01138818EA0098901023000012015000
B1113064957655N01138853EA0098901019000016015000
B1113094957707N01138903EA0098201011000016015000
B1113124957756N01138965EA0097401000000048000000
B1113154957805N01139036EA0096300988000092000000
B1113184957849N01139118EA0095200980000068000000
B1113214957889N01139208EA0094500977000056000000
B1113244957928N01139298EA0094100975000064000000
B1113274957967N01139389EA0093900976000052000000
B1113304958005N01139477EA0093700969000084000000
B1113334958044N01139566EA0093100964000076000000
B1113364958084N01139657EA0093400971000180000000
B1113394958120N01139748EA0093900979000288000000
B1113424958156N01139840EA0094700987000308000000
B1113454958189N01139930EA0095200991000216000000
B1113484958222N01140019EA0095300991000148000000
B1113514958254N01140109EA0095300993000136000000
B1113544958284N01140192EA0095700996000108000000
B1113574958313N01140273EA0095700994000156000000
B1114004958341N01140353EA0095300989000216000000
B1114034958373N01140433EA0094600983000240000000
B1114064958403N01140512EA0094200979000212000000
B1114094958431N01140594EA0094000979000260000000
B1114124958460N01140678EA0094300983000340000000
B1114154958488N01140760EA0094700988000276000000
B1114184958514N01140847EA0095400996000192000000
B1114214958520N01140934EA0096401006000132000000
B1114244958497N01141006EA0097201017000104000000
B1114274958456N01141040EA0098001018000072000000
B1114304958412N01141037EA0097901014000056000000
B1114334958375N01140996EA0097501007000048000000
B1114364958357N01140929EA0096800999000040015000
B1114394958357N01140855EA0095800991000032000000
B1114424958374N01140782EA0095500991000028000000
B1114454958400N01140719EA0096001000000024000000
B1114484958438N01140680EA0097201011000020000000
B1114514958483N01140672EA0098101018000016000000
B1114544958527N01140699EA0098401019000016000000
B1114574958566N01140756EA0098401019000016000000
B1115004958590N01140837EA0098601029000016015000
B1115034958587N01140919EA0099601043000016015000
B1115064958555N01140977EA0100601046000012015000
B1115094958508N01141002EA0100801045000016015000
B1115124958460N01140990EA0100701045000020015000
B1115154958423N01140946EA0100701046000020015000
B1115184958410N01140877EA0100701045000020015000
B1115214958418N01140802EA0100701047000020015000
B1115244958453N01140751EA0101501060000020015000
B1115274958500N01140747EA0102401065000020015000
B1115304958544N01140793EA0102701067000016015000
B1115334958568N01140876EA0103301079000016015000
B1115364958547N01140951EA0104301088000016015000
B1115394958503N01140981EA0105001094000016015000
B1115424958457N01140966EA0105301095000012015000
B1115454958427N01140912EA0105401099000012015000
B1115484958423N01140842EA0105901107000012015000
B1115514958445N01140788EA0106601115000012015000
B1115544958487N01140762EA0107101115000012015000
B1115574958536N01140771EA0107501123000012015000
B1116004958574N01140823EA0108501134000012015000
B1116034958590N01140899EA0109401141000012015000
B1116064958578N01140976EA0109801144000012015000
B1116094958546N01141032EA0110201150000012015000
B1116124958501N01141053EA0110501146000012015000
B1116154958453N01141042EA0110101144000012015000
B1116184958413N01140999EA0110201148000012015000
B1116214958399N01140933EA0110701155000012015000
B1116244958409N01140866EA0111201160000012015000
B1116274958443N01140816EA0111501160000012015000
B1116304958490N01140791EA0111601162000012015000
B1116334958543N01140794EA0112101171000012015000
B1116364958588N01140836EA0113301186000012015000
B1116394958609N01140907EA0114701200000012015000
B1116424958598N01140983EA0115701202000012015000
B1116454958557N01141028EA0116001205000012015000
B1116484958509N01141025EA0116601216000016015000
B1116514958479N01140973EA0117201216000016015000
B1116544958473N01140901EA0117601222000016015000
B1116574958501N01140841EA0118001234000020015000
B1117004958547N01140825EA0119101245000016015000
B1117034958590N01140856EA0120101255000016015000
B1117064958613N01140928EA0121001259000016015000
B1117094958608N01141007EA0121501268000016015000
B1117124958575N01141067EA0122201273000012015000
B1117154958531N01141103EA0122801279000012015000
B1117184958482N01141103EA0123201281000012015000
B1117214958436N01141072EA0123601286000012015000
B1117244958408N01141016EA0124201290000012015000
B1117274958404N01140946EA0124301291000012015000
B1117304958432N01140889EA0124301289000012015000
B1117334958481N01140868EA0124201292000012015000
B1117364958531N01140886EA0124601298000012015000
B1117394958572N01140942EA0125401309000012015000
B1117424958588N01141023EA0126501321000012015000
B1117454958573N01141098EA0127601327000012015000
B1117484958531N01141148EA0127801327000016015000
B1117514958481N01141162EA0128001329000012015000
B1117544958432N01141132EA0128001330000012015000
B1117574958408N01141071EA0128401336000012015000
B1118004958410N01140999EA0128901337000012015000
B1118034958439N01140942EA0129001338000012015000
B1118064958486N01140914EA0129201340000012015000
B1118094958536N01140915EA0129401348000012015000
B1118124958586N01140947EA0130301357000012015000
B1118154958622N01141010EA0131201366000012015000
B1118184958643N01141087EA0131801374000012015000
B1118214958638N01141165EA0132501378000012015000
B1118244958605N01141227EA0132901380000012015000
B1118274958560N01141257EA0133001379000012015000
B1118304958510N01141246EA0132801376000012015000
B1118334958473N01141198EA0132501376000012015000
B1118364958453N01141127EA0132801382000012015000
B1118394958456N01141055EA0133501390000012015000
B1118424958479N01140998EA0134301397000012015000
B1118454958521N01140972EA0134901402000012015000
B1118484958569N01140979EA0135401405000012015000
B1118514958611N01141024EA0135601406000012015000
B1118544958630N01141102EA0136001410000012015000
B1118574958616N01141183EA0136201415000012015000
B1119004958574N01141237EA0136601420000012015000
B1119034958522N01141241EA0136901422000012015000
B1119064958478N01141197EA0137001421000012015000
B1119094958455N01141126EA0137101422000012015000
B1119124958468N01141050EA0137201425000012015000
B1119154958503N01140992EA0137501431000012015000
B1119184958551N01140973EA0138501444000012015000
B1119214958599N01140996EA0139601454000012015000
B1119244958633N01141051EA0140301457000012015000
B1119274958648N01141126EA0140601460000012015000
B1119304958642N01141204EA0141201468000012015000
B1119334958618N01141270EA0141701472000012015000
B1119364958577N01141315EA0141901472000012015000
B1119394958526N01141323EA0141901475000012015000
B1119424958483N01141292EA0142301479000012015000
B1119454958460N01141231EA0142501478000012015000
B1119484958457N01141161EA0142501478000012015000
B1119514958481N01141097EA0142801481000012015000
B1119544958521N01141054EA0143101485000020015000
B1119574958570N01141040EA0143501492000016015000
B1120004958618N01141059EA0143701490000024015000
B1120034958657N01141114EA0143701489000024015000
B1120064958674N01141191EA0143601491000016015000
B1120094958664N01141271EA0143601489000016015000
B1120124958638N01141344EA0143301488000016000000
B1120154958596N01141395EA0143401488000016000000
B1120184958544N01141412EA0143401489000024000000
B1120214958495N01141392EA0143601493000028015000
B1120244958462N01141336EA0143801490000024015000
B1120274958451N01141263EA0143801493000020015000
B1120304958462N01141192EA0144301499000016015000
B1120334958495N01141139EA0144701501000016015000
B1120364958539N01141105EA0144701501000016015000
B1120394958590N01141087EA0144901504000012015000
B1120424958640N01141079EA0145201507000012000000
B1120454958691N01141075EA0145601510000012000000
B1120484958741N01141068EA0145701510000012000000
B1120514958791N01141050EA0145701511000012000000
B1120544958839N01141011EA0145301498000012000000
B1120574958884N01140942EA0143501464000016000000
B1121004958925N01140849EA0140001429000020000000
B1121034958968N01140738EA0136901407000036000000
B1121064959007N01140619EA0135001397000040000000
B1121094959040N01140492EA0134101391000032000000
B1121124959064N01140365EA0133901395000068000000
B1121154959084N01140239EA0134401398000228000000
B1121184959097N01140113EA0134601398000300000000
B1121214959105N01139988EA0134501397000412000000
B1121244959108N01139866EA0134401397000376000000
B1121274959110N01139748EA0134601401000260000000
B1121304959110N01139632EA0135001406000216000000
B1121334959108N01139517EA0135401409000180000000
B1121364959105N01139404EA0135301407000128000000
B1121394959099N01139290EA0135201407000160000000
B1121424959093N01139176EA0135301408000136000000
B1121454959086N01139061EA0135401409000108000000
B1121484959080N01138949EA0135401407000096000000
B1121514959072N01138838EA0135001402000116000000
B1121544959066N01138724EA0134501396000124000000
B1121574959056N01138613EA0134201395000088000000
B1122004959049N01138500EA0134201395000064000000
B1122034959041N01138388EA0133801390000048000000
B1122064959032N01138276EA0133401385000044000000
B1122094959024N01138163EA0132801379000048000000
B1122124959016N01138048EA0132201376000072000000
B1122154959010N01137935EA0132201378000088000000
B1122184959003N01137822EA0132801384000064000000
B1122214958999N01137714EA0133401388000048000000
B1122244958994N01137609EA0133401392000056000000
B1122274958988N01137506EA0133501388000048000000
B1122304958982N01137400EA0132801377000092000000
B1122334958978N01137288EA0131701367000112000000
B1122364958976N01137174EA0130801359000104000000
B1122394958973N01137057EA0130001352000076000000
B1122424958972N01136942EA0129801353000056000000
B1122454958971N01136833EA0130101357000048000000
B1122484958968N01136728EA0130601363000040000000
B1122514958965N01136626EA0131101367000092000000
B1122544958962N01136527EA0131501372000164000000
B1122574958955N01136434EA0132401383000152000000
B1123004958946N01136343EA0133001390000152000000
B1123034958937N01136257EA0133501394000140000000
B1123064958926N01136170EA0133901397000112000000
B1123094958921N01136082EA0134501403000148000000
B1123124958917N01135992EA0135301413000112000000
B1123154958913N01135905EA0136701430000080000000
B1123184958899N01135825EA0138401444000068000000
B1123214958864N01135770EA0139301445000052000000
B1123244958812N01135754EA0139401445000040000000
B1123274958763N01135786EA0139401446000036000000
B1123304958731N01135859EA0139301444000028000000
B1123334958724N01135949EA0139201442000024000000
B1123364958737N01136040EA0138901441000032015000
B1123394958765N01136122EA0139001442000028000000
B1123424958811N01136180EA0139201446000028000000
B1123454958867N01136199EA0139601449000020015000
B1123484958920N01136175EA0139901453000020015000
B1123514958965N01136124EA0140301459000016015000
B1123544958994N01136049EA0141001467000016015000
B1123574959002N01135965EA0142001478000012015000
B1124004958984N01135884EA0142901482000012015000
B1124034958943N01135827EA0142901481000012015000
B1124064958889N01135812EA0143101486000012015000
B1124094958838N01135841EA0143501490000012015000
B1124124958806N01135906EA0143801489000012015000
B1124154958798N01135993EA0143201481000012015000
B1124184958812N01136082EA0142901481000012015000
B1124214958852N01136156EA0143201490000016015000
B1124244958903N01136204EA0144401506000016015000
B1124274958959N01136201EA0145601515000016015000
B1124304959002N01136153EA0146701527000012015000
B1124334959017N01136072EA0147401527000012015000
B1124364959001N01135992EA0147601534000012015000
B1124394958959N01135939EA0148401542000012015000
B1124424958906N01135927EA0149101545000012015000
B1124454958855N01135957EA0149301548000012015000
B1124484958817N01136023EA0149601553000012015000
B1124514958806N01136113EA0149901556000012015000
B1124544958817N01136204EA0150201563000012015000
B1124574958847N01136283EA0150701567000012015000
B1125004958898N01136326EA0151401576000012015000
B1125034958951N01136316EA0152301581000012015000
B1125064958997N01136275EA0152801583000012015000
B1125094959028N01136212EA0153001586000012015000
B1125124959050N01136137EA0152801581000012015000
B1125154959067N01136050EA0152001570000012000000
B1125184959077N01135949EA0150801560000012000000
B1125214959085N01135838EA0150101555000012000000
B1125244959089N01135724EA0149101541000028000000
B1125274959088N01135606EA0147601528000024000000
B1125304959075N01135485EA0146601521000072000000
B1125334959056N01135364EA0145701509000152000000
B1125364959045N01135237EA0144301493000188000000
B1125394959053N01135104EA0143101476000152000000
B1125424959069N01134971EA0141701468000120000000
B1125454959088N01134839EA0141301470000164000000
B1125484959103N01134710EA0141601476000224000000
B1125514959116N01134584EA0142301482000228000000
B1125544959131N01134459EA0142701484000268000000
B1125574959144N01134336EA0142701483000192000000
B1126004959155N01134213EA0143001492000224000000
B1126034959159N01134098EA0144401505000280000000
B1126064959159N01133985EA0144901508000232000000
B1126094959164N01133873EA0145101511000288000000
B1126124959173N01133760EA0145501513000272000000
B1126154959190N01133648EA0145601514000216000000
B1126184959216N01133541EA0145801521000208000000
B1126214959246N01133439EA0146501527000224000000
B1126244959276N01133336EA0146801527000164000000
B1126274959300N01133229EA0147101534000164000000
B1126304959306N01133119EA0147701535000164000000
B1126334959294N01133008EA0147301522000132000000
B1126364959270N01132897EA0145801508000092000000
B1126394959237N01132786EA0144901501000064000000
B1126424959202N01132676EA0144301495000052000000
B1126454959166N01132565EA0143701490000040000000
B1126484959128N01132456EA0143201486000032000000
B1126514959089N01132347EA0142801482000032000000
B1126544959050N01132237EA0142601482000028000000
B1126574959011N01132132EA0142901489000036000000
B1127004958973N01132031EA0143601494000032000000
B1127034958933N01131933EA0143601491000028000000
B1127064958894N01131834EA0143301488000024000000
B1127094958856N01131736EA0142901483000128000000
B1127124958820N01131636EA0142601484000116000000
B1127154958786N01131538EA0142901487000084000000
B1127184958755N01131441EA0143001488000060000000
B1127214958725N01131344EA0142901487000048000000
B1127244958698N01131249EA0143201490000060000000
B1127274958665N01131158EA0143501495000064000000
B1127304958627N01131077EA0144201508000052000000
B1127334958588N01131009EA0145601524000044000000
B1127364958549N01130949EA0147101536000052000000
B1127394958514N01130891EA0148201547000044000000
B1127424958486N01130833EA0149501560000036000000
B1127454958462N01130775EA0150601569000028000000
B1127484958445N01130713EA0151101572000024000000
B1127514958434N01130644EA0151301573000020000000
B1127544958429N01130572EA0151401573000016000000
B1127574958427N01130498EA0151301570000016000000
B1128004958429N01130419EA0150801564000016000000
B1128034958434N01130339EA0150201559000016000000
B1128064958440N01130259EA0150001557000016000000
B1128094958447N01130178EA0150101561000016000000
B1128124958453N01130100EA0150401565000016000000
B1128154958461N01130025EA0150801571000012000000
B1128184958468N01129952EA0151601579000012000000
B1128214958471N01129881EA0152401584000012000000
B1128244958465N01129806EA0152401581000012000000
B1128274958444N01129736EA0152301580000012000000
B1128304958404N01129688EA0152301582000012000000
B1128334958353N01129680EA0152401580000012000000
B1128364958308N01129723EA0152001574000012000000
B1128394958286N01129805EA0151501570000012000000
B1128424958295N01129896EA0151001564000016000000
B1128454958331N01129973EA0150401561000012000000
B1128484958384N01130022EA0150701568000012000000
B1128514958442N01130044EA0151101575000012000000
B1128544958497N01130044EA0152001585000012000000
B1128574958548N01130017EA0152901589000012000000
B1129004958585N01129955EA0153201589000012000000
B1129034958594N01129869EA0153401594000016000000
B1129064958568N01129796EA0154101603000016000000
B1129094958517N01129762EA0154501601000020000000
B1129124958462N01129780EA0154401601000020000000
B1129154958422N01129845EA0154301599000016000000
B1129184958405N01129933EA0154401602000016000000
B1129214958416N01130022EA0154601605000016000000
B1129244958453N01130094EA0154901606000016000000
B1129274958504N01130138EA0155001612000012000000
B1129304958560N01130150EA0155801619000012000000
B1129334958611N01130134EA0156201619000012000000
B1129364958651N01130083EA0156201618000012000000
B1129394958678N01130014EA0156201616000012000000
B1129424958687N01129934EA0156201621000012000000
B1129454958673N01129855EA0157201634000016000000
B1129484958635N01129799EA0157901631000012000000
B1129514958581N01129774EA0157201624000016000000
B1129544958522N01129791EA0157101630000016000000
B1129574958478N01129848EA0157701636000016000000
B1130004958451N01129923EA0157901637000016000000
B1130034958447N01130012EA0157901636000016000000
B1130064958464N01130098EA0157901638000016000000
B1130094958496N01130172EA0158201643000012000000
B1130124958542N01130222EA0158701645000016000000
B1130154958595N01130241EA0158801643000016000000
B1130184958648N01130228EA0158601641000020000000
B1130214958690N01130183EA0158201633000016000000
B1130244958721N01130120EA0157601631000016000000
B1130274958737N01130043EA0157901637000016000000
B1130304958734N01129966EA0157801631000032000000
B1130334958711N01129892EA0156901621000068000000
B1130364958666N01129840EA0156601623000132000000
B1130394958613N01129817EA0156601619000148000000
B1130424958557N01129827EA0156301617000216000000
B1130454958503N01129852EA0156201621000280000000
B1130484958453N01129887EA0156701630000248000000
B1130514958412N01129934EA0157401633000240000000
B1130544958378N01129996EA0157601633000316000000
B1130574958352N01130072EA0157601633000284000000
B1131004958339N01130155EA0157301629000292000000
B1131034958336N01130245EA0156901625000264000000
B1131064958340N01130338EA0156401619000204000000
B1131094958345N01130436EA0155901614000172000000
B1131124958351N01130534EA0155701614000136000000
B1131154958360N01130632EA0155701617000140000000
B1131184958369N01130723EA0156201625000120000000
B1131214958378N01130810EA0156801629000096000000
B1131244958382N01130896EA0156901627000152000000
B1131274958378N01130983EA0156801627000196000000
B1131304958369N01131069EA0156801625000220000000
B1131334958360N01131157EA0156701624000264000000
B1131364958347N01131246EA0156501623000280000000
B1131394958331N01131334EA0156401621000272000000
B1131424958309N01131416EA0156401624000224000000
B1131454958276N01131486EA0156801627000156000000
B1131484958239N01131546EA0156901626000112000000
B1131514958193N01131590EA0156301619000088000000
B1131544958140N01131612EA0155801614000072000000
B1131574958087N01131619EA0155601615000056000000
B1132004958035N01131602EA0155901622000044000000
B1132034957993N01131567EA0156501624000032000000
B1132064957964N01131509EA0156201613000028000000
B1132094957948N01131439EA0155201601000028000000
B1132124957944N01131363EA0154401598000024000000
B1132154957954N01131288EA0154401601000020000000
B1132184957972N01131222EA0154501601000016000000
B1132214957994N01131158EA0154501600000016000000
B1132244958022N01131097EA0154301599000016000000
B1132274958058N01131045EA0154201598000016000000
B1132304958102N01131012EA0154301600000016000000
B1132334958152N01131009EA0154801610000012000000
B1132364958197N01131040EA0155501614000012000000
B1132394958231N01131099EA0155801616000012000000
B1132424958245N01131179EA0155601611000012000000
B1132454958236N01131264EA0155401609000012000000
B1132484958205N01131330EA0155501613000012000000
B1132514958159N01131366EA0155801615000016000000
B1132544958109N01131372EA0155901615000012000000
B1132574958061N01131342EA0155801613000012000000
B1133004958031N01131283EA0155801616000012000000
B1133034958029N01131209EA0155901612000016000000
B1133064958048N01131135EA0155601611000016000000
B1133094958088N01131086EA0155601614000012000000
B1133124958139N01131082EA0156101623000012000000
B1133154958179N01131136EA0156501620000016000000
B1133184958197N01131221EA0156201621000016000000
B1133214958191N01131309EA0156701630000012000000
B1133244958158N01131382EA0157401634000012000000
B1133274958110N01131424EA0157801637000012000000
B1133304958058N01131422EA0158001638000016000000
B1133334958013N01131385EA0158101641000016000000
B1133364957990N01131321EA0158401644000016000000
B1133394957989N01131249EA0158701648000016000000
B1133424958005N01131179EA0158701639000020000000
B1133454958040N01131109EA0157201619000020000000
B1133484958088N01131041EA0155401604000096000000
B1133514958148N01130983EA0154201595000236000000
B1133544958214N01130935EA0153701596000240000000
B1133574958279N01130892EA0153701596000168000000
B1134004958344N01130849EA0153901599000124000000
B1134034958409N01130807EA0154201599000116000000
B1134064958473N01130765EA0153801594000080000000
B1134094958536N01130719EA0153201587000060000000
B1134124958600N01130670EA0152501583000088000000
B1134154958664N01130620EA0152501586000080000000
B1134184958726N01130572EA0152901591000060000000
B1134214958785N01130524EA0153501596000044000000
B1134244958843N01130476EA0154101604000072000000
B1134274958899N01130429EA0154601608000064000000
B1134304958951N01130380EA0154801605000052000000
B1134334959003N01130328EA0154301600000096000000
B1134364959053N01130276EA0154101598000136000000
B1134394959101N01130222EA0153901597000152000000
B1134424959146N01130160EA0153801598000144000000
B1134454959185N01130089EA0154601612000140000000
B1134484959219N01130017EA0156501633000100000000
B1134514959248N01129951EA0158401650000072000000
B1134544959271N01129882EA0159501657000060000000
B1134574959285N01129805EA0159801661000044000000
B1135004959293N01129722EA0160201662000032000000
B1135034959297N01129636EA0160101659000028000000
B1135064959302N01129548EA0159501649000024000000
B1135094959309N01129458EA0158701642000024000000
B1135124959315N01129370EA0157901637000024000000
B1135154959326N01129285EA0157601636000024000000
B1135184959341N01129205EA0157701639000024000000
B1135214959362N01129130EA0158301647000028000000
B1135244959392N01129071EA0159201655000020000000
B1135274959430N01129025EA0159901661000024000000
B1135304959478N01129004EA0160001658000020000000
B1135334959528N01129008EA0159701655000016000000
B1135364959580N01129029EA0159401650000016000000
B1135394959636N01129050EA0158501641000088000000
B1135424959695N01129072EA0157101623000172000000
B1135454959762N01129094EA0154401594000196000000
B1135484959836N01129120EA0151501564000160000000
B1135514959918N01129155EA0149201544000172000000
B1135545000003N01129197EA0148101530000140000000
B1135575000089N01129240EA0146801521000112000000
B1136005000176N01129283EA0146101515000124000000
B1136035000263N01129325EA0146001520000160000000
B1136065000347N01129367EA0146701528000224000000
B1136095000429N01129409EA0147201534000328000000
B1136125000511N01129449EA0147601534000372000000
B1136155000592N01129488EA0147401531000260000000
B1136185000672N01129527EA0147201529000204000000
B1136215000744N01129561EA0148701561000144000000
B1136245000798N01129592EA0151901585000124000000
B1136275000849N01129621EA0153101584000160000000
B1136305000899N01129649EA0152701578000200000000
B1136335000951N01129680EA0151901571000224000000
B1136365001004N01129712EA0151301565000236000000
B1136395001057N01129741EA0151001561000240000000
B1136425001112N01129774EA0150501557000232000000
B1136455001165N01129805EA0150301557000264000000
B1136485001218N01129835EA0150301557000272000000
B1136515001269N01129865EA0150001552000268000000
B1136545001322N01129895EA0149601546000268000000
B1136575001376N01129925EA0148701537000268000000
B1137005001432N01129955EA0148101534000284000000
B1137035001487N01129985EA0148201536000232000000
B1137065001542N01130012EA0148501539000264000000
B1137095001595N01130038EA0148601539000284000000
B1137125001649N01130061EA0148401538000292000000
B1137155001703N01130087EA0148301536000296000000
B1137185001758N01130111EA0148201532000300000000
B1137215001815N01130130EA0147501527000280000000
B1137245001875N01130148EA0147001520000212000000
B1137275001937N01130163EA0146301511000256000000
B1137305002001N01130177EA0145501504000200000000
B1137335002067N01130187EA0144801499000160000000
B1137365002134N01130193EA0144301494000172000000
B1137395002201N01130196EA0143401484000144000000
B1137425002270N01130199EA0142701477000104000000
B1137455002340N01130200EA0142301473000100000000
B1137485002410N01130200EA0142101473000088000000
B1137515002478N01130195EA0142001474000088000000
B1137545002544N01130189EA0142501482000068000000
B1137575002604N01130186EA0143601498000052000000
B1138005002659N01130182EA0144801503000044000000
B1138035002711N01130154EA0144801496000032000000
B1138065002750N01130089EA0143601480000028000000
B1138095002765N01129999EA0141901459000068000000
B1138125002755N01129901EA0140001445000132000000
B1138155002719N01129819EA0138801437000184000000
B1138185002657N01129788EA0138201430000152000000
B1138215002590N01129797EA0137401419000148000000
B1138245002524N01129835EA0136601408000116015000
B1138275002457N01129886EA0135501401000080000000
B1138305002396N01129947EA0135101404000064000000
B1138335002339N01130011EA0135601412000048000000
B1138365002284N01130072EA0136201415000036000000
B1138395002234N01130133EA0136401416000032000000
B1138425002182N01130195EA0136101409000028000000
B1138455002130N01130261EA0135001397000100000000
B1138485002075N01130329EA0133901386000112000000
B1138515002018N01130397EA0133301383000136000000
B1138545001962N01130467EA0133001380000104000000
B1138575001907N01130537EA0133001381000084000000
B1139005001853N01130603EA0133101381000060000000
B1139035001801N01130672EA0132901377000048000000
B1139065001746N01130740EA0132401371000076000000
B1139095001693N01130807EA0131901368000056000000
B1139125001638N01130872EA0131601367000044000000
B1139155001585N01130937EA0131501366000032000000
B1139185001533N01131000EA0131601368000052000000
B1139215001481N01131061EA0131701370000048000000
B1139245001432N01131119EA0131901371000092000000
B1139275001383N01131178EA0131801368000068000000
B1139305001334N01131235EA0131201360000144000000
B1139335001285N01131295EA0130601351000172000000
B1139365001233N01131353EA0129801347000228000000
B1139395001183N01131412EA0129801353000272000000
B1139425001136N01131469EA0130601362000232000000
B1139455001092N01131520EA0131401366000224000000
B1139485001047N01131565EA0131501364000252000000
B1139515001001N01131610EA0131001359000260000000
B1139545000956N01131660EA0130801360000264000000
B1139575000913N01131717EA0131301367000380000000
B1140005000873N01131782EA0131701368000432000000
B1140035000836N01131854EA0131401364000340000000
B1140065000800N01131931EA0131101357000324000000
B1140095000762N01132011EA0130301347000264000000
B1140125000724N01132096EA0129101336000268000000
B1140155000689N01132184EA0128501334000280000000
B1140185000653N01132274EA0128301332000200000000
B1140215000614N01132357EA0128101330000136000000
B1140245000567N01132430EA0127901330000144000000
B1140275000514N01132484EA0128301335000116000000
B1140305000455N01132526EA0128901342000140000000
B1140335000395N01132562EA0129601351000208000000
B1140365000334N01132595EA0130401357000304000000
B1140395000272N01132630EA0130601357000268000000
B1140425000211N01132670EA0130501352000188000000
B1140455000147N01132712EA0129701343000148000000
B1140485000078N01132733EA0128801338000104000000
B1140515000008N01132725EA0128601341000076000000
B1140544959943N01132696EA0129201350000064000000
B1140574959882N01132656EA0129701354000052000000
B1141004959825N01132611EA0131001371000040000000
B1141034959774N01132564EA0133201391000032000000
B1141064959731N01132512EA0134701405000028000000
B1141094959705N01132445EA0135501413000024000000
B1141124959701N01132369EA0136001413000024000000
B1141154959714N01132292EA0135901411000020000000
B1141184959749N01132231EA0136101416000024000000
B1141214959799N01132210EA0136301419000024000000
B1141244959847N01132232EA0136601418000020000000
B1141274959886N01132288EA0136401414000020000000
B1141304959909N01132366EA0136001410000016000000
B1141334959920N01132453EA0135501406000016000000
B1141364959916N01132546EA0135401408000016000000
B1141394959899N01132634EA0135701411000012000000
B1141424959868N01132709EA0136801430000012000000
B1141454959827N01132763EA0138601446000012000000
B1141484959778N01132780EA0139701450000012000000
B1141514959729N01132760EA0139701445000012000000
B1141544959687N01132708EA0138901437000012000000
B1141574959652N01132643EA0138601437000012000000
B1142004959630N01132566EA0138901445000012000000
B1142034959634N01132488EA0139401447000012000000
B1142064959657N01132423EA0139701453000012000000
B1142094959700N01132387EA0139901450000012000000
B1142124959751N01132388EA0140001453000012000000
B1142154959794N01132438EA0140201458000012000000
B1142184959818N01132514EA0140801462000012000000
B1142214959820N01132603EA0141201468000016000000
B1142244959799N01132682EA0142101480000020000000
B1142274959752N01132729EA0142801481000020000000
B1142304959697N01132734EA0143101485000016000000
B1142334959648N01132694EA0143401487000016000000
B1142364959618N01132625EA0143801495000012000000
B1142394959617N01132546EA0144001495000012000000
B1142424959640N01132477EA0144001494000012000000
B1142454959684N01132435EA0143901492000012000000
B1142484959738N01132436EA0143801494000012000000
B1142514959786N01132479EA0143901496000012000000
B1142544959821N01132549EA0144301501000012000000
B1142574959842N01132635EA0144701504000012015000
B1143004959838N01132726EA0145201510000016000000
B1143034959801N01132794EA0146501530000012000000
B1143064959751N01132816EA0147701537000012000000
B1143094959701N01132785EA0148201536000012000000
B1143124959677N01132713EA0148101538000012000000
B1143154959693N01132646EA0148501543000012000000
B1143184959735N01132611EA0148501534000012000000
B1143214959790N01132613EA0147701531000012000000
B1143244959839N01132651EA0147701537000012000000
B1143274959875N01132718EA0148301540000012015000
B1143304959886N01132806EA0148601542000012015000
B1143334959868N01132887EA0149301559000012015000
B1143364959827N01132941EA0150601567000012000000
B1143394959777N01132962EA0151001568000012000000
B1143424959723N01132943EA0151001566000012000000
B1143454959680N01132891EA0150701563000012000000
B1143484959658N01132812EA0150801565000012000000
B1143514959656N01132729EA0151101570000012000000
B1143544959675N01132657EA0151401572000012000000
B1143574959716N01132613EA0151601575000012000000
B1144004959765N01132604EA0152101579000012000000
B1144034959813N01132633EA0152301583000012000000
B1144064959851N01132690EA0152701589000012000000
B1144094959877N01132764EA0153101587000012015000
B1144124959886N01132851EA0152801583000012015000
B1144154959875N01132942EA0152801593000012000000
B1144184959848N01133017EA0153801605000024000000
B1144214959808N01133079EA0154901610000024000000
B1144244959758N01133116EA0155201610000024000000
B1144274959704N01133129EA0154901603000020000000
B1144304959647N01133125EA0154101597000020000000
B1144334959593N01133097EA0153501591000020000000
B1144364959548N01133043EA0153001588000024000000
B1144394959518N01132972EA0153001589000028000000
B1144424959506N01132891EA0153001591000024000000
B1144454959513N01132815EA0153301594000020000000
B1144484959536N01132747EA0153501594000020000000
B1144514959570N01132692EA0153701597000016000000
B1144544959615N01132660EA0153701593000016000000
B1144574959667N01132650EA0153401589000024000000
B1145004959721N01132670EA0153101589000024000000
B1145034959769N01132716EA0153301594000028000000
B1145064959804N01132785EA0153801599000024000000
B1145094959829N01132865EA0154301605000024000000
B1145124959838N01132951EA0155101613000020000000
B1145154959830N01133036EA0155801619000020000000
B1145184959810N01133114EA0156501625000016000000
B1145214959771N01133175EA0156801628000016000000
B1145244959723N01133214EA0157001628000016000000
B1145274959670N01133227EA0156901622000016000000
B1145304959615N01133214EA0156101613000024000000
B1145334959566N01133168EA0155201607000024000000
B1145364959531N01133102EA0155101611000020000000
B1145394959511N01133028EA0155501616000016000000
B1145424959509N01132951EA0155801617000016000000
B1145454959527N01132881EA0155701615000016000000
B1145484959563N01132828EA0155201611000016000000
B1145514959612N01132796EA0154401610000020000000
B1145544959662N01132778EA0154401611000020000000
B1145574959717N01132783EA0154401610000020000000
B1146004959769N01132811EA0154501612000020000000
B1146034959813N01132865EA0154801616000020000000
B1146064959847N01132936EA0155301622000024000000
B1146094959869N01133014EA0155901628000024000000
B1146124959879N01133095EA0156501632000024000000
B1146154959877N01133180EA0156801635000024000000
B1146184959856N01133259EA0156801632000024000000
B1146214959817N01133327EA0156501630000024000000
B1146244959773N01133384EA0156601630000088000000
B1146274959726N01133432EA0156801625000144000000
B1146304959678N01133480EA0156301618000188000000
B1146334959630N01133532EA0155501610000208000000
B1146364959579N01133583EA0154601601000228000000
B1146394959528N01133636EA0153901596000256000000
B1146424959478N01133692EA0153901597000208000000
B1146454959430N01133749EA0153901593000160000000
B1146484959381N01133810EA0153501589000176000000
B1146514959339N01133879EA0153301589000124000000
B1146544959305N01133955EA0153401594000100000000
B1146574959279N01134030EA0154201602000136000000
B1147004959251N01134103EA0154201597000164000000
B1147034959220N01134177EA0153501590000200000000
B1147064959177N01134245EA0153101587000156000000
B1147094959127N01134297EA0153101590000144000000
B1147124959073N01134334EA0153701598000104000000
B1147154959021N01134358EA0154401603000080000000
B1147184958968N01134363EA0154701607000064000000
B1147214958916N01134349EA0155101610000048000000
B1147244958871N01134314EA0155501613000040000000
B1147274958835N01134256EA0156001620000028000000
B1147304958820N01134185EA0156501622000020000000
B1147334958830N01134109EA0156401616000020000000
B1147364958864N01134050EA0155801612000016000000
B1147394958911N01134021EA0155501611000016000000
B1147424958962N01134022EA0155201607000016000000
B1147454959012N01134054EA0154801602000016000000
B1147484959055N01134108EA0154201596000012000000
B1147514959092N01134177EA0154001597000012000000
B1147544959116N01134255EA0154501610000012000000
B1147574959133N01134333EA0155801616000012000000
B1148004959133N01134416EA0156001616000012000000
B1148034959112N01134489EA0156301621000012000000
B1148064959077N01134546EA0156601621000012000000
B1148094959038N01134596EA0156601622000012000000
B1148124958993N01134623EA0156901626000012000000
B1148154958945N01134622EA0157201630000012000000
B1148184958902N01134597EA0157201629000012000000
B1148214958865N01134549EA0157101625000012000000
B1148244958838N01134488EA0156701623000012000000
B1148274958822N01134416EA0156501619000012000000
B1148304958828N01134341EA0156401619000012000000
B1148334958850N01134272EA0156501623000012000000
B1148364958885N01134217EA0156901627000012000000
B1148394958925N01134172EA0156901622000012000000
B1148424958969N01134129EA0156301616000012000000
B1148454959017N01134091EA0155801615000092000000
B1148484959064N01134051EA0155701614000148000000
B1148514959112N01134008EA0155401611000204000000
B1148544959158N01133961EA0155301612000168000000
B1148574959203N01133913EA0155001605000192000000
B1149004959249N01133862EA0154001594000192000000
B1149034959297N01133812EA0153301591000220000000
B1149064959342N01133758EA0153301590000240000000
B1149094959387N01133703EA0153101589000192000000
B1149124959430N01133648EA0153101590000180000000
B1149154959471N01133595EA0153201591000220000000
B1149184959511N01133544EA0153301595000244000000
B1149214959548N01133496EA0153601597000204000000
B1149244959583N01133444EA0153601593000140000000
B1149274959615N01133389EA0153401591000112000000
B1149304959648N01133333EA0153301592000076000000
B1149334959679N01133280EA0153401596000056000000
B1149364959712N01133227EA0153501595000044000000
B1149394959743N01133172EA0153301591000036000000
B1149424959775N01133116EA0153301589000028000000
B1149454959807N01133058EA0153201590000024000000
B1149484959838N01132998EA0153301591000020000000
B1149514959869N01132937EA0153401594000020000000
B1149544959898N01132872EA0153601599000016000000
B1149574959924N01132804EA0154101601000012000000
B1150004959948N01132734EA0154201602000012000000
B1150034959973N01132663EA0154201600000012000000
B1150064959994N01132590EA0154001599000012000000
B1150095000013N01132513EA0153701595000036000000
B1150125000029N01132434EA0153101587000120000000
B1150155000044N01132349EA0152001575000188000000
B1150185000060N01132257EA0151101561000224000000
B1150215000076N01132159EA0149801550000180000000
B1150245000090N01132058EA0149001546000124000000
B1150275000103N01131957EA0148701546000088000000
B1150305000107N01131855EA0148601542000072000000
B1150335000096N01131754EA0148201538000052000000
B1150365000077N01131654EA0147901534000040000000
B1150395000054N01131558EA0147401530000032000000
B1150425000026N01131464EA0147001526000028000000
B1150454959995N01131372EA0146601521000024000000
B1150484959963N01131282EA0146501521000020000000
B1150514959927N01131195EA0146401520000032000000
B1150544959892N01131110EA0146401518000028000000
B1150574959855N01131028EA0146001514000024000000
B1151004959816N01130947EA0145601511000020000000
B1151034959775N01130867EA0145501511000016000000
B1151064959735N01130791EA0145801515000016000000
B1151094959695N01130716EA0146201519000016000000
B1151124959653N01130646EA0146501520000012000000
B1151154959608N01130581EA0146501519000032000000
B1151184959563N01130516EA0146701522000024000000
B1151214959519N01130454EA0147101529000024000000
B1151244959479N01130389EA0147101521000024000000
B1151274959437N01130316EA0146201511000020000000
B1151304959393N01130239EA0145301503000016000000
B1151334959346N01130160EA0144701502000020000000
B1151364959303N01130077EA0144901505000016000000
B1151394959270N01129992EA0146301532000016000000
B1151424959251N01129916EA0148801553000016000000
B1151454959244N01129843EA0150401565000020000000
B1151484959248N01129773EA0151001565000020000000
B1151514959264N01129701EA0150901562000020000000
B1151544959301N01129645EA0151201572000016000000
B1151574959349N01129628EA0152001578000016000000
B1152004959398N01129650EA0152001570000016000000
B1152034959441N01129710EA0151401567000016000000
B1152064959463N01129797EA0151401571000012000000
B1152094959459N01129890EA0151901578000012000000
B1152124959431N01129968EA0152801589000012000000
B1152154959389N01130018EA0153901599000012000000
B1152184959341N01130047EA0154401601000012000000
B1152214959287N01130043EA0154401599000012000000
B1152244959237N01130009EA0154401602000012000000
B1152274959199N01129951EA0154601604000012000000
B1152304959173N01129878EA0154901608000012000000
B1152334959167N01129797EA0155201609000012000000
B1152364959177N01129714EA0155001605000012000000
B1152394959206N01129639EA0155001610000012000000
B1152424959249N01129587EA0156001622000012000000
B1152454959298N01129566EA0157201634000012000000
B1152484959349N01129582EA0157801636000012000000
B1152514959396N01129623EA0157901637000012000000
B1152544959433N01129683EA0158201642000012000000
B1152574959458N01129758EA0158701647000012000000
B1153004959467N01129844EA0158901645000012000000
B1153034959467N01129935EA0158601641000012000000
B1153064959458N01130026EA0158201640000012000000
B1153094959443N01130115EA0158601646000012000000
B1153124959418N01130194EA0159201654000012000000
B1153154959385N01130261EA0159901658000012000000
B1153184959342N01130310EA0160201661000012000000
B1153214959293N01130324EA0160201656000012000000
B1153244959242N01130307EA0159701650000012000000
B1153274959201N01130260EA0159001644000012000000
B1153304959175N01130190EA0158501641000012000000
B1153334959167N01130111EA0158001637000012000000
B1153364959172N01130027EA0158001638000012000000
B1153394959189N01129948EA0158101639000012000000
B1153424959212N01129875EA0158101638000012000000
B1153454959244N01129808EA0157901637000012000000
B1153484959277N01129744EA0158101640000012000000
B1153514959313N01129683EA0158401644000012000000
B1153544959346N01129622EA0158701647000012000000
B1153574959381N01129559EA0158801646000012000000
B1154004959417N01129496EA0159001649000012000000
B1154034959453N01129432EA0159401657000012000000
B1154064959487N01129364EA0160501670000012000000
B1154094959514N01129297EA0161601676000012000000
B1154124959539N01129228EA0161601671000012000000
B1154154959569N01129159EA0161201667000012000000
B1154184959600N01129091EA0161101671000012000000
B1154214959631N01129024EA0161401672000012000000
B1154244959662N01128954EA0161301670000012000000
B1154274959697N01128882EA0160901666000012000000
B1154304959732N01128808EA0160601662000012000000
B1154334959768N01128734EA0160101658000012000000
B1154364959801N01128659EA0159801657000012000000
B1154394959834N01128586EA0160101660000012000000
B1154424959866N01128516EA0160301661000012000000
B1154454959896N01128445EA0159901656000012000000
B1154484959926N01128374EA0159301650000012000000
B1154514959955N01128300EA0159001646000012000000
B1154544959983N01128226EA0158601643000012000000
B1154575000009N01128153EA0158301637000012000000
B1155005000037N01128081EA0157801635000012000000
B1155035000061N01128010EA0157901638000012000000
B1155065000083N01127938EA0158301642000012000000
B1155095000103N01127867EA0158601645000016000000
B1155125000124N01127798EA0158801648000016000000
B1155155000146N01127730EA0159301654000012000000
B1155185000174N01127671EA0159901660000012000000
B1155215000206N01127613EA0161201676000012000000
B1155245000237N01127563EA0161901678000012000000
B1155275000278N01127520EA0161801676000012000000
B1155305000328N01127496EA0161601675000012000000
B1155335000381N01127491EA0161601675000012000000
B1155365000437N01127486EA0161701677000012000000
B1155395000494N01127482EA0162101683000012000000
B1155425000550N01127486EA0162701687000012000000
B1155455000603N01127512EA0163301698000012000000
B1155485000644N01127563EA0164301703000012000000
B1155515000663N01127641EA0164201697000012000000
B1155545000657N01127729EA0163701693000012000000
B1155575000624N01127806EA0163501694000012000000
B1156005000574N01127859EA0163801701000012000000
B1156035000518N01127890EA0164801713000016000000
B1156065000462N01127911EA0165401713000016000000
B1156095000405N01127920EA0165001709000016000000
B1156125000349N01127927EA0164601705000016000000
B1156155000293N01127928EA0164601708000016000000
B1156185000238N01127923EA0165001712000016000000
B1156215000187N01127902EA0165601716000012000000
B1156245000143N01127858EA0165801718000012000000
B1156275000116N01127789EA0166201727000012000000
B1156305000112N01127715EA0167101735000012000000
B1156335000133N01127651EA0167901741000012000000
B1156365000169N01127604EA0168101739000012000000
B1156395000219N01127581EA0167601733000012000000
B1156425000275N01127582EA0167401733000012000000
B1156455000332N01127616EA0167401735000012000000
B1156485000380N01127676EA0167601739000012000000
B1156515000410N01127758EA0167901743000012000000
B1156545000419N01127849EA0168501752000012000000
B1156575000410N01127938EA0169601764000012000000
B1157005000384N01128015EA0170001758000012000000
B1157035000341N01128076EA0169301748000016000000
B1157065000288N01128110EA0168601744000016000000
B1157095000232N01128111EA0168301744000012000000
B1157125000178N01128089EA0168501748000012000000
B1157155000133N01128048EA0168901748000012000000
B1157185000103N01127980EA0168701748000012000000
B1157215000094N01127903EA0168901753000012000000
B1157245000104N01127829EA0169201757000012000000
B1157275000128N01127762EA0169401759000012000000
B1157305000163N01127706EA0169701763000012000000
B1157335000204N01127667EA0170301771000012000000
B1157365000251N01127641EA0170901774000012000000
B1157395000302N01127628EA0171001774000012000000
B1157425000356N01127629EA0171301777000012000000
B1157455000410N01127658EA0171401776000012000000
B1157485000458N01127712EA0171401777000012000000
B1157515000490N01127788EA0171301772000012000000
B1157545000503N01127879EA0170501764000012000000
B1157575000493N01127971EA0170101765000012000000
B1158005000466N01128051EA0170401771000028000000
B1158035000428N01128116EA0170801768000028000000
B1158065000381N01128165EA0170201756000024000000
B1158095000329N01128202EA0169401750000020000000
B1158125000275N01128226EA0168901748000020000000
B1158155000221N01128228EA0169101752000016000000
B1158185000171N01128214EA0169501758000016000000
B1158215000128N01128172EA0169701755000012000000
B1158245000096N01128106EA0169301751000024000000
B1158275000083N01128023EA0169001751000028000000
B1158305000087N01127940EA0169401758000024000000
B1158335000111N01127868EA0169601758000024000000
B1158365000146N01127808EA0169701757000016000000
B1158395000190N01127763EA0169501759000016000000
B1158425000242N01127739EA0169801763000016000000
B1158455000294N01127720EA0170001764000020000000
B1158485000349N01127695EA0169801758000016000000
B1158515000405N01127656EA0168801744000052000000
B1158545000460N01127602EA0167401730000052000000
B1158575000518N01127537EA0165801712000044000000
B1159005000575N01127465EA0164201699000100000000
B1159035000633N01127391EA0163101692000096000000
B1159065000691N01127316EA0163201696000072000000
B1159095000745N01127239EA0163601699000052000000
B1159125000797N01127162EA0163701700000064000000
B1159155000849N01127087EA0163701700000052000000
B1159185000899N01127013EA0163901703000040000000
B1159215000945N01126940EA0164001702000032000000
B1159245000992N01126865EA0163701697000024000000
B1159275001040N01126790EA0163101691000020000000
B1159305001087N01126712EA0162601686000020000000
B1159335001134N01126633EA0162301684000016000000
B1159365001182N01126555EA0161901680000016000000
B1159395001231N01126478EA0161601678000012000000
B1159425001281N01126402EA0161401676000012000000
B1159455001330N01126328EA0161401676000012000000
B1159485001378N01126255EA0161401677000012000000
B1159515001425N01126183EA0161401676000012000000
B1159545001473N01126112EA0161301674000020000000
B1159575001520N01126042EA0161101673000016000000
B1200005001567N01125971EA0160901670000016000000
B1200035001612N01125901EA0160401663000016000000
B1200065001658N01125827EA0159501653000068000000
B1200095001702N01125749EA0158501643000132000000
B1200125001749N01125671EA0157701635000108000000
B1200155001794N01125592EA0157101630000092000000
B1200185001842N01125513EA0156701627000112000000
B1200215001890N01125435EA0156501625000096000000
B1200245001939N01125355EA0156201619000080000000
B1200275001987N01125276EA0155501613000064000000
B1200305002036N01125197EA0154801607000072000000
B1200335002084N01125116EA0154501603000056000000
B1200365002132N01125037EA0153901597000048000000
B1200395002180N01124956EA0153601594000036000000
B1200425002227N01124876EA0153301593000028000000
B1200455002273N01124794EA0153101591000024000000
B1200485002318N01124712EA0152901588000020000000
B1200515002362N01124629EA0152601585000016000000
B1200545002408N01124547EA0152301580000016000000
B1200575002455N01124466EA0151701577000016000000
B1201005002500N01124385EA0151601576000016000000
B1201035002546N01124309EA0151501574000020000000
B1201065002591N01124232EA0151101569000016000000
B1201095002637N01124155EA0150701565000016000000
B1201125002682N01124079EA0150301563000016000000
B1201155002728N01124001EA0150101561000012000000
B1201185002774N01123927EA0149701553000044000000
B1201215002821N01123849EA0148801544000072000000
B1201245002867N01123768EA0148101537000120000000
B1201275002914N01123689EA0148001543000108000000
B1201305002960N01123611EA0148601548000084000000
B1201335003006N01123534EA0148901550000088000000
B1201365003050N01123455EA0148901550000156000000
B1201395003093N01123377EA0148701548000136000000
B1201425003132N01123297EA0148501543000188000000
B1201455003175N01123219EA0148001537000180000000
B1201485003216N01123139EA0147701534000148000000
B1201515003261N01123061EA0147101528000104000000
B1201545003306N01122983EA0146601522000096000000
B1201575003353N01122905EA0146301520000080000000
B1202005003400N01122828EA0146001518000060000000
B1202035003447N01122751EA0145701516000044000000
B1202065003495N01122672EA0145501510000036000000
B1202095003544N01122594EA0144901504000036000000
B1202125003593N01122516EA0144601507000032000000
B1202155003644N01122442EA0144801507000028000000
B1202185003692N01122367EA0144701506000056000000
B1202215003739N01122291EA0144801506000044000000
B1202245003785N01122216EA0145201512000036000000
B1202275003830N01122144EA0145201510000032000000
B1202305003873N01122071EA0145001505000028000000
B1202335003917N01121993EA0144501500000024000000
B1202365003961N01121915EA0144201496000020000000
B1202395004007N01121835EA0143501491000016000000
B1202425004054N01121756EA0143301489000016000000
B1202455004100N01121676EA0143101487000016000000
B1202485004146N01121600EA0142901485000016000000
B1202515004191N01121522EA0142601482000012000000
B1202545004236N01121445EA0142201477000012000000
B1202575004281N01121367EA0141801470000068000000
B1203005004329N01121290EA0141101462000064000000
B1203035004379N01121213EA0140301456000048000000
B1203065004429N01121137EA0139701447000032000000
B1203095004481N01121060EA0138901440000028000000
B1203125004533N01120985EA0138301435000024000000
B1203155004587N01120911EA0137901433000024000000
B1203185004641N01120838EA0137701431000020000000
B1203215004695N01120765EA0137501431000016000000
B1203245004749N01120692EA0137501432000100000000
B1203275004805N01120622EA0137601431000120000000
B1203305004865N01120557EA0137701431000100000000
B1203335004925N01120497EA0137501429000076000000
B1203365004986N01120441EA0137301428000052000000
B1203395005047N01120387EA0137301430000044000000
B1203425005105N01120331EA0137701437000032000000
B1203455005163N01120277EA0138601446000028000000
B1203485005216N01120225EA0139401454000024000000
B1203515005263N01120172EA0140601472000020000000
B1203545005303N01120118EA0142301486000020000000
B1203575005341N01120066EA0143301491000016000000
B1204005005378N01120015EA0144001497000016000000
B1204035005424N01119980EA0144401500000012000000
B1204065005476N01119985EA0144701505000016000000
B1204095005520N01120038EA0144801492000016000000
B1204125005541N01120127EA0143501481000020000000
B1204155005534N01120225EA0142601477000024000000
B1204185005507N01120315EA0142701483000020000000
B1204215005468N01120392EA0143001484000016000000
B1204245005419N01120445EA0143201488000016000000
B1204275005363N01120462EA0143401482000016000000
B1204305005304N01120449EA0142701473000016000000
B1204335005243N01120423EA0141501461000016000000
B1204365005181N01120388EA0140301453000016000000
B1204395005118N01120348EA0140201456000016000000
B1204425005059N01120303EA0141401472000016000000
B1204455005005N01120259EA0143001490000012000000
B1204485004955N01120220EA0143901498000012000000
B1204515004904N01120186EA0144701506000016000000
B1204545004853N01120154EA0145701514000016000000
B1204575004805N01120111EA0146401522000012000000
B1205005004766N01120051EA0147401535000012000000
B1205035004754N01119972EA0148601546000012000000
B1205065004776N01119899EA0149401551000012000000
B1205095004825N01119867EA0149501549000016000000
B1205125004877N01119886EA0149501551000016000000
B1205155004913N01119947EA0149901555000016000000
B1205185004932N01120027EA0150401561000012000000
B1205215004931N01120112EA0151201571000012000000
B1205245004909N01120190EA0152101579000012000000
B1205275004871N01120250EA0152901589000012000000
B1205305004823N01120272EA0153701601000012000000
B1205335004775N01120257EA0154801610000012000000
B1205365004737N01120205EA0155501616000012000000
B1205395004721N01120132EA0156401627000016000000
B1205425004731N01120058EA0157501639000020000000
B1205455004766N01120008EA0158501645000028000000
B1205485004814N01119995EA0158901648000028000000
B1205515004862N01120025EA0159201652000032000000
B1205545004893N01120089EA0159901663000028000000
B1205575004900N01120166EA0161001670000024000000
B1206005004890N01120245EA0161201670000020000000
B1206035004869N01120326EA0160701663000056000000
B1206065004849N01120415EA0160101652000064000000
B1206095004828N01120517EA0159001640000048000000
B1206125004805N01120623EA0157801628000044000000
B1206155004783N01120738EA0156501616000036000000
B1206185004763N01120856EA0155301606000028000000
B1206215004745N01120978EA0154401599000024000000
B1206245004728N01121102EA0154001598000020000000
B1206275004711N01121225EA0153801593000020000000
B1206305004692N01121350EA0153001586000016000000
B1206335004672N01121477EA0152201576000028000000
B1206365004652N01121605EA0151401570000036000000
B1206395004631N01121732EA0151201570000064000000
B1206425004609N01121856EA0151401573000056000000
B1206455004585N01121974EA0151501576000048000000
B1206485004561N01122090EA0151701577000048000000
B1206515004535N01122203EA0151901577000048000000
B1206545004506N01122311EA0152001582000048000000
B1206575004475N01122417EA0152301582000048000000
B1207005004442N01122523EA0152201581000040000000
B1207035004407N01122627EA0152001578000032000000
B1207065004371N01122733EA0151501571000028000000
B1207095004333N01122840EA0150901566000024000000
B1207125004295N01122948EA0150301559000020000000
B1207155004259N01123057EA0149501550000016000000
B1207185004223N01123170EA0149001543000016000000
B1207215004186N01123282EA0148601541000016000000
B1207245004151N01123394EA0148601544000016000000
B1207275004120N01123501EA0148801547000016000000
B1207305004089N01123608EA0149201550000016000000
B1207335004059N01123713EA0149201548000016000000
B1207365004030N01123821EA0149001544000044000000
B1207395003999N01123930EA0148601540000072000000
B1207425003969N01124041EA0148301538000052000000
B1207455003938N01124150EA0148001536000044000000
B1207485003905N01124259EA0147801534000032000000
B1207515003873N01124369EA0147601529000028000000
B1207545003839N01124479EA0146901521000024000000
B1207575003801N01124590EA0146201514000020000000
B1208005003764N01124701EA0145601509000020000000
B1208035003725N01124812EA0145101506000072000000
B1208065003683N01124920EA0145001504000056000000
B1208095003643N01125026EA0144601500000048000000
B1208125003603N01125133EA0144101494000040000000
B1208155003564N01125240EA0143501488000036000000
B1208185003525N01125345EA0143001483000028000000
B1208215003484N01125450EA0142901483000024000000
B1208245003447N01125553EA0142901483000024000000
B1208275003409N01125653EA0143001488000028000000
B1208305003372N01125748EA0144001503000028000000
B1208335003341N01125838EA0145301513000024000000
B1208365003311N01125922EA0146001521000024000000
B1208395003284N01126001EA0146601522000020000000
B1208425003252N01126078EA0146401516000016000000
B1208455003209N01126148EA0146201517000016000000
B1208485003159N01126209EA0146801526000016000000
B1208515003106N01126247EA0148001541000016000000
B1208545003050N01126260EA0148801538000016000000
B1208575002990N01126268EA0147301512000080000000
B1209005002923N01126273EA0144401481000136000000
B1209035002845N01126280EA0141801460000112000000
B1209065002763N01126289EA0140201447000088000000
B1209095002680N01126300EA0139401442000064000000
B1209125002598N01126313EA0139201441000052000000
B1209155002517N01126330EA0139101440000044000000
B1209185002436N01126351EA0138701434000032000000
B1209215002355N01126372EA0138101427000028000000
B1209245002273N01126391EA0137301418000024000000
B1209275002189N01126415EA0136401411000024000000
B1209305002106N01126439EA0135601403000024000000
B1209335002023N01126464EA0135401403000024000000
B1209365001941N01126493EA0135201404000024000000
B1209395001858N01126523EA0135101402000024000000
B1209425001776N01126554EA0134801396000024000000
B1209455001695N01126589EA0134101390000024000000
B1209485001612N01126628EA0134001392000092000000
B1209515001532N01126668EA0134201394000220000000
B1209545001452N01126712EA0134301393000192000000
B1209575001373N01126751EA0134001388000152000000
B1210005001294N01126789EA0133501383000112000000
B1210035001213N01126824EA0133001379000116000000
B1210065001133N01126859EA0132401375000092000000
B1210095001055N01126893EA0132101372000076000000
B1210125000975N01126928EA0132001369000088000000
B1210155000899N01126965EA0131801367000068000000
B1210185000822N01127004EA0131601367000056000000
B1210215000746N01127044EA0131701369000156000000
B1210245000672N01127084EA0132501380000164000000
B1210275000602N01127128EA0133201389000164000000
B1210305000535N01127175EA0133601389000180000000
B1210335000467N01127225EA0133401383000144000000
B1210365000403N01127282EA0133001381000100000000
B1210395000343N01127347EA0133101387000084000000
B1210425000291N01127416EA0133801395000060000000
B1210455000245N01127489EA0134501400000048000000
B1210485000203N01127563EA0135001404000040000000
B1210515000163N01127638EA0135301407000032000000
B1210545000122N01127710EA0135801413000024000000
B1210575000080N01127776EA0136501423000020000000
B1211005000029N01127814EA0137701437000020000000
B1211034959978N01127812EA0139101452000016000000
B1211064959942N01127764EA0140001450000016000000
B1211094959929N01127691EA0140001452000012000000
B1211124959947N01127621EA0140201454000012000000
B1211154959982N01127572EA0140401456000012000000
B1211185000031N01127548EA0140301452000012000000
B1211215000087N01127550EA0140101453000012000000
B1211245000145N01127567EA0140501459000012000000
B1211275000194N01127616EA0141201468000012000000
B1211305000224N01127687EA0142301481000012000000
B1211335000220N01127772EA0143101482000012000000
B1211365000186N01127838EA0143201487000012000000
B1211395000137N01127856EA0143701492000012000000
B1211425000090N01127829EA0144101496000012000000
B1211455000059N01127768EA0144401500000012000000
B1211485000039N01127690EA0145001509000016000000
B1211515000046N01127613EA0146101521000016000000
B1211545000085N01127561EA0147001531000016000000
B1211575000138N01127559EA0147901535000016000000
B1212005000187N01127606EA0148101535000016000000
B1212035000212N01127690EA0148201539000012000000
B1212065000199N01127781EA0148801546000012000000
B1212095000156N01127837EA0149701555000012000000
B1212125000104N01127843EA0150301561000012000000
B1212155000061N01127799EA0150701568000012000000
B1212185000046N01127726EA0151501579000012000000
B1212215000065N01127659EA0152401585000012000000
B1212245000112N01127622EA0152901588000012000000
B1212275000167N01127638EA0153201589000012000000
B1212305000212N01127698EA0153401594000012000000
B1212335000230N01127785EA0154001602000012000000
B1212365000215N01127866EA0154901612000012000000
B1212395000176N01127919EA0155801617000012000000
B1212425000125N01127928EA0155901613000012000000
B1212455000077N01127890EA0155601611000012000000
B1212485000051N01127817EA0155801623000012000000
B1212515000061N01127739EA0156801633000012000000
B1212545000099N01127690EA0157701641000012000000
B1212575000152N01127686EA0158301640000012000000
B1213005000206N01127724EA0158101635000016000000
B1213035000249N01127797EA0157501631000016000000
B1213065000269N01127890EA0157601639000016000000
B1213095000269N01127981EA0158801652000016000000
B1213125000250N01128061EA0159901662000016000000
B1213155000217N01128124EA0160501664000016000000
B1213185000173N01128171EA0160401658000020000000
B1213215000117N01128196EA0159501647000020000000
B1213245000057N01128194EA0158601644000020000000
B1213275000002N01128168EA0159201656000024000000
B1213304959959N01128115EA0160401669000020000000
B1213334959934N01128046EA0161301677000016000000
B1213364959935N01127968EA0161801681000016000000
B1213394959956N01127899EA0162101680000012000000
B1213425000000N01127854EA0161901678000012000000
B1213455000055N01127837EA0161701683000016000000
B1213485000109N01127851EA0162501694000016000000
B1213515000155N01127890EA0163701703000012000000
B1213545000190N01127949EA0164101700000016000000
B1213575000216N01128025EA0163701694000012000000
B1214005000221N01128115EA0163501695000012000000
B1214035000208N01128206EA0163501693000012000000
B1214065000171N01128280EA0163501695000012000000
B1214095000119N01128326EA0163601694000016000000
B1214125000061N01128349EA0163501691000016000000
B1214155000004N01128362EA0163201690000016000000
B1214184959946N01128367EA0163401691000016000000
B1214214959888N01128349EA0163301690000012000000
B1214244959834N01128311EA0163001687000016000000
B1214274959777N01128279EA0162201674000016000000
B1214304959709N01128266EA0160501654000020000000
B1214334959636N01128271EA0158601636000020000000
B1214364959558N01128285EA0156901619000048000000
B1214394959478N01128308EA0155501606000040000000
B1214424959394N01128334EA0154201594000032000000
B1214454959311N01128361EA0153301588000032000000
B1214484959232N01128404EA0153301589000032000000
B1214514959157N01128460EA0153401591000024000000
B1214544959086N01128523EA0153401588000020000000
B1214574959016N01128590EA0152801581000020000000
B1215004958947N01128660EA0152101573000016000000
B1215034958877N01128737EA0151201564000020000000
B1215064958808N01128813EA0150701559000020000000
B1215094958741N01128890EA0150201556000016000000
B1215124958672N01128967EA0150001555000020000000
B1215154958604N01129041EA0150001555000020000000
B1215184958538N01129116EA0150001556000020000000
B1215214958473N01129193EA0150001554000020000000
B1215244958408N01129270EA0149701553000024000000
B1215274958344N01129345EA0149701549000020000000
B1215304958283N01129427EA0149601554000028000000
B1215334958226N01129509EA0150201561000080000000
B1215364958172N01129592EA0151001569000068000000
B1215394958120N01129671EA0151701577000108000000
B1215424958070N01129748EA0152301580000080000000
B1215454958018N01129825EA0152101575000092000000
B1215484957966N01129901EA0151901577000072000000
B1215514957915N01129975EA0152201580000056000000
B1215544957868N01130048EA0152401582000052000000
B1215574957821N01130120EA0152501582000044000000
B1216004957773N01130190EA0152401580000040000000
B1216034957728N01130261EA0152201576000032000000
B1216064957682N01130336EA0151801573000064000000
B1216094957639N01130411EA0151901578000124000000
B1216124957595N01130484EA0152101576000160000000
B1216154957550N01130554EA0151601569000212000000
B1216184957502N01130623EA0151101563000172000000
B1216214957455N01130696EA0150601558000120000000
B1216244957408N01130771EA0149901551000084000000
B1216274957359N01130845EA0149401545000096000000
B1216304957308N01130918EA0148901541000076000000
B1216334957256N01130989EA0148501539000060000000
B1216364957204N01131058EA0148401538000048000000
B1216394957153N01131123EA0148401540000084000000
B1216424957105N01131188EA0148601540000104000000
B1216454957058N01131256EA0148501539000128000000
B1216484957012N01131326EA0148301536000108000000
B1216514956961N01131396EA0147701529000100000000
B1216544956909N01131472EA0147101523000076000000
B1216574956857N01131548EA0146801521000160000000
B1217004956806N01131626EA0146701520000116000000
B1217034956753N01131707EA0146301512000096000000
B1217064956698N01131789EA0145401500000072000000
B1217094956641N01131872EA0144001486000060000000
B1217124956584N01131959EA0143201484000044000000
B1217154956527N01132046EA0142901481000084000000
B1217184956469N01132135EA0142801479000096000000
B1217214956412N01132224EA0142301473000112000000
B1217244956354N01132315EA0141801468000100000000
B1217274956295N01132408EA0142101477000084000000
B1217304956243N01132500EA0143001492000080000000
B1217334956194N01132588EA0144001496000064000000
B1217364956146N01132676EA0144401500000076000000
B1217394956098N01132760EA0144801502000124000000
B1217424956043N01132830EA0145001501000148000000
B1217454955975N01132869EA0144501492000108000000
B1217484955904N01132887EA0143301477000080000000
B1217514955827N01132884EA0142101468000132000000
B1217544955751N01132865EA0141201459000100000000
B1217574955675N01132837EA0140401454000072000000
B1218004955601N01132799EA0140001450000060000000
B1218034955530N01132755EA0139801449000104000000
B1218064955458N01132705EA0139401444000076000000
B1218094955385N01132653EA0138601436000112000000
B1218124955311N01132603EA0138301429000096000000
B1218154955236N01132549EA0137501420000076000000
B1218184955160N01132495EA0136701414000056000000
B1218214955086N01132439EA0136201410000060000000
B1218244955012N01132386EA0135901408000048000000
B1218274954938N01132331EA0135501403000040000000
B1218304954865N01132276EA0135001398000032000000
B1218334954794N01132221EA0134401392000028000000
B1218364954721N01132166EA0133901387000024000000
B1218394954648N01132114EA0133201378000020000000
B1218424954573N01132062EA0132301370000016000000
B1218454954499N01132007EA0131701362000016000000
B1218484954425N01131950EA0131001355000016000000
B1218514954350N01131893EA0130401351000016000000
B1218544954276N01131837EA0129901343000012000000
B1218574954201N01131781EA0129001334000016000000
B1219004954126N01131720EA0128301329000016000000
B1219034954050N01131660EA0127601321000028000000
B1219064953975N01131598EA0127001314000180000000
B1219094953898N01131535EA0126401309000196000000
B1219124953823N01131472EA0125801302000228000000
B1219154953746N01131407EA0125101295000380000000
B1219184953669N01131342EA0124201287000392000000
B1219214953594N01131275EA0123801280000320000000
B1219244953517N01131210EA0123201275000272000000
B1219274953440N01131145EA0122801272000304000000
B1219304953365N01131082EA0122401271000344000000
B1219334953291N01131018EA0122301268000344000000
B1219364953218N01130954EA0122101265000244000000
B1219394953145N01130893EA0121701261000172000000
B1219424953074N01130833EA0121201255000136000000
B1219454953001N01130775EA0120501248000100000000
B1219484952927N01130718EA0120101244000072000000
B1219514952855N01130659EA0120001245000060000000
B1219544952784N01130599EA0119901244000052000000
B1219574952714N01130542EA0119901242000044000000
B1220004952644N01130485EA0119601240000040000000
B1220034952575N01130429EA0119501239000032000000
B1220064952506N01130372EA0119401240000028000000
B1220094952438N01130317EA0119701243000028000000
B1220124952373N01130263EA0119701241000024000000
B1220154952308N01130208EA0119601241000024000000
B1220184952243N01130161EA0120101248000024000000
B1220214952179N01130121EA0121201261000024000000
B1220244952118N01130085EA0123101282000024000000
B1220274952065N01130059EA0124901312000020000000
B1220304952018N01130037EA0127701337000020000000
B1220334951977N01130007EA0129401346000020000000
B1220364951948N01129952EA0129801347000020000000
B1220394951943N01129879EA0130101351000020000000
B1220424951964N01129810EA0130601356000020000000
B1220454952008N01129767EA0131101361000020000000
B1220484952065N01129771EA0131801375000020000000
B1220514952111N01129818EA0133401392000016000000
B1220544952137N01129892EA0134701400000016000000
B1220574952142N01129975EA0135401405000016000000
B1221004952125N01130055EA0136001414000016000000
B1221034952088N01130113EA0137101428000012000000
B1221064952039N01130129EA0138101434000012000000
B1221094951994N01130100EA0138801443000012000000
B1221124951968N01130039EA0139401455000012000000
B1221154951966N01129972EA0140501463000012000000
B1221184951981N01129904EA0141001462000012000000
B1221214952008N01129838EA0141101465000016000000
B1221244952047N01129784EA0141701474000016000000
B1221274952092N01129745EA0142701484000016000000
B1221304952146N01129734EA0143701493000016000000
B1221334952200N01129749EA0144301496000016000000
B1221364952252N01129791EA0144601496000016000000
B1221394952298N01129860EA0144401497000016000000
B1221424952325N01129949EA0144601499000020000000
B1221454952332N01130050EA0145201506000020000000
B1221484952315N01130138EA0146301518000020000000
B1221514952277N01130200EA0147301526000024000000
B1221544952230N01130235EA0147601527000024000000
B1221574952176N01130241EA0147401524000024000000
B1222004952121N01130217EA0147101523000024000000
B1222034952073N01130165EA0147201531000024000000
B1222064952040N01130095EA0148301548000024000000
B1222094952026N01130021EA0150301572000020000000
B1222124952031N01129951EA0152501588000024000000
B1222154952048N01129887EA0153601595000024000000
B1222184952079N01129830EA0154001597000024000000
B1222214952124N01129790EA0154001596000020000000
B1222244952177N01129774EA0154101600000020000000
B1222274952230N01129777EA0154701607000020000000
B1222304952277N01129801EA0155301610000024000000
B1222334952321N01129848EA0154901597000024000000
B1222364952359N01129922EA0153401580000024000000
B1222394952377N01130026EA0152101571000024000000
B1222424952374N01130137EA0151801575000020000000
B1222454952355N01130239EA0152501583000016000000
B1222484952322N01130328EA0153301594000016000000
B1222514952282N01130401EA0154001604000016000000
B1222544952238N01130456EA0154801612000016000000
B1222574952191N01130501EA0155701620000016000000
B1223004952142N01130531EA0156501628000012000000
B1223034952091N01130541EA0157601640000012000000
B1223064952046N01130524EA0158701651000012000000
B1223094952003N01130493EA0159301650000012000000
B1223124951964N01130445EA0158801644000012000000
B1223154951934N01130380EA0158801647000012000000
B1223184951914N01130306EA0159101650000012000000
B1223214951912N01130226EA0159001649000012000000
B1223244951927N01130147EA0159401655000012000000
B1223274951957N01130081EA0160301664000012000000
B1223304952000N01130033EA0160701668000012000000
B1223334952052N01130013EA0161101672000012000000
B1223364952105N01130017EA0161301671000012000000
B1223394952157N01130053EA0161201673000012000000
B1223424952204N01130113EA0161301671000012000000
B1223454952244N01130183EA0161101671000012000000
B1223484952277N01130267EA0161401674000012000000
B1223514952287N01130362EA0161601674000012000000
B1223544952276N01130456EA0161601676000012000000
B1223574952247N01130545EA0161701677000012000000
B1224004952209N01130619EA0162501689000012000000
B1224034952164N01130670EA0163201697000012000000
B1224064952113N01130694EA0164101707000012000000
B1224094952064N01130679EA0164801707000012000000
B1224124952023N01130629EA0164601701000012000000
B1224154952003N01130554EA0164001699000012000000
B1224184952009N01130472EA0164101703000012000000
B1224214952036N01130401EA0164301706000012000000
B1224244952082N01130354EA0164801711000012000000
B1224274952135N01130338EA0165401718000012000000
B1224304952192N01130360EA0166001720000012000000
B1224334952239N01130415EA0166001721000012000000
B1224364952274N01130489EA0166101722000012000000
B1224394952296N01130576EA0166001719000020000000
B1224424952304N01130672EA0165601711000020000000
B1224454952299N01130774EA0164801701000024000000
B1224484952286N01130879EA0163601688000020000000
B1224514952269N01130987EA0162501679000020000000
B1224544952247N01131099EA0161501669000016000000
B1224574952222N01131214EA0160701662000016000000
B1225004952198N01131331EA0160001657000016000000
B1225034952173N01131452EA0159501655000080000000
B1225064952151N01131573EA0159701659000188000000
B1225094952129N01131693EA0160301664000180000000
B1225124952108N01131811EA0160401666000148000000
B1225154952091N01131927EA0160301661000104000000
B1225184952073N01132044EA0159601655000072000000
B1225214952053N01132159EA0159201651000056000000
B1225244952034N01132278EA0158801647000048000000
B1225274952014N01132397EA0158701646000068000000
B1225304951995N01132520EA0158701648000096000000
B1225334951974N01132639EA0159501669000088000000
B1225364951957N01132747EA0162001697000068000000
B1225394951942N01132843EA0164101708000052000000
B1225424951925N01132937EA0164601702000048000000
B1225454951905N01133037EA0163301686000124000000
B1225484951882N01133144EA0162201684000156000000
B1225514951856N01133248EA0162701694000180000000
B1225544951830N01133349EA0163601702000156000000
B1225574951804N01133446EA0164201705000108000000
B1226004951778N01133541EA0164201703000080000000
B1226034951750N01133632EA0164201702000068000000
B1226064951726N01133722EA0164401706000052000000
B1226094951700N01133804EA0164701708000040000000
B1226124951674N01133885EA0164301700000032000000
B1226154951649N01133968EA0163601689000028000000
B1226184951626N01134055EA0162601679000024000000
B1226214951605N01134145EA0161701672000020000000
B1226244951587N01134237EA0161201667000020000000
B1226274951570N01134330EA0160701667000016000000
B1226304951558N01134423EA0161001670000016000000
B1226334951546N01134514EA0161201671000016000000
B1226364951536N01134605EA0161001664000012000000
B1226394951528N01134702EA0160101657000012000000
B1226424951523N01134801EA0160001659000012000000
B1226454951520N01134899EA0160701668000012000000
B1226484951519N01134991EA0161201671000012000000
B1226514951519N01135083EA0161201665000012000000
B1226544951523N01135181EA0160301653000012000000
B1226574951526N01135285EA0159201641000016000000
B1227004951531N01135393EA0157901628000016000000
B1227034951537N01135507EA0156601614000016000000
B1227064951544N01135627EA0155301605000092000000
B1227094951549N01135751EA0154901606000156000000
B1227124951555N01135876EA0155201611000236000000
B1227154951563N01135997EA0155401612000188000000
B1227184951571N01136118EA0155301609000132000000
B1227214951580N01136239EA0154901604000092000000
B1227244951588N01136361EA0154401600000076000000
B1227274951596N01136482EA0154701607000072000000
B1227304951602N01136599EA0155201611000108000000
B1227334951610N01136712EA0155501615000088000000
B1227364951619N01136819EA0156201623000072000000
B1227394951630N01136921EA0156701625000052000000
B1227424951643N01137020EA0156901629000040000000
B1227454951657N01137112EA0157601637000036000000
B1227484951670N01137200EA0158301640000028000000
B1227514951682N01137284EA0158601644000024000000
B1227544951691N01137366EA0158801645000024000000
B1227574951691N01137449EA0158601640000020000000
B1228004951678N01137532EA0158001633000020000000
B1228034951648N01137604EA0157501629000016000000
B1228064951600N01137640EA0157001622000016000000
B1228094951549N01137631EA0156201611000016000000
B1228124951509N01137580EA0155201604000020000000
B1228154951489N01137504EA0154201591000020000000
B1228184951488N01137414EA0152701574000016000000
B1228214951501N01137319EA0151301562000016000000
B1228244951527N01137226EA0150601555000016000000
B1228274951559N01137141EA0150501562000016000000
B1228304951597N01137071EA0151601576000016000000
B1228334951637N01137018EA0152701585000016000000
B1228364951678N01136975EA0153501588000016000000
B1228394951719N01136932EA0153301579000016000000
B1228424951761N01136882EA0152201568000016000000
B1228454951801N01136829EA0151901572000016000000
B1228484951838N01136774EA0152301576000016000000
B1228514951871N01136724EA0152601578000016000000
B1228544951903N01136673EA0152501577000016000000
B1228574951931N01136621EA0152201570000016000000
B1229004951952N01136559EA0151101555000012000000
B1229034951961N01136481EA0149401535000016000000
B1229064951956N01136394EA0147601518000012000000
B1229094951939N01136301EA0146101503000016000000
B1229124951916N01136202EA0144701491000016000000
B1229154951888N01136101EA0143501480000048000000
B1229184951858N01135996EA0142601472000036000000
B1229214951830N01135887EA0141701465000036000000
B1229244951806N01135772EA0141101459000096000000
B1229274951787N01135658EA0140601456000080000000
B1229304951771N01135541EA0140401454000072000000
B1229334951758N01135425EA0140101450000052000000
B1229364951749N01135307EA0139501442000048000000
B1229394951743N01135187EA0138801435000040000000
B1229424951739N01135068EA0138301431000036000000
B1229454951737N01134947EA0138001427000096000000
B1229484951736N01134827EA0137501423000080000000
B1229514951736N01134707EA0137101418000064000000
B1229544951736N01134587EA0136501413000068000000
B1229574951736N01134467EA0135901406000060000000
B1230004951736N01134346EA0135501402000048000000
B1230034951737N01134225EA0135101398000048000000
B1230064951739N01134104EA0134601393000044000000
B1230094951740N01133982EA0134301392000036000000
B1230124951741N01133861EA0134301393000088000000
B1230154951741N01133742EA0134401395000160000000
B1230184951741N01133623EA0134501395000132000000
B1230214951744N01133505EA0134601395000096000000
B1230244951747N01133387EA0134401395000128000000
B1230274951748N01133270EA0134701399000144000000
B1230304951752N01133154EA0135101405000152000000
B1230334951757N01133042EA0135601407000128000000
B1230364951758N01132932EA0136501422000144000000
B1230394951761N01132834EA0138901452000116000000
B1230424951773N01132756EA0142001482000084000000
B1230454951806N01132707EA0144001493000060000000
B1230484951856N01132692EA0144701497000052000000
B1230514951909N01132730EA0144901497000040000000
B1230544951942N01132813EA0144901497000032000000
B1230574951940N01132913EA0145001501000028000000
B1231004951909N01132993EA0145201505000028000000
B1231034951856N01133029EA0145601509000028000000
B1231064951801N01133020EA0146001515000028000000
B1231094951763N01132968EA0147001524000024000000
B1231124951752N01132898EA0147501528000020000000
B1231154951767N01132830EA0148001534000016000000
B1231184951805N01132783EA0148701541000016000000
B1231214951858N01132778EA0149501552000016000000
B1231244951906N01132825EA0150401561000012000000
B1231274951934N01132906EA0151101564000012000000
B1231304951929N01132998EA0151301565000012000000
B1231334951892N01133068EA0151301565000016000000
B1231364951839N01133095EA0151801574000016000000
B1231394951789N01133081EA0152401581000016000000
B1231424951757N01133029EA0153001584000012000000
B1231454951747N01132963EA0153301589000012000000
B1231484951760N01132899EA0153801595000012000000
B1231514951797N01132856EA0154501601000012000000
B1231544951849N01132858EA0155001605000012000000
B1231574951895N01132921EA0155001602000012000000
B1232004951910N01133017EA0155101607000016000000
B1232034951890N01133107EA0155601615000020000000
B1232064951847N01133166EA0156801628000020000000
B1232094951797N01133175EA0157501631000016000000
B1232124951757N01133137EA0157901634000016000000
B1232154951744N01133071EA0158001632000016000000
B1232184951758N01133001EA0157801632000016000000
B1232214951796N01132950EA0158001638000012000000
B1232244951849N01132939EA0158601647000012000000
B1232274951900N01132978EA0159401653000012000000
B1232304951932N01133054EA0160001657000012000000
B1232334951936N01133145EA0160101656000016000000
B1232364951908N01133220EA0160301659000016000000
B1232394951857N01133249EA0160201656000016000000
B1232424951804N01133233EA0159901654000016000000
B1232454951761N01133184EA0159901654000016000000
B1232484951728N01133118EA0160001656000016000000
B1232514951711N01133038EA0160301657000024000000
B1232544951704N01132954EA0160301657000032000000
B1232574951698N01132864EA0159901653000032000000
B1233004951693N01132768EA0159701655000028000000
B1233034951687N01132669EA0159701654000028000000
B1233064951683N01132570EA0160101665000024000000
B1233094951680N01132482EA0162001679000032000000
B1233124951678N01132400EA0162101674000056000000
B1233154951674N01132315EA0161301666000072000000
B1233184951665N01132231EA0161001671000056000000
B1233214951653N01132153EA0162101684000044000000
B1233244951644N01132081EA0163001693000032000000
B1233274951636N01132014EA0163501693000028000000
B1233304951631N01131946EA0163301687000024000000
B1233334951636N01131876EA0162701680000024000000
B1233364951662N01131814EA0162301674000020000000
B1233394951711N01131777EA0161801674000020000000
B1233424951767N01131772EA0161801675000016000000
B1233454951822N01131794EA0162101683000016000000
B1233484951870N01131836EA0163201696000016000000
B1233514951903N01131901EA0163801690000016000000
B1233544951919N01131985EA0162801675000016000000
B1233574951916N01132081EA0161001656000016000000
B1234004951888N01132175EA0159201643000052000000
B1234034951844N01132260EA0158601643000048000000
B1234064951792N01132328EA0159001649000040000000
B1234094951737N01132386EA0159801660000032000000
B1234124951684N01132435EA0160201661000032000000
B1234154951630N01132483EA0160001652000028000000
B1234184951578N01132548EA0158801635000024000000
B1234214951526N01132629EA0156901615000024000000
B1234244951472N01132720EA0155001598000024000000
B1234274951422N01132815EA0154201598000024000000
B1234304951373N01132913EA0154701608000020000000
B1234334951329N01133011EA0155801620000016000000
B1234364951290N01133108EA0157201633000016000000
B1234394951260N01133198EA0159501661000020000000
B1234424951227N01133268EA0162001683000016000000
B1234454951188N01133318EA0163101688000016000000
B1234484951137N01133335EA0162801678000016000000
B1234514951084N01133314EA0161901669000016000000
B1234544951034N01133266EA0160801658000016000000
B1234574950982N01133206EA0159701637000016000000
B1235004950928N01133137EA0157501614000028000000
B1235034950868N01133056EA0155201591000032000000
B1235064950804N01132971EA0152901568000032000000
B1235094950738N01132881EA0150701548000032000000
B1235124950670N01132787EA0148801531000028000000
B1235154950603N01132692EA0147201519000028000000
B1235184950532N01132598EA0146401513000028000000
B1235214950463N01132507EA0146001511000024000000
B1235244950393N01132421EA0146301518000024000000
B1235274950327N01132345EA0147801542000028000000
B1235304950268N01132283EA0151001577000028000000
B1235334950220N01132236EA0154601613000024000000
B1235364950177N01132202EA0157201630000020000000
B1235394950136N01132169EA0158301634000016000000
B1235424950093N01132128EA0158001628000016000000
B1235454950067N01132054EA0157501627000016000000
B1235484950072N01131971EA0157601630000016000000
B1235514950110N01131918EA0157901636000012000000
B1235544950162N01131918EA0158201635000012000000
B1235574950209N01131959EA0158001630000016000000
B1236004950249N01132026EA0157301623000016000000
B1236034950278N01132106EA0156901626000016000000
B1236064950292N01132193EA0157201631000016000000
B1236094950292N01132280EA0157701634000016000000
B1236124950281N01132367EA0158101637000012000000
B1236154950261N01132451EA0158101636000012000000
B1236184950229N01132529EA0158401641000012000000
B1236214950189N01132595EA0159101650000012000000
B1236244950142N01132643EA0160001660000012000000
B1236274950089N01132664EA0160801662000012000000
B1236304950036N01132655EA0160701660000012000000
B1236334949992N01132613EA0160601663000012000000
B1236364949967N01132546EA0160601656000012000000
B1236394949949N01132468EA0159801647000012000000
B1236424949932N01132384EA0159501651000016000000
B1236454949915N01132301EA0159901659000016000000
B1236484949899N01132221EA0161101674000016000000
B1236514949885N01132144EA0162501684000016000000
B1236544949878N01132070EA0163001689000016000000
B1236574949889N01132001EA0163501691000016000000
B1237004949919N01131948EA0163501689000012000000
B1237034949964N01131922EA0163301687000012000000
B1237064950015N01131929EA0163201689000012000000
B1237094950063N01131962EA0163001683000012000000
B1237124950111N01132007EA0161801668000012000000
B1237154950164N01132061EA0159601644000056000000
B1237184950226N01132117EA0157601626000056000000
B1237214950291N01132172EA0156801616000044000000
B1237244950358N01132228EA0155701607000040000000
B1237274950426N01132286EA0154901602000040000000
B1237304950489N01132348EA0155101612000040000000
B1237334950525N01132439EA0156901632000036000000
B1237364950515N01132540EA0158001630000032000000
B1237394950473N01132624EA0157201613000024000000
B1237424950409N01132679EA0155501599000020000000
B1237454950335N01132703EA0154501596000016000000
B1237484950261N01132709EA0154401601000016000000
B1237514950189N01132702EA0155001611000016000000
B1237544950125N01132678EA0156501628000016000000
B1237574950070N01132647EA0158301643000016000000
B1238004950024N01132598EA0159301651000016000000
B1238034949999N01132526EA0160401664000016000000
B1238064950003N01132449EA0161201675000012000000
B1238094950040N01132396EA0162101682000012000000
B1238124950094N01132396EA0162801685000020000000
B1238154950132N01132462EA0163101688000020000000
B1238184950127N01132551EA0163501696000020000000
B1238214950089N01132612EA0164101701000016000000
B1238244950037N01132637EA0164601704000016000000
B1238274949984N01132627EA0164901710000016000000
B1238304949940N01132592EA0165501710000016000000
B1238334949911N01132531EA0165301708000016000000
B1238364949902N01132456EA0165301714000012000000
B1238394949919N01132390EA0165901718000012000000
B1238424949958N01132351EA0166201720000012000000
B1238454950003N01132348EA0166601724000012000000
B1238484950045N01132380EA0166701722000012000000
B1238514950075N01132449EA0166401717000016000000
B1238544950075N01132542EA0166301723000016000000
B1238574950044N01132618EA0167101739000012000000
B1239004949995N01132656EA0168501749000012000000
B1239034949947N01132650EA0169401754000012000000
B1239064949914N01132598EA0169601751000012000000
B1239094949910N01132523EA0169501748000012000000
B1239124949937N01132460EA0169701755000012000000
B1239154949982N01132430EA0170201759000012000000
B1239184950033N01132438EA0170501763000012000000
B1239214950080N01132479EA0171201772000012000000
B1239244950109N01132551EA0172201779000012000000
B1239274950099N01132631EA0172501784000012000000
B1239304950060N01132689EA0172901789000012000000
B1239334950008N01132696EA0173301788000012000000
B1239364949964N01132652EA0173201790000012000000
B1239394949947N01132575EA0173401791000012000000
B1239424949958N01132495EA0173601795000012000000
B1239454949995N01132439EA0174201803000012000000
B1239484950046N01132434EA0175001811000012000000
B1239514950086N01132482EA0175601816000012000000
B1239544950096N01132561EA0176201822000012000000
B1239574950068N01132631EA0176601825000016000000
B1240004950019N01132665EA0176901825000012000000
B1240034949962N01132657EA0176801826000012000000
B1240064949914N01132611EA0177001832000012000000
B1240094949886N01132540EA0177801842000012000000
B1240124949888N01132465EA0178601842000012000000
B1240154949920N01132409EA0178501841000012000000
B1240184949969N01132395EA0178401840000012000000
B1240214950016N01132425EA0178501843000012000000
B1240244950046N01132487EA0178901849000012000000
B1240274950051N01132565EA0179501853000012000000
B1240304950024N01132635EA0179501851000012000000
B1240334949975N01132679EA0179601855000012000000
B1240364949920N01132679EA0180401867000012000000
B1240394949878N01132635EA0181201872000012000000
B1240424949859N01132565EA0181201870000012000000
B1240454949859N01132488EA0181101870000012000000
B1240484949885N01132429EA0181201869000012000000
B1240514949928N01132397EA0181001865000012000000
B1240544949973N01132378EA0180601862000012000000
B1240574950019N01132360EA0180601862000016000000
B1241004950064N01132338EA0180301856000016000000
B1241034950114N01132315EA0179601848000016000000
B1241064950171N01132300EA0178001826000028000000
B1241094950235N01132284EA0175301795000036000000
B1241124950306N01132258EA0172401767000040000000
B1241154950384N01132226EA0170101746000032000000
B1241184950466N01132188EA0168501736000060000000
B1241214950547N01132135EA0168301737000060000000
B1241244950622N01132072EA0168501740000156000000
B1241274950696N01132005EA0168301737000116000000
B1241304950766N01131936EA0167901729000092000000
B1241334950837N01131862EA0167201723000076000000
B1241364950904N01131788EA0166701718000060000000
B1241394950972N01131714EA0166101712000048000000
B1241424951041N01131642EA0165401703000068000000
B1241454951111N01131574EA0164701699000116000000
B1241484951184N01131515EA0165301714000128000000
B1241514951246N01131457EA0167801746000104000000
B1241544951301N01131407EA0170601772000088000000
B1241574951347N01131364EA0172301779000060000000
B1242004951397N01131325EA0171901763000048000000
B1242034951454N01131296EA0170001743000040000000
B1242064951520N01131279EA0168901740000032000000
B1242094951591N01131278EA0169201745000028000000
B1242124951659N01131292EA0169901752000024000000
B1242154951727N01131316EA0170301758000024000000
B1242184951791N01131344EA0170601757000020000000
B1242214951854N01131381EA0170501759000016000000
B1242244951914N01131422EA0171001765000020000000
B1242274951973N01131465EA0171301764000016000000
B1242304952031N01131507EA0170901760000016000000
B1242334952091N01131547EA0170401752000016000000
B1242364952152N01131591EA0169101737000056000000
B1242394952216N01131639EA0167401720000108000000
B1242424952283N01131688EA0165801705000080000000
B1242454952355N01131736EA0164601696000064000000
B1242484952426N01131782EA0163901689000048000000
B1242514952498N01131829EA0163501684000036000000
B1242544952568N01131877EA0163201683000032000000
B1242574952632N01131935EA0163201684000120000000
B1243004952689N01132005EA0163301687000184000000
B1243034952740N01132081EA0164101699000212000000
B1243064952780N01132157EA0166101724000168000000
B1243094952806N01132235EA0168301744000116000000
B1243124952809N01132315EA0169601748000084000000
B1243154952789N01132393EA0169401740000068000000
B1243184952751N01132460EA0168601735000048000000
B1243214952699N01132492EA0168401735000036000000
B1243244952650N01132483EA0168401738000032000000
B1243274952618N01132431EA0168501737000028000000
B1243304952612N01132361EA0168301734000024000000
B1243334952637N01132296EA0167901728000024000000
B1243364952684N01132252EA0167101719000020000000
B1243394952737N01132223EA0166701717000020000000
B1243424952794N01132215EA0166701724000016000000
B1243454952850N01132228EA0167501731000016000000
B1243484952904N01132254EA0168201735000016000000
B1243514952953N01132286EA0168401738000016000000
B1243544953001N01132321EA0168501734000016000000
B1243574953047N01132366EA0168101728000016000000
B1244004953084N01132426EA0167501724000016000000
B1244034953113N01132500EA0167201724000012000000
B1244064953126N01132585EA0167201724000052000000
B1244094953117N01132670EA0167001718000108000000
B1244124953083N01132741EA0165801699000168000000
B1244154953027N01132782EA0163601675000180000000
B1244184952959N01132794EA0161301655000128000000
B1244214952888N01132776EA0159201634000092000000
B1244244952816N01132741EA0157001611000072000000
B1244274952745N01132687EA0155801601000072000000
B1244304952676N01132627EA0155701621000052000000
B1244334952615N01132566EA0157401637000040000000
B1244364952556N01132504EA0158201636000068000000
B1244394952498N01132438EA0157801628000112000000
B1244424952438N01132367EA0157201621000140000000
B1244454952378N01132296EA0156201609000132000000
B1244484952316N01132218EA0154901596000108000000
B1244514952252N01132137EA0153501579000080000000
B1244544952186N01132050EA0152001564000060000000
B1244574952118N01131962EA0150401547000112000000
B1245004952051N01131868EA0148901535000112000000
B1245034951982N01131775EA0147901523000084000000
B1245064951914N01131677EA0147101519000116000000
B1245094951847N01131580EA0146801517000240000000
B1245124951782N01131487EA0147001532000416000000
B1245154951726N01131415EA0149801576000416000000
B1245184951676N01131363EA0153701605000328000000
B1245214951628N01131324EA0156101612000224000000
B1245244951581N01131279EA0156201608000160000000
B1245274951535N01131227EA0156101610000124000000
B1245304951496N01131165EA0156601620000088000000
B1245334951471N01131095EA0157301622000064000000
B1245364951450N01131021EA0157101618000052000000
B1245394951415N01130956EA0156901617000044000000
B1245424951364N01130906EA0156801620000032000000
B1245454951308N01130870EA0157401626000028000000
B1245484951247N01130856EA0157901632000028000000
B1245514951185N01130848EA0158301635000024000000
B1245544951121N01130846EA0158201634000020000000
B1245574951058N01130823EA0157601622000020000000
B1246004950994N01130780EA0155701600000024000000
B1246034950929N01130718EA0153101571000020000000
B1246064950865N01130637EA0150501545000024000000
B1246094950801N01130544EA0149001528000024000000
B1246124950740N01130442EA0148001524000024000000
B1246154950682N01130337EA0147501521000024000000
B1246184950626N01130232EA0147101518000024000000
B1246214950573N01130124EA0146701514000024000000
B1246244950521N01130014EA0146201507000024000000
B1246274950470N01129905EA0145501500000024000000
B1246304950419N01129796EA0144501491000024000000
B1246334950369N01129686EA0143901486000024000000
B1246364950318N01129575EA0143101477000024000000
B1246394950265N01129467EA0142101466000024000000
B1246424950206N01129363EA0141401457000048000000
B1246454950142N01129267EA0140601453000212000000
B1246484950077N01129173EA0140401451000296000000
B1246514950012N01129085EA0140101445000248000000
B1246544949949N01128997EA0139201438000208000000
B1246574949885N01128908EA0138901437000160000000
B1247004949821N01128820EA0138801437000216000000
B1247034949760N01128730EA0139201442000156000000
B1247064949703N01128638EA0139601447000240000000
B1247094949647N01128549EA0139501443000200000000
B1247124949590N01128464EA0139001437000140000000
B1247154949531N01128382EA0138701434000112000000
B1247184949472N01128302EA0138601432000084000000
B1247214949412N01128226EA0138401430000068000000
B1247244949355N01128146EA0138101425000048000000
B1247274949303N01128062EA0137401418000036000000
B1247304949253N01127971EA0137001417000032000000
B1247334949208N01127879EA0137001416000024000000
B1247364949165N01127782EA0136501410000020000000
B1247394949127N01127682EA0135801401000020000000
B1247424949093N01127577EA0134901394000020000000
B1247454949062N01127469EA0134401388000048000000
B1247484949033N01127360EA0134101385000052000000
B1247514949007N01127248EA0133901389000048000000
B1247544948981N01127140EA0134601397000040000000
B1247574948955N01127039EA0135801414000056000000
B1248004948929N01126943EA0136901418000044000000
B1248034948903N01126848EA0136701410000036000000
B1248064948877N01126754EA0136401413000028000000
B1248094948850N01126666EA0137101420000024000000
B1248124948824N01126584EA0138001429000024000000
B1248154948799N01126511EA0138801438000024000000
B1248184948772N01126445EA0139101436000020000000
B1248214948749N01126371EA0138101423000020000000
B1248244948732N01126282EA0136301402000068000000
B1248274948724N01126179EA0133801375000140000000
B1248304948724N01126064EA0131701358000108000000
B1248334948732N01125945EA0130901347000096000000
B1248364948744N01125825EA0129901338000072000000
B1248394948758N01125702EA0129201335000112000000
B1248424948773N01125581EA0129001334000124000000
B1248454948793N01125464EA0129001333000112000000
B1248484948814N01125350EA0129001334000080000000
B1248514948836N01125242EA0129101337000060000000
B1248544948858N01125138EA0129201338000048000000
B1248574948879N01125038EA0129001334000036000000
B1249004948900N01124938EA0128401323000028000000
B1249034948922N01124835EA0127901321000028000000
B1249064948939N01124736EA0128701334000024000000
B1249094948948N01124645EA0131201362000020000000
B1249124948955N01124567EA0133101376000020000000
B1249154948966N01124491EA0133401373000020000000
B1249184948980N01124413EA0132901369000020000000
B1249214948998N01124332EA0132901373000016000000
B1249244949017N01124252EA0133101373000016000000
B1249274949036N01124170EA0132901370000060000000
B1249304949054N01124081EA0132801372000052000000
