AZAN5EP ZANDER/SDI GP941 V2.12
HFDTE300518
HFFXA050
HFPLT Pilot             :CARSTEN PORTMANN                        
HFGTY Glider type       :Nimbus 4M                               
HFGID Glider ID         :D-KUBR    
HFDTM100 GPS Datum      :WGS84
HFRFW Firmware Version  :12
HFRHW Hardware version  :2
HFFTY FR Type           :ZANDER/SDI GP941
HFGPS                   :Garmin,GPS25,12,30000
HFPRS Press Alt Sensor  :Intersema,MS5534A,10000
HFCCL Competition Class :Offene                                  
HFCID Competition ID    :ET        
I023638IAS3941ENL
J020810WDI1113WVE
LZAN 101828 PowerOn
C300518090534300518000102
C4959066N01138316E 001BTH      
C4956150N01130366E 061ECK      
C4930450N00947116E 039BME      
C4958250N00947383E 145SAU      
C4959066N01138316E 001BTH      
C4959066N01138316E 001BTH      
B1018324959270N01138637EV0045800000000000
B1018364959270N01138637EV0045800000000000
B1018404959195N01138704EA0045800000000000
B1018444959195N01138708EA0045800000000004
B1018484959195N01138708EA0045800000000000
B1018524959195N01138708EA0045800000000008
B1018564959195N01138708EA0045800488000008
B1019004959195N01138708EA0045800480000008
B1019044959195N01138708EA0045800488000008
B1019084959195N01138708EA0045800488003004
B1019124959195N01138708EA0045800488001008
B1019164959195N01138708EA0045800488001004
B1019204959195N01138708EA0045800488000004
B1019244959195N01138708EA0045800488000004
B1019284959195N01138708EA0045800488000004
B1019324959195N01138708EA0045900488000008
B1019364959195N01138708EA0045900488000008
B1019404959195N01138708EA0045900488005028
B1019444959200N01138708EA0045900488002016
B1019484959200N01138708EA0045900488000000
B1019524959200N01138708EA0045900488000016
B1019564959200N01138708EA0045900488000008
B1020004959200N01138708EA0045900488000004
B1020044959200N01138708EA0045900488000004
B1020084959200N01138708EA0045900488000008
B1020124959200N01138708EA0045900488000004
B1020164959200N01138708EA0045900488000004
B1020204959200N01138708EA0045900496000008
B1020244959200N01138708EA0045900488000008
B1020284959200N01138708EA0045900488000008
B1020324959200N01138708EA0045900496000008
B1020364959200N01138708EA0045900496000004
B1020404959200N01138708EA0045900488000008
B1020444959200N01138708EA0045900488000000
B1020484959200N01138708EA0045900488000000
B1020524959200N01138708EA0045900488000000
B1020564959200N01138708EA0045900488000000
B1021004959200N01138708EA0045900488000000
B1021044959200N01138708EA0045900488000000
B1021084959200N01138708EA0045900488000000
B1021124959200N01138708EA0045900488000000
B1021164959200N01138708EA0045900488000000
B1021204959200N01138708EA0045900488000000
B1021244959200N01138708EA0045900488000000
B1021284959200N01138708EA0045900488000000
B1021324959200N01138708EA0045900488000000
B1021364959200N01138708EA0045900488000000
B1021404959200N01138708EA0045900488000000
B1021444959200N01138708EA0045900488000000
B1021484959200N01138708EA0045900488000000
B1021524959200N01138708EA0045900488000000
B1021564959200N01138708EA0045900488000000
B1022004959200N01138708EA0045900488000000
B1022044959200N01138708EA0045900488000000
B1022084959200N01138708EA0045900488000000
B1022124959200N01138708EA0045900488000000
B1022164959200N01138708EA0045900488000000
B1022204959200N01138708EA0045900488000000
B1022244959200N01138708EA0045900488000000
B1022284959200N01138708EA0045900488000000
B1022324959200N01138712EA0045900488000000
B1022364959200N01138712EA0045900488000000
B1022404959200N01138712EA0045900488000000
B1022444959200N01138712EA0045900488000000
B1022484959200N01138712EA0045900488000000
B1022524959200N01138712EA0045900488000000
B1022564959200N01138712EA0045900488000000
B1023004959200N01138712EA0045900488000000
B1023044959200N01138712EA0045900488000000
B1023084959200N01138712EA0045900488000000
B1023124959200N01138712EA0045900480000000
B1023164959200N01138712EA0045900480000000
B1023204959200N01138712EA0045900480000000
B1023244959200N01138712EA0045900480000000
B1023284959200N01138712EA0045900480000000
B1023324959200N01138712EA0045900480000000
B1023364959200N01138712EA0045900480000000
B1023404959200N01138712EA0045900488000000
B1023444959200N01138712EA0045900488000000
B1023484959200N01138708EA0045900488000000
B1023524959200N01138708EA0045900488000000
B1023564959200N01138708EA0045900488000000
B1024004959200N01138708EA0045900488000000
B1024044959200N01138708EA0045900488000000
B1024084959200N01138708EA0045900488000000
B1024124959200N01138708EA0045900488000000
B1024164959200N01138708EA0045900488000000
B1024204959200N01138708EA0045900496000000
B1024244959200N01138708EA0045900496000000
B1024284959195N01138708EA0045900496000000
B1024324959195N01138708EA0045900496000000
B1024364959195N01138708EA0045900496000000
B1024404959195N01138708EA0045900496000000
B1024444959200N01138708EA0045900496000000
B1024484959200N01138708EA0045900496000000
B1024524959200N01138708EA0045900496000000
B1024564959200N01138708EA0046000496000000
B1025004959200N01138708EA0046000496000000
B1025044959200N01138708EA0046000496000000
B1025084959200N01138708EA0045900496000000
B1025124959200N01138708EA0045900496000000
B1025164959200N01138708EA0045900496000000
B1025204959200N01138708EA0045900488000000
B1025244959200N01138708EA0045900488000000
B1025284959200N01138708EA0045900488000000
B1025324959200N01138708EA0045900488000000
B1025364959200N01138708EA0045900488000000
B1025404959200N01138708EA0045900488000000
B1025444959200N01138708EA0045900488000000
B1025484959200N01138708EA0045900488000004
B1025524959200N01138708EA0045900488000000
B1025564959200N01138708EA0045900488000000
B1026004959200N01138708EA0045900488000000
B1026044959200N01138708EA0045900488000000
B1026084959200N01138708EA0045900488000000
B1026124959200N01138708EA0045900488000000
B1026164959200N01138708EA0045900488000000
B1026204959200N01138708EA0045900488000000
B1026244959200N01138708EA0045900488000000
B1026284959200N01138708EA0045900488000000
B1026324959200N01138708EA0045900488000000
B1026364959200N01138708EA0045900488000008
B1026404959200N01138708EA0045900488000004
B1026444959200N01138708EA0045900488000000
B1026484959200N01138708EA0045900488000004
B1026524959200N01138708EA0045900488000000
B1026564959200N01138708EA0045900488000000
B1027004959200N01138708EA0045900488000000
B1027044959200N01138708EA0045900488000000
B1027084959200N01138708EA0045900488000000
B1027124959200N01138708EA0045900488000000
B1027164959200N01138708EA0045900488000000
B1027204959200N01138708EA0045900488000000
B1027244959200N01138708EA0045900488000000
B1027284959200N01138708EA0045900488000000
B1027324959200N01138708EA0045900488000000
B1027364959200N01138708EA0045900488000000
B1027404959200N01138708EA0045900488000000
B1027444959200N01138708EA0045900488000000
B1027484959200N01138708EA0045900488000000
B1027524959200N01138708EA0045900488000000
B1027564959200N01138708EA0045900488000000
B1028004959200N01138708EA0045900488000000
B1028044959200N01138708EA0045900488000000
B1028084959200N01138708EA0045900488000000
B1028124959200N01138708EA0045900488000000
B1028164959200N01138708EA0045900488000000
B1028204959200N01138708EA0045900488000000
B1028244959200N01138708EA0045900488000000
B1028284959200N01138708EA0045900488000000
B1028324959200N01138708EA0045900488000000
B1028364959200N01138708EA0045900488000000
B1028404959200N01138708EA0045900488000000
B1028444959200N01138708EA0045900488000000
B1028484959200N01138708EA0045900488000000
B1028524959200N01138708EA0045900488000000
B1028564959200N01138708EA0045900488000000
B1029004959200N01138708EA0045900488000000
B1029044959200N01138708EA0045900488000000
B1029084959200N01138708EA0045900480000000
B1029124959200N01138708EA0045900480000000
B1029164959200N01138708EA0045900480000004
B1029204959200N01138708EA0045900488000000
B1029244959200N01138708EA0045900488000004
B1029284959200N01138708EA0045900488000004
B1029324959200N01138708EA0045900488000004
B1029364959200N01138708EA0045900488000004
B1029404959200N01138708EA0045900488000000
B1029444959200N01138708EA0045900488000000
B1029484959200N01138708EA0045900488000000
B1029524959200N01138708EA0045900488000000
B1029564959200N01138708EA0045900488000000
B1030004959200N01138708EA0045900488000000
B1030044959200N01138708EA0045900488000000
B1030084959200N01138708EA0045900488000000
B1030124959200N01138708EA0045900488000000
B1030164959200N01138708EA0045900488000000
B1030204959200N01138708EA0045900488000000
B1030244959200N01138708EA0045900488000000
B1030284959200N01138708EA0045900488000000
B1030324959200N01138708EA0045900488000000
B1030364959200N01138708EA0045900488000000
B1030404959200N01138708EA0045900488000000
B1030444959200N01138708EA0045900488000000
B1030484959200N01138708EA0045900488000000
B1030524959200N01138708EA0045900488000000
B1030564959200N01138708EA0045900488000000
B1031004959200N01138708EA0045900488000000
B1031044959200N01138708EA0045900488000000
B1031084959200N01138708EA0045900488000000
B1031124959200N01138708EA0045900488000000
B1031164959200N01138708EA0045900488000000
B1031204959200N01138708EA0045900488000000
B1031244959200N01138708EA0045900488000000
B1031284959200N01138708EA0045900488000000
B1031324959195N01138708EA0045900488000000
B1031364959195N01138708EA0045900488000000
B1031404959195N01138708EA0045900488000000
B1031444959195N01138708EA0045900488000000
B1031484959195N01138708EA0045900488000000
B1031524959195N01138708EA0045900488000000
B1031564959195N01138708EA0045900488000000
B1032004959195N01138708EA0045900488000000
B1032044959195N01138708EA0045900488000000
B1032084959200N01138708EA0045900488000000
B1032124959200N01138708EA0045900488000000
B1032164959200N01138708EA0045900488000000
B1032204959200N01138708EA0045900488000000
B1032244959200N01138708EA0045900488000000
B1032284959200N01138708EA0045900488000000
B1032324959200N01138708EA0045900488000000
B1032364959200N01138708EA0045900488000000
B1032404959200N01138708EA0045900488000000
B1032444959200N01138708EA0045900488000000
B1032484959200N01138708EA0045900488000000
B1032524959195N01138708EA0045900488000000
B1032564959195N01138708EA0045900488000000
B1033004959195N01138708EA0045900488000000
B1033044959195N01138708EA0045900488000000
B1033084959195N01138708EA0045900488000000
B1033124959200N01138708EA0045900488000000
B1033164959200N01138708EA0045900488000000
B1033204959200N01138708EA0045900488000000
B1033244959200N01138708EA0045900488000000
B1033284959200N01138708EA0045900488000000
B1033324959200N01138708EA0045900488000000
B1033364959200N01138708EA0045900488000000
B1033404959200N01138708EA0045900488000000
B1033444959200N01138708EA0045900488000000
B1033484959200N01138708EA0045900488000000
B1033524959200N01138708EA0045900488000000
B1033564959200N01138708EA0045900488000000
B1034004959200N01138708EA0045900488000000
B1034044959200N01138708EA0045900488000000
B1034084959200N01138708EA0045900488000000
B1034124959200N01138708EA0045900488000000
B1034164959200N01138708EA0045900488000000
B1034204959200N01138708EA0045900488000004
B1034244959200N01138708EA0045900488000000
B1034284959200N01138708EA0045900488000004
B1034324959200N01138708EA0045900488000004
B1034364959200N01138708EA0045900488000000
B1034404959195N01138708EA0045900488000000
B1034444959195N01138708EA0045900488000000
B1034484959195N01138708EA0045900488000000
B1034524959195N01138708EA0045900488000000
B1034564959195N01138708EA0045900488000000
B1035004959195N01138708EA0045900488000004
B1035044959195N01138708EA0045900488000000
B1035084959200N01138708EA0045900488000004
B1035124959200N01138708EA0045900488000004
B1035164959200N01138708EA0045900488000004
B1035204959200N01138708EA0045900488000004
B1035244959200N01138708EA0045900488000004
B1035284959195N01138708EA0045900488000004
B1035324959195N01138708EA0045900488000004
B1035364959195N01138708EA0045900488000004
B1035404959195N01138708EA0045900488000004
B1035444959195N01138708EA0045900488000004
B1035484959195N01138708EA0045900488000000
B1035524959195N01138708EA0045900488000000
B1035564959195N01138708EA0045900488000000
B1036004959195N01138708EA0045900488000000
B1036044959195N01138708EA0045900488000004
B1036084959200N01138708EA0045900488000000
B1036124959200N01138708EA0045900488000004
B1036164959200N01138708EA0045900488000004
B1036204959200N01138708EA0045900488000000
B1036244959200N01138708EA0045900488000000
B1036284959200N01138708EA0045900488000000
B1036324959200N01138708EA0045900488000000
B1036364959200N01138708EA0045900488000000
B1036404959200N01138708EA0045900488000000
B1036444959200N01138708EA0045900488000000
B1036484959200N01138708EA0045900488000000
B1036524959200N01138708EA0045900488000000
B1036564959200N01138708EA0045900488000000
B1037004959200N01138708EA0045900488000000
B1037044959200N01138708EA0045900488000000
B1037084959200N01138708EA0045900488000000
B1037124959200N01138708EA0045900488000000
B1037164959200N01138708EA0045900488000000
B1037204959200N01138708EA0045900488000000
B1037244959195N01138708EA0045900488000000
B1037284959195N01138708EA0045900488000000
B1037324959195N01138708EA0045900488000000
B1037364959195N01138708EA0045900488000000
B1037404959195N01138708EA0045900488000000
B1037444959200N01138708EA0045900488000000
B1037484959200N01138708EA0045900488000000
B1037524959200N01138708EA0045900488000000
B1037564959200N01138708EA0045900488000000
B1038004959200N01138708EA0045900488000000
B1038044959200N01138708EA0045900488000000
B1038084959200N01138708EA0045900488000000
B1038124959200N01138708EA0045900488000000
B1038164959200N01138708EA0045900488000000
B1038204959200N01138708EA0045900488000000
B1038244959200N01138708EA0045900488000000
B1038284959200N01138708EA0045900488000000
B1038324959200N01138708EA0045900488000000
B1038364959200N01138708EA0045900488000000
B1038404959200N01138708EA0045900488000000
B1038444959200N01138708EA0045900488000000
B1038484959200N01138708EA0045900488000000
B1038524959200N01138708EA0045900488000004
B1038564959200N01138708EA0045900488000000
B1039004959200N01138708EA0045900488000000
B1039044959200N01138708EA0045900488000000
B1039084959200N01138708EA0045900488000000
B1039124959200N01138708EA0045900488000000
B1039164959200N01138708EA0045900488000000
B1039204959200N01138708EA0045900488000000
B1039244959200N01138708EA0045900488000000
B1039284959200N01138708EA0045900488000000
B1039324959200N01138708EA0045900488000000
B1039364959200N01138708EA0045900488000000
B1039404959200N01138708EA0045900488000000
B1039444959200N01138708EA0045900488000000
B1039484959200N01138708EA0045900488000000
B1039524959200N01138708EA0045900488000000
B1039564959200N01138708EA0045900488000000
B1040004959200N01138708EA0045900488000000
B1040044959200N01138708EA0045900488000000
B1040084959200N01138708EA0045900488000000
B1040124959200N01138708EA0045900488000000
B1040164959200N01138708EA0045900488000000
B1040204959200N01138708EA0045900488000000
B1040244959200N01138708EA0045900488000000
B1040284959195N01138708EA0045900488000004
B1040324959195N01138708EA0045900488000000
B1040364959200N01138708EA0045900488000008
B1040404959200N01138708EA0045900488000008
B1040444959200N01138708EA0045900488000004
B1040484959200N01138708EA0045900488000008
B1040524959200N01138708EA0045900488000004
B1040564959200N01138708EA0045900488000004
B1041004959200N01138708EA0045900488000004
B1041044959200N01138708EA0045900488000004
B1041084959200N01138708EA0045900488000004
B1041124959200N01138708EA0045900488000004
B1041164959200N01138708EA0045900488000008
B1041204959200N01138708EA0045900488000008
B1041244959200N01138708EA0045900488000024
B1041284959200N01138708EA0045900488000016
B1041324959200N01138708EA0045900488000000
B1041364959200N01138708EA0045900488000012
B1041404959200N01138708EA0045900488000008
B1041444959200N01138708EA0045900488000004
B1041484959200N01138708EA0045900488000008
B1041524959200N01138708EA0045900488000008
B1041564959200N01138708EA0045900488000008
B1042004959200N01138708EA0045900488000008
B1042044959200N01138708EA0045900488000008
B1042084959200N01138708EA0045900488000008
B1042124959200N01138708EA0045900488000008
B1042164959200N01138708EA0045900488000008
B1042204959200N01138708EA0045900488000008
B1042244959200N01138708EA0045900488000008
B1042284959200N01138708EA0045900488000008
B1042324959200N01138708EA0045900488000008
B1042364959200N01138708EA0045900488000008
B1042404959200N01138708EA0045900488000008
B1042444959200N01138708EA0045900488000008
B1042484959200N01138708EA0045900488000008
B1042524959200N01138708EA0045900488000008
B1042564959200N01138708EA0045900488000008
B1043004959200N01138708EA0045900488000008
B1043044959200N01138708EA0045900488000008
B1043084959200N01138708EA0045900488000012
B1043124959200N01138708EA0045900488000008
B1043164959200N01138708EA0045900488000028
B1043204959200N01138708EA0045900488000020
B1043244959200N01138708EA0045900488000004
B1043284959200N01138708EA0045900488000016
B1043324959200N01138708EA0045900488000012
B1043364959200N01138708EA0045900488000008
B1043404959200N01138708EA0045900488000012
B1043444959200N01138708EA0045900488000012
B1043484959200N01138708EA0045900488000008
B1043524959200N01138708EA0045900488000008
B1043564959200N01138708EA0045900488000028
B1044004959200N01138708EA0045900488000016
B1044044959200N01138708EA0045900488000016
B1044084959200N01138708EA0045900488000024
B1044124959200N01138708EA0045900488000000
B1044164959200N01138708EA0045900488000008
B1044204959200N01138708EA0045900488000008
B1044244959200N01138708EA0045900488000004
B1044284959200N01138708EA0045900488000008
B1044324959200N01138708EA0045900488000008
B1044364959200N01138708EA0045900488000008
B1044404959200N01138708EA0045900488000008
B1044444959200N01138708EA0045900488000012
B1044484959200N01138708EA0045900488000008
B1044524959200N01138708EA0045900488000012
B1044564959200N01138708EA0045900488000012
B1045004959200N01138708EA0045900488000012
B1045044959200N01138708EA0045900488000012
B1045084959200N01138708EA0045900488000008
B1045124959200N01138708EA0045900488000008
B1045164959200N01138708EA0045900488000008
B1045204959200N01138708EA0045900488000008
B1045244959200N01138708EA0045900488000056
B1045284959200N01138708EA0045800488000032
B1045324959200N01138708EA0045800488000024
B1045364959200N01138708EA0045800488000040
B1045404959200N01138708EA0045800488000028
B1045444959200N01138708EA0045800488000024
B1045484959200N01138708EA0045800488000000
B1045524959200N01138708EA0045800488000016
B1045564959200N01138708EA0045800488000028
B1046004959200N01138708EA0045800488000016
B1046044959200N01138708EA0045800488000016
B1046084959200N01138708EA0045800488000024
B1046124959200N01138708EA0045800488000016
B1046164959200N01138708EA0045800488000016
B1046204959200N01138708EA0045800488000016
B1046244959200N01138708EA0045800488000016
B1046284959200N01138708EA0045800488000064
B1046324959200N01138708EA0045800488000040
B1046364959200N01138708EA0045800488000032
B1046404959200N01138708EA0045800488000048
B1046444959200N01138708EA0045800488000024
B1046484959200N01138708EA0045800488000028
B1046524959200N01138708EA0045800488000028
B1046564959200N01138708EA0045800488000024
B1047004959200N01138708EA0045800488000048
B1047044959200N01138708EA0045800488000040
B1047084959200N01138708EA0045800488000048
B1047124959200N01138708EA0045800488000048
B1047164959200N01138708EA0045800488000016
B1047204959200N01138708EA0045800488000032
B1047244959200N01138708EA0045800488000004
B1047284959200N01138708EA0045800488000008
B1047324959200N01138708EA0045800488000024
B1047364959200N01138708EA0045800488000016
B1047404959200N01138708EA0045800488000096
B1047444959200N01138708EA0045800488000060
B1047484959200N01138708EA0045800488000044
B1047524959200N01138708EA0045800488000072
B1047564959200N01138708EA0045800488000008
B1048004959200N01138708EA0045800488000024
B1048044959200N01138708EA0045800488000012
B1048084959200N01138708EA0045800488000008
B1048124959200N01138708EA0045800488000008
B1048164959195N01138708EA0045800488000008
B1048204959195N01138708EA0045800488000008
B1048244959195N01138708EA0045800488000008
B1048284959200N01138708EA0045800488000008
B1048324959200N01138708EA0045800488000008
B1048364959200N01138708EA0045900488000008
B1048404959200N01138708EA0045900488000008
B1048444959200N01138708EA0045900488000008
B1048484959200N01138708EA0045900488000008
B1048524959200N01138708EA0045900488000008
B1048564959200N01138708EA0045900488000008
B1049004959200N01138708EA0045900488000008
B1049044959200N01138708EA0045800488000008
B1049084959200N01138708EA0045800488000004
B1049124959200N01138708EA0045800488000008
B1049164959200N01138708EA0045800488000000
B1049204959200N01138708EA0045800488000000
B1049244959200N01138708EA0045800488000000
B1049284959195N01138708EA0045800488000000
B1049324959200N01138708EA0045800488000000
B1049364959195N01138708EA0045800488000000
B1049404959195N01138708EA0045800488000000
B1049444959200N01138708EA0045800488000000
B1049484959200N01138708EA0045800488000004
B1049524959200N01138708EA0045800488000000
B1049564959200N01138708EA0045800488000000
B1050004959200N01138708EA0045800488000000
B1050044959200N01138708EA0045800488000000
B1050084959200N01138708EA0045800488000000
B1050124959200N01138708EA0045800488000000
B1050164959200N01138708EA0045800488000000
B1050204959200N01138708EA0045800488000000
B1050244959200N01138708EA0045800488000000
B1050284959200N01138708EA0045800488000000
B1050324959200N01138708EA0045800488000000
B1050364959200N01138708EA0045800488000000
B1050404959200N01138708EA0045800488000000
B1050444959200N01138708EA0045800488000000
B1050484959200N01138708EA0045800488000000
B1050524959200N01138708EA0045800488000000
B1050564959200N01138708EA0045800488000000
B1051004959200N01138708EA0045800488000000
B1051044959200N01138708EA0045800488000000
B1051084959200N01138708EA0045800488000004
B1051124959200N01138708EA0045800488000000
B1051164959200N01138708EA0045800488000004
B1051204959200N01138708EA0045800480000004
B1051244959200N01138708EA0045800488000008
B1051284959200N01138708EA0045800488000008
B1051324959200N01138708EA0045800488000004
B1051364959200N01138708EA0045800488000008
B1051404959200N01138708EA0045800488000008
B1051444959200N01138708EA0045800488000008
B1051484959200N01138708EA0045800488000028
B1051524959200N01138708EA0045900488000016
B1051564959200N01138708EA0045900488000004
B1052004959200N01138708EA0045900488000016
B1052044959200N01138708EA0045900488000012
B1052084959200N01138708EA0045900488000008
B1052124959200N01138708EA0045900488000008
B1052164959200N01138708EA0045900488000008
B1052204959200N01138708EA0045900488000024
B1052244959200N01138708EA0045900488000016
B1052284959200N01138708EA0045900488000004
B1052324959200N01138708EA0045900488000016
B1052364959200N01138708EA0045900488000012
B1052404959200N01138708EA0045900488000008
B1052444959200N01138708EA0045900488000004
B1052484959200N01138708EA0045900488000008
B1052524959200N01138708EA0045900488000012
B1052564959200N01138708EA0045900488000008
B1053004959200N01138708EA0045900488000012
B1053044959200N01138708EA0045900488000012
B1053084959200N01138708EA0045900488000008
B1053124959200N01138708EA0045900488000008
B1053164959200N01138708EA0045900488000028
B1053204959200N01138708EA0045900488000016
B1053244959200N01138708EA0045900488000004
B1053284959200N01138708EA0045900488000016
B1053324959200N01138708EA0045900488000008
B1053364959200N01138708EA0045900488000008
B1053404959200N01138708EA0045900488000008
B1053444959200N01138708EA0045900488000008
B1053484959200N01138708EA0045900488000028
B1053524959200N01138708EA0045900488000016
B1053564959200N01138708EA0045900488000016
B1054004959200N01138708EA0045900488000024
B1054044959200N01138708EA0045900488000000
B1054084959200N01138708EA0045900488000008
B1054124959200N01138708EA0045900488000028
B1054164959200N01138708EA0045900488000016
B1054204959200N01138708EA0045900488000004
B1054244959200N01138708EA0045900488000016
B1054284959200N01138708EA0045900488000028
B1054324959200N01138708EA0045900488000016
B1054364959200N01138708EA0045900488000000
B1054404959200N01138708EA0045900488000016
B1054444959200N01138708EA0045900488000012
B1054484959200N01138708EA0045900488000008
B1054524959200N01138708EA0045900488000004
B1054564959200N01138708EA0045900488000008
B1055004959200N01138712EA0045900488000004
B1055044959200N01138708EA0045900488000004
B1055084959200N01138708EA0045900488000004
B1055124959200N01138708EA0045900488000004
B1055164959200N01138708EA0045900488000004
B1055204959200N01138708EA0045900488000004
B1055244959200N01138708EA0045900488000004
B1055284959200N01138708EA0045900488000004
B1055324959200N01138708EA0045900488000004
B1055364959200N01138708EA0045900488000004
B1055404959200N01138708EA0045900488000008
B1055444959200N01138708EA0045900488000008
B1055484959200N01138708EA0045900488000024
B1055524959200N01138708EA0045900488000016
B1055564959200N01138708EA0045900488000024
B1056004959200N01138708EA0045900488000024
B1056044959200N01138708EA0045900488000016
B1056084959200N01138708EA0045900488000020
B1056124959200N01138708EA0045900488000076
B1056164959200N01138708EA0045900488000048
B1056204959195N01138708EA0045900488000040
B1056244959200N01138708EA0045900488000056
B1056284959200N01138708EA0045900488000000
B1056324959200N01138708EA0045900488000020
B1056364959200N01138708EA0045900488000008
B1056404959200N01138708EA0045900488000004
B1056444959200N01138708EA0045900488000004
B1056484959200N01138708EA0045900488000008
B1056524959200N01138708EA0045900488000004
B1056564959200N01138708EA0045900488000004
B1057004959200N01138708EA0045900488000008
B1057044959200N01138708EA0045900488000008
B1057084959200N01138708EA0045900488000040
B1057124959200N01138708EA0045900488000024
B1057164959200N01138708EA0045900488000080
B1057204959200N01138708EA0045900488000060
B1057244959200N01138708EA0045900488000020
B1057284959200N01138708EA0045900488000048
B1057324959200N01138708EA0045900488000012
B1057364959200N01138708EA0045900488000016
B1057404959200N01138708EA0045900488000008
B1057444959200N01138708EA0045900488000008
B1057484959200N01138708EA0045900488000008
B1057524959200N01138708EA0045900488000008
B1057564959200N01138708EA0045900488000028
B1058004959200N01138708EA0045900488000016
B1058044959200N01138708EA0045900488000156
B1058084959200N01138708EA0045900488000152
B1058124959200N01138708EA0045900488000048
B1058164959200N01138708EA0045900488000100
B1058204959200N01138708EA0045900488000012
B1058244959200N01138708EA0045900488000032
B1058284959200N01138708EA0045900488000008
B1058324959200N01138708EA0045900488000008
B1058364959200N01138708EA0045900488000004
B1058404959200N01138708EA0045900488000008
B1058444959200N01138708EA0045900488000004
B1058484959200N01138708EA0045900488000004
B1058524959200N01138708EA0045900488000028
B1058564959200N01138708EA0045900488000016
B1059004959200N01138708EA0045900488000064
B1059044959200N01138708EA0045900488000048
B1059084959195N01138708EA0045900488000064
B1059124959195N01138708EA0045900488000064
B1059164959195N01138708EA0045900488000020
B1059204959200N01138708EA0045900488000040
B1059244959200N01138708EA0045900488000000
B1059284959200N01138708EA0045900488000008
B1059324959200N01138708EA0045900488000008
B1059364959200N01138708EA0045900488000004
B1059404959200N01138708EA0045900488000004
B1059444959200N01138708EA0045900488000008
B1059484959200N01138708EA0045900488000000
B1059524959200N01138708EA0045900488000000
B1059564959200N01138708EA0045900488000008
B1100004959200N01138708EA0045900488000004
B1100044959200N01138708EA0045900488000024
B1100084959200N01138708EA0045900488000016
B1100124959200N01138708EA0045900488000000
B1100164959200N01138708EA0045900488000012
B1100204959200N01138708EA0045900488000012
B1100244959200N01138708EA0045900488000008
B1100284959200N01138708EA0045900488000000
B1100324959200N01138708EA0045900488000008
B1100364959200N01138708EA0045900488000000
B1100404959200N01138708EA0045900488000000
B1100444959200N01138708EA0045900488000000
B1100484959200N01138708EA0045900488000000
B1100524959200N01138708EA0045900488000000
B1100564959200N01138708EA0045900488000000
B1101004959200N01138708EA0045900488000000
B1101044959200N01138708EA0045900488000000
B1101084959200N01138708EA0045900488000004
B1101124959200N01138708EA0045900488000000
B1101164959200N01138708EA0045900488000020
B1101204959200N01138708EA0045900488000012
B1101244959200N01138708EA0045900488000000
B1101284959200N01138708EA0045900488000008
B1101324959200N01138708EA0045900488000008
B1101364959200N01138708EA0045900488000004
B1101404959200N01138708EA0045900488000000
B1101444959200N01138708EA0045900488000004
B1101484959200N01138708EA0045900488000000
B1101524959200N01138708EA0045900488000000
B1101564959200N01138708EA0045900488000000
B1102004959200N01138708EA0045900488000000
B1102044959200N01138708EA0045900488000000
B1102084959200N01138708EA0045900488000000
B1102124959200N01138708EA0045900488000000
B1102164959200N01138708EA0045900488000000
B1102204959200N01138708EA0045900488000000
B1102244959200N01138708EA0045900488000000
B1102284959200N01138708EA0045900488000000
B1102324959200N01138708EA0045900488000000
B1102364959200N01138708EA0045900488000000
B1102404959200N01138708EA0045900488000000
B1102444959200N01138708EA0045900488000000
B1102484959200N01138708EA0045900488000000
B1102524959200N01138708EA0046000488000000
B1102564959200N01138708EA0046000488000000
B1103004959200N01138708EA0046000488000000
B1103044959200N01138708EA0046000488000000
B1103084959200N01138708EA0046000488000000
B1103124959200N01138708EA0046000488000000
B1103164959200N01138708EA0046000488000000
B1103204959200N01138708EA0046000488000000
B1103244959200N01138708EA0046000488000000
B1103284959200N01138708EA0046000488000000
B1103324959200N01138708EA0046000488000000
B1103364959200N01138708EA0046000488000000
B1103404959200N01138708EA0046000488000000
B1103444959200N01138708EA0046000488000000
B1103484959200N01138708EA0046000488000000
B1103524959200N01138708EA0045900488000000
B1103564959200N01138708EA0045900488000000
B1104004959200N01138708EA0045900488000000
B1104044959200N01138708EA0045900488000000
B1104084959200N01138708EA0045900488000000
B1104124959200N01138708EA0045900488000004
B1104164959200N01138708EA0045900488000000
B1104204959200N01138708EA0045900488000004
B1104244959200N01138708EA0045900488000004
B1104284959200N01138708EA0045900488000008
B1104324959200N01138708EA0045900488000008
B1104364959200N01138708EA0045900488000008
B1104404959200N01138708EA0045900488009008
B1104444959200N01138708EA0045900488005012
B1104484959200N01138708EA0045900488006008
B1104524959200N01138708EA0045900488008028
B1104564959200N01138708EA0045900488015020
B1105004959200N01138708EA0045900488011000
B1105044959200N01138708EA0046000488013016
B1105084959200N01138708EA0045900488015028
B1105124959200N01138708EA0045900488012016
B1105164959200N01138708EA0045900488015016
B1105204959200N01138708EA0045900488012024
B1105244959200N01138708EA0045900488015020
B1105284959200N01138708EA0046000488016016
B1105324959200N01138708EA0046000488011020
B1105364959200N01138708EA0046000488013020
B1105404959200N01138708EA0046000488011000
B1105444959200N01138708EA0046000488012008
B1105484959200N01138708EA0046000488010012
B1105524959200N01138708EA0046000488005008
B1105564959200N01138708EA0046000488018028
B1106004959200N01138708EA0046000488011020
B1106044959200N01138708EA0046000488013016
B1106084959200N01138708EA0046000488005024
B1106124959200N01138708EA0046000488007084
B1106164959200N01138708EA0046000488005048
B1106204959200N01138708EA0046000488000084
B1106244959200N01138708EA0046000488019084
B1106284959200N01138708EA0046000488004012
B1106324959200N01138708EA0046000488004048
B1106364959200N01138708EA0045900488002012
B1106404959200N01138708EA0046000488000012
B1106444959200N01138708EA0046000488000024
B1106484959200N01138708EA0045900488000016
B1106524959200N01138708EA0045900488008016
B1106564959200N01138708EA0045900488012020
B1107004959200N01138708EA0045900488000060
B1107044959200N01138708EA0045900488005040
B1107084959200N01138708EA0046000488017240
B1107124959200N01138708EA0046000488013720
B1107164959200N01138708EA0046000488000999
B1107204959200N01138708EA0045900488006999
B1107244959200N01138708EA0045900488001999
B1107284959200N01138708EA0046000488019999
B1107324959195N01138695EA0046000488030999
B1107364959187N01138670EA0046000488038999
B1107404959170N01138637EA0046000488044999
B1107444959154N01138591EA0045900488057999
B1107484959133N01138533EA0045900488068999
B1107524959108N01138470EA0045900488079999
B1107564959083N01138395EA0046100488088999
B1108004959054N01138316EA0046100488093999
K110800000000
B1108044959020N01138233EA0046800488103999
B1108084958987N01138141EA0047400496107999
B1108124958958N01138062EA0049200512099999
B1108164958929N01137987EA0050400528095999
B1108204958900N01137908EA0051100536095999
K110820206004
B1108244958866N01137837EA0051200536096999
B1108284958833N01137762EA0052500552100999
B1108324958795N01137691EA0053700568099999
B1108364958754N01137625EA0054800576097999
B1108404958712N01137566EA0055200584098999
K110840188007
B1108444958666N01137516EA0056000592095999
B1108484958616N01137470EA0056700592093999
B1108524958562N01137433EA0057200608094999
B1108564958508N01137404EA0058300616095999
B1109004958445N01137383EA0058700624102999
K110900140012
B1109044958387N01137370EA0060900640099999
B1109084958329N01137370EA0061800656095999
B1109124958270N01137366EA0062700664093999
B1109164958212N01137379EA0062400656099999
B1109204958145N01137395EA0062100656098999
K110920112010
B1109244958087N01137425EA0062500664099999
B1109284958029N01137458EA0062900664099999
B1109324957970N01137491EA0063200672099999
B1109364957916N01137529EA0064000672099999
B1109404957862N01137570EA0064700680094999
K110940134002
B1109444957808N01137616EA0065000688092999
B1109484957754N01137662EA0064800680100999
B1109524957695N01137716EA0065200688102999
B1109564957645N01137766EA0065200688096999
B1110004957591N01137820EA0065300688094999
K111000242004
B1110044957541N01137879EA0066100704093999
B1110084957491N01137937EA0066700712090999
B1110124957437N01137991EA0067800720097999
B1110164957383N01138045EA0069000728097999
B1110204957333N01138104EA0070700744099999
K111020264009
B1110244957287N01138170EA0072300760094999
B1110284957250N01138254EA0073200768094999
B1110324957225N01138345EA0074300784093999
B1110364957216N01138445EA0075800800098999
B1110404957229N01138545EA0076700808091999
K111040322005
B1110444957266N01138625EA0077500816092999
B1110484957325N01138670EA0078400824092999
B1110524957391N01138670EA0078600832097999
B1110564957450N01138633EA0079200840099999
B1111004957495N01138562EA0081000856097999
K111100322005
B1111044957512N01138479EA0082000864096999
B1111084957500N01138400EA0082800872088999
B1111124957454N01138345EA0082700872090999
B1111164957395N01138341EA0083100880096999
B1111204957341N01138383EA0084400888093999
K111120322005
B1111244957308N01138470EA0085200896092999
B1111284957312N01138566EA0085400904093999
B1111324957345N01138650EA0085500904092999
B1111364957400N01138695EA0085800904091999
B1111404957466N01138700EA0085700896096999
K111140236006
B1111444957529N01138666EA0085600896102999
B1111484957570N01138600EA0087400920097999
B1111524957591N01138520EA0088800936089999
B1111564957579N01138437EA0089000936093999
B1112004957537N01138375EA0090100944095999
K111200244006
B1112044957479N01138350EA0091300960092999
B1112084957416N01138354EA0093200976097999
B1112124957358N01138370EA0095400992094999
B1112164957308N01138425EA0096901016092999
B1112204957279N01138512EA0097701024092999
K111220242006
B1112244957275N01138608EA0098401032088999
B1112284957291N01138700EA0098301032087999
B1112324957325N01138770EA0097701024084999
B1112364957379N01138812EA0096701016085824
B1112404957441N01138816EA0096201008089360
K111240244007
B1112444957495N01138795EA0096401016086064
B1112484957537N01138750EA0096501008082212
B1112524957558N01138675EA0096001008090052
B1112564957558N01138595EA0095501000083056
B1113004957529N01138525EA0094600992088060
K111300242007
B1113044957487N01138479EA0094500992090056
B1113084957425N01138495EA0093900984093072
B1113124957391N01138583EA0095100992093064
B1113164957395N01138679EA0095601008087052
B1113204957445N01138741EA0095901008088064
K111320262008
B1113244957504N01138750EA0096401008091036
B1113284957545N01138700EA0096801016084044
B1113324957558N01138620EA0095801008089040
B1113364957537N01138541EA0095101000093040
B1113404957483N01138508EA0095101000096036
K111340266009
B1113444957429N01138554EA0096101008093040
B1113484957412N01138650EA0097301024089044
B1113524957437N01138741EA0097601024089040
B1113564957491N01138787EA0098201032092036
B1114004957545N01138770EA0098801040088040
K111400260008
B1114044957575N01138704EA0098201032087032
B1114084957570N01138620EA0097101016093032
B1114124957529N01138545EA0096401016102040
B1114164957470N01138500EA0097501024100036
B1114204957416N01138470EA0098101032095040
K111420264009
B1114244957354N01138462EA0099001040093040
B1114284957295N01138504EA0098801040094040
B1114324957254N01138587EA0098601032099040
B1114364957229N01138691EA0099301040099044
B1114404957229N01138791EA0100001048089040
K111440274009
B1114444957270N01138870EA0099201040092044
B1114484957329N01138912EA0098301032095044
B1114524957395N01138904EA0097701024099040
B1114564957458N01138870EA0097901024100040
B1115004957508N01138812EA0098501032099040
K111500274009
B1115044957537N01138737EA0099201040090040
B1115084957562N01138658EA0099501040086044
B1115124957562N01138570EA0098901040100040
B1115164957529N01138491EA0098801040100044
B1115204957470N01138462EA0099101040096044
K111520274009
B1115244957416N01138487EA0100001048091044
B1115284957366N01138537EA0100101056085044
B1115324957325N01138608EA0100101048090024
B1115364957300N01138704EA0099501048097032
B1115404957279N01138816EA0100001056102044
K111540274009
B1115444957258N01138920EA0100701064096032
B1115484957262N01139025EA0100401056098032
B1115524957262N01139133EA0098801040111040
B1115564957262N01139245EA0098501040107016
B1116004957258N01139358EA0098201032105024
K111600274009
B1116044957250N01139466EA0098301040101024
B1116084957245N01139575EA0098501040102020
B1116124957241N01139687EA0098501032100024
B1116164957237N01139800EA0098001032103024
B1116204957237N01139912EA0097701032104020
K111620310010
B1116244957237N01140025EA0097001024101024
B1116284957241N01140141EA0096701016102020
B1116324957237N01140254EA0096501016106020
B1116364957229N01140366EA0096701016098020
B1116404957220N01140470EA0097001024090020
K111640290011
B1116444957220N01140575EA0096801016095020
B1116484957216N01140683EA0097501024096020
B1116524957212N01140779EA0098301032091020
B1116564957170N01140854EA0098401032096020
B1117004957104N01140862EA0098801040096024
K111700278013
B1117044957075N01140791EA0099301040096024
B1117084957108N01140720EA0099301040097028
B1117124957175N01140729EA0099701048098024
B1117164957216N01140808EA0100201056094044
B1117204957220N01140904EA0101001064091036
K111720278013
B1117244957195N01140991EA0101401064087016
B1117284957137N01141029EA0100901056096032
B1117324957087N01140983EA0100101056103044
B1117364957091N01140891EA0100101056098032
B1117404957145N01140845EA0100101056101032
K111740250010
B1117444957204N01140825EA0101001064093040
B1117484957270N01140829EA0101501064093036
B1117524957325N01140879EA0102201072089032
B1117564957362N01140966EA0101901072095032
B1118004957345N01141066EA0102401072091032
K111800244012
B1118044957291N01141100EA0101901072094032
B1118084957241N01141037EA0101201064103032
B1118124957229N01140945EA0102801080092036
B1118164957266N01140879EA0103101080091032
B1118204957329N01140866EA0103101080098032
K111820242008
B1118244957391N01140879EA0103301088095032
B1118284957437N01140950EA0103201080095032
B1118324957437N01141054EA0101901072102032
B1118364957387N01141125EA0101101064104032
B1118404957320N01141116EA0100901064109032
K111840246004
B1118444957266N01141050EA0101001064109020
B1118484957225N01140970EA0102501080103024
B1118524957195N01140887EA0103301088101020
B1118564957220N01140808EA0103901088092020
B1119004957279N01140804EA0103701088094040
K111900266005
B1119044957329N01140875EA0103401080098032
B1119084957325N01140975EA0103401088091036
B1119124957275N01141037EA0103101080096040
B1119164957212N01141054EA0102501080107032
B1119204957145N01141062EA0103901096099032
K111920264007
B1119244957083N01141087EA0104801104089020
B1119284957029N01141129EA0105201104091024
B1119324956966N01141150EA0103401096104024
B1119364956891N01141158EA0102201088116024
B1119404956816N01141158EA0101801080116028
K111940266007
B1119444956745N01141154EA0102201080108024
B1119484956675N01141145EA0100901072117024
B1119524956595N01141141EA0098101048131024
B1119564956504N01141145EA0097301032134024
B1120004956420N01141170EA0099101040125024
K112000264010
B1120044956345N01141204EA0101601072108028
B1120084956283N01141241EA0102101080100024
B1120124956216N01141270EA0102101072100028
B1120164956150N01141304EA0102101080101028
B1120204956083N01141333EA0102801080103024
K112020290011
B1120244956025N01141370EA0103101088098024
B1120284955970N01141416EA0103301088090024
B1120324955908N01141458EA0101901072101024
B1120364955837N01141466EA0101801072110020
B1120404955766N01141454EA0103701088105024
K112040300008
B1120444955720N01141400EA0104601096088024
B1120484955712N01141316EA0103201088095024
B1120524955750N01141237EA0101801072105028
B1120564955812N01141187EA0101801072104024
B1121004955879N01141170EA0101801072101040
K112100300008
B1121044955945N01141200EA0101701064106032
B1121084956000N01141262EA0101401064100040
B1121124956050N01141329EA0101601064094040
B1121164956091N01141404EA0101301064090020
B1121204956133N01141487EA0100801056091032
K112120300008
B1121244956162N01141583EA0100401048093028
B1121284956183N01141683EA0100101056087024
B1121324956200N01141787EA0100101048091028
B1121364956216N01141895EA0100101056094028
B1121404956220N01141995EA0100401056091028
K112140290011
B1121444956195N01142091EA0100001048096028
B1121484956154N01142170EA0100501056094028
B1121524956108N01142237EA0101501072088028
B1121564956058N01142283EA0101401064088028
B1122004955995N01142283EA0100601056098028
K112200290011
B1122044955941N01142245EA0100901064086040
B1122084955900N01142195EA0100601056085032
B1122124955862N01142129EA0100001048090036
B1122164955825N01142062EA0099701048090040
B1122204955795N01141995EA0099701048087032
K112220290011
B1122244955762N01141929EA0099701048091032
B1122284955733N01141858EA0099601048088036
B1122324955720N01141779EA0098901040087032
B1122364955733N01141687EA0097901032102032
B1122404955762N01141595EA0098301040100032
K112240296011
B1122444955775N01141508EA0099101040090020
B1122484955791N01141425EA0099701048088024
B1122524955795N01141337EA0100001048088028
B1122564955770N01141258EA0100001048088024
B1123004955725N01141220EA0099701048085024
K112300296011
B1123044955666N01141233EA0098601032095024
B1123084955629N01141308EA0098501032090044
B1123124955625N01141400EA0098001032085032
B1123164955633N01141495EA0097201024090032
B1123204955650N01141595EA0096401008098040
K112320296011
B1123244955662N01141700EA0095801008097032
B1123284955675N01141804EA0095801008102032
B1123324955691N01141908EA0096601016091032
B1123364955725N01141991EA0096801016089032
B1123404955783N01142029EA0096001008092036
K112340296011
B1123444955845N01142020EA0095101000102032
B1123484955912N01141991EA0095401000096032
B1123524955966N01141954EA0095601008097032
B1123564956020N01141912EA0096101008095036
B1124004956066N01141854EA0096401008094032
K112400296011
B1124044956079N01141770EA0096201008097016
B1124084956037N01141716EA0096201008094024
B1124124955975N01141729EA0095801008098044
B1124164955945N01141804EA0096801016096032
B1124204955966N01141891EA0096801016094020
K112420296011
B1124244956025N01141904EA0096801016101032
B1124284956062N01141837EA0096701016097036
B1124324956041N01141758EA0096801016093028
B1124364955987N01141733EA0096901016093032
B1124404955933N01141766EA0098201024089032
K112440318003
B1124444955916N01141850EA0098401032090024
B1124484955945N01141929EA0098201032095028
B1124524956004N01141945EA0098401032096024
B1124564956041N01141875EA0098301032098024
B1125004956016N01141791EA0097901024103044
K112500290004
B1125044955950N01141804EA0098801040104032
B1125084955925N01141887EA0099701048089016
B1125124955958N01141966EA0099201040098032
B1125164956020N01141962EA0099501048101044
B1125204956045N01141883EA0100001056093032
K112520278005
B1125244956008N01141812EA0099401040100032
B1125284955945N01141820EA0099701048104040
B1125324955916N01141908EA0100601064092020
B1125364955950N01141987EA0100901064099024
B1125404956008N01141983EA0101201064093044
K112540260004
B1125444956033N01141900EA0101301064098032
B1125484956004N01141825EA0101301064102016
B1125524955941N01141829EA0102401072097032
B1125564955916N01141912EA0103101080091024
B1126004955945N01141995EA0103101088100020
K112600286003
B1126044956004N01142008EA0103801088093024
B1126084956041N01141945EA0103501088094024
B1126124956025N01141858EA0103201080100044
B1126164955970N01141820EA0103901080097032
B1126204955912N01141854EA0104701096090016
K112620300003
B1126244955895N01141945EA0105101104097032
B1126284955933N01142025EA0105501104103024
B1126324955991N01142016EA0106101112095020
B1126364956020N01141937EA0106401112096020
B1126404955991N01141854EA0106501112101024
K112640308004
B1126444955929N01141862EA0106901120098024
B1126484955900N01141954EA0107801128096024
B1126524955933N01142029EA0108201136096028
B1126564955995N01142041EA0108401136093024
B1127004956037N01141979EA0109201136093024
K112700268003
B1127044956037N01141895EA0109901144093024
B1127084955991N01141841EA0110601152097044
B1127124955937N01141870EA0111201160088032
B1127164955920N01141966EA0111101160097032
B1127204955958N01142041EA0111601160092040
K112720266002
B1127244956016N01142045EA0111901168091036
B1127284956058N01141987EA0112201168095032
B1127324956045N01141900EA0112001176096032
B1127364955987N01141875EA0112601176098032
B1127404955945N01141937EA0113501192092020
K112740250005
B1127444955954N01142033EA0114401200092024
B1127484956004N01142079EA0114801200092020
B1127524956058N01142050EA0114501200095020
B1127564956079N01141966EA0114701200097020
B1128004956041N01141895EA0115201200093020
K112800254005
B1128044955983N01141895EA0115301208096024
B1128084955945N01141975EA0115801208097024
B1128124955962N01142075EA0116201216102024
B1128164956020N01142116EA0116801224095024
B1128204956070N01142075EA0116301216096020
K112820248003
B1128244956070N01141979EA0116301216102024
B1128284956025N01141920EA0116801224095024
B1128324955962N01141920EA0117401232094024
B1128364955920N01141995EA0117701232095028
B1128404955925N01142091EA0118501240094024
K112840294006
B1128444955975N01142150EA0118901248094024
B1128484956033N01142137EA0119101248092024
B1128524956066N01142066EA0119101248096020
B1128564956058N01141979EA0119101248094024
B1129004956008N01141925EA0119201248097024
K112900292005
B1129044955945N01141937EA0119201248093024
B1129084955900N01142004EA0119501256094024
B1129124955883N01142104EA0119801256095024
B1129164955904N01142204EA0120401264100024
B1129204955945N01142266EA0121001272090024
K112920286006
B1129244956004N01142262EA0120801264093016
B1129284956041N01142191EA0120201256100020
B1129324956016N01142100EA0120301256101024
B1129364955954N01142079EA0121501264092020
B1129404955904N01142137EA0121501272096028
K112940288008
B1129444955895N01142233EA0121901272099024
B1129484955945N01142291EA0122001272091016
B1129524956008N01142266EA0121401272104024
B1129564956029N01142175EA0121501272106020
B1130004955991N01142095EA0122301280101016
K113000294005
B1130044955929N01142112EA0122901288096024
B1130084955912N01142208EA0123001288102024
B1130124955958N01142279EA0123201288098020
B1130164956016N01142266EA0123801296093024
B1130204956045N01142191EA0123901296097020
K113020270002
B1130244956037N01142104EA0124501304091020
B1130284955987N01142058EA0124601304093028
B1130324955925N01142075EA0124201296098024
B1130364955887N01142162EA0124201304100024
B1130404955900N01142258EA0125001304102024
K113040296003
B1130444955958N01142300EA0125601312098024
B1130484956012N01142266EA0126201320085024
B1130524956037N01142187EA0126201320094020
B1130564956029N01142100EA0127001328088024
B1131004955987N01142041EA0127101328091028
K113100284001
B1131044955933N01142033EA0126901328090024
B1131084955887N01142095EA0126001320091024
B1131124955875N01142195EA0125901312095024
B1131164955908N01142279EA0126601328092024
B1131204955966N01142304EA0126701328091024
K113120264004
B1131244956020N01142270EA0126901328092024
B1131284956050N01142187EA0127001328095024
B1131324956045N01142100EA0127401336093024
B1131364956004N01142041EA0127601336089024
B1131404955941N01142033EA0127501328089020
K113140270004
B1131444955883N01142083EA0126601328096024
B1131484955858N01142170EA0126601328094028
B1131524955875N01142266EA0127101328094024
B1131564955929N01142308EA0127101328093024
B1132004955983N01142275EA0127001328093024
K113200302004
B1132044956008N01142187EA0126701328100024
B1132084955995N01142100EA0127101328091024
B1132124955945N01142058EA0127101328094028
B1132164955879N01142079EA0126801328099024
B1132204955837N01142158EA0126601328099024
K113220314004
B1132244955841N01142262EA0126301320100024
B1132284955891N01142337EA0126401328099040
B1132324955950N01142358EA0127201336095032
B1132364956008N01142320EA0127401336093016
B1132404956041N01142245EA0127401328099028
K113240284003
B1132444956033N01142150EA0126801328102024
B1132484955991N01142091EA0127601336092020
B1132524955929N01142083EA0127901336095040
B1132564955870N01142133EA0127901336093032
B1133004955841N01142220EA0127901336090016
K113300292006
B1133044955858N01142316EA0127501336096028
B1133084955908N01142370EA0127301328096024
B1133124955970N01142362EA0127601336097020
B1133164956020N01142300EA0128201344100024
B1133204956025N01142208EA0128001336101024
K113320306006
B1133244955987N01142137EA0128301344099020
B1133284955925N01142125EA0128601344098024
B1133324955866N01142183EA0128301336102028
B1133364955841N01142283EA0128301344100024
B1133404955866N01142375EA0128301344100044
K113340272006
B1133444955925N01142412EA0128401344099036
B1133484955987N01142383EA0128601344099016
B1133524956020N01142304EA0129101352098032
B1133564956004N01142220EA0130001352096028
B1134004955950N01142195EA0130001360088024
K113400278005
B1134044955895N01142250EA0129701352093028
B1134084955870N01142345EA0129501352093028
B1134124955883N01142433EA0129801360085020
B1134164955916N01142512EA0129701352094024
B1134204955937N01142616EA0129201344105020
K113420290006
B1134244955950N01142733EA0128301336116020
B1134284955954N01142862EA0127801336119020
B1134324955970N01142987EA0127001328118020
B1134364956020N01143095EA0125701312127020
B1134404956091N01143183EA0124801304132020
K113440290006
B1134444956175N01143241EA0124001296136024
B1134484956266N01143295EA0122601280150024
B1134524956362N01143350EA0121701272154028
B1134564956458N01143395EA0121001264151024
B1135004956558N01143433EA0121301264152024
K113500290006
B1135044956650N01143458EA0122701280139024
B1135084956741N01143479EA0121901280141020
B1135124956837N01143504EA0121001264146024
B1135164956933N01143537EA0120401264145016
B1135204957029N01143570EA0119801256147016
K113520266021
B1135244957129N01143604EA0118701240147024
B1135284957225N01143637EA0118101240148020
B1135324957325N01143666EA0117501232149024
B1135364957425N01143695EA0116801216153024
B1135404957525N01143733EA0116301216154024
K113540262025
B1135444957620N01143770EA0115601208150024
B1135484957716N01143812EA0115201208150020
B1135524957812N01143858EA0115101208145024
B1135564957904N01143895EA0114801200142028
B1136004958000N01143933EA0114801200142024
K113600266026
B1136044958091N01143975EA0114401192145024
B1136084958183N01144020EA0114401192139024
B1136124958270N01144062EA0114401200137020
B1136164958362N01144079EA0114501200131024
B1136204958450N01144070EA0115401208125020
K113620262023
B1136244958533N01144058EA0116301216122020
B1136284958604N01144025EA0118501232111020
B1136324958641N01143941EA0120901264093020
B1136364958620N01143854EA0122701272097000
B1136404958562N01143837EA0123401288095008
K113640258020
B1136444958516N01143908EA0124101296089028
B1136484958516N01144020EA0124801304098016
B1136524958570N01144083EA0125601312100016
B1136564958629N01144058EA0127601328097024
B1137004958654N01143979EA0128401344094000
K113700270006
B1137044958633N01143895EA0129001344099008
B1137084958566N01143887EA0130801352101028
B1137124958516N01143954EA0131901368089016
B1137164958512N01144058EA0132101376094000
B1137204958562N01144133EA0132801384104016
K113720276012
B1137244958620N01144108EA0134601400097028
B1137284958637N01144020EA0135101416095016
B1137324958600N01143945EA0136001416097016
B1137364958537N01143933EA0137601432096024
B1137404958479N01143987EA0138001440104016
K113740286009
B1137444958458N01144091EA0139301456093016
B1137484958479N01144195EA0140301464094024
B1137524958537N01144250EA0140301464100020
B1137564958595N01144208EA0140801472104020
B1138004958583N01144116EA0141301480104024
K113800282012
B1138044958516N01144104EA0142301488102020
B1138084958475N01144191EA0144101496099020
B1138124958487N01144304EA0144501512100020
B1138164958541N01144366EA0144701512098020
B1138204958600N01144341EA0145201520103024
K113820280012
B1138244958616N01144254EA0146101528099024
B1138284958587N01144170EA0147101536097024
B1138324958529N01144141EA0148501544099024
B1138364958462N01144179EA0148601552100024
B1138404958425N01144275EA0150301560099024
K113840292010
B1138444958437N01144379EA0151101576093020
B1138484958487N01144441EA0149801568105024
B1138524958550N01144425EA0149001560104024
B1138564958579N01144341EA0148901560101024
B1139004958562N01144245EA0149401560102024
K113900306009
B1139044958512N01144183EA0150801576105024
B1139084958445N01144195EA0152001584095024
B1139124958400N01144270EA0152901600096024
B1139164958395N01144370EA0153301600093024
B1139204958429N01144458EA0152801600099024
K113920306008
B1139244958487N01144487EA0152801592092020
B1139284958545N01144454EA0152800000095024
B1139324958558N01144370EA0153001584092024
B1139364958529N01144287EA0153701592097024
B1139404958470N01144258EA0153901600096020
K113940284008
B1139444958412N01144266EA0154601608091024
B1139484958362N01144320EA0154701608090016
B1139524958337N01144408EA0154901616089016
B1139564958337N01144508EA0154301608097020
B1140004958354N01144608EA0153601600100016
K114000284008
B1140044958379N01144712EA0152801592101016
B1140084958412N01144808EA0151501576103016
B1140124958466N01144858EA0151201576096016
B1140164958516N01144829EA0149001560108016
B1140204958541N01144737EA0147601544123020
K114020298020
B1140244958525N01144625EA0147501536121016
B1140284958487N01144529EA0148601552119016
B1140324958445N01144445EA0149801568107016
B1140364958404N01144366EA0150501568101024
B1140404958358N01144308EA0150601568098020
K114040302017
B1140444958291N01144308EA0150601568096016
B1140484958233N01144358EA0150001568097020
B1140524958204N01144458EA0150101568097020
B1140564958208N01144562EA0150301576096016
B1141004958241N01144654EA0150301568098020
K114100302017
B1141044958291N01144716EA0150001568093020
B1141084958350N01144741EA0149501568094020
B1141124958412N01144720EA0148001552097020
B1141164958466N01144658EA0147401544105028
B1141204958512N01144587EA0147401544108024
K114120302017
B1141244958554N01144508EA0148001552105028
B1141284958583N01144425EA0148601552100028
B1141324958604N01144341EA0148501552098024
B1141364958620N01144254EA0147601544097024
B1141404958637N01144158EA0145701528107024
K114140302017
B1141444958662N01144050EA0143601504119024
B1141484958683N01143933EA0142501496129040
B1141524958708N01143808EA0141101488132032
B1141564958725N01143679EA0140201472136032
B1142004958737N01143541EA0139801464142036
K114200284011
B1142044958754N01143404EA0139401464142016
B1142084958779N01143270EA0138801464140024
B1142124958812N01143133EA0137101448148044
B1142164958850N01142991EA0135201424160032
B1142204958895N01142850EA0134601416160036
K114220270007
B1142244958950N01142720EA0135401432149040
B1142284959004N01142595EA0136101432142036
B1142324959050N01142479EA0136201432135036
B1142364959095N01142362EA0134601416140020
B1142404959141N01142233EA0134001408143028
K114240208016
B1142444959187N01142108EA0133501400147044
B1142484959233N01141987EA0133501400144032
B1142524959283N01141870EA0133601408141016
B1142564959329N01141766EA0135401416130032
B1143004959379N01141679EA0137601440111028
K114300208026
B1143044959433N01141608EA0138501448105024
B1143084959483N01141541EA0139601456099028
B1143124959529N01141470EA0140401464094028
B1143164959562N01141387EA0140101464102020
B1143204959562N01141283EA0139201456106024
K114320210030
B1143244959533N01141187EA0138701448107024
B1143284959491N01141100EA0138001440111024
B1143324959429N01141041EA0137501440111024
B1143364959366N01140995EA0137501432110024
B1143404959300N01140958EA0137501432109020
K114340210030
B1143444959237N01140925EA0137601440106024
B1143484959170N01140904EA0138301448102024
B1143524959108N01140883EA0138801448100024
B1143564959058N01140816EA0138801448103024
B1144004959037N01140720EA0138801448107024
K114400208028
B1144044959029N01140620EA0140401464097028
B1144084959025N01140525EA0140901472089024
B1144124959025N01140437EA0140401464090024
B1144164959029N01140341EA0140001464093024
K114416208028
B1144204959025N01140220EA0139400000103024
B1144244959016N01140141EA0139401456104024
B1144284959008N01140041EA0139201456104020
B1144324959000N01139937EA0138901456107024
B1144364958979N01139837EA0138701448105024
B1144404958958N01139737EA0138401448107024
K114440210027
B1144444958933N01139637EA0138301448113028
B1144484958904N01139541EA0140201456100024
B1144524958879N01139458EA0140801472091024
B1144564958845N01139387EA0140601472089024
B1145004958800N01139320EA0138901456098024
K114500190015
B1145044958762N01139237EA0137501440110024
B1145084958712N01139150EA0136301432119020
B1145124958658N01139062EA0134601416127024
B1145164958600N01138970EA0134201408129040
B1145204958541N01138879EA0133901400132032
K114520240008
B1145244958483N01138787EA0133201400131032
B1145284958429N01138687EA0133101392131036
B1145324958375N01138587EA0133001392131032
B1145364958325N01138487EA0132501392130032
B1145404958270N01138391EA0132101384130036
K114540292010
B1145444958220N01138291EA0132101384128032
B1145484958170N01138195EA0132701384125016
B1145524958125N01138100EA0132701384122024
B1145564958079N01138008EA0131801376120028
B1146004958029N01137920EA0131801376119024
K114600290008
B1146044957979N01137837EA0132301384115024
B1146084957929N01137758EA0132801392109024
B1146124957883N01137683EA0133301392105036
B1146164957850N01137595EA0132701384105032
B1146204957808N01137500EA0131201376115016
K114620252003
B1146244957766N01137400EA0130301360127024
B1146284957712N01137308EA0130001360125016
B1146324957662N01137212EA0129801360120016
B1146364957612N01137112EA0128901352127024
B1146404957558N01137016EA0129001352125020
K114640280005
B1146444957504N01136925EA0129101352126024
B1146484957450N01136833EA0129901360127024
B1146524957395N01136745EA0129401352123024
B1146564957337N01136650EA0128301344131024
B1147004957283N01136558EA0128001336129020
K114700300008
B1147044957229N01136466EA0128001336128024
B1147084957179N01136379EA0129001344119028
B1147124957129N01136291EA0130001360115024
B1147164957087N01136204EA0131301376112024
B1147204957066N01136116EA0133101392099024
K114720302009
B1147244957075N01136025EA0134601400097016
B1147284957120N01135970EA0135201408090020
B1147324957183N01135995EA0135201408095016
B1147364957216N01136087EA0136501424092016
B1147404957200N01136179EA0137001424092024
K114740302009
B1147444957145N01136233EA0137001424094020
B1147484957091N01136212EA0137001432090016
B1147524957062N01136129EA0137601432098020
B1147564957070N01136037EA0138101440093024
B1148004957112N01135979EA0139301456091020
K114800252008
B1148044957175N01135983EA0139301456090020
B1148084957225N01136054EA0139301456097024
B1148124957233N01136158EA0139901464091024
B1148164957204N01136245EA0139901464092024
B1148204957150N01136287EA0140001464087028
K114820252009
B1148244957091N01136270EA0139701456096024
B1148284957058N01136195EA0140701464101028
B1148324957079N01136116EA0141301480086028
B1148364957137N01136095EA0141301472094028
B1148404957195N01136154EA0142201480093028
K114840260009
B1148444957216N01136254EA0142401488095028
B1148484957191N01136350EA0142001480099028
B1148524957129N01136395EA0141701480101024
B1148564957066N01136391EA0142101488096024
B1149004957016N01136345EA0143201496091024
K114900250008
B1149044956970N01136291EA0144201504089024
B1149084956937N01136225EA0144801512089024
B1149124956933N01136137EA0144701512099024
B1149164956970N01136075EA0144801512090020
B1149204957012N01136058EV0144000000096024
K114920256009
B1149244957091N01136095EA0144101504102024
B1149284957137N01136183EA0146001520100024
B1149324957133N01136287EA0146601528095028
B1149364957070N01136333EA0146501528106024
B1149404957020N01136283EA0147901536100024
K114940318013
B1149444957029N01136204EA0148601552093024
B1149484957087N01136183EA0148601552098028
B1149524957145N01136250EA0149401560103024
B1149564957150N01136362EA0150301568102028
B1150004957108N01136445EA0150401568101028
K115000262008
B1150044957045N01136445EA0150801568103044
B1150084957012N01136370EA0151601584099036
B1150124957029N01136283EA0152201592095016
B1150164957091N01136254EA0152801592099032
B1150204957150N01136304EA0153301600102040
K115020254008
B1150244957166N01136412EA0154001608099028
B1150284957133N01136500EA0154101608098016
B1150324957066N01136516EA0153301600105028
B1150364957025N01136445EA0153401600107028
B1150404957045N01136354EA0154401616099024
K115040248009
B1150444957112N01136320EA0155401624096044
B1150484957175N01136375EA0155601624109036
B1150524957187N01136483EA0156601632095016
B1150564957145N01136566EA0155301616099032
B1151004957079N01136570EA0154701616104040
K115100232010
B1151044957037N01136504EA0155601624094028
B1151084957041N01136412EA0156601632097016
B1151124957083N01136345EA0158201648088028
B1151164957145N01136325EA0158501648098028
B1151204957204N01136383EA0158801656099024
K115120244006
B1151244957212N01136483EA0159201664091024
B1151284957175N01136562EA0158101648092024
B1151324957112N01136579EA0157201640099028
B1151364957054N01136537EA0157301640097024
B1151404957037N01136445EA0158001648099028
K115140244005
B1151444957050N01136354EA0159701664093028
B1151484957079N01136279EA0161201680087024
B1151524957133N01136241EA0161501680090024
B1151564957216N01136266EA0161401680095024
K115156238005
B1152004957254N01136329EA0161401688099024
B1152044957266N01136433EA0161201688101028
B1152084957229N01136520EA0160901680098024
B1152124957166N01136545EA0160201672099028
B1152164957112N01136483EA0160001664104028
B1152204957112N01136387EA0162001680100024
K115220228006
B1152244957162N01136325EA0162501696097024
B1152284957229N01136337EA0162501688098024
B1152324957275N01136412EA0162801696092024
B1152364957283N01136516EA0161901688098016
B1152404957254N01136608EA0160901672099020
K115240234006
B1152444957191N01136654EA0160001664102000
B1152484957125N01136645EA0159901664099008
B1152524957070N01136595EA0160101664098028
B1152564957045N01136512EA0160501672098016
B1153004957041N01136420EA0161801680094020
K115300238005
B1153044957045N01136333EA0162001688087024
B1153084957075N01136254EA0160501672096020
B1153124957133N01136216EA0159501664101020
B1153164957204N01136229EA0158401648104020
B1153204957258N01136308EA0157301640109020
K115320250006
B1153244957279N01136420EA0157301640104016
B1153284957270N01136529EA0157401648101016
B1153324957233N01136616EA0157401640101020
B1153364957175N01136666EA0157301640101016
B1153404957108N01136675EA0157401640103020
K115340266006
B1153444957045N01136641EA0157701648097020
B1153484957004N01136575EA0158701656093024
B1153524956979N01136491EA0159201664091024
B1153564956970N01136408EA0159501664086024
B1154004956979N01136325EA0159501664084024
K115400274005
B1154044957000N01136241EA0158901656094024
B1154084957020N01136145EA0158001648099024
B1154124957033N01136054EA0158001648099028
B1154164957045N01135962EA0159301664084024
B1154204957054N01135879EA0158801656087028
K115420272004
B1154244957054N01135783EA0157201648100028
B1154284957037N01135683EA0156501632103024
B1154324957025N01135583EA0155801632099024
B1154364957012N01135479EA0155301624103028
B1154404957000N01135370EA0154701616107024
K115440270004
B1154444956987N01135262EA0154301608109028
B1154484956975N01135154EA0153701600111028
B1154524956962N01135041EA0153101592113020
B1154564956945N01134929EA0152301584117024
B1155004956929N01134816EA0151401576120020
K115500270003
B1155044956912N01134695EA0150501568123020
B1155084956895N01134570EA0149801568128020
B1155124956870N01134450EA0149201552131020
B1155164956841N01134325EA0149001552131020
B1155204956812N01134208EA0149001552128020
K115520306005
B1155244956775N01134095EA0148901552123040
B1155284956737N01133987EA0148901552119032
B1155324956691N01133887EA0148601552121016
B1155364956641N01133787EA0148101544126028
B1155404956591N01133683EA0147501544129024
K115540206002
B1155444956537N01133587EA0148301544127020
B1155484956487N01133491EA0148501552124024
B1155524956437N01133395EA0148901552124024
B1155564956383N01133300EA0148701552126024
B1156004956329N01133195EA0148401544131024
K115600306008
B1156044956270N01133095EA0147501536132020
B1156084956212N01132991EA0146501528136024
B1156124956150N01132887EA0145901520141024
B1156164956087N01132787EA0146001528137024
B1156204956029N01132691EA0146001528132028
K115620318013
B1156244955970N01132591EA0146101528128024
B1156284955912N01132491EA0146101528130024
B1156324955858N01132395EA0146201528130024
B1156364955804N01132295EA0146201528127028
B1156404955750N01132204EA0146201528126024
K115640318009
B1156444955695N01132112EA0145901520126024
B1156484955641N01132016EA0144601512128024
B1156524955587N01131916EA0144201512128024
B1156564955533N01131820EA0144001504129024
B1157004955479N01131720EA0143301504130044
K115700308011
B1157044955420N01131625EA0143101496132032
B1157084955362N01131525EA0142801496136032
B1157124955304N01131425EA0142901496136040
B1157164955254N01131316EA0144301512122016
B1157204955216N01131216EA0145501520113024
K115720312013
B1157244955179N01131120EA0145801528111024
B1157284955145N01131025EA0145801528109020
B1157324955104N01130929EA0144001512121020
B1157364955054N01130829EA0141701488136024
B1157404954995N01130725EA0140001472147020
K115740314012
B1157444954925N01130620EA0137701448153020
B1157484954850N01130508EA0135901432162040
B1157524954775N01130395EA0134901416165032
B1157564954700N01130287EA0136401432150016
B1158004954641N01130191EA0138401448134028
K115800304014
B1158044954579N01130095EA0136601432142028
B1158084954516N01129987EA0133701408156024
B1158124954445N01129870EA0132601392161024
B1158164954379N01129750EA0132001384157024
B1158204954308N01129641EA0131701384156044
K115820304019
B1158244954237N01129537EA0131701384154032
B1158284954170N01129429EA0131701384153016
B1158324954108N01129320EA0131401384154032
B1158364954050N01129200EA0130701376155028
B1158404953995N01129075EA0129401360161024
K115840304020
B1158444953929N01128954EA0128901352163024
B1158484953866N01128837EA0129901352160024
B1158524953800N01128725EA0130001360154028
B1158564953733N01128620EA0129801360153024
B1159004953666N01128520EA0128601352153024
K115900262008
B1159044953595N01128420EA0127401336154024
B1159084953525N01128320EA0126001320157044
B1159124953454N01128216EA0125101312158032
B1159164953379N01128116EA0124601304159016
K115916248008
B1159204953304N01128016EA0124101296155032
B1159244953225N01127920EA0123701296156028
B1159284953154N01127829EA0123701296151024
B1159324953083N01127737EA0124201304139028
B1159364953016N01127650EA0123701296141028
B1159404952950N01127562EA0123601296142028
K115940270008
B1159444952891N01127470EA0124701304129028
B1159484952845N01127379EA0125901320122024
B1159524952808N01127283EA0126701328114024
B1159564952779N01127195EA0127401336109020
B1200004952729N01127133EA0127401336104024
K120000286010
B1200044952670N01127091EA0127301328106016
B1200084952604N01127079EA0127401336102016
B1200124952537N01127075EA0127401336099016
B1200164952470N01127075EA0127001328107016
B1200204952400N01127075EA0127401336107016
K120020286010
B1200244952333N01127070EA0127601336098016
B1200284952270N01127087EA0127601336099016
B1200324952208N01127150EA0127601336106016
B1200364952175N01127241EA0129001352098016
B1200404952170N01127341EA0129201352097016
K120040292005
B1200444952200N01127433EA0128401344102016
B1200484952258N01127491EA0128001336105016
B1200524952325N01127495EA0128001336100016
B1200564952387N01127462EA0128001336101016
B1201004952429N01127387EA0128001344098016
K120100292005
B1201044952466N01127300EA0128601344096016
B1201084952495N01127212EA0129701360092016
B1201124952512N01127120EA0129801352099016
B1201164952479N01127041EA0129401352095020
B1201204952420N01127033EA0129201352099016
K120120292005
B1201244952375N01127108EA0129401360095024
B1201284952387N01127208EA0130501368098024
B1201324952441N01127250EA0131401384090024
B1201364952495N01127208EA0132101384096024
B1201404952508N01127112EA0132401384096024
K120140262002
B1201444952466N01127045EA0132301384101024
B1201484952404N01127054EA0133301392100024
B1201524952362N01127133EA0133801400095024
B1201564952370N01127237EA0134101408103024
B1202004952429N01127279EA0135401416098024
K120200262004
B1202044952483N01127233EA0136501424099024
B1202084952491N01127137EA0136701432101024
B1202124952441N01127083EA0137001440100024
B1202164952383N01127116EA0137601440101024
B1202204952366N01127216EA0138401448101024
K120220256003
B1202244952400N01127304EA0139301456102024
B1202284952462N01127320EA0140201464094028
B1202324952516N01127262EA0140201464103024
B1202364952525N01127166EA0140801472098020
B1202404952487N01127095EA0141001480097024
K120240220003
B1202444952420N01127108EA0141001480101020
B1202484952379N01127191EA0141701480107020
B1202524952395N01127295EA0142201488102020
B1202564952450N01127341EA0143601496093020
B1203004952504N01127295EA0143801504099020
K120300246003
B1203044952516N01127200EA0144301512097020
B1203084952475N01127129EA0144501512101024
B1203124952412N01127133EA0144801520098024
B1203164952370N01127212EA0144701512105040
B1203204952383N01127312EA0146101528099032
K120320260004
B1203244952441N01127354EA0146701536093016
B1203284952495N01127312EA0147001536095028
B1203324952520N01127216EA0147101536099016
B1203364952487N01127133EA0148201544102016
B1203404952425N01127129EA0148301552092016
K120340242003
B1203444952379N01127212EA0148101544098016
B1203484952383N01127320EA0148301544104016
B1203524952433N01127375EA0149401560093016
B1203564952495N01127345EA0149501560097000
B1204004952525N01127258EA0149801560100008
K120400280004
B1204044952504N01127166EA0150401568102012
B1204084952441N01127145EA0150501568096008
B1204124952383N01127208EA0150401568101028
B1204164952375N01127320EA0150501576099020
B1204204952412N01127400EA0151701584096020
K120420268005
B1204244952475N01127400EA0152501592085024
B1204284952525N01127337EA0152701592095020
B1204324952533N01127237EA0152701592100020
B1204364952495N01127170EA0153201600091016
B1204404952437N01127154EA0153901600093016
K120440268005
B1204444952379N01127141EA0155601624087016
B1204484952320N01127150EA0156001624092016
B1204524952283N01127233EA0155101616098020
B1204564952312N01127329EA0154701608103016
B1205004952370N01127366EA0155201616092024
K120500268005
B1205044952429N01127341EA0155201616090024
B1205084952462N01127275EA0154501616091020
B1205124952462N01127183EA0154101608104024
B1205164952429N01127095EA0155401616103016
B1205204952379N01127045EA0156701632096016
K120520268005
B1205244952316N01127079EA0157401640096016
B1205284952300N01127175EA0158201648099016
B1205324952341N01127250EA0159201664096024
B1205364952404N01127229EA0160301672099020
B1205404952425N01127141EA0161701680101024
K120540290005
B1205444952387N01127070EA0162601688099024
B1205484952325N01127087EA0163101696101016
B1205524952295N01127187EA0163701704105020
B1205564952337N01127270EA0164601712106016
B1206004952404N01127266EA0166401736099016
K120600262003
B1206044952425N01127183EA0168201752098020
B1206084952387N01127120EA0168601760096016
B1206124952325N01127141EA0168601760098024
B1206164952300N01127237EA0170001776101024
B1206204952333N01127320EA0171401792090024
K120620230005
B1206244952395N01127333EA0172001792095024
B1206284952441N01127262EA0172801800101016
B1206324952429N01127170EA0173801808096020
B1206364952375N01127133EA0174301816096020
B1206404952316N01127179EA0174301824098016
K120640246004
B1206444952304N01127283EA0175201824104016
B1206484952345N01127362EA0176901848094016
B1206524952408N01127345EA0177901856093020
B1206564952437N01127266EA0178401864097016
B1207004952412N01127183EA0179301864096016
K120700258004
B1207044952354N01127166EA0179301864099016
B1207084952308N01127241EA0179201864101024
B1207124952320N01127341EA0180301880097020
B1207164952370N01127391EA0181101888094020
B1207204952425N01127354EA0181601896092024
K120720252005
B1207244952441N01127262EA0182401896095016
B1207284952404N01127191EA0182701904095016
B1207324952345N01127187EA0182601904101024
B1207364952300N01127266EA0182501896101020
B1207404952308N01127375EA0183201904101020
K120740262005
B1207444952358N01127437EA0183801920094024
B1207484952420N01127420EA0184101920096020
B1207524952450N01127333EA0184401920098020
B1207564952437N01127241EA0185401936094016
B1208004952395N01127183EA0185801936093016
K120800258005
B1208044952333N01127187EA0185701936093016
B1208084952287N01127258EA0185201936091016
B1208124952283N01127362EA0185901936103016
B1208164952320N01127437EA0187301952087016
B1208204952375N01127454EA0187401960084016
K120820276006
B1208244952425N01127408EA0186501944098016
B1208284952445N01127312EA0186501944101016
B1208324952425N01127220EA0187801960089016
B1208364952383N01127170EA0187801960086020
B1208404952325N01127141EA0187301952087016
K120840292005
B1208444952258N01127154EA0186701944096016
B1208484952208N01127220EA0187101952093016
B1208524952179N01127308EA0186801944090020
B1208564952162N01127412EA0185201936107016
B1209004952141N01127533EA0183501912114020
K120900296005
B1209044952120N01127666EA0182301904120020
B1209084952104N01127804EA0181501896124028
B1209124952079N01127941EA0181201888126024
B1209164952062N01128079EA0180701888125040
B1209204952041N01128216EA0180301880126032
K120920314007
B1209244952025N01128354EA0180101880125016
B1209284952008N01128491EA0180101880125028
B1209324951991N01128625EA0179701872123028
B1209364951975N01128762EA0179601872120024
B1209404951962N01128895EA0179601872119024
K120940314008
B1209444951945N01129029EA0179401872119024
B1209484951933N01129162EA0179001864118020
B1209524951916N01129291EA0179001872116024
B1209564951904N01129420EA0178801864114020
B1210004951887N01129545EA0177801864116020
K121000264012
B1210044951887N01129679EA0177601856121016
B1210084951891N01129812EA0177501848119016
B1210124951900N01129941EA0177501856115016
B1210164951908N01130066EA0177201848117016
K121016280011
B1210204951920N01130195EA0176701840120016
B1210244951933N01130329EA0176401840121016
B1210284951945N01130458EA0176201840122020
B1210324951966N01130587EA0176201840128016
B1210364951975N01130712EA0177901856110020
B1210404951979N01130820EA0179201864100020
K121040262008
B1210444951991N01130925EA0179301872096020
B1210484952004N01131029EA0179101872106020
B1210524952016N01131141EA0178701864111016
B1210564952033N01131254EA0178701864106016
B1211004952045N01131370EA0179501872105016
K121100318009
B1211044952045N01131487EA0179501872105016
B1211084952037N01131608EA0178701864109000
B1211124952020N01131733EA0177401848118008
B1211164952008N01131875EA0177201848124028
K121116326014
B1211204951991N01132012EA0177101848126016
B1211244951966N01132150EA0176201840130016
B1211284951937N01132287EA0176801840128024
B1211324951912N01132412EA0178701864115020
B1211364951883N01132525EA0179101864108016
B1211404951858N01132637EA0178301856112020
K121140242016
B1211444951833N01132754EA0177501848118020
B1211484951820N01132870EA0177401848108016
B1211524951812N01132987EA0177401848105016
B1211564951800N01133100EA0177701856098020
B1212004951791N01133212EA0177901856096016
K121200258010
B1212044951775N01133329EA0178401856099016
B1212084951762N01133437EA0179201864092016
B1212124951766N01133541EA0180401880085016
B1212164951787N01133625EA0180501880078016
B1212204951837N01133691EA0178301864100016
K121220260013
B1212244951908N01133695EA0178401856100016
B1212284951954N01133637EA0178701864089020
B1212324951958N01133554EA0178301864092016
B1212364951920N01133483EA0178401856093020
B1212404951862N01133462EA0179701872090020
K121240260013
B1212444951812N01133512EA0179201864089020
B1212484951791N01133612EA0178301856100020
B1212524951812N01133712EA0179001864085016
B1212564951866N01133762EA0177801848095016
B1213004951929N01133737EA0177301848100020
K121300252009
B1213044951966N01133658EA0177101840095016
B1213084951970N01133566EA0176601840098020
B1213124951966N01133470EA0176801840096020
B1213164951950N01133387EA0177201848093016
B1213204951908N01133333EA0177201848096016
K121320260007
B1213244951845N01133312EA0177901856096020
B1213284951787N01133333EA0178701864093016
B1213324951750N01133408EA0178701864088016
B1213364951754N01133516EA0178301864092016
B1213404951795N01133595EA0178401856089016
K121340260008
B1213444951858N01133620EA0178301856087016
B1213484951912N01133587EA0177401848093020
B1213524951950N01133516EA0176701840091016
B1213564951966N01133433EA0176101840101016
B1214004951975N01133333EA0175401832114016
K121400252011
B1214044951983N01133225EA0175101824117016
B1214084952000N01133112EA0174401816119016
B1214124952012N01132966EV0172900000118016
B1214164952020N01132875EA0171801792121016
K121416252011
B1214204952033N01132745EA0170801784131020
B1214244952045N01132612EA0170301776139016
B1214284952054N01132483EA0170401784135020
B1214324952070N01132358EA0170401776129020
B1214364952091N01132237EA0170301776130024
B1214404952112N01132125EA0171001784118024
K121440222019
B1214444952137N01132025EA0171101784106024
B1214484952158N01131920EA0171001784111024
B1214524952179N01131820EA0172301792107020
B1214564952175N01131729EA0173001808100024
K121456206024
B1215004952154N01131645EA0173801808094016
B1215044952133N01131566EA0175201824086016
B1215084952095N01131504EA0175101824093016
B1215124952029N01131504EA0174601816095016
B1215164951979N01131575EA0174601816098016
B1215204951966N01131675EA0174901824091016
K121520206024
B1215244951970N01131770EA0176301832088020
B1215284952000N01131858EA0176801840088016
B1215324952058N01131891EA0176701840097020
B1215364952108N01131833EA0177201840100020
B1215404952095N01131750EA0178401864091024
K121540206024
B1215444952041N01131720EA0178401856096024
B1215484951983N01131762EA0178401864093024
B1215524951958N01131858EA0178601864100024
B1215564951987N01131954EA0179501872097020
B1216004952050N01131983EA0179901872099024
K121600260007
B1216044952095N01131920EA0181101880099016
B1216084952083N01131833EA0181601888093016
B1216124952029N01131800EA0181501888095020
B1216164951966N01131850EA0180601880102016
B1216204951937N01131950EA0181801896099020
K121620268008
B1216244951950N01132050EA0181901896094020
B1216284952000N01132112EA0181501896091024
B1216324952066N01132095EA0180601880105024
B1216364952091N01132008EA0181401888100016
B1216404952066N01131920EA0182101896097020
K121640264008
B1216444952004N01131891EA0182001896099020
B1216484951945N01131950EA0182201896100016
B1216524951937N01132054EA0183001904098016
B1216564951983N01132129EA0182701904097016
K121656284005
B1217004952050N01132125EA0182201896100016
B1217044952087N01132045EA0183201904096016
B1217084952066N01131962EA0183401912094020
B1217124952004N01131941EA0182701904098016
B1217164951954N01132020EA0182301904106016
B1217204951958N01132125EA0183701912097016
K121720238005
B1217244952008N01132183EA0183801920087020
B1217284952070N01132187EA0183101912097016
B1217324952129N01132141EA0183701912097020
B1217364952158N01132066EA0184201920091020
K121736242008
B1217404952145N01131979EA0183601920099016
B1217444952087N01131941EA0183801920093016
B1217484952029N01131975EA0183601912095016
B1217524951995N01132070EA0183001904100016
B1217564951991N01132179EA0183401912100020
B1218004952037N01132262EA0183701912098016
K121800256009
B1218044952104N01132266EA0183701912095016
B1218084952141N01132191EA0183701912097016
B1218124952145N01132095EA0183701912099020
B1218164952104N01132029EA0183901920095016
B1218204952045N01132025EA0183201912093020
K121820260007
B1218244951987N01132100EA0182301904100020
B1218284951970N01132216EA0182301904111016
B1218324952012N01132304EA0182401904104016
B1218364952079N01132316EA0182801904102020
K121836268007
B1218404952133N01132258EA0182501904105016
B1218444952162N01132162EA0181301896117016
B1218484952183N01132054EA0181301888118016
B1218524952204N01131958EA0183401912104016
B1218564952233N01131870EA0184101920091016
K121856274009
B1219004952270N01131795EA0183801928090016
B1219044952320N01131725EA0182001912109016
B1219084952358N01131616EA0179201880129020
B1219124952383N01131487EA0177601864140016
B1219164952391N01131350EA0177101856149028
B1219204952395N01131208EA0177401856150024
K121920274009
B1219244952395N01131066EA0176201848150040
B1219284952391N01130925EA0176201848150032
B1219324952387N01130783EA0176301848145016
B1219364952375N01130645EA0176201848145028
B1219404952370N01130500EA0175201840150028
K121940228016
B1219444952362N01130354EA0175001832145024
B1219484952362N01130212EA0177401848142028
B1219524952366N01130095EA0181201896111028
B1219564952341N01130004EA0182101904100024
K121956192022
B1220004952295N01129945EA0182401912096024
B1220044952233N01129920EA0183401912096016
B1220084952170N01129941EA0185201936091020
B1220124952129N01130016EA0185901944093016
B1220164952141N01130120EA0186301944097016
K122016192022
B1220204952200N01130158EA0186901952098016
B1220244952245N01130095EA0187701960094016
B1220284952233N01130016EA0188101968096020
B1220324952170N01129995EA0188901968100016
B1220364952120N01130058EA0190901984090020
K122036266012
B1220404952112N01130158EA0191201992099020
B1220444952158N01130233EA0192302000093020
B1220484952220N01130229EA0192402008094020
B1220524952258N01130154EA0192702008099024
B1220564952241N01130070EA0193302016098024
B1221004952183N01130045EA0194202024096020
K122100262010
B1221044952133N01130112EA0194702032106024
B1221084952120N01130225EA0194702032107016
B1221124952145N01130337EA0194702040109016
B1221164952212N01130404EA0193302024120020
B1221204952287N01130362EA0193002016120016
K122120248007
B1221244952316N01130254EA0193002024122020
B1221284952283N01130154EA0193702032120020
B1221324952216N01130095EA0193702024121020
B1221364952133N01130095EA0193802032123020
K122136254006
B1221404952058N01130162EA0195202040121016
B1221444952012N01130275EA0195402040122016
B1221484951979N01130412EA0195402040131016
B1221524951954N01130550EA0196602048123016
B1221564951933N01130666EA0198502072101016
B1222004951925N01130775EA0198702080092016
K122200276008
B1222044951916N01130891EA0197002056109004
B1222084951912N01131020EA0195302040120008
B1222124951920N01131162EA0193802024129028
B1222164951945N01131308EA0192602008139016
B1222204951975N01131462EA0191602000145016
K122220270007
B1222244952008N01131616EA0190301992152024
B1222284952041N01131779EA0189701984155024
B1222324952070N01131937EA0189601984148020
B1222364952100N01132095EA0189601984146028
B1222404952129N01132245EA0191201992138024
K122240306013
B1222444952158N01132387EA0193202016129028
B1222484952179N01132516EA0195102032115028
B1222524952200N01132637EA0195902048103028
B1222564952220N01132754EA0195802040108028
B1223004952233N01132875EA0195902048105016
K122300234015
B1223044952245N01132987EA0196302048104024
B1223084952291N01133070EA0196702048101016
B1223124952350N01133062EA0196802048098016
B1223164952370N01132970EA0195602040101020
B1223204952350N01132870EA0195102032104016
K122320240013
B1223244952320N01132770EA0194802032113024
B1223284952287N01132666EA0194702032118024
B1223324952258N01132566EA0194902032111016
B1223364952237N01132466EA0195202040108020
B1223404952225N01132366EA0195202040108016
K122340240013
B1223444952220N01132254EA0193602016115016
B1223484952220N01132129EA0191302000128016
B1223524952225N01131995EA0190001984138016
B1223564952225N01131854EA0188801976144020
B1224004952225N01131708EA0188001968147016
K122400256012
B1224044952225N01131562EA0187501960152024
B1224084952225N01131416EA0187601960149024
B1224124952220N01131270EA0188201968150044
B1224164952216N01131133EA0191801992132032
B1224204952212N01131029EA0195702040095016
K122420206015
B1224244952208N01130941EA0195502040094032
B1224284952200N01130837EA0193602024112004
B1224324952195N01130720EA0191002000128008
B1224364952191N01130587EA0190301992130028
K122436220010
B1224404952195N01130458EA0191801992126016
B1224444952191N01130341EA0194902024107020
B1224484952191N01130245EA0196202040098024
B1224524952187N01130145EA0193802024111004
B1224564952195N01130029EA0189601976135012
B1225004952216N01129883EA0187001952159028
K122500204014
B1225044952233N01129720EA0186201944163016
B1225084952254N01129554EA0185801936164040
B1225124952270N01129387EA0185201936167032
B1225164952287N01129216EA0184101920171032
K122516276010
B1225204952304N01129045EA0183101912173036
B1225244952320N01128870EA0182101904177036
B1225284952333N01128691EA0181701896178032
B1225324952350N01128516EA0181601896177036
B1225364952362N01128341EA0180101888181036
B1225404952375N01128162EA0178301864188036
K122540254007
B1225444952387N01127975EA0177401856188036
B1225484952404N01127787EA0176601848188036
B1225524952420N01127595EA0176101840185036
B1225564952437N01127408EA0174901832191040
B1226004952450N01127216EA0174501824191040
K122600242006
B1226044952462N01127029EA0175001832182044
B1226084952470N01126850EA0175801840170040
B1226124952479N01126679EA0175901840176040
B1226164952483N01126504EA0175201832177040
K122616196013
B1226204952487N01126333EA0175801840171036
B1226244952487N01126166EA0177001848160040
B1226284952487N01126008EA0179301864148036
B1226324952495N01125870EA0182601904132036
B1226364952500N01125758EA0185601936112016
K122636176032
B1226404952500N01125658EA0185901944103024
B1226444952491N01125558EA0185601936111020
B1226484952483N01125445EA0183601920125016
B1226524952466N01125320EA0182101896132016
B1226564952445N01125183EA0180201888142016
B1227004952420N01125033EA0178601872150024
K122700242008
B1227044952395N01124875EA0176201848160020
B1227084952362N01124712EA0174301824171044
B1227124952320N01124545EA0173801816172032
B1227164952283N01124383EA0173401816172036
B1227204952241N01124220EA0173201808173040
K122720310009
B1227244952195N01124062EA0172401800177036
B1227284952145N01123895EA0172001800178036
B1227324952100N01123729EA0169901784181036
B1227364952054N01123550EA0167501752193036
B1227404952008N01123366EA0167401752191036
K122740328018
B1227444951958N01123187EA0167401752189036
B1227484951912N01123012EA0167401752185040
B1227524951862N01122841EA0167001744183040
B1227564951812N01122670EA0165801736187040
B1228004951766N01122495EA0165801736182040
K122800328011
B1228044951720N01122329EA0166001736175040
B1228084951670N01122162EA0165501736177040
B1228124951625N01122000EA0165101728177040
B1228164951579N01121841EA0164601720174040
K122816332002
B1228204951533N01121683EA0164001720171036
B1228244951487N01121520EA0162901704173040
B1228284951441N01121362EA0162401696176040
B1228324951395N01121204EA0162201696171040
B1228364951350N01121045EA0162101696172036
B1228404951308N01120887EA0160601680173040
K122840322005
B1228444951266N01120729EA0160001672173036
B1228484951225N01120566EA0159701672174036
B1228524951179N01120412EA0159601672171036
B1228564951133N01120266EA0159601672165036
K122856224004
B1229004951079N01120129EA0159801672157036
B1229044951029N01119995EA0160301680160036
B1229084950983N01119862EA0161101688154020
B1229124950937N01119733EA0161201688151028
B1229164950895N01119604EA0162001696142028
K122916256004
B1229204950854N01119479EA0162501704140024
B1229244950804N01119362EA0163201712132028
B1229284950745N01119262EA0163601712131028
B1229324950679N01119175EA0162601696129024
B1229364950604N01119087EA0160401680142024
K122936140016
B1229404950520N01119000EA0158901664147020
B1229444950433N01118912EA0158001656163024
B1229484950345N01118829EA0159101664149040
B1229524950266N01118754EA0161201688130032
B1229564950204N01118666EA0160901680131016
B1230004950145N01118562EA0159101664144028
K123000322010
B1230044950087N01118441EA0156301640152024
B1230084950025N01118312EA0154801624161020
B1230124949966N01118175EA0153901608166040
B1230164949904N01118041EA0153401608164032
B1230204949845N01117908EA0152901600161032
K123020312020
B1230244949783N01117779EA0152401600156036
B1230284949720N01117650EA0151201584161036
B1230324949654N01117525EA0150401576165032
B1230364949587N01117395EA0149301568168032
K123036304007
B1230404949516N01117270EA0149001560166032
B1230444949445N01117150EA0149101560167032
B1230484949375N01117037EA0149301568162032
B1230524949304N01116925EA0149601568154036
B1230564949254N01116804EA0151101576145032
K123056300008
B1231004949212N01116670EA0152201592144016
B1231044949191N01116541EA0153001600140024
B1231084949183N01116425EA0155601624124028
B1231124949175N01116329EA0159001664096024
B1231164949170N01116250EA0159701672092008
K123116296008
B1231204949170N01116162EA0159101664103016
B1231244949175N01116058EA0157501648116012
B1231284949179N01115941EA0154401624129008
B1231324949187N01115808EA0152401600137028
B1231364949195N01115666EA0151601592146020
K123136318018
B1231404949229N01115533EA0152201592142020
B1231444949237N01115404EA0152801600134024
B1231484949216N01115283EA0152801600134028
B1231524949179N01115170EA0152301592131024
B1231564949133N01115058EA0151701592132024
B1232004949079N01114950EA0150701576135024
K123200318018
B1232044949025N01114854EA0154401616121024
B1232084949008N01114762EA0158501648095024
B1232124949045N01114708EA0159701664093024
B1232164949104N01114758EA0160201672102024
B1232204949095N01114866EA0161801688095020
K123220300005
B1232244949037N01114904EA0162501696102024
B1232284948991N01114841EA0164101712098028
B1232324949008N01114762EA0165401720101024
B1232364949070N01114750EA0166401736101024
B1232404949112N01114837EA0167701744100024
K123240280013
B1232444949083N01114945EA0168901760103020
B1232484949016N01114958EA0169501768103024
B1232524948983N01114879EA0170101776102024
B1232564949020N01114804EA0171201784108024
K123256278014
B1233004949083N01114837EA0173001800101020
B1233044949100N01114941EA0174801824096024
B1233084949058N01115029EA0175501832099028
B1233124948991N01115037EA0175501832098024
B1233164948954N01114962EA0175201832103020
K123316276015
B1233204948950N01114858EA0174201824120024
B1233244948958N01114741EA0173401816130020
B1233284948962N01114616EA0172101800137020
B1233324948970N01114483EA0170501784142020
B1233364948983N01114337EA0168301760154020
B1233404948991N01114183EA0166601752161040
K123340274015
B1233444949004N01114020EA0165401728173032
B1233484949020N01113858EA0165801736164032
B1233524949029N01113700EA0167401752155036
B1233564949033N01113541EA0166901744157040
K123356288006
B1234004949041N01113379EA0166201736161036
B1234044949050N01113216EA0165801736167032
B1234084949058N01113054EA0166201736162036
B1234124949066N01112900EA0166601744153036
B1234164949058N01112750EA0167401744148032
B1234204949045N01112608EA0166601744145016
K123420198012
B1234244949041N01112462EA0165001728154024
B1234284949029N01112308EA0163501712157044
B1234324949012N01112154EA0163201704161032
B1234364949000N01112004EA0163101704158032
K123436254007
B1234404948983N01111858EA0163601712150040
B1234444948970N01111725EA0165501728132016
B1234484948950N01111600EA0166201736127024
B1234524948941N01111483EA0167401752116028
B1234564948945N01111375EA0167701752112024
K123456202007
B1235004948958N01111266EA0167701752111020
B1235044948979N01111154EA0165901736122024
B1235084949000N01111025EA0163501712139020
B1235124949012N01110887EA0162401696148020
B1235164949029N01110741EA0162001696150020
K123516322010
B1235204949070N01110616EA0162201696147020
B1235244949133N01110508EA0162201696146044
B1235284949195N01110395EA0161501688146032
B1235324949258N01110283EA0160401680148016
B1235364949325N01110175EA0160001672151032
B1235404949387N01110066EA0160501680147028
K123540284008
B1235444949445N01109958EA0160801680143024
B1235484949504N01109858EA0160801680142028
B1235524949566N01109762EA0160801680140028
B1235564949633N01109683EA0160801680134028
K123556236021
B1236004949700N01109608EA0160801680132028
B1236044949758N01109525EA0160801688130024
B1236084949812N01109441EA0161201688126024
B1236124949858N01109345EA0161501688122020
B1236164949883N01109233EA0161501688123024
K123616252015
B1236204949891N01109116EA0161101688123020
B1236244949900N01109000EA0161001680118020
B1236284949904N01108879EA0161001680121020
B1236324949908N01108762EA0160901680121020
B1236364949904N01108645EA0160901680119020
B1236404949904N01108533EA0161101680114020
K123640236010
B1236444949908N01108425EA0161101688113020
B1236484949916N01108316EA0160001672121020
B1236524949925N01108195EA0159201664129016
B1236564949937N01108070EA0158101656133016
K123656282009
B1237004949950N01107945EA0157101640138020
B1237044949966N01107808EA0156001632145016
B1237084949983N01107670EA0155301624149024
B1237124950000N01107529EA0155201624145024
B1237164950016N01107395EA0156301632141044
K123716264010
B1237204950037N01107270EA0159101656125032
B1237244950058N01107158EA0161101680112016
B1237284950066N01107054EA0163201704100032
B1237324950070N01106954EA0163701712099008
B1237364950070N01106850EA0162901704106012
B1237404950062N01106737EA0160501672126028
K123740200011
B1237444950041N01106604EA0157501648143016
B1237484950016N01106462EA0155801632158016
B1237524949987N01106308EA0155301624159024
B1237564949958N01106158EA0154401616162044
B1238004949925N01106000EA0153101600164032
K123800322016
B1238044949895N01105845EA0152001592166032
B1238084949866N01105687EA0150901584170040
B1238124949837N01105525EA0150501576168036
B1238164949804N01105370EA0150401576171032
K123816320015
B1238204949770N01105212EA0149501568169036
B1238244949737N01105058EA0148901560169036
B1238284949700N01104895EA0148901560167036
B1238324949666N01104737EA0147901552166036
B1238364949625N01104575EA0146801544168036
K123836328017
B1238404949587N01104412EA0145901528173036
B1238444949545N01104250EA0145401528172040
B1238484949504N01104091EA0145401520170040
B1238524949462N01103933EA0144501512169036
B1238564949420N01103775EA0143401504171040
K123856336015
B1239004949383N01103616EA0143301504170032
B1239044949345N01103454EA0143001504168032
B1239084949312N01103300EA0142701496170040
B1239124949279N01103141EA0142201496169036
B1239164949245N01102987EA0142301496164032
K123916332013
B1239204949216N01102833EA0142401496162036
B1239244949187N01102687EA0142601496160036
B1239284949158N01102537EA0142101496160032
B1239324949129N01102391EA0142101488158032
B1239364949100N01102245EA0141801488162032
K123936296008
B1239404949070N01102100EA0141701488154032
B1239444949045N01101958EA0142701496147032
B1239484949029N01101820EA0143601504138032
B1239524949012N01101691EA0145001520133032
B1239564948995N01101566EA0146601536119016
K123956270003
B1240004948987N01101454EA0147001544112024
B1240044948970N01101337EA0146801536119020
B1240084948945N01101220EA0145701528127016
B1240124948900N01101108EA0144601520135020
B1240164948845N01100995EA0142201496144020
K124016190005
B1240204948783N01100875EA0139801472161024
B1240244948716N01100750EA0138301456164024
B1240284948645N01100620EA0137401448165044
B1240324948587N01100487EA0136901440165032
B1240364948529N01100345EA0136901440160036
B1240404948475N01100208EA0136901440160040
K124040314015
B1240444948425N01100066EA0136101432164036
B1240484948375N01059920EA0136001432164036
B1240524948320N01059779EA0136101432161036
B1240564948270N01059641EA0135601424162036
K124056322010
B1241004948212N01059508EA0134501416164036
B1241044948150N01059375EA0133901408169036
B1241084948087N01059254EA0135601424157036
B1241124948033N01059145EA0137601448143036
B1241164947975N01059029EA0135101424160020
B1241204947912N01058900EA0134601416161028
K124120298010
B1241244947850N01058770EA0135501424152044
B1241284947795N01058641EA0135501424150032
B1241324947741N01058512EA0133501400160032
B1241364947683N01058370EA0131201384170040
K124136322022
B1241404947620N01058229EA0130601376173032
B1241444947562N01058083EA0130301368171032
B1241484947504N01057937EA0130501376166032
B1241524947450N01057795EA0129801368167032
B1241564947400N01057645EA0128001352175036
K124156324024
B1242004947350N01057491EA0126801336181032
B1242044947300N01057333EA0126601328179032
B1242084947245N01057183EA0126201328174032
B1242124947191N01057033EA0124301312177040
B1242164947129N01056879EA0123101296184036
K124216320020
B1242204947066N01056729EA0122401288183036
B1242244947012N01056575EA0121301272181040
B1242284946966N01056412EA0119901264181036
B1242324946925N01056245EA0118601248186036
B1242364946887N01056079EA0117901240181040
K124236322025
B1242404946854N01055912EA0117501240179040
B1242444946820N01055750EA0117501232177040
B1242484946779N01055587EA0117101232181040
B1242524946725N01055433EA0116301224181040
B1242564946675N01055270EA0116401224173040
B1243004946633N01055120EA0118101240162040
K124300306008
B1243044946591N01054975EA0120301264152040
B1243084946554N01054850EA0123201288133020
B1243124946508N01054754EA0126501320112032
B1243164946441N01054729EA0128001336104028
K124316142016
B1243204946383N01054766EA0128801352095024
B1243244946350N01054854EA0129401352099020
B1243284946370N01054945EA0130801368095024
B1243324946433N01054966EA0131401376097020
B1243364946475N01054895EA0132701384097020
B1243404946458N01054808EA0133301392091016
K124340142016
B1243444946395N01054791EA0133701400103016
B1243484946354N01054870EA0135701416093024
B1243524946370N01054958EA0136801432093020
B1243564946425N01054983EA0136801432097024
K124356318001
B1244004946475N01054920EA0137601432100024
B1244044946483N01054825EA0138401448095020
B1244084946437N01054758EA0137701440109024
B1244124946366N01054762EA0137401440106020
B1244164946316N01054837EA0137601440100020
K124416306003
B1244204946295N01054945EA0139101448105020
B1244244946295N01055054EA0140401464101020
B1244284946345N01055116EA0141001472100020
B1244324946404N01055083EA0141701480095020
B1244364946416N01054991EA0142101488093020
K124436272006
B1244404946395N01054900EA0142901496092020
B1244444946379N01054804EA0143301496096020
B1244484946370N01054704EA0140901472118020
B1244524946366N01054583EA0138401456132020
B1244564946370N01054445EA0136301432146020
K124456276005
B1245004946379N01054295EA0133201400166020
B1245044946404N01054133EA0130801376175020
B1245084946425N01053962EA0129801368183044
B1245124946445N01053795EA0129501360176032
B1245164946466N01053633EA0129701368165040
K124516300005
B1245204946479N01053470EA0130201368163040
B1245244946495N01053312EA0131401376158036
B1245284946508N01053166EA0132801392143040
B1245324946529N01053033EA0133501400138016
B1245364946554N01052904EA0134101408133024
K124536190011
B1245404946579N01052770EA0133501400142028
B1245444946595N01052625EA0133101392144024
B1245484946600N01052475EA0132001392147028
B1245524946608N01052320EA0130901376156028
B1245564946604N01052166EA0130701376160028
K124556198003
B1246004946595N01052012EA0131001376152028
B1246044946583N01051862EA0130601368154044
B1246084946570N01051712EA0129401360156036
B1246124946558N01051554EA0128301344161032
B1246164946541N01051400EA0127501344159040
K124616270003
B1246204946525N01051241EA0127001336159032
B1246244946508N01051083EA0126801328158032
B1246284946487N01050925EA0126601328158016
B1246324946462N01050770EA0126601328155024
B1246364946437N01050616EA0125701328157044
K124636000001
B1246404946416N01050462EA0125101312160032
B1246444946395N01050308EA0124601312163032
B1246484946370N01050154EA0124101304160040
B1246524946350N01050000EA0123601304163032
B1246564946320N01049845EA0122901296160032
K124656304003
B1247004946295N01049691EA0122401288158032
B1247044946266N01049541EA0122701288155032
B1247084946233N01049387EA0122701288155020
B1247124946208N01049229EA0122701288161024
B1247164946187N01049075EA0122201288158044
K124716348005
B1247204946166N01048920EA0121701280156032
B1247244946145N01048766EA0121601280159032
B1247284946120N01048612EA0121601280156040
B1247324946100N01048466EA0121601280155032
B1247364946075N01048320EA0121001272154032
K124736332002
B1247404946054N01048175EA0120101264153016
B1247444946033N01048025EA0119201256156024
B1247484946012N01047870EA0118901248154044
B1247524945991N01047716EA0118501248153032
B1247564945970N01047562EA0118901248151016
K124756354010
B1248004945954N01047412EA0119701256148032
B1248044945937N01047266EA0121301272138028
B1248084945920N01047141EA0124701296121024
B1248124945925N01047041EA0127401336098028
B1248164945962N01046975EA0127801344093028
K124816116006
B1248204946012N01046929EA0126601328102020
B1248244946054N01046845EA0124601312120024
B1248284946070N01046725EA0123101288131024
B1248324946058N01046595EA0121601280139024
B1248364946037N01046466EA0120401264142016
K124836116006
B1248404946016N01046329EA0118501248147020
B1248444945991N01046191EA0117801240148024
B1248484945966N01046054EA0117001232150020
B1248524945937N01045916EA0116301224156028
B1248564945904N01045770EA0116201224156024
K124856292005
B1249004945879N01045629EA0116001224153044
B1249044945850N01045487EA0114801216155036
B1249084945825N01045345EA0113701200154032
