ACAM3K9
HFDTE300518
HFFXA050
HFPLTPILOT:Beck Stephan            
HFGTYGLIDERTYPE:ASW22ble    
HFGIDGLIDERID:MM          
HFDTM100GPSDATUM:
HFRFWFIRMWAREVERSION:F2.6
HFRHWHARDWAREVERSION:300 Series Version 2
HFFTYFRTYPE:CAMBRIDGE AERO INSTRUMENTS, 302+
HFGPS:GARMIN,LVS-25,12,18000
HFPRSPRESSALTSENSOR:INTERSEMA, MS5534-AP, 20000
I033638FXA3941ENL4247REX
LCAMSBVER:5FWVER:F26300
C190411084537190411000102
C0000000N00000000WTAKEOFF     
C4737983N00756467EHuetten Hotz
C4901283N01129083EBeilngries  
C4940683N00858433EMichelstadt 
C4737983N00756467EHuetten Hotz
C0000000N00000000WLANDING     
B1109294959219N01138756EA0048000490000964000000
B1109314959219N01138756EA0048000490000976000000
B1109334959219N01138756EA0048200490000996000000
B1109354959219N01138756EA0048200490000996000000
B1109374959219N01138756EA0048200490000996000000
B1109394959219N01138756EA0048100490000996000000
B1109414959219N01138756EA0048100490000996000000
B1109434959219N01138756EA0048100490000996000000
B1109454959219N01138756EA0048100490000996000000
B1109474959219N01138756EA0048200490000996000000
B1109494959219N01138756EA0048100490000996000000
B1109514959219N01138754EA0048100490000996000000
B1109534959219N01138753EA0048000490000996000000
B1109554959218N01138750EA0048100490000996000000
B1109574959215N01138745EA0048200490000996000000
B1110004959210N01138734EA0048000490000996000000
B1110044959199N01138705EA0048200490000996000000
B1110084959185N01138667EA0048100490000996000000
B1110124959166N01138618EA0048000490000996000000
B1110164959145N01138559EA0048000490000996000000
B1110204959120N01138494EA0048000490000996000000
B1110244959094N01138423EA0048400493000996000000
B1110284959066N01138351EA0048800497000996000000
B1110324959037N01138276EA0049300501000996000000
B1110364959008N01138199EA0049900511000996000000
B1110404958982N01138128EA0050900518000996000000
B1110444958958N01138052EA0051000521000996000000
B1110484958928N01137977EA0051400528000996000000
B1110524958889N01137917EA0052500541000996000000
B1110564958847N01137865EA0053600551000996000000
B1111004958804N01137818EA0054400561000996000000
B1111044958757N01137781EA0055000562000996000000
B1111084958705N01137751EA0054900558000996000000
B1111124958651N01137722EA0055200566000996000000
B1111164958598N01137697EA0056000574000996000000
B1111204958543N01137681EA0056400575000996000000
B1111244958484N01137677EA0056600581000996000000
B1111284958426N01137690EA0057400595000996000000
B1111324958370N01137712EA0059000610000996000000
B1111364958317N01137740EA0060000617000996000000
B1111404958261N01137775EA0061200630000996000000
B1111444958206N01137811EA0062300639000996000000
B1111484958153N01137844EA0062800641000996000000
B1111524958100N01137877EA0062700640000996000000
B1111564958045N01137909EA0062800642000996000000
B1112004957992N01137941EA0063100645000996000000
B1112044957940N01137972EA0063600655000996000000
B1112084957885N01138003EA0064400662000996000000
B1112124957827N01138035EA0064800663000996000000
B1112164957768N01138069EA0065300674000996000000
B1112204957712N01138099EA0066600684000996000000
B1112244957656N01138123EA0066800683000996000000
B1112284957602N01138154EA0066600681000996000000
B1112324957543N01138188EA0066800684000996000000
B1112364957486N01138224EA0067100691000996000000
B1112404957430N01138266EA0067900702000996000000
B1112444957376N01138312EA0069000713000996000000
B1112484957326N01138372EA0070100723000996000000
B1112524957292N01138459EA0071400737000996000000
B1112564957285N01138554EA0073200757000996000000
B1113004957304N01138645EA0074400766000996000000
B1113044957346N01138715EA0074900769000996000000
B1113084957403N01138749EA0075100772000996000000
B1113124957464N01138741EA0075500778000996000000
B1113164957516N01138697EA0076100786000996000000
B1113204957551N01138628EA0076800793000996000000
B1113244957569N01138549EA0077800806000996000000
B1113284957561N01138467EA0078800809000996000000
B1113324957529N01138396EA0079200819000996000000
B1113364957482N01138359EA0080700832000996000000
B1113404957424N01138360EA0081300837000996000000
B1113444957369N01138403EA0082100853000996000000
B1113484957334N01138484EA0083400862000996000000
B1113524957326N01138585EA0084200874000996000000
B1113564957342N01138680EA0086100894000996000000
B1114004957374N01138758EA0087500904000996000000
B1114044957420N01138818EA0088200910000996000000
B1114084957474N01138852EA0088800915000996000000
B1114124957534N01138857EA0089100918000996000000
B1114164957590N01138828EA0089800928000996000000
B1114204957630N01138774EA0090600939000996000000
B1114244957655N01138698EA0091200940000996000000
B1114284957660N01138611EA0091300941000996000000
B1114324957643N01138529EA0091700950000996000000
B1114364957608N01138470EA0092700958000996000000
B1114404957560N01138432EA0093400963000996000000
B1114444957502N01138422EA0093800969000996000000
B1114484957447N01138441EA0094900984000996000000
B1114524957399N01138481EA0095900988000996000000
B1114564957353N01138548EA0096300993000996000000
B1115004957325N01138635EA0097401004000996000000
B1115044957326N01138737EA0098101017000996000000
B1115084957355N01138830EA0099301030000996000000
B1115124957405N01138888EA0100601044000996000000
B1115164957464N01138891EA0101601051000996000000
B1115204957512N01138843EA0102701062000996000000
B1115244957535N01138770EA0103601068000996000000
B1115284957539N01138688EA0103901070000996000000
B1115324957526N01138610EA0104501075000940000000
B1115364957495N01138546EA0104501074000696000000
B1115404957450N01138506EA0104401072000548000000
B1115444957398N01138501EA0104501072000396000000
B1115484957346N01138540EA0104001069000276000000
B1115524957307N01138618EA0104001073000228000000
B1115564957294N01138713EA0104101069000168000000
B1116004957291N01138817EA0103701073000176000000
B1116044957300N01138913EA0104901086000148000000
B1116084957324N01139000EA0105201082000116000000
B1116124957369N01139065EA0104501075000096000000
B1116164957430N01139085EA0103501063000092000000
B1116204957487N01139056EA0103201068000088000000
B1116244957519N01138992EA0104001077000080000000
B1116284957521N01138914EA0104201070000084000000
B1116324957495N01138836EA0104001073000088000000
B1116364957448N01138783EA0104601086000088000000
B1116404957392N01138771EA0105701093000084000000
B1116444957338N01138815EA0105801090000080000000
B1116484957311N01138913EA0105901094000084000000
B1116524957329N01139017EA0106301099000080000000
B1116564957383N01139078EA0106501102000084000000
B1117004957441N01139069EA0107201109000076000000
B1117044957472N01138999EA0107001102000084000000
B1117084957465N01138908EA0107001107000084000000
B1117124957429N01138835EA0107601114000084000000
B1117164957373N01138813EA0108601121000084000000
B1117204957318N01138865EA0108601117000080000000
B1117244957301N01138969EA0108301116000080000000
B1117284957333N01139066EA0108301117000080000000
B1117324957394N01139112EA0108701122000084000000
B1117364957451N01139090EA0109201125000084000000
B1117404957477N01139012EA0109301126000108000000
B1117444957457N01138923EA0109001124000116000000
B1117484957404N01138875EA0109301132000108000000
B1117524957343N01138905EA0110201140000104000000
B1117564957309N01138996EA0110401135000096000000
B1118004957327N01139108EA0109901129000100000000
B1118044957385N01139169EA0110301139000100000000
B1118084957447N01139161EA0110801144000100000000
B1118124957487N01139096EA0110901142000096000000
B1118164957498N01139007EA0111101148000096000000
B1118204957472N01138929EA0111801155000096000000
B1118244957416N01138896EA0112301163000088000000
B1118284957357N01138935EA0112901171000088000000
B1118324957326N01139029EA0113701175000084000000
B1118364957334N01139135EA0113501165000080000000
B1118404957378N01139222EA0112501159000080000000
B1118444957441N01139264EA0112401161000084000000
B1118484957506N01139273EA0112201157000088000000
B1118524957572N01139281EA0111701150000092000000
B1118564957642N01139291EA0110701137000092000000
B1119004957715N01139302EA0109901132000096000000
B1119044957785N01139317EA0109601130000100000000
B1119084957853N01139332EA0109201121000096000000
B1119124957922N01139351EA0108301114000100000000
B1119164957992N01139369EA0107601108000100000000
B1119204958061N01139389EA0107401109000100000000
B1119244958124N01139421EA0107901116000096000000
B1119284958183N01139469EA0108301115000088000000
B1119324958247N01139514EA0107701106000088000000
B1119364958319N01139537EA0107501113000092000000
B1119404958384N01139560EA0108401127000096000000
B1119444958439N01139611EA0110001137000084000000
B1119484958481N01139689EA0110001132000080000000
B1119524958508N01139789EA0109901136000084000000
B1119564958518N01139896EA0110501141000084000000
B1120004958521N01140005EA0110401138000080000000
B1120044958526N01140117EA0110201135000080000000
B1120084958536N01140229EA0109801131000084000000
B1120124958547N01140340EA0109401127000084000000
B1120164958560N01140452EA0108801119000080000000
B1120204958570N01140567EA0108201114000080000000
B1120244958577N01140678EA0107901112000084000000
B1120284958587N01140791EA0107501105000080000000
B1120324958604N01140905EA0107001101000084000000
B1120364958620N01141016EA0106701098000080000000
B1120404958629N01141129EA0106301093000080000000
B1120444958635N01141246EA0106301098000080000000
B1120484958622N01141352EA0106901108000080000000
B1120524958579N01141415EA0107901113000076000000
B1120564958522N01141426EA0107801102000068000000
B1121004958466N01141387EA0106701097000068000000
B1121044958438N01141313EA0106801102000072000000
B1121084958445N01141230EA0107001101000072000000
B1121124958479N01141159EA0107101104000076000000
B1121164958526N01141115EA0107201102000072000000
B1121204958585N01141109EA0106601094000068000000
B1121244958642N01141152EA0106201091000072000000
B1121284958683N01141231EA0106501099000076000000
B1121324958718N01141311EA0107501114000076000000
B1121364958747N01141395EA0108201112000076000000
B1121404958752N01141495EA0107801107000076000000
B1121444958718N01141577EA0107601107000076000000
B1121484958663N01141605EA0107101098000076000000
B1121524958605N01141584EA0106301089000076000000
B1121564958565N01141522EA0105301080000072000000
B1122004958544N01141441EA0105001084000068000000
B1122044958548N01141360EA0105401088000068000000
B1122084958565N01141287EA0105901089000064000000
B1122124958605N01141237EA0105601083000060000000
B1122164958663N01141232EA0105001079000068000000
B1122204958716N01141280EA0105201087000068000000
B1122244958748N01141360EA0106101095000072000000
B1122284958774N01141444EA0106501098000068000000
B1122324958795N01141530EA0106501093000068000000
B1122364958804N01141630EA0105901091000068000000
B1122404958807N01141724EA0106001089000064000000
B1122444958803N01141824EA0105101074000064000000
B1122484958795N01141933EA0104001070000072000000
B1122524958789N01142045EA0103701069000076000000
B1122564958782N01142160EA0103501067000080000000
B1123004958768N01142273EA0103101069000064000000
B1123044958744N01142380EA0103501074000044000000
B1123084958709N01142472EA0104401085000036000000
B1123124958651N01142519EA0105501096000028000000
B1123164958594N01142493EA0106701106000024000000
B1123204958577N01142411EA0107301111000020000000
B1123244958612N01142335EA0107601116000016000000
B1123284958674N01142327EA0108401128000016000000
B1123324958718N01142401EA0109401135000016000000
B1123364958709N01142501EA0109801138000016000000
B1123404958656N01142562EA0110001146000076000000
B1123444958596N01142543EA0111601163000096000000
B1123484958573N01142465EA0112501168000108000000
B1123524958604N01142389EA0112801170000104000000
B1123564958669N01142383EA0113001173000096000000
B1124004958716N01142458EA0113801185000104000000
B1124044958717N01142559EA0114801193000096000000
B1124084958670N01142631EA0115401202000100000000
B1124124958609N01142621EA0116501211000080000000
B1124164958583N01142544EA0117301220000084000000
B1124204958614N01142470EA0117801222000076000000
B1124244958678N01142465EA0117901224000080000000
B1124284958726N01142537EA0118701236000088000000
B1124324958739N01142639EA0119801242000104000000
B1124364958713N01142734EA0120201247000120000000
B1124404958656N01142782EA0120601254000096000000
B1124444958599N01142757EA0121301258000056000000
B1124484958572N01142682EA0122001270000044000000
B1124524958594N01142606EA0123101274000028000000
B1124564958651N01142572EA0123101275000020000000
B1125004958716N01142602EA0123801286000020000000
B1125044958747N01142695EA0124901297000016000000
B1125084958733N01142796EA0125301297000016000000
B1125124958677N01142862EA0124901296000040000000
B1125164958613N01142857EA0125501306000084000000
B1125204958574N01142797EA0126501318000080000000
B1125244958574N01142718EA0127601323000048000000
B1125284958611N01142650EA0127501318000032000000
B1125324958669N01142618EA0127401323000024000000
B1125364958730N01142635EA0128001333000020000000
B1125404958774N01142702EA0129201339000016000000
B1125444958783N01142801EA0128901330000016000000
B1125484958751N01142895EA0127901326000012000000
B1125524958692N01142944EA0128201329000012000000
B1125564958634N01142947EA0129001339000012000000
B1126004958583N01142907EA0129401344000012000000
B1126044958559N01142830EA0130201357000008000000
B1126084958574N01142756EA0131401359000008000000
B1126124958627N01142717EA0130901351000008000000
B1126164958692N01142735EA0130601356000008000000
B1126204958741N01142805EA0131401366000008000000
B1126244958747N01142905EA0132201370000004000000
B1126284958715N01142995EA0132201369000004000000
B1126324958656N01143035EA0132201372000008000000
B1126364958598N01143011EA0132601377000008000000
B1126404958568N01142936EA0133301382000012000000
B1126444958591N01142857EA0133601387000012000000
B1126484958650N01142832EA0134001386000008000000
B1126524958711N01142875EA0134001390000008000000
B1126564958741N01142968EA0134801395000012000000
B1127004958724N01143072EA0134601392000012000000
B1127044958672N01143141EA0134701396000012000000
B1127084958611N01143139EA0135001399000008000000
B1127124958566N01143078EA0135201402000008000000
B1127164958564N01142988EA0135501408000012000000
B1127204958604N01142923EA0136301413000012000000
B1127244958668N01142921EA0136201412000020000000
B1127284958724N01142978EA0136601419000016000000
B1127324958744N01143078EA0137101420000012000000
B1127364958718N01143177EA0136901417000012000000
B1127404958659N01143224EA0136801418000008000000
B1127444958599N01143207EA0137101422000008000000
B1127484958565N01143135EA0137401425000008000000
B1127524958568N01143051EA0137701431000004000000
B1127564958601N01142986EA0138301434000004000000
B1128004958663N01142966EA0138201431000004000000
B1128044958724N01143014EA0138401439000004000000
B1128084958750N01143109EA0139001439000004000000
B1128124958729N01143207EA0138501434000004000000
B1128164958669N01143258EA0137901429000008000000
B1128204958607N01143245EA0138201438000008000000
B1128244958561N01143194EA0139301445000008000000
B1128284958546N01143112EA0139501438000004000000
B1128324958570N01143033EA0138801436000004000000
B1128364958627N01142996EA0138901440000008000000
B1128404958690N01143017EA0139301443000008000000
B1128444958738N01143089EA0139601444000004000000
B1128484958759N01143190EA0139401441000008000000
B1128524958759N01143300EA0138701429000004000000
B1128564958755N01143420EA0137501423000008000000
B1129004958754N01143538EA0137301425000008000000
B1129044958760N01143651EA0137301418000012000000
B1129084958774N01143768EA0136201403000012000000
B1129124958783N01143891EA0135101397000012000000
B1129164958800N01144012EA0135001402000012000000
B1129204958828N01144121EA0136401420000012000000
B1129244958858N01144218EA0137201421000012000000
B1129284958891N01144314EA0136801414000008000000
B1129324958929N01144412EA0136201407000008000000
B1129364958971N01144512EA0135001393000008000000
B1129404959019N01144608EA0134101389000012000000
B1129444959072N01144690EA0134301395000012000000
B1129484959123N01144766EA0134601392000008000000
B1129524959176N01144842EA0134001381000008000000
B1129564959233N01144912EA0133001373000008000000
B1130004959292N01144977EA0132101367000008000000
B1130044959349N01145049EA0131901364000008000000
B1130084959405N01145124EA0131301357000008000000
B1130124959459N01145213EA0130401352000012000000
B1130164959509N01145310EA0130801363000012000000
B1130204959556N01145397EA0132201378000012000000
B1130244959595N01145496EA0133301385000012000000
B1130284959596N01145608EA0133801392000012000000
B1130324959554N01145699EA0134501395000012000000
B1130364959488N01145730EA0134801400000012000000
B1130404959430N01145691EA0135801411000012000000
B1130444959404N01145612EA0136101406000008000000
B1130484959418N01145523EA0135401401000008000000
B1130524959466N01145471EA0135601405000012000000
B1130564959530N01145481EA0135401402000012000000
B1131004959588N01145540EA0135701414000012000000
B1131044959625N01145635EA0137201430000012000000
B1131084959621N01145742EA0138501439000012000000
B1131124959574N01145821EA0139001439000012000000
B1131164959509N01145829EA0138801439000012000000
B1131204959459N01145767EA0139001442000012000000
B1131244959446N01145681EA0139401444000008000000
B1131284959474N01145605EA0139501444000012000000
B1131324959530N01145574EA0139401445000012000000
B1131364959592N01145600EA0140201455000012000000
B1131404959639N01145682EA0140901460000012000000
B1131444959643N01145793EA0141401470000016000000
B1131484959600N01145874EA0142401483000016000000
B1131524959536N01145898EA0143401488000016000000
B1131564959480N01145855EA0143501486000016000000
B1132004959453N01145773EA0143701492000012000000
B1132044959462N01145689EA0143901490000012000000
B1132084959501N01145626EA0143501485000012000000
B1132124959563N01145613EA0143101484000012000000
B1132164959627N01145652EA0143501493000008000000
B1132204959682N01145717EA0144501501000008000000
B1132244959722N01145800EA0145001508000012000000
B1132284959722N01145899EA0145901514000012000000
B1132324959680N01145971EA0145701509000012000000
B1132364959619N01145986EA0145701513000012000000
B1132404959567N01145938EA0145901513000012000000
B1132444959552N01145850EA0146101515000016000000
B1132484959584N01145770EA0146601522000012000000
B1132524959644N01145739EA0147401529000012000000
B1132564959704N01145783EA0147601529000012000000
B1133004959739N01145874EA0147601532000012000000
B1133044959734N01145975EA0147901533000012000000
B1133084959688N01146046EA0148001534000008000000
B1133124959625N01146058EA0148101534000008000000
B1133164959567N01146017EA0148101536000012000000
B1133204959545N01145929EA0148201536000012000000
B1133244959569N01145847EA0148601546000012000000
B1133284959626N01145817EA0150101554000012000000
B1133324959688N01145833EA0149901550000012000000
B1133364959744N01145897EA0149001539000012000000
B1133404959781N01145995EA0148401542000012000000
B1133444959804N01146097EA0149101545000012000000
B1133484959826N01146198EA0149201555000012000000
B1133524959840N01146294EA0150601563000008000000
B1133564959852N01146392EA0150901565000008000000
B1134004959864N01146491EA0150801561000008000000
B1134044959864N01146597EA0150201553000008000000
B1134084959857N01146703EA0149601550000008000000
B1134124959842N01146804EA0149701553000008000000
B1134164959826N01146903EA0149901557000008000000
B1134204959803N01147000EA0150101555000012000000
B1134244959758N01147083EA0150001557000012000000
B1134284959700N01147134EA0150801565000012000000
B1134324959638N01147130EA0150501558000008000000
B1134364959588N01147069EA0149901553000008000000
B1134404959580N01146974EA0149501547000012000000
B1134444959613N01146891EA0149001542000008000000
B1134484959673N01146846EA0148401532000008000000
B1134524959745N01146842EA0147401526000008000000
B1134564959818N01146878EA0147301528000008000000
B1135004959885N01146943EA0147701534000012000000
B1135044959944N01147013EA0148201540000012000000
B1135085000000N01147089EA0148601541000012000000
B1135125000028N01147198EA0148701544000012000000
B1135165000003N01147303EA0148901544000016000000
B1135204959942N01147359EA0148501534000020000000
B1135244959872N01147353EA0147501527000020000000
B1135284959817N01147288EA0147401530000016000000
B1135324959784N01147202EA0147501526000016000000
B1135364959753N01147112EA0147101531000016000000
B1135404959726N01147029EA0148201541000016000000
B1135444959703N01146942EA0148101528000012000000
B1135484959680N01146836EA0146101504000012000000
B1135524959657N01146716EA0144001490000016000000
B1135564959635N01146595EA0143701493000020000000
B1136004959613N01146480EA0144101499000020000000
B1136044959591N01146371EA0144701504000020000000
B1136084959563N01146268EA0145101505000020000000
B1136124959532N01146167EA0145201506000020000000
B1136164959495N01146072EA0145401510000020000000
B1136204959452N01145988EA0146201521000020000000
B1136244959405N01145919EA0146901524000020000000
B1136284959348N01145860EA0147001524000020000000
B1136324959287N01145808EA0147201526000020000000
B1136364959220N01145756EA0146801516000016000000
B1136404959154N01145698EA0145601506000016000000
B1136444959088N01145633EA0144701498000016000000
B1136484959024N01145569EA0144201498000012000000
B1136524958965N01145507EA0144201495000012000000
B1136564958906N01145444EA0143601485000012000000
B1137004958845N01145388EA0143701497000016000000
B1137044958789N01145345EA0145101513000012000000
B1137084958735N01145302EA0146401521000012000000
B1137124958678N01145267EA0147401533000012000000
B1137164958618N01145248EA0148701538000012000000
B1137204958556N01145284EA0148301540000012000000
B1137244958521N01145370EA0149101545000008000000
B1137284958533N01145474EA0148401531000008000000
B1137324958585N01145543EA0147501530000012000000
B1137364958646N01145547EA0148001535000008000000
B1137404958695N01145497EA0148201536000008000000
B1137444958721N01145419EA0148301538000008000000
B1137484958722N01145330EA0149001552000012000000
B1137524958704N01145250EA0150501561000008000000
B1137564958653N01145208EA0150501559000008000000
B1138004958587N01145239EA0150201556000012000000
B1138044958551N01145335EA0150201557000016000000
B1138084958566N01145444EA0149901553000016000000
B1138124958617N01145512EA0150201560000016000000
B1138164958677N01145517EA0151001564000016000000
B1138204958733N01145475EA0151401570000016000000
B1138244958760N01145396EA0151801580000012000000
B1138284958742N01145314EA0152601584000016000000
B1138324958683N01145278EA0152901588000012000000
B1138364958618N01145317EA0153101586000016000000
B1138404958583N01145414EA0153101589000016000000
B1138444958599N01145518EA0153201592000016000000
B1138484958656N01145570EA0154201604000016000000
B1138524958716N01145557EA0155301615000012000000
B1138564958755N01145494EA0156201623000012000000
B1139004958755N01145410EA0156701628000012000000
B1139044958715N01145354EA0157201632000008000000
B1139084958651N01145353EA0157201627000008000000
B1139124958592N01145419EA0156401621000008000000
B1139164958572N01145525EA0156501626000008000000
B1139204958600N01145616EA0156901632000012000000
B1139244958657N01145646EA0157901637000012000000
B1139284958713N01145617EA0158001636000012000000
B1139324958747N01145539EA0158101644000016000000
B1139364958744N01145453EA0159601658000008000000
B1139404958718N01145382EA0160601663000008000000
B1139444958683N01145318EA0160301651000012000000
B1139484958650N01145237EA0158601633000012000000
B1139524958617N01145140EA0157001627000012000000
B1139564958582N01145046EA0157301636000012000000
B1140004958549N01144961EA0158101639000012000000
B1140044958525N01144866EA0157201621000012000000
B1140084958500N01144758EA0155901617000016000000
B1140124958465N01144663EA0155701611000016000000
B1140164958436N01144568EA0155201611000020000000
B1140204958421N01144477EA0156701631000016000000
B1140244958397N01144402EA0157501630000016000000
B1140284958351N01144338EA0156801618000012000000
B1140324958284N01144317EA0155801617000012000000
B1140364958219N01144357EA0156001618000008000000
B1140404958180N01144452EA0156101621000008000000
B1140444958184N01144564EA0156201620000008000000
B1140484958223N01144652EA0156001618000008000000
B1140524958282N01144701EA0155901616000008000000
B1140564958343N01144702EA0155401608000008000000
B1141004958403N01144656EA0154501599000012000000
B1141044958452N01144584EA0153901597000012000000
B1141084958487N01144496EA0154201600000012000000
B1141124958513N01144405EA0154201600000012000000
B1141164958531N01144311EA0154101600000012000000
B1141204958544N01144213EA0154401600000012000000
B1141244958553N01144113EA0153501579000012000000
B1141284958560N01144000EA0151001558000012000000
B1141324958569N01143879EA0149801550000016000000
B1141364958581N01143758EA0149201544000016000000
B1141404958596N01143636EA0148501530000016000000
B1141444958609N01143505EA0147201521000020000000
B1141484958624N01143375EA0146901526000020000000
B1141524958640N01143255EA0147701538000016000000
B1141564958659N01143146EA0148801545000016000000
B1142004958679N01143039EA0149101544000016000000
B1142044958703N01142934EA0148601538000016000000
B1142084958729N01142827EA0148101534000016000000
B1142124958760N01142719EA0148301540000016000000
B1142164958790N01142614EA0148601539000016000000
B1142204958822N01142510EA0148501534000016000000
B1142244958867N01142415EA0147701526000012000000
B1142284958919N01142325EA0147101522000012000000
B1142324958967N01142232EA0146501512000012000000
B1142364959019N01142145EA0146201515000016000000
B1142404959072N01142075EA0146901523000012000000
B1142444959123N01142004EA0146901519000012000000
B1142484959170N01141928EA0146601514000012000000
B1142524959216N01141850EA0146201512000012000000
B1142564959262N01141770EA0146301514000008000000
B1143004959306N01141691EA0146301512000008000000
B1143044959341N01141600EA0146401517000008000000
B1143084959354N01141503EA0147301528000012000000
B1143124959331N01141412EA0147701524000008000000
B1143164959277N01141356EA0146701514000004000000
B1143204959207N01141352EA0146201511000008000000
B1143244959145N01141402EA0145801505000012000000
B1143284959111N01141504EA0144801495000012000000
B1143324959119N01141618EA0144101487000012000000
B1143364959162N01141712EA0143801485000012000000
B1143404959223N01141766EA0143601485000008000000
B1143444959289N01141766EA0143401478000008000000
B1143484959342N01141703EA0142701475000008000000
B1143524959350N01141603EA0142401477000008000000
B1143564959328N01141509EA0142701479000008000000
B1144004959301N01141425EA0142401473000004000000
B1144044959271N01141334EA0141601461000008000000
B1144084959238N01141236EA0140301451000008000000
B1144124959203N01141137EA0140201454000008000000
B1144164959171N01141044EA0140801465000012000000
B1144204959138N01140957EA0141901474000008000000
B1144244959103N01140871EA0142501476000012000000
B1144284959073N01140778EA0142501476000008000000
B1144324959051N01140681EA0143101484000008000000
B1144364959032N01140583EA0143401481000008000000
B1144404959014N01140476EA0142001463000008000000
B1144444958993N01140356EA0140701456000012000000
B1144484958975N01140236EA0140701461000012000000
B1144524958960N01140122EA0141401467000016000000
B1144564958947N01140010EA0141501465000016000000
B1145004958936N01139896EA0141301465000012000000
B1145044958926N01139781EA0141301465000012000000
B1145084958919N01139668EA0141201464000012000000
B1145124958915N01139555EA0141801474000012000000
B1145164958911N01139446EA0142301476000012000000
B1145204958904N01139337EA0142001469000012000000
B1145244958902N01139221EA0141001453000012000000
B1145284958897N01139098EA0139701446000016000000
B1145324958890N01138977EA0139601449000020000000
B1145364958885N01138864EA0140001454000020000000
B1145404958885N01138753EA0140401454000016000000
B1145444958882N01138640EA0140101450000016000000
B1145484958882N01138526EA0139901451000016000000
B1145524958884N01138415EA0140301458000016000000
B1145564958886N01138310EA0140901462000016000000
B1146004958889N01138204EA0140901460000016000000
B1146044958890N01138099EA0140701461000016000000
B1146084958893N01137994EA0140901459000024000000
B1146124958890N01137889EA0140501454000024000000
B1146164958889N01137785EA0139901448000020000000
B1146204958890N01137677EA0139001439000020000000
B1146244958891N01137565EA0138501439000024000000
B1146284958895N01137456EA0138601436000020000000
B1146324958895N01137349EA0138301432000024000000
B1146364958891N01137248EA0138101430000024000000
B1146404958889N01137145EA0137501422000024000000
B1146444958889N01137040EA0137001421000020000000
B1146484958893N01136937EA0137601433000016000000
B1146524958889N01136841EA0139101443000016000000
B1146564958854N01136761EA0139601450000024000000
B1147004958795N01136721EA0140101456000024000000
B1147044958731N01136738EA0140501459000024000000
B1147084958682N01136810EA0140701460000020000000
B1147124958666N01136910EA0141301470000024000000
B1147164958689N01137003EA0141701471000024000000
B1147204958737N01137072EA0141701477000024000000
B1147244958795N01137088EA0142901485000024000000
B1147284958850N01137053EA0142901481000032000000
B1147324958886N01136973EA0142901485000036000000
B1147364958885N01136885EA0143801499000036000000
B1147404958848N01136817EA0144701500000028000000
B1147444958793N01136785EA0144501503000028000000
B1147484958734N01136798EA0145201508000032000000
B1147524958687N01136864EA0145001502000032000000
B1147564958669N01136963EA0145101509000028000000
B1148004958692N01137054EA0145701508000020000000
B1148044958746N01137111EA0145401510000016000000
B1148084958808N01137102EA0145901517000012000000
B1148124958850N01137037EA0146601521000008000000
B1148164958855N01136947EA0146801523000008000000
B1148204958822N01136869EA0146801522000008000000
B1148244958768N01136828EA0146801526000008000000
B1148284958707N01136841EA0147001525000008000000
B1148324958656N01136898EA0146901522000004000000
B1148364958624N01136988EA0146501519000004000000
B1148404958621N01137092EA0146601521000008000000
B1148444958647N01137184EA0147201530000012000000
B1148484958692N01137249EA0147801534000008000000
B1148524958751N01137285EA0147701530000008000000
B1148564958815N01137279EA0147201527000004000000
B1149004958868N01137231EA0147101529000004000000
B1149044958899N01137155EA0147901533000004000000
B1149084958915N01137066EA0148201538000008000000
B1149124958919N01136976EA0148601542000012000000
B1149164958906N01136890EA0148301541000012000000
B1149204958871N01136816EA0148401541000016000000
B1149244958819N01136765EA0148901548000016000000
B1149284958761N01136746EA0149501551000012000000
B1149324958700N01136763EA0149501553000012000000
B1149364958652N01136819EA0150001558000008000000
B1149404958625N01136901EA0149501545000008000000
B1149444958616N01137005EA0148401538000008000000
B1149484958634N01137102EA0148501544000012000000
B1149524958677N01137175EA0149101548000008000000
B1149564958733N01137219EA0149501553000012000000
B1150004958796N01137223EA0149501549000016000000
B1150044958856N01137187EA0149301549000012000000
B1150084958903N01137119EA0149301548000012000000
B1150124958933N01137031EA0149501555000016000000
B1150164958936N01136938EA0150101557000012000000
B1150204958924N01136849EA0149801553000008000000
B1150244958911N01136760EA0149901553000012000000
B1150284958891N01136674EA0149501547000012000000
B1150324958858N01136594EA0149001550000008000000
B1150364958817N01136529EA0150201565000012000000
B1150404958768N01136483EA0151501567000008000000
B1150444958705N01136469EA0151001566000008000000
B1150484958643N01136513EA0151801578000012000000
B1150524958618N01136605EA0152801586000012000000
B1150564958639N01136702EA0152801579000012000000
B1151004958698N01136758EA0152201578000020000000
B1151044958763N01136759EA0153901600000020000000
B1151084958813N01136706EA0154801608000016000000
B1151124958839N01136618EA0155101605000016000000
B1151164958832N01136518EA0154601602000016000000
B1151204958793N01136435EA0154901610000012000000
B1151244958731N01136403EA0155401610000012000000
B1151284958664N01136421EA0155601614000008000000
B1151324958612N01136488EA0156001617000012000000
B1151364958594N01136589EA0156501628000008000000
B1151404958626N01136678EA0157001624000012000000
B1151444958692N01136720EA0156101619000016000000
B1151484958757N01136685EA0156701636000012000000
B1151524958785N01136598EA0158701654000012000000
B1151564958768N01136503EA0159801653000016000000
B1152004958717N01136433EA0159401657000012000000
B1152044958650N01136417EA0160201665000012000000
B1152084958585N01136448EA0160501662000008000000
B1152124958529N01136514EA0160601666000016000000
B1152164958507N01136613EA0160901670000016000000
B1152204958518N01136713EA0160901668000012000000
B1152244958564N01136787EA0160701665000016000000
B1152284958627N01136816EA0160701668000016000000
B1152324958690N01136790EA0161001672000012000000
B1152364958735N01136721EA0161501676000012000000
B1152404958765N01136630EA0162001683000012000000
B1152444958782N01136529EA0162701685000008000000
B1152484958776N01136418EA0161801673000008000000
B1152524958754N01136306EA0161401673000012000000
B1152564958743N01136196EA0161301674000012000000
B1153004958741N01136087EA0161401672000016000000
B1153044958741N01135974EA0160701655000012000000
B1153084958741N01135849EA0159201649000016000000
B1153124958738N01135727EA0159401666000016000000
B1153164958735N01135615EA0161901680000016000000
B1153204958734N01135503EA0161901677000016000000
B1153244958731N01135390EA0161601671000012000000
B1153284958733N01135273EA0160701661000016000000
B1153324958733N01135152EA0159701653000016000000
B1153364958731N01135032EA0159201650000016000000
B1153404958731N01134915EA0159001649000012000000
B1153444958726N01134802EA0159001648000016000000
B1153484958717N01134692EA0158801643000020000000
B1153524958712N01134580EA0158001631000024000000
B1153564958696N01134463EA0156901622000024000000
B1154004958677N01134345EA0156001615000016000000
B1154044958657N01134226EA0155601612000020000000
B1154084958639N01134109EA0155301610000020000000
B1154124958621N01133994EA0155401612000020000000
B1154164958600N01133885EA0155401612000020000000
B1154204958578N01133779EA0155101605000016000000
B1154244958552N01133673EA0154401600000020000000
B1154284958523N01133567EA0154301598000024000000
B1154324958496N01133462EA0153801593000020000000
B1154364958469N01133357EA0153401588000020000000
B1154404958438N01133254EA0152601580000020000000
B1154444958393N01133164EA0152301579000020000000
B1154484958351N01133085EA0152401581000016000000
B1154524958314N01133002EA0152301576000016000000
B1154564958282N01132908EA0151801570000020000000
B1155004958248N01132809EA0151601571000020000000
B1155044958214N01132711EA0151901582000016000000
B1155084958182N01132618EA0153401594000012000000
B1155124958157N01132530EA0154101595000012000000
B1155164958140N01132434EA0153701589000012000000
B1155204958131N01132332EA0153101582000020000000
B1155244958124N01132226EA0152001570000024000000
B1155284958123N01132113EA0151101564000024000000
B1155324958120N01132001EA0151501571000024000000
B1155364958117N01131897EA0152301582000028000000
B1155404958117N01131794EA0152801583000028000000
B1155444958124N01131691EA0153001587000020000000
B1155484958139N01131590EA0153701597000024000000
B1155524958150N01131493EA0154501602000016000000
B1155564958161N01131394EA0154801603000016000000
B1156004958175N01131295EA0155101609000012000000
B1156044958192N01131204EA0155801613000012000000
B1156084958206N01131109EA0155301600000012000000
B1156124958215N01131004EA0154101596000012000000
B1156164958219N01130898EA0154601611000012000000
B1156204958213N01130801EA0156101618000016000000
B1156244958182N01130714EA0155901619000024000000
B1156284958120N01130674EA0156101619000024000000
B1156324958055N01130694EA0155901618000020000000
B1156364958007N01130765EA0155901618000020000000
B1156404957988N01130858EA0156301622000016000000
B1156444958001N01130952EA0156501622000012000000
B1156484958039N01131026EA0156301616000012000000
B1156524958096N01131066EA0155601609000008000000
B1156564958156N01131062EA0155601614000004000000
B1157004958208N01131019EA0155901615000004000000
B1157044958253N01130960EA0156401622000008000000
B1157084958289N01130896EA0157201624000008000000
B1157124958322N01130822EA0157201633000012000000
B1157164958366N01130766EA0157801636000012000000
B1157204958430N01130778EA0157901636000012000000
B1157244958470N01130859EA0158701651000012000000
B1157284958458N01130962EA0160001663000012000000
B1157324958404N01131021EA0160601660000012000000
B1157364958339N01130996EA0160301667000012000000
B1157404958308N01130919EA0161901684000012000000
B1157444958327N01130839EA0162901685000008000000
B1157484958386N01130807EA0162601683000008000000
B1157524958447N01130846EA0163201698000008000000
B1157564958469N01130941EA0164601703000008000000
B1158004958444N01131047EA0164701709000012000000
B1158044958382N01131093EA0165401713000012000000
B1158084958322N01131065EA0165801718000012000000
B1158124958292N01130982EA0166201726000012000000
B1158164958313N01130898EA0166801728000012000000
B1158204958375N01130867EA0166701721000012000000
B1158244958436N01130915EA0166701734000012000000
B1158284958451N01131015EA0168401748000012000000
B1158324958414N01131105EA0168901750000012000000
B1158364958351N01131123EA0169001752000012000000
B1158404958302N01131062EA0169201758000012000000
B1158444958305N01130975EA0170001761000012000000
B1158484958354N01130923EA0169601754000008000000
B1158524958418N01130945EA0169201755000008000000
B1158564958452N01131039EA0169601759000008000000
B1159004958440N01131149EA0170101763000012000000
B1159044958387N01131225EA0170101765000016000000
B1159084958322N01131229EA0170501768000016000000
B1159124958269N01131178EA0170401763000012000000
B1159164958245N01131088EA0170301770000012000000
B1159204958273N01131012EA0171101769000012000000
B1159244958328N01130973EA0170501765000008000000
B1159284958392N01130975EA0170301767000008000000
B1159324958451N01131013EA0170701771000008000000
B1159364958490N01131096EA0170901774000008000000
B1159404958496N01131201EA0171101773000020000000
B1159444958470N01131301EA0170801769000012000000
B1159484958414N01131369EA0170401765000012000000
B1159524958349N01131378EA0170401762000012000000
B1159564958289N01131343EA0169401752000008000000
B1200004958236N01131283EA0168801752000012000000
B1200044958200N01131204EA0169601756000012000000
B1200084958187N01131109EA0169501756000008000000
B1200124958200N01131012EA0169101753000008000000
B1200164958241N01130936EA0169001753000004000000
B1200204958304N01130915EA0169101755000004000000
B1200244958358N01130969EA0169601761000008000000
B1200284958369N01131070EA0169801758000008000000
B1200324958331N01131168EA0169501761000008000000
B1200364958266N01131208EA0170101766000008000000
B1200404958205N01131170EA0170001759000008000000
B1200444958175N01131079EA0169501757000008000000
B1200484958183N01130978EA0169101752000008000000
B1200524958219N01130891EA0168601746000008000000
B1200564958282N01130852EA0168601747000008000000
B1201004958347N01130875EA0168601751000012000000
B1201044958391N01130954EA0169101758000012000000
B1201084958393N01131060EA0170001764000012000000
B1201124958353N01131145EA0170401772000012000000
B1201164958291N01131170EA0171201775000008000000
B1201204958237N01131113EA0170901769000012000000
B1201244958223N01131014EA0170101763000008000000
B1201284958241N01130914EA0169701756000008000000
B1201324958278N01130824EA0169001750000008000000
B1201364958330N01130750EA0168601747000012000000
B1201404958390N01130701EA0169101752000016000000
B1201444958443N01130648EA0168901749000012000000
B1201484958496N01130586EA0167901734000012000000
B1201524958551N01130514EA0166301715000020000000
B1201564958605N01130423EA0164701707000020000000
B1202004958659N01130329EA0164901712000028000000
B1202044958704N01130237EA0164901711000028000000
B1202084958747N01130143EA0164701706000024000000
B1202124958793N01130055EA0164301702000020000000
B1202164958835N01129965EA0163801695000024000000
B1202204958876N01129873EA0163101689000020000000
B1202244958912N01129777EA0162901691000020000000
B1202284958942N01129680EA0163601699000016000000
B1202324958963N01129582EA0164301707000016000000
B1202364958978N01129481EA0164901711000016000000
B1202404958999N01129380EA0165301716000012000000
B1202444959034N01129292EA0165801721000012000000
B1202484959089N01129231EA0166501731000012000000
B1202524959157N01129228EA0167701748000012000000
B1202564959209N01129293EA0169601765000012000000
B1203004959225N01129400EA0170701772000012000000
B1203044959198N01129500EA0171401782000012000000
B1203084959137N01129543EA0172101788000012000000
B1203124959075N01129517EA0172701793000020000000
B1203164959043N01129435EA0173101788000024000000
B1203204959045N01129332EA0172201786000020000000
B1203244959075N01129241EA0172601796000016000000
B1203284959137N01129210EA0173701805000016000000
B1203324959199N01129251EA0174601814000016000000
B1203364959242N01129338EA0175301822000020000000
B1203404959257N01129448EA0176501837000016000000
B1203444959229N01129544EA0177501842000016000000
B1203484959173N01129597EA0177701843000012000000
B1203524959110N01129585EA0177801846000012000000
B1203564959062N01129526EA0178101850000012000000
B1204004959040N01129441EA0178401854000012000000
B1204044959046N01129349EA0178901858000008000000
B1204084959085N01129273EA0178801855000008000000
B1204124959145N01129229EA0179301868000016000000
B1204164959210N01129233EA0181201884000016000000
B1204204959261N01129303EA0182201887000020000000
B1204244959280N01129414EA0182301896000020000000
B1204284959266N01129524EA0183301904000020000000
B1204324959224N01129611EA0184001914000020000000
B1204364959167N01129658EA0184701916000020000000
B1204404959107N01129643EA0184501914000012000000
B1204444959068N01129571EA0184601918000008000000
B1204484959063N01129478EA0185101918000012000000
B1204524959080N01129383EA0184701918000008000000
B1204564959121N01129307EA0185501929000008000000
B1205004959180N01129268EA0186401936000008000000
B1205044959245N01129280EA0186901939000008000000
B1205084959298N01129348EA0187001941000008000000
B1205124959327N01129450EA0187401947000008000000
B1205164959332N01129562EA0187401942000016000000
B1205204959307N01129669EA0187101942000016000000
B1205244959261N01129747EA0187301944000024000000
B1205284959201N01129795EA0186901936000028000000
B1205324959134N01129801EA0186401928000024000000
B1205364959071N01129766EA0185701926000024000000
B1205404959015N01129708EA0185901929000032000000
B1205444958982N01129626EA0186001927000028000000
B1205484958973N01129528EA0185401921000028000000
B1205524958993N01129435EA0185201915000028000000
B1205564959027N01129351EA0184401915000020000000
B1206004959076N01129290EA0184901922000016000000
B1206044959137N01129271EA0185901928000020000000
B1206084959201N01129280EA0186001930000020000000
B1206124959262N01129329EA0185901920000020000000
B1206164959307N01129424EA0184801920000020000000
B1206204959326N01129536EA0185501927000024000000
B1206244959323N01129648EA0186001930000024000000
B1206284959305N01129757EA0185801927000024000000
B1206324959276N01129858EA0186001937000020000000
B1206364959245N01129952EA0186501933000020000000
B1206404959199N01130029EA0184701912000024000000
B1206444959134N01130063EA0183401903000020000000
B1206484959072N01130042EA0183301902000016000000
B1206524959025N01129985EA0183201902000012000000
B1206564958995N01129910EA0183001897000020000000
B1207004958980N01129827EA0182201886000020000000
B1207044958971N01129731EA0181101879000020000000
B1207084958975N01129636EA0181601890000020000000
B1207124958994N01129557EA0182601898000016000000
B1207164959034N01129498EA0183201901000012000000
B1207204959090N01129465EA0183901914000016000000
B1207244959150N01129475EA0185701928000012000000
B1207284959209N01129509EA0186101933000012000000
B1207324959261N01129561EA0186701939000012000000
B1207364959307N01129624EA0187101943000012000000
B1207404959354N01129691EA0187501945000012000000
B1207444959389N01129778EA0187001933000016000000
B1207484959393N01129886EA0185501919000012000000
B1207524959357N01129977EA0184201907000012000000
B1207564959301N01130030EA0183401894000012000000
B1208004959233N01130052EA0182401888000008000000
B1208044959163N01130047EA0182601895000008000000
B1208084959097N01130027EA0183201902000008000000
B1208124959040N01129983EA0183701906000008000000
B1208164958999N01129913EA0184001908000008000000
B1208204958976N01129823EA0184201912000008000000
B1208244958973N01129731EA0184801918000008000000
B1208284958982N01129639EA0184901915000008000000
B1208324958997N01129540EA0184701917000008000000
B1208364959012N01129442EA0185701933000012000000
B1208404959047N01129364EA0187601947000008000000
B1208444959092N01129302EA0187901943000008000000
B1208484959141N01129238EA0186901928000008000000
B1208524959199N01129169EA0184401897000020000000
B1208564959267N01129093EA0181801879000024000000
B1209004959340N01129023EA0181501886000032000000
B1209044959409N01128959EA0182601900000036000000
B1209084959472N01128904EA0183801912000032000000
B1209124959535N01128851EA0184101902000028000000
B1209164959600N01128787EA0182901891000028000000
B1209204959660N01128712EA0182401894000024000000
B1209244959713N01128634EA0182801896000020000000
B1209284959760N01128544EA0182801895000024000000
B1209324959800N01128445EA0182601891000020000000
B1209364959833N01128339EA0182001884000020000000
B1209404959862N01128227EA0181101874000024000000
B1209444959888N01128111EA0180201867000020000000
B1209484959909N01127988EA0179401859000020000000
B1209524959933N01127869EA0179001863000024000000
B1209564959966N01127764EA0180101879000020000000
B1210005000008N01127680EA0182301899000020000000
B1210045000065N01127626EA0183901908000016000000
B1210085000135N01127651EA0183701899000016000000
B1210125000193N01127754EA0182401881000016000000
B1210165000225N01127903EA0180301863000028000000
B1210205000242N01128063EA0180201875000028000000
B1210245000246N01128213EA0181201886000032000000
B1210285000236N01128348EA0183001905000028000000
B1210325000223N01128477EA0184201911000028000000
B1210365000203N01128601EA0184401913000024000000
B1210405000167N01128713EA0184701920000020000000
B1210445000108N01128787EA0185601926000024000000
B1210485000037N01128811EA0185701920000020000000
B1210524959970N01128778EA0184801907000016000000
B1210564959927N01128687EA0183001890000016000000
B1211004959934N01128574EA0182301892000016000000
B1211044959981N01128504EA0183001899000020000000
B1211085000043N01128500EA0183601902000012000000
B1211125000103N01128543EA0183401895000012000000
B1211165000161N01128612EA0182901895000012000000
B1211205000206N01128696EA0183201903000008000000
B1211245000238N01128790EA0183801904000008000000
B1211285000260N01128896EA0183301894000004000000
B1211325000263N01129016EA0181901884000008000000
B1211365000236N01129121EA0182401898000020000000
B1211405000189N01129194EA0183001892000024000000
B1211445000126N01129249EA0181701880000024000000
B1211485000057N01129292EA0181401881000016000000
B1211524959987N01129312EA0181101874000016000000
B1211564959922N01129271EA0180001863000016000000
B1212004959885N01129176EA0179201849000016000000
B1212044959875N01129063EA0177801839000012000000
B1212084959886N01128951EA0177401838000016000000
B1212124959899N01128841EA0177301836000020000000
B1212164959911N01128730EA0177301837000020000000
B1212204959925N01128618EA0176401820000016000000
B1212244959930N01128496EA0175001815000016000000
B1212284959934N01128376EA0175001815000016000000
B1212324959935N01128263EA0175001816000016000000
B1212364959927N01128158EA0175101820000012000000
B1212404959924N01128055EA0175201819000012000000
B1212444959937N01127953EA0175401823000012000000
B1212484959968N01127863EA0176201831000012000000
B1212525000018N01127798EA0177101840000012000000
B1212565000082N01127786EA0178401857000008000000
B1213005000142N01127830EA0179701866000004000000
B1213045000186N01127912EA0180101866000008000000
B1213085000213N01128015EA0180301870000008000000
B1213125000204N01128122EA0180901877000008000000
B1213165000155N01128194EA0181401876000012000000
B1213205000086N01128215EA0180901872000008000000
B1213245000022N01128171EA0180601872000008000000
B1213284959985N01128081EA0181401884000016000000
B1213324959963N01127985EA0182601895000020000000
B1213364959963N01127885EA0183401900000020000000
B1213404959994N01127791EA0183501898000016000000
B1213445000056N01127737EA0183301898000016000000
B1213485000132N01127747EA0183301898000016000000
B1213525000194N01127823EA0183201893000016000000
B1213565000229N01127945EA0182101878000020000000
B1214005000230N01128089EA0181401886000020000000
B1214045000198N01128213EA0182801901000024000000
B1214085000138N01128298EA0183601901000020000000
B1214125000063N01128322EA0183401900000016000000
B1214164959992N01128275EA0183501905000016000000
B1214204959946N01128185EA0184401914000016000000
B1214244959914N01128084EA0184801916000012000000
B1214284959918N01127972EA0184701912000016000000
B1214324959961N01127877EA0184501916000016000000
B1214365000024N01127815EA0184701918000016000000
B1214405000096N01127790EA0184901920000016000000
B1214445000173N01127807EA0185001918000016000000
B1214485000251N01127855EA0184601915000016000000
B1214525000320N01127932EA0184701917000016000000
B1214565000372N01128036EA0184501910000016000000
B1215005000405N01128162EA0183401900000020000000
B1215045000416N01128296EA0183301902000024000000
B1215085000392N01128419EA0183401903000024000000
B1215125000336N01128505EA0183401901000024000000
B1215165000263N01128536EA0183301897000028000000
B1215205000186N01128517EA0182401885000024000000
B1215245000113N01128471EA0181301877000020000000
B1215285000044N01128423EA0181101882000024000000
B1215325000000N01128335EA0181701888000024000000
B1215364959995N01128227EA0182701900000024000000
B1215405000038N01128144EA0183301900000024000000
B1215445000115N01128129EA0182801893000024000000
B1215485000184N01128201EA0182501894000028000000
B1215525000206N01128324EA0183101904000024000000
B1215565000174N01128436EA0184001910000024000000
B1216005000108N01128490EA0184101908000020000000
B1216045000035N01128473EA0183801903000024000000
B1216084959986N01128389EA0183701910000020000000
B1216124959978N01128283EA0184601916000020000000
B1216165000020N01128197EA0184601915000020000000
B1216205000094N01128175EA0184701916000020000000
B1216245000168N01128231EA0184201908000020000000
B1216285000213N01128347EA0183901905000024000000
B1216325000211N01128482EA0184001909000020000000
B1216365000160N01128581EA0184301913000020000000
B1216405000090N01128608EA0184501915000016000000
B1216445000025N01128570EA0184501910000016000000
B1216484959974N01128488EA0183701906000012000000
B1216524959953N01128380EA0184001910000012000000
B1216564959969N01128271EA0183901910000012000000
B1217005000018N01128188EA0184601917000016000000
B1217045000086N01128142EA0185001921000016000000
B1217085000165N01128133EA0185001910000016000000
B1217125000250N01128171EA0183701901000016000000
B1217165000321N01128259EA0183101903000020000000
B1217205000359N01128376EA0184001909000020000000
B1217245000354N01128500EA0183901905000016000000
B1217285000304N01128595EA0183401903000016000000
B1217325000234N01128646EA0182801889000016000000
B1217365000152N01128662EA0181001874000020000000
B1217405000068N01128655EA0180601875000024000000
B1217444959995N01128609EA0181001885000020000000
B1217484959944N01128529EA0181901891000020000000
B1217524959931N01128427EA0182401895000016000000
B1217564959963N01128343EA0183001900000012000000
B1218005000025N01128308EA0183001895000012000000
B1218045000099N01128327EA0182101888000012000000
B1218085000164N01128392EA0181901884000016000000
B1218125000202N01128504EA0181201880000012000000
B1218165000197N01128629EA0181401882000012000000
B1218205000154N01128725EA0181601886000016000000
B1218245000091N01128765EA0182201894000012000000
B1218285000033N01128738EA0182801894000008000000
B1218324959989N01128668EA0182301890000008000000
B1218364959961N01128577EA0181801884000008000000
B1218404959946N01128475EA0181501879000012000000
B1218444959947N01128370EA0181301881000008000000
B1218484959959N01128265EA0181101875000012000000
B1218524959966N01128153EA0180901877000012000000
B1218564959960N01128042EA0181101879000008000000
B1219004959934N01127938EA0181501886000016000000
B1219044959882N01127867EA0182301896000012000000
B1219084959817N01127863EA0183201905000012000000
B1219124959766N01127932EA0183601904000012000000
B1219164959753N01128041EA0183001897000016000000
B1219204959784N01128148EA0182901901000012000000
B1219244959844N01128213EA0183401910000012000000
B1219284959914N01128217EA0184701919000016000000
B1219324959981N01128170EA0184501909000016000000
B1219365000030N01128068EA0183101897000016000000
B1219405000030N01127940EA0182301899000020000000
B1219444959979N01127846EA0183201907000020000000
B1219484959905N01127808EA0183701914000020000000
B1219524959831N01127830EA0184601918000016000000
B1219564959773N01127905EA0184601915000016000000
B1220004959738N01128014EA0184201911000016000000
B1220044959738N01128139EA0184001911000016000000
B1220084959771N01128253EA0184201915000012000000
B1220124959830N01128330EA0185001928000012000000
B1220164959901N01128354EA0185901929000012000000
B1220204959976N01128315EA0185101919000016000000
B1220245000026N01128213EA0184801921000016000000
B1220285000043N01128083EA0184701914000020000000
B1220325000016N01127957EA0183801911000020000000
B1220364959959N01127866EA0184401921000024000000
B1220404959886N01127823EA0185301929000020000000
B1220444959810N01127841EA0185501924000020000000
B1220484959751N01127918EA0184701917000020000000
B1220524959716N01128027EA0184101913000016000000
B1220564959709N01128153EA0183901909000020000000
B1221004959725N01128282EA0183701909000024000000
B1221044959752N01128405EA0183901912000024000000
B1221084959797N01128512EA0184401922000028000000
B1221124959861N01128568EA0185501930000024000000
B1221164959930N01128557EA0185701928000020000000
B1221204959989N01128491EA0185501928000016000000
B1221245000013N01128388EA0185701930000016000000
B1221285000000N01128272EA0185401921000016000000
B1221324959951N01128168EA0183901908000016000000
B1221364959875N01128107EA0184001921000020000000
B1221404959799N01128081EA0186301936000016000000
B1221444959729N01128123EA0186001931000012000000
B1221484959686N01128228EA0185501926000012000000
B1221524959680N01128353EA0185401927000016000000
B1221564959695N01128475EA0185401925000020000000
B1222004959729N01128588EA0185101923000016000000
B1222044959783N01128672EA0185401929000016000000
B1222084959851N01128711EA0185801932000016000000
B1222124959922N01128717EA0186701930000012000000
B1222164959990N01128668EA0185401922000012000000
B1222205000026N01128558EA0184501915000012000000
B1222245000017N01128434EA0184201916000016000000
B1222284959970N01128339EA0185101927000016000000
B1222324959901N01128297EA0185801929000012000000
B1222364959826N01128318EA0185801930000008000000
B1222404959765N01128396EA0185701926000012000000
B1222444959727N01128508EA0185601929000012000000
B1222484959717N01128631EA0185801927000012000000
B1222524959735N01128751EA0185501928000016000000
B1222564959781N01128839EA0186101932000020000000
B1223004959838N01128898EA0186201933000016000000
B1223044959903N01128929EA0186001924000016000000
B1223084959976N01128902EA0184801919000016000000
B1223125000033N01128815EA0184401915000020000000
B1223165000060N01128695EA0184101917000016000000
B1223205000064N01128571EA0184501921000020000000
B1223245000059N01128448EA0184401909000020000000
B1223285000024N01128339EA0183701911000016000000
B1223324959953N01128300EA0183801917000016000000
B1223364959882N01128347EA0184201916000016000000
B1223404959835N01128449EA0183701907000016000000
B1223444959805N01128574EA0182901899000016000000
B1223484959786N01128705EA0182401896000020000000
B1223524959783N01128838EA0182501896000024000000
B1223564959810N01128959EA0182301894000020000000
B1224004959873N01129034EA0182401905000016000000
B1224044959943N01129038EA0183701915000012000000
B1224084959996N01128977EA0183901914000012000000
B1224125000020N01128876EA0183901913000012000000
B1224165000022N01128768EA0184001917000012000000
B1224205000008N01128665EA0184401919000012000000
B1224244959987N01128562EA0184301913000012000000
B1224284959961N01128453EA0182901894000012000000
B1224324959925N01128337EA0181601883000012000000
B1224364959882N01128224EA0180801879000012000000
B1224404959838N01128115EA0180801883000012000000
B1224444959795N01128010EA0181301885000016000000
B1224484959751N01127905EA0180901875000016000000
B1224524959704N01127791EA0179801863000016000000
B1224564959657N01127674EA0179101861000016000000
B1225004959622N01127556EA0180001875000020000000
B1225044959592N01127448EA0181201887000016000000
B1225084959558N01127351EA0182401908000016000000
B1225124959524N01127264EA0184801920000012000000
B1225164959487N01127174EA0184701912000012000000
B1225204959443N01127076EA0183101889000008000000
B1225244959391N01126971EA0181001875000012000000
B1225284959336N01126871EA0180601880000016000000
B1225324959285N01126771EA0180701875000016000000
B1225364959244N01126662EA0180301873000016000000
B1225404959211N01126549EA0180401879000016000000
B1225444959188N01126441EA0181501889000016000000
B1225484959166N01126338EA0182401895000012000000
B1225524959142N01126238EA0182801899000012000000
B1225564959116N01126139EA0183401912000012000000
B1226004959084N01126053EA0185001924000012000000
B1226044959032N01125987EA0185301922000012000000
B1226084958969N01125930EA0184601908000012000000
B1226124958900N01125860EA0182801890000012000000
B1226164958825N01125775EA0181401880000016000000
B1226204958750N01125684EA0180601869000020000000
B1226244958670N01125591EA0178801849000020000000
B1226284958587N01125489EA0176901832000024000000
B1226324958500N01125380EA0175601815000024000000
B1226364958413N01125264EA0174401808000028000000
B1226404958327N01125146EA0173701799000032000000
B1226444958240N01125025EA0172701785000036000000
B1226484958149N01124907EA0171601780000044000000
B1226524958057N01124786EA0170701769000044000000
B1226564957967N01124665EA0170301770000044000000
B1227004957881N01124545EA0170401772000044000000
B1227044957799N01124432EA0171301784000044000000
B1227084957723N01124324EA0172501792000032000000
B1227124957645N01124222EA0172501786000032000000
B1227164957565N01124122EA0172001785000028000000
B1227204957487N01124021EA0171501773000032000000
B1227244957405N01123917EA0169901756000032000000
B1227284957322N01123811EA0168501746000032000000
B1227324957238N01123704EA0167801739000032000000
B1227364957155N01123594EA0167001731000032000000
B1227404957071N01123485EA0166301726000032000000
B1227444956989N01123375EA0165801719000032000000
B1227484956908N01123266EA0165201716000032000000
B1227524956828N01123154EA0164701710000032000000
B1227564956746N01123043EA0164401705000032000000
B1228004956666N01122932EA0163701698000032000000
B1228044956584N01122822EA0163101693000032000000
B1228084956503N01122711EA0162701690000032000000
B1228124956425N01122602EA0162801693000032000000
B1228164956347N01122495EA0162901691000032000000
B1228204956272N01122389EA0162501685000032000000
B1228244956196N01122278EA0161601673000032000000
B1228284956120N01122165EA0160501666000032000000
B1228324956043N01122052EA0160101664000032000000
B1228364955968N01121939EA0159801662000032000000
B1228404955894N01121827EA0159601657000032000000
B1228444955818N01121714EA0159001653000028000000
B1228484955744N01121600EA0158501644000028000000
B1228524955669N01121485EA0157701634000028000000
B1228564955592N01121369EA0156901627000028000000
B1229004955517N01121256EA0156501626000028000000
B1229044955444N01121146EA0156401627000032000000
B1229084955371N01121039EA0156401623000032000000
B1229124955297N01120935EA0155701615000028000000
B1229164955224N01120829EA0155101613000028000000
B1229204955153N01120725EA0155601622000028000000
B1229244955082N01120627EA0156301625000028000000
B1229284955012N01120531EA0156201624000024000000
B1229324954945N01120437EA0156301625000024000000
B1229364954876N01120345EA0156101618000024000000
B1229404954808N01120250EA0155201609000024000000
B1229444954737N01120157EA0154701605000024000000
B1229484954664N01120066EA0154401602000024000000
B1229524954590N01119975EA0153901598000028000000
B1229564954517N01119884EA0154101606000028000000
B1230004954451N01119798EA0154901613000024000000
B1230044954388N01119711EA0155001610000024000000
B1230084954327N01119618EA0154801604000020000000
B1230124954261N01119527EA0154101602000020000000
B1230164954189N01119448EA0154401601000020000000
B1230204954110N01119375EA0153701594000020000000
B1230244954029N01119305EA0153401596000020000000
B1230284953950N01119237EA0153501590000024000000
B1230324953873N01119166EA0152601582000024000000
B1230364953802N01119089EA0152601591000024000000
B1230404953734N01119018EA0153801605000020000000
B1230444953676N01118938EA0155001614000016000000
B1230484953630N01118850EA0155501614000016000000
B1230524953591N01118753EA0155001608000016000000
B1230564953550N01118647EA0154701608000016000000
B1231004953508N01118539EA0155001611000016000000
B1231044953468N01118431EA0154901610000016000000
B1231084953430N01118324EA0154801607000016000000
B1231124953396N01118213EA0154501603000012000000
B1231164953365N01118103EA0154001597000012000000
B1231204953335N01117992EA0153701596000012000000
B1231244953312N01117883EA0153401592000016000000
B1231284953287N01117778EA0153401594000016000000
B1231324953261N01117675EA0153201592000016000000
B1231364953239N01117572EA0153601603000016000000
B1231404953213N01117480EA0155301620000016000000
B1231444953170N01117411EA0156801630000012000000
B1231484953108N01117388EA0157501638000012000000
B1231524953049N01117438EA0158201644000012000000
B1231564953030N01117541EA0158301642000012000000
B1232004953058N01117644EA0158901653000012000000
B1232044953110N01117702EA0159901664000012000000
B1232084953170N01117709EA0160501660000012000000
B1232124953227N01117664EA0159701660000012000000
B1232164953266N01117602EA0160601678000008000000
B1232204953294N01117534EA0162301682000004000000
B1232244953299N01117451EA0161801676000004000000
B1232284953278N01117373EA0161501676000004000000
B1232324953242N01117307EA0161101663000004000000
B1232364953190N01117237EA0159001641000008000000
B1232404953130N01117161EA0156901622000012000000
B1232444953069N01117074EA0155001602000020000000
B1232484953009N01116977EA0153401587000024000000
B1232524952949N01116874EA0152601583000032000000
B1232564952889N01116770EA0152201577000032000000
B1233004952829N01116661EA0151401565000032000000
B1233044952770N01116546EA0150301556000032000000
B1233084952710N01116433EA0149301543000028000000
B1233124952653N01116316EA0148101534000032000000
B1233164952594N01116202EA0147701534000032000000
B1233204952537N01116090EA0147701532000028000000
B1233244952481N01115974EA0147201525000028000000
B1233284952428N01115856EA0146501517000028000000
B1233324952372N01115734EA0145401505000032000000
B1233364952313N01115613EA0144601501000032000000
B1233404952255N01115496EA0144901507000032000000
B1233444952199N01115380EA0145101509000032000000
B1233484952143N01115267EA0145801521000032000000
B1233524952091N01115158EA0147801547000028000000
B1233564952046N01115064EA0150701570000028000000
B1234004951996N01114983EA0151601573000024000000
B1234044951951N01114899EA0150901558000024000000
B1234084951903N01114802EA0148801535000020000000
B1234124951852N01114689EA0146701514000020000000
B1234164951797N01114568EA0145401504000020000000
B1234204951737N01114451EA0144801504000028000000
B1234244951669N01114351EA0144901505000024000000
B1234284951598N01114258EA0144701504000024000000
B1234324951527N01114171EA0144501497000024000000
B1234364951457N01114083EA0143801492000020000000
B1234404951385N01114004EA0143401488000024000000
B1234444951315N01113923EA0142701478000028000000
B1234484951242N01113836EA0142101477000028000000
B1234524951175N01113758EA0143101490000024000000
B1234564951112N01113684EA0143701489000024000000
B1235004951052N01113607EA0143501493000024000000
B1235044950994N01113534EA0144201497000020000000
B1235084950933N01113464EA0143801490000016000000
B1235124950873N01113384EA0143401487000016000000
B1235164950814N01113299EA0143901498000016000000
B1235204950749N01113235EA0144901510000020000000
B1235244950677N01113244EA0146701532000016000000
B1235284950631N01113320EA0148501542000012000000
B1235324950626N01113419EA0148501537000012000000
B1235364950664N01113497EA0148301538000008000000
B1235404950721N01113527EA0148701541000008000000
B1235444950774N01113485EA0148201531000004000000
B1235484950795N01113384EA0147101521000008000000
B1235524950779N01113268EA0146601520000016000000
B1235564950748N01113161EA0147201545000020000000
B1236004950740N01113074EA0150701572000016000000
B1236044950760N01112999EA0151901573000012000000
B1236084950809N01112942EA0151001566000016000000
B1236124950874N01112957EA0151501576000016000000
B1236164950911N01113051EA0151501568000016000000
B1236204950895N01113165EA0150801567000016000000
B1236244950834N01113222EA0151401568000016000000
B1236284950761N01113218EA0151801576000016000000
B1236324950703N01113173EA0152401589000016000000
B1236364950682N01113086EA0154401588000012000000
B1236404950666N01112984EA0152401565000016000000
B1236444950634N01112867EA0150201553000020000000
B1236484950591N01112749EA0149401550000028000000
B1236524950545N01112633EA0149401547000024000000
B1236564950502N01112507EA0147901526000024000000
B1237004950457N01112370EA0145901510000024000000
B1237044950413N01112225EA0144601499000028000000
B1237084950371N01112076EA0143901484000028000000
B1237124950327N01111921EA0142301475000032000000
B1237164950281N01111770EA0142001478000040000000
B1237204950242N01111629EA0143901515000040000000
B1237244950209N01111519EA0149001568000036000000
B1237284950166N01111444EA0151701572000024000000
B1237324950116N01111365EA0150301546000020000000
B1237364950073N01111249EA0147401518000020000000
B1237404950040N01111112EA0146001517000028000000
B1237444950010N01110980EA0146301522000024000000
B1237484949982N01110851EA0146501518000024000000
B1237524949955N01110724EA0145701510000024000000
B1237564949929N01110595EA0144901504000024000000
B1238004949899N01110468EA0144601502000020000000
B1238044949860N01110349EA0145101515000020000000
B1238084949828N01110238EA0146901537000020000000
B1238124949803N01110134EA0149001557000016000000
B1238164949786N01110037EA0150801566000012000000
B1238204949771N01109942EA0151001563000016000000
B1238244949750N01109844EA0150401563000016000000
B1238284949719N01109754EA0151201572000012000000
B1238324949683N01109671EA0151901579000016000000
B1238364949646N01109586EA0151601564000016000000
B1238404949603N01109485EA0148901536000016000000
B1238444949552N01109372EA0147401528000020000000
B1238484949496N01109263EA0146701520000020000000
B1238524949440N01109153EA0146101516000020000000
B1238564949384N01109048EA0146001516000020000000
B1239004949330N01108943EA0145601508000024000000
B1239044949277N01108830EA0144801500000028000000
B1239084949225N01108710EA0144301496000028000000
B1239124949174N01108584EA0143301483000032000000
B1239164949122N01108454EA0141901468000028000000
B1239204949067N01108320EA0140801454000028000000
B1239244949014N01108181EA0139601444000032000000
B1239284948962N01108039EA0138801441000032000000
B1239324948910N01107900EA0138601440000032000000
B1239364948861N01107762EA0138801443000032000000
B1239404948812N01107628EA0139301449000032000000
B1239444948764N01107496EA0138901437000032000000
B1239484948716N01107359EA0137401425000040000000
B1239524948668N01107222EA0137401431000044000000
B1239564948619N01107089EA0138101440000044000000
B1240004948573N01106958EA0139001447000044000000
B1240044948532N01106830EA0139401443000040000000
B1240084948489N01106700EA0138301429000040000000
B1240124948439N01106568EA0137101418000040000000
B1240164948391N01106431EA0136301413000044000000
B1240204948341N01106295EA0136001410000040000000
B1240244948291N01106157EA0135601407000040000000
B1240284948240N01106022EA0135401406000044000000
B1240324948187N01105889EA0135101399000040000000
B1240364948136N01105754EA0134301391000040000000
B1240404948086N01105619EA0133401381000036000000
B1240444948035N01105482EA0132501375000032000000
B1240484947984N01105352EA0132901389000036000000
B1240524947931N01105229EA0133801383000036000000
B1240564947875N01105104EA0132501371000040000000
B1241004947823N01104973EA0131501364000036000000
B1241044947774N01104840EA0131001355000032000000
B1241084947724N01104705EA0130201351000032000000
B1241124947675N01104572EA0130401354000032000000
B1241164947629N01104440EA0130101349000036000000
B1241204947584N01104308EA0129901353000032000000
B1241244947540N01104181EA0131001361000036000000
B1241284947494N01104053EA0131001355000032000000
B1241324947451N01103921EA0129701338000028000000
B1241364947405N01103783EA0128101323000028000000
B1241404947359N01103640EA0127001315000028000000
B1241444947315N01103500EA0126601314000032000000
B1241484947268N01103359EA0126501312000032000000
B1241524947220N01103223EA0126201311000032000000
B1241564947173N01103090EA0126201311000032000000
B1242004947129N01102958EA0126101308000028000000
B1242044947083N01102826EA0125501299000028000000
B1242084947035N01102690EA0124701292000028000000
B1242124946982N01102556EA0124101283000028000000
B1242164946920N01102428EA0123401279000028000000
B1242204946856N01102304EA0123101275000032000000
B1242244946794N01102183EA0122501269000032000000
B1242284946730N01102062EA0122001261000032000000
B1242324946665N01101944EA0121101256000032000000
B1242364946599N01101830EA0120701252000028000000
B1242404946534N01101717EA0120601250000028000000
B1242444946470N01101604EA0120101245000028000000
B1242484946407N01101494EA0119801244000028000000
B1242524946346N01101383EA0119601240000024000000
B1242564946288N01101271EA0119101235000028000000
B1243004946229N01101158EA0118501229000028000000
B1243044946171N01101044EA0117901223000032000000
B1243084946114N01100930EA0117601219000032000000
B1243124946058N01100814EA0117001210000028000000
B1243164945999N01100699EA0116101203000028000000
B1243204945941N01100584EA0115501199000032000000
B1243244945887N01100467EA0115401199000032000000
B1243284945837N01100348EA0115301194000028000000
B1243324945785N01100231EA0114701190000024000000
B1243364945731N01100120EA0114601194000024000000
B1243404945679N01100009EA0114901195000024000000
B1243444945629N01059903EA0114801193000024000000
B1243484945577N01059796EA0114701198000020000000
B1243524945523N01059697EA0116101214000032000000
B1243564945474N01059606EA0117101217000024000000
B1244004945425N01059518EA0116701207000024000000
B1244044945374N01059424EA0116201211000020000000
B1244084945327N01059331EA0116701214000020000000
B1244124945278N01059241EA0116701211000020000000
B1244164945227N01059154EA0116401210000016000000
B1244204945176N01059072EA0116801217000016000000
B1244244945126N01058993EA0117401226000016000000
B1244284945079N01058926EA0118601239000016000000
B1244324945037N01058860EA0120001254000012000000
B1244364945019N01058779EA0121401263000012000000
B1244404945049N01058703EA0121901266000012000000
B1244444945111N01058684EA0122401277000012000000
B1244484945159N01058748EA0123601282000012000000
B1244524945162N01058856EA0123101275000012000000
B1244564945119N01058939EA0123701290000012000000
B1245004945063N01058969EA0125001298000012000000
B1245044945003N01058956EA0125601303000012000000
B1245084944963N01058896EA0126401313000008000000
B1245124944977N01058809EA0126601317000012000000
B1245164945037N01058781EA0127501329000020000000
B1245204945088N01058848EA0128201332000020000000
B1245244945084N01058956EA0128901345000016000000
B1245284945033N01059019EA0130401359000020000000
B1245324944976N01058999EA0131001358000020000000
B1245364944961N01058912EA0131301366000020000000
B1245404945002N01058846EA0132101373000016000000
B1245444945066N01058872EA0132401376000016000000
B1245484945089N01058972EA0132601381000012000000
B1245524945054N01059060EA0133601389000012000000
B1245564944993N01059077EA0134001393000012000000
B1246004944951N01059013EA0134301396000012000000
B1246044944949N01058925EA0135201406000012000000
B1246084944996N01058864EA0135501405000016000000
B1246124945061N01058882EA0135701412000016000000
B1246164945094N01058972EA0136501420000012000000
B1246204945078N01059072EA0137501430000012000000
B1246244945022N01059123EA0137901432000012000000
B1246284944961N01059099EA0138201436000012000000
B1246324944932N01059013EA0138801440000012000000
B1246364944929N01058918EA0139301451000012000000
B1246404944942N01058831EA0140501461000008000000
B1246444944987N01058770EA0140701458000008000000
B1246484945054N01058769EA0140401460000012000000
B1246524945102N01058839EA0141501473000012000000
B1246564945101N01058938EA0142601482000008000000
B1247004945053N01058995EA0143201489000008000000
B1247044944998N01058960EA0143801495000008000000
B1247084944992N01058869EA0144101497000008000000
B1247124945042N01058807EA0144101493000008000000
B1247164945110N01058833EA0143701491000008000000
B1247204945136N01058926EA0144301500000008000000
B1247244945102N01059007EA0144801503000008000000
B1247284945041N01059003EA0145501514000008000000
B1247324945006N01058922EA0146301511000008000000
B1247364944990N01058818EA0145401507000008000000
B1247404944980N01058712EA0145301506000012000000
B1247444944970N01058603EA0145101499000012000000
B1247484944955N01058486EA0143101476000016000000
B1247524944935N01058358EA0141501465000020000000
B1247564944907N01058227EA0140501452000024000000
B1248004944876N01058090EA0139101437000024000000
B1248044944842N01057947EA0137501426000028000000
B1248084944810N01057799EA0136701417000032000000
B1248124944777N01057648EA0136001412000036000000
B1248164944743N01057498EA0135601407000036000000
B1248204944714N01057348EA0135301402000036000000
B1248244944682N01057200EA0134801400000032000000
B1248284944650N01057056EA0134801402000028000000
B1248324944623N01056913EA0134601395000028000000
B1248364944595N01056766EA0133501381000028000000
B1248404944565N01056619EA0132601378000032000000
B1248444944537N01056474EA0132801385000032000000
B1248484944512N01056337EA0134101404000032000000
B1248524944486N01056204EA0135401403000028000000
B1248564944464N01056071EA0135101408000028000000
B1249004944441N01055947EA0135901412000024000000
B1249044944417N01055823EA0135801406000024000000
B1249084944394N01055697EA0134801396000024000000
B1249124944370N01055570EA0133901390000024000000
B1249164944346N01055442EA0133901392000020000000
B1249204944320N01055320EA0134201395000020000000
B1249244944296N01055199EA0134301397000020000000
B1249284944275N01055081EA0134301392000016000000
B1249324944255N01054963EA0133501382000016000000
B1249364944233N01054843EA0132601376000016000000
B1249404944221N01054722EA0132101371000020000000
B1249444944233N01054604EA0132001368000024000000
B1249484944270N01054498EA0131501361000028000000
B1249524944316N01054393EA0130401348000028000000
B1249564944360N01054281EA0129401342000028000000
B1250004944399N01054166EA0129401352000024000000
B1250044944431N01054059EA0130501355000020000000
B1250084944464N01053947EA0129901343000020000000
B1250124944495N01053828EA0129501350000020000000
B1250164944519N01053711EA0130501363000016000000
B1250204944543N01053604EA0132401387000020000000
B1250244944589N01053533EA0134801409000016000000
B1250284944652N01053549EA0136401425000020000000
B1250324944681N01053646EA0138101438000012000000
B1250364944647N01053735EA0138901443000008000000
B1250404944584N01053747EA0139301450000008000000
B1250444944545N01053682EA0139801456000008000000
B1250484944561N01053598EA0140301460000008000000
B1250524944619N01053561EA0141401477000012000000
B1250564944677N01053620EA0142401480000012000000
B1251004944675N01053728EA0142901492000012000000
B1251044944615N01053769EA0143801491000008000000
B1251084944565N01053712EA0143901500000012000000
B1251124944568N01053630EA0146101523000008000000
B1251164944607N01053572EA0147201527000008000000
B1251204944672N01053581EA0146701522000012000000
B1251244944699N01053682EA0147801542000012000000
B1251284944658N01053755EA0149001546000008000000
B1251324944598N01053734EA0149001550000008000000
B1251364944587N01053651EA0149901561000008000000
B1251404944634N01053596EA0150601568000012000000
B1251444944697N01053631EA0151401576000016000000
B1251484944706N01053737EA0152101582000016000000
B1251524944655N01053800EA0152601587000016000000
B1251564944599N01053770EA0153101592000016000000
B1252004944595N01053689EA0153801600000016000000
B1252044944650N01053647EA0154301599000016000000
B1252084944711N01053702EA0154301610000012000000
B1252124944710N01053800EA0155801619000012000000
B1252164944656N01053852EA0155601609000012000000
B1252204944599N01053819EA0155101616000012000000
B1252244944584N01053737EA0156501626000008000000
B1252284944602N01053653EA0157401619000012000000
B1252324944625N01053557EA0155401607000012000000
B1252364944636N01053445EA0154601604000012000000
B1252404944636N01053325EA0153401584000024000000
B1252444944629N01053195EA0151901568000024000000
B1252484944621N01053059EA0150501554000024000000
B1252524944616N01052918EA0149301548000024000000
B1252564944610N01052773EA0148601542000024000000
B1253004944599N01052629EA0148201537000028000000
B1253044944589N01052483EA0147501528000028000000
B1253084944577N01052335EA0147001530000028000000
B1253124944563N01052190EA0147401534000028000000
B1253164944548N01052047EA0148101539000028000000
B1253204944534N01051906EA0148201540000028000000
B1253244944521N01051768EA0148101538000024000000
B1253284944516N01051633EA0148101536000024000000
B1253324944526N01051497EA0147601525000024000000
B1253364944548N01051358EA0146201511000028000000
B1253404944576N01051213EA0145001502000028000000
B1253444944608N01051069EA0144601499000032000000
B1253484944642N01050923EA0143501486000032000000
B1253524944678N01050774EA0142901485000036000000
B1253564944715N01050628EA0143201491000040000000
B1254004944754N01050487EA0143101485000036000000
B1254044944790N01050344EA0142401478000032000000
B1254084944824N01050202EA0142201477000032000000
B1254124944850N01050059EA0142101473000032000000
B1254164944866N01049915EA0141401466000032000000
B1254204944877N01049766EA0140601454000032000000
B1254244944888N01049613EA0139301441000032000000
B1254284944897N01049457EA0138401432000032000000
B1254324944906N01049302EA0137601430000032000000
B1254364944912N01049150EA0137401424000032000000
B1254404944916N01048999EA0137201426000032000000
B1254444944919N01048854EA0137201425000028000000
B1254484944922N01048712EA0137101421000028000000
B1254524944924N01048573EA0136501419000028000000
B1254564944923N01048435EA0136901423000028000000
B1255004944922N01048301EA0137101425000024000000
B1255044944922N01048169EA0137001421000024000000
B1255084944920N01048039EA0136801421000024000000
B1255124944916N01047911EA0136601415000020000000
B1255164944912N01047780EA0135701403000020000000
B1255204944912N01047645EA0134501394000020000000
B1255244944916N01047511EA0134301395000020000000
B1255284944919N01047382EA0134201393000016000000
B1255324944918N01047255EA0133501382000020000000
B1255364944916N01047127EA0132701379000016000000
B1255404944915N01047007EA0133001383000016000000
B1255444944920N01046888EA0133001380000016000000
B1255484944936N01046773EA0132901379000020000000
B1255524944950N01046652EA0132501372000020000000
B1255564944966N01046528EA0131601362000024000000
B1256004944981N01046403EA0130801355000024000000
B1256044944996N01046277EA0130001346000024000000
B1256084945011N01046149EA0129001335000024000000
B1256124945026N01046020EA0128301332000024000000
B1256164945040N01045892EA0127901326000020000000
B1256204945057N01045764EA0127701330000020000000
B1256244945074N01045636EA0128201333000020000000
B1256284945093N01045512EA0128501334000024000000
B1256324945113N01045387EA0128001321000020000000
B1256364945131N01045258EA0126801312000020000000
B1256404945149N01045128EA0125601299000020000000
B1256444945167N01044999EA0124601293000020000000
B1256484945185N01044876EA0124401292000020000000
B1256524945201N01044759EA0124301291000016000000
B1256564945221N01044647EA0124501296000016000000
B1257004945237N01044546EA0125201304000012000000
B1257044945249N01044446EA0125301294000012000000
B1257084945265N01044335EA0123801283000016000000
B1257124945276N01044223EA0124001294000020000000
B1257164945283N01044121EA0125101305000016000000
B1257204945291N01044024EA0125901309000012000000
B1257244945300N01043931EA0126301315000012000000
B1257284945312N01043845EA0127001322000012000000
B1257324945322N01043766EA0127701326000008000000
B1257364945335N01043682EA0127601324000004000000
B1257404945345N01043597EA0127901328000004000000
B1257444945358N01043515EA0127701322000004000000
B1257484945374N01043422EA0126701307000004000000
B1257524945393N01043317EA0125301294000008000000
B1257564945416N01043208EA0124001279000012000000
B1258004945438N01043092EA0122801270000012000000
B1258044945461N01042978EA0121801258000012000000
B1258084945484N01042856EA0120001238000012000000
B1258124945509N01042727EA0118201225000016000000
B1258164945533N01042601EA0117501224000020000000
B1258204945556N01042480EA0117601222000020000000
B1258244945577N01042363EA0117201219000024000000
B1258284945595N01042246EA0117101214000020000000
B1258324945614N01042128EA0116101201000016000000
B1258364945638N01042005EA0114701184000020000000
B1258404945661N01041881EA0113401181000020000000
B1258444945677N01041760EA0113601183000020000000
B1258484945681N01041641EA0113701179000020000000
B1258524945686N01041524EA0112801167000020000000
B1258564945695N01041401EA0111701156000016000000
B1259004945698N01041274EA0111701168000020000000
B1259044945692N01041159EA0113801201000016000000
B1259084945691N01041062EA0116901225000012000000
B1259124945731N01040999EA0118201234000012000000
B1259164945789N01041027EA0119201243000012000000
B1259204945804N01041123EA0120001251000024000000
B1259244945754N01041189EA0120401251000040000000
B1259284945691N01041149EA0120901266000064000000
B1259324945691N01041058EA0123001283000056000000
B1259364945750N01041040EA0123601284000052000000
B1259404945785N01041128EA0123901294000088000000
B1259444945752N01041216EA0124901302000080000000
B1259484945686N01041215EA0125601310000072000000
B1259524945655N01041128EA0126601324000052000000
B1259564945687N01041055EA0128201338000036000000
B1300004945747N01041084EA0129001339000040000000
B1300044945759N01041186EA0129401351000032000000
B1300084945708N01041253EA0130701359000028000000
B1300124945646N01041218EA0131301370000020000000
B1300164945633N01041123EA0132901388000016000000
B1300204945679N01041076EA0134301398000016000000
B1300244945729N01041138EA0134701401000016000000
B1300284945717N01041240EA0135601417000016000000
B1300324945657N01041272EA0137201430000016000000
B1300364945609N01041210EA0138401441000012000000
B1300404945624N01041119EA0139001449000012000000
B1300444945683N01041119EA0139701452000012000000
B1300484945709N01041214EA0140401469000024000000
B1300524945670N01041287EA0142501484000024000000
B1300564945607N01041267EA0142901485000020000000
B1301004945583N01041176EA0144001506000016000000
B1301044945624N01041119EA0145701516000016000000
B1301084945679N01041160EA0145901517000016000000
B1301124945683N01041264EA0146701536000016000000
B1301164945631N01041318EA0148601547000012000000
B1301204945570N01041277EA0149001551000012000000
B1301244945561N01041186EA0150501576000012000000
B1301284945609N01041145EA0152101576000008000000
B1301324945660N01041211EA0151401573000016000000
B1301364945647N01041320EA0152501594000016000000
B1301404945583N01041361EA0154001602000012000000
B1301444945525N01041307EA0154801617000016000000
B1301484945525N01041219EA0157301644000012000000
B1301524945574N01041185EA0158501644000012000000
B1301564945625N01041246EA0158301653000012000000
B1302004945625N01041345EA0160101675000012000000
B1302044945581N01041414EA0161501679000008000000
B1302084945512N01041428EA0161701686000012000000
B1302124945460N01041376EA0163601717000008000000
B1302164945453N01041297EA0166401731000008000000
B1302204945496N01041241EA0166701731000008000000
B1302244945555N01041272EA0167301742000008000000
B1302284945573N01041367EA0168901762000012000000
B1302324945536N01041452EA0170001766000012000000
B1302364945469N01041471EA0170801778000012000000
B1302404945426N01041409EA0172101798000008000000
B1302444945438N01041326EA0173501806000008000000
B1302484945494N01041298EA0174101814000008000000
B1302524945539N01041365EA0175001823000012000000
B1302564945533N01041466EA0176401839000008000000
B1303004945478N01041527EA0177501845000008000000
B1303044945416N01041498EA0178401859000008000000
B1303084945399N01041417EA0179801872000008000000
B1303124945438N01041354EA0180401875000008000000
B1303164945497N01041375EA0180801883000008000000
B1303204945523N01041463EA0182101901000008000000
B1303244945500N01041556EA0183701911000004000000
B1303284945440N01041601EA0184301917000004000000
B1303324945380N01041569EA0184801923000008000000
B1303364945360N01041485EA0185701931000004000000
B1303404945397N01041420EA0186301935000008000000
B1303444945456N01041446EA0186701940000008000000
B1303484945475N01041544EA0187601953000012000000
B1303524945435N01041627EA0188901960000012000000
B1303564945369N01041631EA0189101960000008000000
B1304004945330N01041557EA0189401969000008000000
B1304044945345N01041476EA0190401976000008000000
B1304084945401N01041457EA0190801978000008000000
B1304124945448N01041518EA0190901980000008000000
B1304164945448N01041626EA0191401988000004000000
B1304204945400N01041700EA0192301996000008000000
B1304244945332N01041709EA0192301986000008000000
B1304284945274N01041647EA0191401981000012000000
B1304324945245N01041541EA0190801975000012000000
B1304364945235N01041422EA0190401968000012000000
B1304404945230N01041289EA0188901941000016000000
B1304444945221N01041140EA0186001911000020000000
B1304484945198N01040980EA0183601899000028000000
B1304524945172N01040816EA0182501885000040000000
B1304564945144N01040648EA0181101873000040000000
B1305004945117N01040478EA0180001862000044000000
B1305044945087N01040305EA0178901850000044000000
B1305084945057N01040127EA0177801838000048000000
B1305124945026N01039946EA0176601829000048000000
B1305164944994N01039764EA0176001826000048000000
B1305204944964N01039584EA0175901824000048000000
B1305244944932N01039404EA0175701820000044000000
B1305284944897N01039226EA0175001814000052000000
B1305324944862N01039048EA0174501806000044000000
B1305364944825N01038869EA0173801798000044000000
B1305404944790N01038688EA0172801787000044000000
B1305444944755N01038506EA0171801776000048000000
B1305484944721N01038323EA0171101769000044000000
B1305524944689N01038141EA0170501761000048000000
B1305564944658N01037960EA0169601751000048000000
B1306004944626N01037780EA0168701747000052000000
B1306044944599N01037605EA0168601749000052000000
B1306084944577N01037432EA0168301738000052000000
B1306124944555N01037257EA0167001727000052000000
B1306164944530N01037082EA0166801731000052000000
B1306204944506N01036912EA0166901730000048000000
B1306244944478N01036744EA0166801730000044000000
B1306284944448N01036583EA0167101735000040000000
B1306324944417N01036427EA0167501735000036000000
B1306364944387N01036271EA0167101730000032000000
B1306404944356N01036115EA0166801725000036000000
B1306444944326N01035959EA0166101719000032000000
B1306484944298N01035803EA0166001720000036000000
B1306524944270N01035650EA0166001719000032000000
B1306564944243N01035498EA0165701713000032000000
B1307004944218N01035346EA0165201709000032000000
B1307044944192N01035197EA0165001707000032000000
B1307084944164N01035052EA0164801708000032000000
B1307124944135N01034911EA0165001708000028000000
B1307164944108N01034771EA0164901706000028000000
B1307204944079N01034634EA0164801707000032000000
B1307244944052N01034501EA0164501701000028000000
B1307284944025N01034364EA0163501692000028000000
B1307324943993N01034226EA0163101684000028000000
B1307364943962N01034088EA0162201676000028000000
B1307404943930N01033951EA0161301665000028000000
B1307444943898N01033810EA0160301656000028000000
B1307484943867N01033667EA0159401647000028000000
B1307524943835N01033524EA0158901644000028000000
B1307564943801N01033386EA0158801643000028000000
B1308004943767N01033251EA0158501637000028000000
B1308044943732N01033115EA0157601630000028000000
B1308084943697N01032980EA0157401629000032000000
B1308124943664N01032848EA0157201625000032000000
B1308164943628N01032714EA0156701619000032000000
B1308204943592N01032578EA0156301615000032000000
B1308244943550N01032447EA0156101619000032000000
B1308284943508N01032319EA0156701623000028000000
B1308324943468N01032192EA0156701620000032000000
B1308364943430N01032063EA0156201614000028000000
B1308404943388N01031936EA0155701608000028000000
B1308444943343N01031807EA0155301604000032000000
B1308484943300N01031673EA0154801602000032000000
B1308524943260N01031537EA0154601595000032000000
B1308564943219N01031397EA0153401577000032000000
B1309004943174N01031254EA0151801568000032000000
B1309044943135N01031111EA0151101563000032000000
B1309084943095N01030970EA0150801559000032000000
B1309124943053N01030832EA0150301558000032000000
B1309164943012N01030697EA0150201557000028000000
B1309204942970N01030563EA0150001556000032000000
B1309244942929N01030435EA0150201559000028000000
B1309284942883N01030313EA0150101551000024000000
B1309324942836N01030191EA0149201547000028000000
B1309364942792N01030074EA0149601562000028000000
B1309404942751N01029969EA0151601582000028000000
B1309444942723N01029870EA0153601602000020000000
B1309484942715N01029767EA0154801606000016000000
B1309524942749N01029681EA0155101612000012000000
B1309564942814N01029671EA0155801619000016000000
B1310004942866N01029740EA0155801615000020000000
B1310044942875N01029849EA0155501611000020000000
B1310084942835N01029932EA0155401614000020000000
B1310124942770N01029940EA0156901620000016000000
B1310164942706N01029914EA0157101622000016000000
B1310204942640N01029888EA0156401627000012000000
B1310244942576N01029869EA0157601646000012000000
B1310284942514N01029849EA0159201656000008000000
B1310324942458N01029808EA0159601657000008000000
B1310364942419N01029728EA0159201654000008000000
B1310404942426N01029631EA0159501661000008000000
B1310444942481N01029590EA0160101666000008000000
B1310484942530N01029654EA0160501668000012000000
B1310524942519N01029758EA0160501670000012000000
B1310564942461N01029814EA0161001674000012000000
B1311004942390N01029810EA0161101673000008000000
B1311044942325N01029767EA0161201680000008000000
B1311084942272N01029702EA0162001686000012000000
B1311124942244N01029613EA0162501692000008000000
B1311164942231N01029519EA0163101690000008000000
B1311204942216N01029414EA0161801672000012000000
B1311244942197N01029293EA0159201641000016000000
B1311284942172N01029150EA0156101616000020000000
B1311324942145N01028999EA0154901611000024000000
B1311364942117N01028851EA0154701609000028000000
B1311404942089N01028709EA0154901609000024000000
B1311444942062N01028569EA0154701605000024000000
B1311484942032N01028427EA0154101598000024000000
B1311524942000N01028285EA0153401591000024000000
B1311564941971N01028141EA0152701584000032000000
B1312004941937N01027997EA0151901574000028000000
B1312044941900N01027850EA0151201571000028000000
B1312084941864N01027707EA0151001566000028000000
B1312124941829N01027561EA0150401564000028000000
B1312164941792N01027418EA0150201563000028000000
B1312204941757N01027276EA0150401566000024000000
B1312244941726N01027136EA0150501565000024000000
B1312284941695N01026997EA0150401565000024000000
B1312324941666N01026860EA0150501566000024000000
B1312364941639N01026725EA0150501566000024000000
B1312404941610N01026593EA0150601567000024000000
B1312444941584N01026461EA0150401562000028000000
B1312484941556N01026330EA0149801553000028000000
B1312524941526N01026197EA0148901546000028000000
B1312564941497N01026067EA0148401548000028000000
B1313004941467N01025947EA0149201554000028000000
B1313044941441N01025827EA0149301551000028000000
B1313084941417N01025709EA0148801546000028000000
B1313124941392N01025588EA0148001536000028000000
B1313164941363N01025467EA0147401532000028000000
B1313204941337N01025346EA0146901526000024000000
B1313244941309N01025225EA0146701529000032000000
B1313284941271N01025120EA0148101553000028000000
B1313324941231N01025029EA0149901563000024000000
B1313364941187N01024943EA0150201563000024000000
B1313404941144N01024851EA0150001559000024000000
B1313444941100N01024748EA0149101548000024000000
B1313484941062N01024635EA0148701550000020000000
B1313524941031N01024523EA0149201548000020000000
B1313564941002N01024406EA0147901529000028000000
B1314004940976N01024279EA0146301518000024000000
B1314044940944N01024151EA0145701517000024000000
B1314084940897N01024036EA0146001524000024000000
B1314124940840N01023938EA0147101536000024000000
B1314164940778N01023847EA0147201528000024000000
B1314204940712N01023748EA0145801513000032000000
B1314244940645N01023642EA0145201506000036000000
B1314284940573N01023534EA0144001485000032000000
B1314324940499N01023417EA0141801472000036000000
B1314364940424N01023296EA0140601462000040000000
B1314404940352N01023174EA0140101459000040000000
B1314444940282N01023053EA0139801456000036000000
B1314484940212N01022936EA0139701454000036000000
B1314524940141N01022819EA0139101449000032000000
B1314564940073N01022700EA0138901447000032000000
B1315004940008N01022580EA0138601444000032000000
B1315044939943N01022461EA0138401443000028000000
B1315084939878N01022348EA0138101440000028000000
B1315124939810N01022238EA0137701435000028000000
B1315164939742N01022130EA0137301433000024000000
B1315204939675N01022027EA0137101433000028000000
B1315244939607N01021928EA0137001432000024000000
B1315284939547N01021829EA0137201433000024000000
B1315324939494N01021728EA0137201435000020000000
B1315364939449N01021623EA0137601438000020000000
B1315404939411N01021515EA0138101447000016000000
B1315444939385N01021407EA0139001457000016000000
B1315484939368N01021302EA0139601463000016000000
B1315524939355N01021198EA0141201482000016000000
B1315564939329N01021111EA0143401497000012000000
B1316004939277N01021055EA0143701498000012000000
B1316044939209N01021061EA0143601500000012000000
B1316084939163N01021129EA0143801502000016000000
B1316124939150N01021229EA0143401499000024000000
B1316164939183N01021313EA0143801501000032000000
B1316204939238N01021350EA0144301510000032000000
B1316244939294N01021346EA0145301514000032000000
B1316284939345N01021296EA0145101512000028000000
B1316324939376N01021213EA0145701519000028000000
B1316364939372N01021117EA0146001521000028000000
B1316404939346N01021022EA0145901521000024000000
B1316444939320N01020927EA0146001524000020000000
B1316484939294N01020826EA0145501511000024000000
B1316524939268N01020710EA0144101505000024000000
B1316564939242N01020589EA0143301494000024000000
B1317004939215N01020457EA0141601473000024000000
B1317044939194N01020314EA0139801462000036000000
B1317084939176N01020168EA0139601464000032000000
B1317124939165N01020022EA0139801461000032000000
B1317164939159N01019872EA0138701441000032000000
B1317204939152N01019709EA0136601424000036000000
B1317244939147N01019543EA0135501417000040000000
B1317284939144N01019378EA0135201413000040000000
B1317324939143N01019214EA0134701408000048000000
B1317364939142N01019053EA0134901407000044000000
B1317404939140N01018893EA0134201401000040000000
B1317444939135N01018734EA0134001397000036000000
B1317484939131N01018574EA0133401382000036000000
B1317524939127N01018413EA0132101372000040000000
B1317564939125N01018252EA0131401367000040000000
B1318004939121N01018092EA0131001364000036000000
B1318044939118N01017935EA0130501356000036000000
B1318084939117N01017777EA0129801350000036000000
B1318124939114N01017621EA0129301341000036000000
B1318164939114N01017464EA0128401332000036000000
B1318204939112N01017305EA0127701324000036000000
B1318244939109N01017147EA0127101317000032000000
B1318284939108N01016991EA0126501312000032000000
B1318324939107N01016837EA0126101308000032000000
B1318364939108N01016684EA0125401300000032000000
B1318404939109N01016532EA0124701291000032000000
B1318444939108N01016377EA0123501278000032000000
B1318484939107N01016221EA0122601267000032000000
B1318524939105N01016064EA0121901265000032000000
B1318564939101N01015911EA0121701262000032000000
B1319004939099N01015758EA0121501260000032000000
B1319044939098N01015609EA0121001254000032000000
B1319084939095N01015458EA0120501249000032000000
B1319124939091N01015306EA0119901241000032000000
B1319164939088N01015153EA0118901233000032000000
B1319204939088N01014997EA0118201226000036000000
B1319244939087N01014841EA0117801219000032000000
B1319284939083N01014681EA0116901210000036000000
B1319324939079N01014522EA0116101204000032000000
B1319364939075N01014362EA0115601199000032000000
B1319404939070N01014205EA0115101194000036000000
B1319444939066N01014052EA0115301206000040000000
B1319484939064N01013909EA0117101225000040000000
B1319524939056N01013773EA0117901223000032000000
B1319564939052N01013637EA0117501214000032000000
B1320004939049N01013495EA0116101201000032000000
B1320044939047N01013348EA0115301193000032000000
B1320084939042N01013200EA0114501188000028000000
B1320124939035N01013053EA0114101185000028000000
B1320164939030N01012906EA0113801181000024000000
B1320204939025N01012758EA0113401175000028000000
B1320244939020N01012610EA0112901170000024000000
B1320284939014N01012462EA0112301164000028000000
B1320324939010N01012313EA0111701158000024000000
B1320364939004N01012165EA0111201151000028000000
B1320404938997N01012017EA0110501147000028000000
B1320444938992N01011874EA0110601155000028000000
B1320484938987N01011740EA0111401159000028000000
B1320524938983N01011608EA0111301152000024000000
B1320564938981N01011471EA0110501144000024000000
B1321004938978N01011333EA0110001139000024000000
B1321044938978N01011194EA0109201128000024000000
B1321084938977N01011050EA0108301121000024000000
B1321124938974N01010906EA0107801117000028000000
B1321164938970N01010761EA0107401113000028000000
B1321204938969N01010620EA0107401120000028000000
B1321244938969N01010487EA0108201126000024000000
B1321284938969N01010356EA0108301122000024000000
B1321324938970N01010223EA0107701119000024000000
B1321364938966N01010092EA0107401112000024000000
B1321404938955N01009958EA0106701106000020000000
B1321444938939N01009827EA0106501109000024000000
B1321484938922N01009698EA0106801110000020000000
B1321524938909N01009569EA0106901110000020000000
B1321564938899N01009442EA0106901110000020000000
B1322004938887N01009317EA0107001115000016000000
B1322044938866N01009203EA0107901129000016000000
B1322084938844N01009100EA0108901132000016000000
B1322124938828N01008991EA0108701125000016000000
B1322164938825N01008874EA0107901112000016000000
B1322204938831N01008750EA0106601103000012000000
B1322244938839N01008624EA0105801096000016000000
B1322284938847N01008494EA0105201089000016000000
B1322324938848N01008361EA0104601084000020000000
B1322364938845N01008230EA0104001080000020000000
B1322404938841N01008100EA0104001082000020000000
B1322444938835N01007975EA0104101082000016000000
B1322484938825N01007851EA0103901078000016000000
B1322524938814N01007726EA0103901080000016000000
B1322564938799N01007606EA0103701073000016000000
B1323004938783N01007483EA0102901067000016000000
B1323044938769N01007360EA0102501064000016000000
B1323084938754N01007242EA0102301060000012000000
B1323124938740N01007123EA0101701054000016000000
B1323164938724N01007002EA0101201049000020000000
B1323204938706N01006883EA0100801047000024000000
B1323244938684N01006773EA0100801049000020000000
B1323284938662N01006670EA0101301049000024000000
B1323324938639N01006570EA0100801040000024000000
B1323364938611N01006462EA0099401022000020000000
B1323404938580N01006345EA0097801011000020000000
B1323444938548N01006228EA0097401016000016000000
B1323484938513N01006119EA0097901015000016000000
B1323524938477N01006008EA0097301007000016000000
B1323564938441N01005897EA0096901005000016000000
B1324004938405N01005789EA0096801004000012000000
B1324044938370N01005682EA0096400998000012000000
B1324084938337N01005570EA0096000995000012000000
B1324124938305N01005461EA0095900992000012000000
B1324164938272N01005352EA0095400987000012000000
B1324204938238N01005240EA0095100981000012000000
B1324244938199N01005134EA0094800989000016000000
B1324284938167N01005039EA0096000997000012000000
B1324324938128N01004950EA0096200993000012000000
B1324364938089N01004866EA0096201005000012000000
B1324404938051N01004793EA0097601012000012000000
B1324444938012N01004723EA0097501001000012000000
B1324484937970N01004638EA0096200993000012000000
B1324524937928N01004554EA0096401003000012000000
B1324564937889N01004471EA0097201010000012015000
B1325004937861N01004381EA0098001020000012000000
B1325044937861N01004281EA0098701017000012000000
B1325084937896N01004190EA0098101016000012000000
B1325124937952N01004139EA0098901019000012000000
B1325164938013N01004090EA0098301002000020000000
B1325204938076N01004016EA0096701006000020000000
B1325244938133N01003943EA0097701012000020000000
B1325284938193N01003870EA0097001002000020000000
B1325324938258N01003795EA0096801003000020000000
B1325364938323N01003723EA0097301013000020000000
B1325404938385N01003653EA0098101023000020000000
B1325444938445N01003581EA0099101031000016000000
B1325484938503N01003515EA0099601027000012000000
B1325524938562N01003446EA0098901023000012000000
B1325564938622N01003377EA0098801024000012000000
B1326004938680N01003310EA0099001026000012000000
B1326044938739N01003246EA0099001027000012000000
B1326084938797N01003182EA0099001025000012000000
B1326124938856N01003116EA0098801025000012000000
B1326164938916N01003055EA0099101028000012000000
B1326204938977N01002996EA0100101034000012000000
B1326244939029N01002925EA0100901046000016000000
B1326284939047N01002826EA0101701057000012015000
B1326324939021N01002736EA0102601062000016000000
B1326364938961N01002703EA0102901067000020015000
B1326404938903N01002744EA0103601078000020000000
B1326444938887N01002834EA0104301081000016000000
B1326484938922N01002912EA0104201081000020000000
B1326524938987N01002924EA0104901089000016000000
B1326564939042N01002868EA0105601098000020000000
B1327004939060N01002774EA0107001108000016000000
