AZAN5CF ZANDER/SDI GP941 V2.12
HFDTE300518
HFFXA050
HFPLT Pilot             :HANS JUERGEN SCHMACHT                   
HFGTY Glider type       :ASH 31/18m                              
HFGID Glider ID         :          
HFDTM100 GPS Datum      :WGS84
HFRFW Firmware Version  :12
HFRHW Hardware version  :2
HFFTY FR Type           :ZANDER/SDI GP941
HFGPS                   :Garmin,GPS25,12,30000
HFPRS Press Alt Sensor  :Intersema,MS5534A,10000
HFCCL Competition Class :                                        
HFCID Competition ID    :          
I023638IAS3941ENL
J020810WDI1113WVE
LZAN 104417 PowerOn
C140516081638190255000102
C4919300N00939816E Ingelfingen 
C4919300N00939816E Ingelfingen 
C4934900N00924133E Wallduern   
C4959116N01138466E Bayreuth    
C4919300N00939816E Ingelfingen 
C4919300N00939816E Ingelfingen 
B1044214959137N01138550EV0045600000000000
B1044254959183N01138675EA0045600000000000
B1044294959187N01138679EA0045600480000000
B1044334959187N01138679EA0045600480000000
B1044374959187N01138679EA0045600480000000
B1044414959187N01138679EA0045600488000004
B1044454959187N01138679EA0045600488000000
B1044494959187N01138679EA0045600488000012
B1044534959187N01138679EA0045600488000008
B1044574959187N01138679EA0045600488000008
B1045014959187N01138679EA0045600488000008
B1045054959187N01138679EA0045600488000004
B1045094959187N01138679EA0045600488000008
B1045134959187N01138679EA0045600488000004
B1045174959187N01138679EA0045600488000004
B1045214959187N01138679EA0045600488000020
B1045254959187N01138679EA0045600488000012
B1045294959187N01138679EA0045600488000060
B1045334959187N01138679EA0045600488000040
B1045374959187N01138679EA0045600488000028
B1045414959187N01138679EA0045600488000044
B1045454959187N01138679EA0045600488000000
B1045494959187N01138679EA0045600488000016
B1045534959187N01138679EA0045600488000004
B1045574959187N01138679EA0045600488000000
B1046014959187N01138679EA0045600488000004
B1046054959187N01138679EA0045600488000004
B1046094959187N01138679EA0045600488000004
B1046134959187N01138679EA0045600488000004
B1046174959187N01138679EA0045600488000004
B1046214959187N01138679EA0045600488000004
B1046254959187N01138679EA0045600488000040
B1046294959187N01138679EA0045600488000024
B1046334959187N01138679EA0045600488000068
B1046374959187N01138679EA0045600488000056
B1046414959187N01138679EA0045600488000028
B1046454959187N01138679EA0045600488000048
B1046494959187N01138679EA0045600488000008
B1046534959187N01138679EA0045600488000016
B1046574959187N01138679EA0045600488000008
B1047014959187N01138679EA0045600488000008
B1047054959187N01138679EA0045600488000124
B1047094959187N01138679EA0045600488000064
B1047134959187N01138679EA0045600488000036
B1047174959187N01138679EA0045600488000080
B1047214959187N01138679EA0045600488000012
B1047254959187N01138679EA0045600488000024
B1047294959187N01138679EA0045600488000008
B1047334959187N01138679EA0045600488000008
B1047374959187N01138679EA0045600488000052
B1047414959187N01138679EA0045600488000032
B1047454959187N01138679EA0045600488000096
B1047494959187N01138679EA0045600488000072
B1047534959187N01138679EA0045600488000020
B1047574959187N01138679EA0045600488000056
B1048014959187N01138679EA0045600488000004
B1048054959187N01138679EA0045600488000012
B1048094959187N01138679EA0045600488000000
B1048134959187N01138679EA0045600488000000
B1048174959187N01138679EA0045600488039000
B1048214959187N01138679EA0045600488009000
B1048254959187N01138679EA0045600488007000
B1048294959187N01138675EA0045600488007000
B1048334959187N01138675EA0045600488007000
B1048374959187N01138675EA0045600488007000
B1048414959187N01138675EA0045600488007000
B1048454959187N01138675EA0045600488006000
B1048494959187N01138675EA0045600480007000
B1048534959187N01138675EA0045600488007000
B1048574959187N01138675EA0045600488006000
B1049014959187N01138675EA0045600488005000
B1049054959191N01138675EA0045600488006000
B1049094959191N01138675EA0045600488006000
B1049134959191N01138675EA0045600488006000
B1049174959191N01138675EA0045600488006000
B1049214959191N01138675EA0045600488005000
B1049254959191N01138675EA0045600488005000
B1049294959191N01138675EA0045600488005000
B1049334959191N01138675EA0045600488005000
B1049374959191N01138679EA0045600488005000
B1049414959191N01138679EA0045600488006000
B1049454959191N01138679EA0045600488005000
B1049494959191N01138679EA0045600488004000
B1049534959191N01138679EA0045600488005000
B1049574959191N01138679EA0045600488005000
B1050014959191N01138679EA0045600488005000
B1050054959191N01138679EA0045600488005000
B1050094959191N01138679EA0045600488005000
B1050134959191N01138679EA0045600488004000
B1050174959191N01138679EA0045600488005000
B1050214959191N01138679EA0045600488005000
B1050254959191N01138679EA0045600488005000
B1050294959191N01138679EA0045600488004000
B1050334959191N01138679EA0045600488004000
B1050374959187N01138679EA0045600488004000
B1050414959187N01138675EA0045600488005000
B1050454959187N01138679EA0045600488004000
B1050494959187N01138679EA0045600488005000
B1050534959187N01138675EA0045600488004000
B1050574959187N01138675EA0045600488005000
B1051014959187N01138675EA0045600488004000
B1051054959187N01138675EA0045600488005000
B1051094959187N01138679EA0045600488005000
B1051134959187N01138679EA0045500488005000
B1051174959187N01138679EA0045500488005000
B1051214959187N01138675EA0045500488004000
B1051254959187N01138675EA0045500480004000
B1051294959187N01138675EA0045500480005000
B1051334959187N01138675EA0045500488005000
B1051374959187N01138675EA0045600480005000
B1051414959187N01138675EA0045600488005000
B1051454959187N01138675EA0045600488005008
B1051494959187N01138675EA0045600480004004
B1051534959187N01138675EA0045600480004004
B1051574959187N01138675EA0045600488004008
B1052014959187N01138675EA0045600488005004
B1052054959187N01138675EA0045600488006004
B1052094959187N01138675EA0045600488005000
B1052134959187N01138675EA0045600488003000
B1052174959187N01138675EA0045600488003000
B1052214959187N01138675EA0045600488001000
B1052254959187N01138675EA0045600488002000
B1052294959187N01138675EA0045600488004000
B1052334959187N01138675EA0045600488004012
B1052374959187N01138675EA0045600488002008
B1052414959187N01138675EA0045600488004004
B1052454959187N01138675EA0045600488003008
B1052494959187N01138675EA0045600488004000
B1052534959187N01138675EA0045600488004000
B1052574959187N01138675EA0045600488003008
B1053014959187N01138675EA0045600488004004
B1053054959187N01138675EA0045600488002004
B1053094959187N01138675EA0045600488004008
B1053134959187N01138675EA0045600488005000
B1053174959187N01138675EA0045600488005000
B1053214959187N01138675EA0045600488005004
B1053254959187N01138675EA0045600488005000
B1053294959187N01138675EA0045600488004004
B1053334959187N01138675EA0045600488004004
B1053374959187N01138679EA0045600488004000
B1053414959187N01138675EA0045600488004000
B1053454959187N01138675EA0045600488004000
B1053494959187N01138675EA0045600488004000
B1053534959187N01138675EA0045600488004000
B1053574959187N01138675EA0045600488005000
B1054014959187N01138679EA0045600488004004
B1054054959187N01138679EA0045600488003000
B1054094959187N01138679EA0045600488002000
B1054134959187N01138675EA0045600488003000
B1054174959187N01138675EA0045600488004020
B1054214959187N01138675EA0045600488003008
B1054254959187N01138675EA0045600488003000
B1054294959187N01138675EA0045600488004008
B1054334959187N01138675EA0045600488003004
B1054374959187N01138675EA0045600488003000
B1054414959187N01138675EA0045600488004012
B1054454959187N01138675EA0045600488004008
B1054494959187N01138675EA0045700488003004
B1054534959187N01138675EA0045700488001008
B1054574959187N01138675EA0045700488002000
B1055014959187N01138675EA0045700488003000
B1055054959187N01138675EA0045700488004000
B1055094959187N01138675EA0045700488004000
B1055134959187N01138675EA0045700488004000
B1055174959187N01138675EA0045700488004000
B1055214959187N01138675EA0045700488004000
B1055254959187N01138679EA0045700488004000
B1055294959187N01138675EA0045700488003000
B1055334959187N01138675EA0045700488002000
B1055374959187N01138675EA0045700488002000
B1055414959187N01138675EA0045700488002000
B1055454959187N01138675EA0045700488002000
B1055494959187N01138675EA0045700488004000
B1055534959187N01138675EA0045700488005020
B1055574959187N01138675EA0045700488005008
B1056014959187N01138675EA0045700488004008
B1056054959187N01138675EA0045700488004016
B1056094959187N01138675EA0045700488004008
B1056134959187N01138675EA0045700488005008
B1056174959187N01138675EA0045700488004060
B1056214959187N01138675EA0045700488005032
B1056254959187N01138679EA0045700488004004
B1056294959187N01138679EA0045700488005032
B1056334959187N01138679EA0045700488004012
B1056374959187N01138679EA0045700488005008
B1056414959187N01138679EA0045700488003004
B1056454959187N01138679EA0045700488004008
B1056494959187N01138679EA0045700488004004
B1056534959187N01138679EA0045700488005004
B1056574959187N01138679EA0045700488005004
B1057014959187N01138679EA0045700488004004
B1057054959187N01138679EA0045700488004004
B1057094959187N01138679EA0045700488004004
B1057134959187N01138679EA0045700488005016
B1057174959187N01138675EA0045700488004008
B1057214959187N01138675EA0045700488004048
B1057254959187N01138675EA0045700488005032
B1057294959187N01138675EA0045700488004012
B1057334959187N01138675EA0045700488005032
B1057374959187N01138679EA0045700488005012
B1057414959187N01138679EA0045700488005012
B1057454959187N01138679EA0045700488005000
B1057494959187N01138679EA0045700488005008
B1057534959187N01138679EA0045700488005000
B1057574959187N01138679EA0045700488004000
B1058014959187N01138679EA0045700488004016
B1058054959187N01138679EA0045700488004008
B1058094959187N01138679EA0045700488005080
B1058134959187N01138679EA0045700488002048
B1058174959187N01138679EA0045700488004020
B1058214959187N01138679EA0045700488004048
B1058254959187N01138679EA0045700488004004
B1058294959187N01138679EA0045700488000012
B1058334959187N01138679EA0045700488000000
B1058374959187N01138679EA0045700488003000
B1058414959187N01138679EA0045700488000000
B1058454959187N01138679EA0045700488000000
B1058494959187N01138679EA0045700488000000
B1058534959187N01138679EA0045700488000000
B1058574959187N01138679EA0045700488000004
B1059014959187N01138679EA0045700488004000
B1059054959187N01138679EA0045700488000072
B1059094959187N01138679EA0045700488000040
B1059134959187N01138679EA0045700488000048
B1059174959187N01138679EA0045700488000060
B1059214959187N01138679EA0045700488002012
B1059254959187N01138679EA0045700488000032
B1059294959187N01138679EA0045700488000008
B1059334959187N01138679EA0045700488000008
B1059374959187N01138679EA0045700488000000
B1059414959187N01138679EA0045700488003004
B1059454959187N01138679EA0045700488007000
B1059494959187N01138679EA0045700488008000
B1059534959187N01138679EA0045700488009000
B1059574959187N01138679EA0045700488008000
B1100014959187N01138679EA0045700488008004
B1100054959187N01138679EA0045700488008000
B1100094959187N01138679EA0045700488008004
B1100134959187N01138679EA0045700488007004
B1100174959187N01138679EA0045700488005004
B1100214959187N01138679EA0045700488005004
B1100254959187N01138679EA0045700488003000
B1100294959187N01138679EA0045700488004000
B1100334959187N01138679EA0045700488001000
B1100374959187N01138679EA0045700488000000
B1100414959187N01138679EA0045700488002000
B1100454959191N01138679EA0045700488002000
B1100494959187N01138679EA0045700488004000
B1100534959187N01138679EA0045700488005000
B1100574959187N01138679EA0045700488005000
B1101014959187N01138679EA0045700488005000
B1101054959187N01138679EA0045700488005000
B1101094959187N01138679EA0045700488004000
B1101134959187N01138679EA0045700488004000
B1101174959187N01138679EA0045700488002000
B1101214959187N01138679EA0045700488001016
B1101254959187N01138679EA0045700488006008
B1101294959187N01138679EA0045700488007000
B1101334959187N01138679EA0045700488008008
B1101374959187N01138679EA0045700488008004
B1101414959187N01138679EA0045700488008000
B1101454959187N01138679EA0045700488006000
B1101494959187N01138679EA0045700488005000
B1101534959187N01138679EA0045700488003000
B1101574959187N01138679EA0045700488001000
B1102014959187N01138679EA0045700488005000
B1102054959187N01138679EA0045700488006000
B1102094959187N01138679EA0045700488007000
B1102134959187N01138679EA0045700488006000
B1102174959187N01138679EA0045700488006000
B1102214959187N01138679EA0045700488007000
B1102254959187N01138679EA0045700488008000
B1102294959187N01138679EA0045700488004000
B1102334959187N01138679EA0045700488003000
B1102374959187N01138679EA0045700488003000
B1102414959187N01138679EA0045700488003000
B1102454959187N01138679EA0045700488002000
B1102494959187N01138679EA0045700488000000
B1102534959187N01138679EA0045700488004000
B1102574959187N01138679EA0045700488004000
B1103014959187N01138679EA0045700488005000
B1103054959187N01138679EA0045700488005000
B1103094959191N01138679EA0045700488006000
B1103134959191N01138679EA0045700488005000
B1103174959191N01138679EA0045700488004000
B1103214959191N01138679EA0045700488003000
B1103254959187N01138679EA0045700488001000
B1103294959187N01138679EA0045700488004000
B1103334959187N01138679EA0045700488003000
B1103374959191N01138679EA0045700488004000
B1103414959191N01138679EA0045700488007000
B1103454959191N01138679EA0045700488006000
B1103494959191N01138679EA0045700488008000
B1103534959191N01138679EA0045700488007000
B1103574959191N01138679EA0045700488007000
B1104014959191N01138679EA0045700488004004
B1104054959191N01138679EA0045700488000000
B1104094959191N01138679EA0045700488005008
B1104134959191N01138679EA0045700488000008
B1104174959191N01138679EA0045700488018056
B1104214959191N01138679EA0045700488036032
B1104254959191N01138679EA0045700488034096
B1104294959191N01138679EA0045700488031076
B1104334959191N01138679EA0045700488026112
B1104374959191N01138679EA0045700488022104
B1104414959191N01138679EA0045700488026068
B1104454959191N01138679EA0045700488027088
B1104494959191N01138679EA0045700488029056
B1104534959191N01138679EA0045700488024064
B1104574959191N01138679EA0045700488025076
B1105014959191N01138679EA0045700488022064
B1105054959191N01138679EA0045700488025072
B1105094959191N01138679EA0045700488024072
B1105134959191N01138679EA0045700488033064
B1105174959191N01138679EA0045700488038068
B1105214959191N01138679EA0045700488039084
B1105254959191N01138679EA0045700488036072
B1105294959191N01138679EA0045700488030064
B1105334959191N01138679EA0045700488026072
B1105374959191N01138679EA0045700488026172
B1105414959191N01138679EA0045700488029172
B1105454959191N01138679EA0045700488031176
B1105494959191N01138679EA0045700488033184
B1105534959187N01138675EA0045700488061188
B1105574959183N01138666EA0045900488086208
B1106014959170N01138637EA0045900480093240
B1106054959158N01138600EA0045900480099248
B1106094959141N01138550EA0045900488102216
B1106134959116N01138491EA0045900488107232
K110613180000
B1106174959091N01138425EA0045900488117264
B1106214959062N01138345EA0046000488119288
B1106254959033N01138266EA0046400488126356
B1106294959004N01138179EA0047400496125448
B1106334958970N01138100EA0048300504126424
K110633000037
B1106374958937N01138020EA0049000520125360
B1106414958904N01137941EA0050300528123328
B1106454958870N01137866EA0052000544119248
B1106494958841N01137791EA0052700560120204
B1106534958800N01137716EA0053500568125172
K110653000032
B1106574958745N01137666EA0055200584120168
B1107014958687N01137633EA0055800592124164
B1107054958629N01137616EA0056400592122164
B1107094958566N01137608EA0056500600121176
B1107134958504N01137600EA0056900600121196
K110713000030
B1107174958441N01137591EA0057000608123200
B1107214958379N01137583EA0057700608121200
B1107254958320N01137604EA0058100616124204
B1107294958258N01137645EA0058100616125200
B1107334958208N01137712EA0058600624124200
K110733000028
B1107374958162N01137787EA0059300632121200
B1107414958120N01137866EA0060300640120200
B1107454958079N01137950EA0060900648122204
B1107494958050N01138050EA0061200648125208
B1107534958037N01138158EA0063000664121208
K110753000021
B1107574958045N01138262EA0064400680124204
B1108014958075N01138358EA0066100696121204
B1108054958129N01138420EA0066700704121212
B1108094958200N01138437EA0068100712125224
B1108134958258N01138395EA0070100736122220
K110813000021
B1108174958283N01138308EA0071100752124216
B1108214958262N01138212EA0071900760127212
B1108254958204N01138170EA0073400768122204
B1108294958141N01138195EA0074800784121204
B1108334958104N01138287EA0075600800121220
K110833244008
B1108374958108N01138400EA0077900816121228
B1108414958154N01138483EA0079300840118224
B1108454958220N01138520EA0080500848123232
B1108494958283N01138504EA0082200864121228
B1108534958325N01138429EA0083100880123216
K110853252009
B1108574958329N01138333EA0085000896124208
B1109014958295N01138258EA0086700912121204
B1109054958245N01138220EA0088200928117216
B1109094958179N01138229EA0089100936120228
B1109134958129N01138304EA0090700952122228
K110913250011
B1109174958116N01138412EA0092500968121228
B1109214958145N01138512EA0093800984118232
B1109254958204N01138575EA0094300992123244
B1109294958270N01138570EA0096401008118248
B1109334958320N01138504EA0097701032116232
K110933244011
B1109374958329N01138412EA0098301040108220
B1109414958300N01138329EA0099301048099220
B1109454958245N01138295EA0100201056096184
B1109494958183N01138316EA0100501056101128
B1109534958137N01138391EA0101401064095104
K110953348006
B1109574958129N01138495EA0102001072091116
B1110014958150N01138595EA0101901072092040
B1110054958200N01138670EA0101601064093072
B1110094958266N01138679EA0102001072093008
B1110134958316N01138625EA0102701080097024
K111013262014
B1110174958312N01138529EA0102701080108004
B1110214958258N01138483EA0104101088105008
B1110254958208N01138541EA0105101104100004
B1110294958208N01138654EA0105101104105004
B1110334958266N01138725EA0105101104109004
K111033222013
B1110374958329N01138695EA0107001120106004
B1110414958362N01138612EA0107701128100000
B1110454958337N01138520EA0107701136106000
B1110494958275N01138491EA0109401152103004
B1110534958220N01138545EA0110201160101000
K111053244005
B1110574958204N01138645EA0110801168099004
B1111014958237N01138750EA0110801160108004
B1111054958304N01138791EA0111501168108000
B1111094958366N01138762EA0113201192100000
B1111134958404N01138683EA0112901184106000
K111113250008
B1111174958383N01138587EA0112501176111000
B1111214958316N01138554EA0113801192107004
B1111254958258N01138600EA0114901208099000
B1111294958225N01138700EA0114901208104004
B1111334958250N01138812EA0115201208105004
K111133262009
B1111374958316N01138862EA0115701216114004
B1111414958375N01138816EA0117601232102004
B1111454958395N01138725EA0117001232104004
B1111494958358N01138637EA0116301216112004
B1111534958287N01138633EA0117601232112004
K111153264010
B1111574958225N01138700EA0118801248102004
B1112014958204N01138804EA0119401256101004
B1112054958229N01138916EA0119501256106004
B1112094958295N01138979EA0119201248113000
B1112134958362N01138970EA0120601264103000
K111213266011
B1112174958408N01138908EA0121201272099004
B1112214958420N01138812EA0121401272102000
B1112254958395N01138720EA0120901272104004
B1112294958337N01138658EA0120801264110004
B1112334958270N01138641EA0122301280107000
K111233272009
B1112374958208N01138687EA0123201296102000
B1112414958179N01138787EA0123801304104004
B1112454958200N01138895EA0123901304103000
B1112494958258N01138962EA0123901304105004
B1112534958329N01138962EA0124201304104004
K111253254007
B1112574958383N01138895EA0124401312105000
B1113014958395N01138795EA0124401312104000
B1113054958350N01138708EA0124301312116004
B1113094958283N01138687EA0125501320114000
B1113134958220N01138741EA0127201336104004
K111313238009
B1113174958195N01138845EA0127901344103004
B1113214958212N01138958EA0128101344104004
B1113254958266N01139037EA0128401352105004
B1113294958337N01139041EA0128801352102000
B1113334958387N01138983EA0128801352102000
K111333246009
B1113374958400N01138883EA0128501352105004
B1113414958358N01138800EA0128501352111000
B1113454958291N01138770EA0130101360105004
B1113494958233N01138829EA0130901376105004
B1113534958216N01138937EA0131201376103004
K111353248008
B1113574958254N01139037EA0131201376109004
B1114014958325N01139066EA0131801384105004
B1114054958383N01139016EA0132601392101004
B1114094958400N01138920EA0132701392103004
B1114134958362N01138829EA0133101392107004
K111413244008
B1114174958295N01138795EA0133301400111004
B1114214958241N01138854EA0134301416103004
B1114254958225N01138962EA0135001416102004
B1114294958254N01139066EA0135001416105004
B1114334958320N01139125EA0134501416110004
K111433246008
B1114374958395N01139129EA0135701424110004
B1114414958454N01139079EA0136501432104004
B1114454958487N01138991EA0136101432103004
B1114494958483N01138887EA0135001416111004
B1114534958441N01138800EA0134501408113004
K111453252008
B1114574958375N01138791EA0134601408110004
B1115014958320N01138850EA0135201408105004
B1115054958287N01138950EA0136001424103004
B1115094958283N01139058EA0136601432100004
B1115134958295N01139175EA0136101424110004
K111513238009
B1115174958325N01139300EA0135201416126004
B1115214958370N01139420EA0135101416130004
B1115254958408N01139537EA0135201416117004
B1115294958445N01139662EA0133701400128004
B1115334958470N01139795EA0133501392125004
K111533000021
B1115374958487N01139929EA0132701392125004
B1115414958500N01140066EA0132501384126004
B1115454958512N01140204EA0132001384125004
B1115494958520N01140341EA0131701376128004
B1115534958529N01140479EA0130901368129004
K111553180005
B1115574958533N01140616EA0130801360128004
B1116014958537N01140754EA0130501360124004
B1116054958529N01140883EA0132301384122004
B1116094958508N01141004EA0133601400112004
B1116134958495N01141120EA0133601400110004
K111613180005
B1116174958508N01141237EA0133101392110004
B1116214958537N01141350EA0132601384115004
B1116254958562N01141470EA0131701376124004
B1116294958570N01141595EA0131201376121004
B1116334958579N01141725EA0130601360123004
K111633180005
B1116374958587N01141858EA0131001368122004
B1116414958600N01141983EA0131501376115004
B1116454958616N01142100EA0131301376114004
B1116494958629N01142225EA0130301368118004
B1116534958650N01142358EA0129101352120004
K111653180003
B1116574958666N01142491EA0128801344125004
B1117014958687N01142625EA0129001352120004
B1117054958708N01142758EA0128901352126004
B1117094958725N01142887EA0129301360118004
B1117134958725N01143016EA0130201360114004
K111713180008
B1117174958704N01143137EA0129701360115004
B1117214958650N01143233EA0128801344120004
B1117254958570N01143262EA0127901336125004
B1117294958504N01143200EA0127601336122004
B1117334958475N01143087EA0127001328124004
K111733180008
B1117374958479N01142966EA0125401320128004
B1117414958495N01142841EA0124101296133004
B1117454958512N01142712EA0123601296133004
B1117494958533N01142583EA0123201288137004
B1117534958537N01142458EA0123401296130004
K111753180008
B1117574958529N01142341EA0123401296122004
B1118014958520N01142225EA0122201280127004
B1118054958512N01142104EA0121901280127004
B1118094958504N01141983EA0121901280126004
B1118134958495N01141862EA0121501272126004
K111813000012
B1118174958487N01141741EA0120901264123004
B1118214958483N01141620EA0120401264123004
B1118254958475N01141500EA0119501256126004
B1118294958466N01141375EA0118001240132004
B1118334958450N01141250EA0117701232130004
K111833000011
B1118374958425N01141141EA0119601248117004
B1118414958420N01141041EA0120301264111004
B1118454958445N01140945EA0120301264110004
B1118494958491N01140875EA0120201256109004
B1118534958550N01140833EA0120201256103004
K111853000010
B1118574958616N01140833EA0120101256108004
B1119014958679N01140875EA0120201256104004
B1119054958733N01140954EA0120101256106004
B1119094958754N01141066EA0120301264112004
B1119134958741N01141175EA0121101272107004
K111913000010
B1119174958695N01141258EA0121101272108004
B1119214958629N01141295EA0121001272107004
B1119254958562N01141287EA0120901264107004
B1119294958500N01141237EA0120901272109004
B1119334958466N01141154EA0121801280104004
K111933000010
B1119374958466N01141058EA0122001280107004
B1119414958504N01140987EA0122301280103004
B1119454958570N01140966EA0122301280108004
B1119494958633N01141008EA0122501288109004
B1119534958670N01141100EA0123001296106004
K111953288007
B1119574958666N01141216EA0123201296111004
B1120014958629N01141312EA0123701296106004
B1120054958566N01141345EA0123601304101004
B1120094958504N01141316EA0122701288112004
B1120134958466N01141229EA0123001296110004
K112013280008
B1120174958470N01141129EA0123701296106004
B1120214958508N01141050EA0124101304105004
B1120254958566N01141012EA0124001296106004
B1120294958633N01141025EA0123601296105004
B1120334958691N01141091EA0123601296107004
K112033266007
B1120374958716N01141195EA0124401304107004
B1120414958700N01141304EA0125201312103004
B1120454958662N01141387EA0125201312101004
B1120494958600N01141425EA0123801304107004
B1120534958529N01141408EA0123101288110004
K112053262007
B1120574958483N01141337EA0123401296106004
B1121014958470N01141245EA0123901304102004
B1121054958491N01141154EA0123901304104004
B1121094958541N01141087EA0123901304104004
B1121134958604N01141066EA0123901304101004
K112113264006
B1121174958666N01141095EA0123401296100004
B1121214958712N01141187EA0123201288108000
B1121254958720N01141304EA0123801296111000
B1121294958691N01141400EA0124101304106000
B1121334958633N01141458EA0123801296106000
K112133254007
B1121374958566N01141466EA0123601296108004
B1121414958512N01141412EA0123301296107000
B1121454958483N01141329EA0123801296103004
B1121494958483N01141233EA0124301304102004
B1121534958512N01141150EA0124001304102004
K112153250007
B1121574958570N01141112EA0123201296109004
B1122014958641N01141137EA0122901288109000
B1122054958704N01141204EA0122701288109000
B1122094958741N01141308EA0122801288113004
B1122134958750N01141425EA0123501296106000
K112213260008
B1122174958712N01141516EA0122901288109004
B1122214958641N01141550EA0121501272114004
B1122254958575N01141500EA0120601264114004
B1122294958541N01141404EA0120601264118004
B1122334958533N01141304EA0122001280106004
K112233262006
B1122374958566N01141216EA0121501272108004
B1122414958629N01141187EA0120701264110004
B1122454958695N01141233EA0120801272108004
B1122494958725N01141341EA0121401272105004
B1122534958720N01141454EA0122001280106004
K112253264007
B1122574958670N01141525EA0122301280106004
B1123014958608N01141504EA0122101280108004
B1123054958583N01141416EA0121601280110004
B1123094958595N01141316EA0121301272114004
B1123134958625N01141220EA0120001256123004
K112313254012
B1123174958666N01141120EA0118601248127004
B1123214958704N01141016EA0117601232130004
B1123254958745N01140912EA0117001232126004
B1123294958783N01140804EA0116701224125004
B1123334958825N01140700EA0115601216127004
K112333000010
B1123374958862N01140595EA0114501208128004
B1123414958904N01140487EA0113401192130004
B1123454958941N01140375EA0112201184132004
B1123494958979N01140262EA0111201168134004
B1123534959020N01140150EA0110301160131004
K112353000012
B1123574959062N01140041EA0109901152129004
B1124014959108N01139933EA0109401152129008
B1124054959154N01139829EA0109301152127008
B1124094959200N01139725EA0109101144127004
B1124134959245N01139620EA0109101144129008
K112413000007
B1124174959275N01139504EA0108201136128004
B1124214959291N01139379EA0107801136128004
B1124254959300N01139254EA0108001136127004
B1124294959291N01139133EA0108101136123004
B1124334959270N01139016EA0107501128127004
K112433000007
B1124374959245N01138900EA0106901120130004
B1124414959229N01138779EA0107101128128004
B1124454959216N01138662EA0108101136121004
B1124494959204N01138550EA0109301152118004
B1124534959191N01138437EA0109101152115004
K112453000008
B1124574959179N01138325EA0107601128119004
B1125014959166N01138208EA0106601120122004
B1125054959158N01138087EA0106201112125004
B1125094959145N01137970EA0105701112120004
B1125134959141N01137862EA0105101104122004
K112513000010
B1125174959133N01137745EA0104201096123004
B1125214959125N01137637EA0103901088120004
B1125254959120N01137520EA0102801080122004
B1125294959125N01137400EA0101801072127004
B1125334959125N01137279EA0100601064128004
K112533000012
B1125374959125N01137158EA0099901048127004
B1125414959129N01137037EA0098801040126004
B1125454959125N01136916EA0097701032127004
B1125494959125N01136791EA0097001024127004
B1125534959125N01136662EA0096301016128004
K112553000009
B1125574959125N01136529EA0095901008128004
B1126014959129N01136400EA0095801008128004
B1126054959129N01136266EA0096001016130004
B1126094959112N01136145EA0096901024120004
B1126134959075N01136033EA0097801024125004
K112613000001
B1126174959020N01135950EA0100101048115008
B1126214958954N01135950EA0101201064106008
B1126254958908N01136037EA0101201064113004
B1126294958925N01136150EA0102701080113008
B1126334958991N01136191EA0103201088107004
K112633000001
B1126374959050N01136129EA0103101080119004
B1126414959045N01136016EA0103901088115004
B1126454958987N01135958EA0105501112106004
B1126494958920N01135995EA0105701112104004
B1126534958887N01136095EA0106001112109004
K112653298003
B1126574958916N01136200EA0107701128106004
B1127014958987N01136220EA0107801136108004
B1127054959037N01136145EA0108501136112004
B1127094959029N01136041EA0109901152110004
B1127134958970N01135995EA0110701160105004
K112713274004
B1127174958908N01136045EA0110601160109004
B1127214958891N01136162EA0111101168111004
B1127254958937N01136245EA0112601184105004
B1127294959004N01136262EA0113401192104004
B1127334959062N01136195EA0113601192109004
K112733244005
B1127374959050N01136087EA0114401200120004
B1127414958983N01136062EA0115401216109004
B1127454958933N01136141EA0115401208115004
B1127494958945N01136262EA0115901216116004
B1127534959012N01136325EA0117301232114004
K112753228008
B1127574959079N01136283EA0119101248108004
B1128014959100N01136175EA0119601256114004
B1128054959041N01136116EA0120601264118004
B1128094958983N01136175EA0121501272111000
B1128134958995N01136291EA0121701272114000
K112813208008
B1128174959062N01136333EA0122901288111000
B1128214959120N01136275EA0124201304110000
B1128254959133N01136170EA0124901312110000
B1128294959079N01136108EA0125601320109000
B1128334959012N01136145EA0126101328110000
K112833206004
B1128374958995N01136250EA0126601328107000
B1128414959041N01136337EA0125901320120000
B1128454959116N01136325EA0127601336111000
B1128494959166N01136237EA0127601344114000
B1128534959150N01136129EA0128401352112000
K112853206002
B1128574959087N01136075EA0129501360113004
B1129014959020N01136116EA0129901368111000
B1129054958995N01136225EA0129901368115000
B1129094959033N01136325EA0130801376116000
B1129134959108N01136337EA0132201384112000
K112913202002
B1129174959170N01136270EA0132301392116000
B1129214959170N01136158EA0132901400113004
B1129254959112N01136095EA0133601408115000
B1129294959045N01136137EA0134101408113000
B1129334959025N01136250EA0134401408118000
K112933216002
B1129374959066N01136350EA0135601416115000
B1129414959137N01136379EA0136401432112000
B1129454959195N01136320EA0136101424116004
B1129494959200N01136204EA0136101424117000
B1129534959150N01136120EA0137501440110004
K112953210002
B1129574959079N01136100EA0138101448111004
B1130014959012N01136137EA0138901456110004
B1130054958983N01136241EA0138901456111004
B1130094959025N01136337EA0138901456117000
B1130134959100N01136333EA0139901464113000
K113013350002
B1130174959141N01136250EA0140701472107000
B1130214959137N01136137EA0140501472112000
B1130254959087N01136050EA0140701472112000
B1130294959016N01136029EA0140501472111000
B1130334958950N01136091EA0139701464117000
K113033342002
B1130374958937N01136212EA0140301472114000
B1130414958970N01136316EA0141201480110004
B1130454959037N01136362EA0142201488110000
B1130494959095N01136312EA0142801496108000
B1130534959104N01136208EA0142101488113000
K113053296004
B1130574959054N01136133EA0142201488116000
B1131014958983N01136141EA0143401504105000
B1131054958937N01136216EA0143401504106000
B1131094958929N01136329EA0143501504106000
B1131134958962N01136429EA0144601512106000
K113113268007
B1131174959029N01136470EA0144601512112000
B1131214959091N01136420EA0144501512113000
B1131254959108N01136316EA0144601512110000
B1131294959079N01136212EA0144601512114000
B1131334959016N01136166EA0144701520112000
K113133286004
B1131374958950N01136200EA0145101520109000
B1131414958908N01136295EA0145101520110000
B1131454958908N01136412EA0146001528111000
B1131494958958N01136495EA0146601536110000
B1131534959025N01136504EA0147001536107000
K113153282004
B1131574959079N01136441EA0147101544106000
B1132014959087N01136337EA0147001536110000
B1132054959041N01136258EA0146901536114000
B1132094958970N01136258EA0147101544108000
B1132134958912N01136329EA0147301544112000
K113213262007
B1132174958887N01136437EA0147601544111000
B1132214958916N01136545EA0148001552113000
B1132254958983N01136591EA0148201552113000
B1132294959045N01136545EA0148201552113000
B1132334959066N01136441EA0148001552115000
K113233274006
B1132374959037N01136341EA0148201552111000
B1132414958970N01136295EA0148601552113000
B1132454958904N01136333EA0149101560110000
B1132494958862N01136425EA0150101568106000
B1132534958870N01136541EA0149701568112000
K113253306004
B1132574958929N01136620EA0149601568118000
B1133014959000N01136612EA0150301576111000
B1133054959045N01136537EA0150201568111000
B1133094959045N01136429EA0150101568113000
B1133134959000N01136345EA0150501576113000
K113313300004
B1133174958929N01136329EA0151301584109000
B1133214958862N01136379EA0151301584111000
B1133254958837N01136487EA0151201576112000
B1133294958862N01136600EA0150501576114000
B1133334958920N01136670EA0150601576116000
K113333000001
B1133374958991N01136666EA0151601592107000
B1133414959045N01136604EA0151601584111000
B1133454959062N01136495EA0150901576115004
B1133494959029N01136395EA0151001584113000
B1133534958966N01136337EA0151301584116000
K113353000001
B1133574958895N01136350EA0151801592110000
B1134014958841N01136429EA0151501584112000
B1134054958833N01136545EA0151001584113000
B1134094958875N01136641EA0150801576113000
B1134134958945N01136670EA0150701576113000
K113413312003
B1134174959012N01136633EA0151301584108000
B1134214959054N01136541EA0150801576116000
B1134254959066N01136420EA0149701568124000
B1134294959070N01136287EA0148301552133000
B1134334959066N01136145EA0147801544139000
K113433296003
B1134374959058N01136000EA0146401536143000
B1134414959050N01135850EA0145401520148004
B1134454959045N01135700EA0145001520149000
B1134494959045N01135550EA0145501528146004
B1134534959041N01135412EA0145801528139004
K113453000007
B1134574959041N01135270EA0145401520142004
B1135014959041N01135129EA0144201512143004
B1135054959041N01134991EA0143801504144004
B1135094959037N01134850EA0143601504143004
B1135134959029N01134712EA0143301504139004
K113513000011
B1135174959020N01134579EA0143201504139004
B1135214959016N01134437EA0142201496142004
B1135254959033N01134300EA0141901488140004
B1135294959066N01134170EA0141801488138004
B1135334959116N01134045EA0141801480142004
K113533000011
B1135374959175N01133945EA0142701496132004
B1135414959233N01133850EA0141601488141004
B1135454959295N01133745EA0141101480144004
B1135494959358N01133645EA0140901472140004
B1135534959416N01133545EA0140301472136004
K113553000010
B1135574959479N01133445EA0139201456138004
B1136014959541N01133341EA0138001448147004
B1136054959604N01133229EA0137701440149004
B1136094959662N01133120EA0137901448143000
B1136134959720N01133012EA0137901448141000
K113613000010
B1136174959775N01132900EA0137901448142004
B1136214959820N01132779EA0137901448139000
B1136254959862N01132658EA0137301440140000
B1136294959895N01132525EA0136501432144000
B1136334959920N01132387EA0137001432145000
K113633000009
B1136374959945N01132262EA0139501464130000
B1136414959991N01132166EA0141001480113004
B1136455000062N01132129EA0141301480114000
B1136495000133N01132170EA0141801488119000
B1136535000154N01132283EA0142201488109000
K113653000009
B1136575000104N01132375EA0142201488121000
B1137015000029N01132358EA0142201488117000
B1137055000000N01132254EA0143801504115004
B1137095000029N01132154EA0144701512108000
B1137135000100N01132133EA0144501512114004
K113713222002
B1137175000154N01132216EA0145001520115004
B1137215000170N01132333EA0145001520113000
B1137255000141N01132445EA0145001520116000
B1137295000070N01132483EA0145601528110000
B1137335000008N01132420EA0145401520116000
K113733280004
B1137374959975N01132312EA0145601520125000
B1137414959941N01132204EA0146501536119000
B1137454959904N01132104EA0145401528125000
B1137494959862N01131987EA0142701496142000
B1137534959812N01131862EA0140901472154000
K113753000009
B1137574959758N01131729EA0140201464158000
B1138014959704N01131595EA0139901464158000
B1138054959654N01131466EA0139001456157000
B1138094959600N01131337EA0137901440160004
B1138134959537N01131220EA0137401440156000
K113813000013
B1138174959466N01131108EA0136901432156004
B1138214959400N01131004EA0136801432155004
B1138254959325N01130904EA0135801424157004
B1138294959250N01130816EA0136501432145004
B1138334959179N01130725EA0136001424147004
K113833000011
B1138374959116N01130612EA0136401424150004
B1138414959095N01130479EA0139001448137004
B1138454959125N01130362EA0140501472120004
B1138494959195N01130320EA0141301480125004
B1138534959262N01130387EA0141501480117004
K113853000010
B1138574959287N01130520EA0141001472119004
B1139014959279N01130658EA0141501480121004
B1139054959229N01130758EA0142301488115000
B1139094959154N01130766EA0142701496117000
B1139134959116N01130670EA0142701496119004
K113913000010
B1139174959154N01130579EA0142901496121000
B1139214959229N01130566EA0143501504115004
B1139254959283N01130670EA0143301496116004
B1139294959262N01130791EA0143501504116004
B1139334959187N01130833EA0144101504115004
K113933264013
B1139374959112N01130804EA0143801504123004
B1139414959029N01130787EA0142601496134004
B1139454958941N01130791EA0142201488135000
B1139494958850N01130808EA0141801480139000
B1139534958758N01130825EA0142601496136004
K113953000010
B1139574958675N01130829EA0143801512123000
B1140014958612N01130775EA0145701528112000
B1140054958583N01130675EA0146301528109000
B1140094958583N01130562EA0145901520121000
B1140134958616N01130462EA0147501536113000
K114013000010
B1140174958683N01130441EA0148401552111004
B1140214958745N01130504EA0148701552113000
B1140254958762N01130620EA0149001560112000
B1140294958720N01130716EA0149301560114000
B1140334958645N01130716EA0149401560114000
K114033000010
B1140374958587N01130645EA0149601560115000
B1140414958566N01130537EA0150401568114000
B1140454958595N01130433EA0151301584113000
B1140494958662N01130387EA0151501584115000
B1140534958733N01130425EA0152201592115000
K114053278004
B1140574958770N01130529EA0152401592115000
B1141014958758N01130654EA0152401592117000
B1141054958700N01130737EA0152901600115000
B1141094958629N01130741EA0153601608110000
B1141134958570N01130666EA0153301600116000
K114113294005
B1141174958562N01130558EA0153901608109000
B1141214958591N01130458EA0154501616113000
B1141254958658N01130412EA0155201624111000
B1141294958725N01130454EA0155801632113004
B1141334958758N01130554EA0156201632110000
K114133298005
B1141374958745N01130675EA0156201632113000
B1141414958691N01130754EA0156201632112000
B1141454958616N01130766EA0156101632112000
B1141494958566N01130691EA0155601624114000
B1141534958570N01130575EA0156201632117000
K114153290005
B1141574958629N01130504EA0157201640116000
B1142014958695N01130545EA0158501656112000
B1142054958708N01130662EA0158501656113000
B1142094958650N01130745EA0158701656111000
B1142134958575N01130750EA0158601656113000
K114213298004
B1142174958529N01130666EA0159301664110000
B1142214958550N01130558EA0159701672119000
B1142254958616N01130508EA0160301672116000
B1142294958675N01130579EA0161101688115000
B1142334958670N01130695EA0161501688113004
K114233312005
B1142374958612N01130775EA0161501688111000
B1142414958537N01130783EA0161701688112000
B1142454958470N01130737EA0163401704111000
B1142494958445N01130641EA0164401720105000
B1142534958475N01130545EA0164601720109000
K114253314005
B1142574958500N01130441EA0164701720116004
B1143014958508N01130320EA0164801720121000
B1143054958491N01130195EA0163401712126004
B1143094958454N01130079EA0163401704124004
B1143134958379N01130029EA0162101696122000
K114313000010
B1143174958304N01130075EA0161401680125000
B1143214958266N01130187EA0160101672126004
B1143254958279N01130316EA0159601664125000
B1143294958337N01130412EA0158901656130004
B1143334958420N01130454EA0158701656134004
K114333000010
B1143374958504N01130479EA0159601664132000
B1143414958587N01130520EA0161101680124000
B1143454958650N01130600EA0162501696115004
B1143494958687N01130704EA0163101704111000
B1143534958683N01130820EA0163301704109000
K114353000010
B1143574958658N01130925EA0162701704108000
B1144014958612N01131020EA0162101696112000
B1144054958558N01131104EA0162201696117000
B1144094958491N01131166EA0162301696119000
B1144134958416N01131220EA0162301696118000
K114413000010
B1144174958341N01131250EA0162001696120004
B1144214958262N01131245EA0163001704115000
B1144254958204N01131195EA0163301704111004
B1144294958166N01131112EA0163201704108004
B1144334958162N01131012EA0163201704108000
K114433000010
B1144374958187N01130920EA0161901696103000
B1144414958245N01130854EA0160701680113000
B1144454958320N01130845EA0160801680110000
B1144494958383N01130908EA0163101704104000
B1144534958404N01131012EA0163601712103000
K114453000010
B1144574958391N01131120EA0163501704108004
B1145014958337N01131195EA0163701712109000
B1145054958270N01131179EA0163401712109000
B1145094958237N01131087EA0162101696113000
B1145134958270N01130991EA0161901696110000
K114513236007
B1145174958341N01130962EA0162001696116000
B1145214958404N01131020EA0164501720104000
B1145254958425N01131129EA0164801720104000
B1145294958387N01131229EA0164601720112000
B1145334958316N01131262EA0164701720109000
K114533250008
B1145374958254N01131216EA0164701720113000
B1145414958220N01131120EA0164601720110000
B1145454958233N01131016EA0163801712108004
B1145494958266N01130920EA0163201704112000
B1145534958304N01130829EA0164001712107004
K114553256006
B1145574958370N01130800EA0164701720106004
B1146014958433N01130854EA0164901720112004
B1146054958470N01130954EA0165501728107004
B1146094958479N01131070EA0166001736109000
B1146134958437N01131175EA0166601744106000
K114613256006
B1146174958370N01131208EA0166701744106000
B1146214958308N01131154EA0166901744108000
B1146254958279N01131058EA0167401744110000
B1146294958287N01130954EA0167601752106000
B1146334958337N01130891EA0167501752104000
K114633276006
B1146374958404N01130904EA0166701744115000
B1146414958450N01130995EA0167401752113000
B1146454958450N01131112EA0168201760106000
B1146494958400N01131208EA0168201760110000
B1146534958329N01131237EA0168501760109000
K114653312008
B1146574958262N01131195EA0168801768107000
B1147014958237N01131100EA0169001768107000
B1147054958266N01131012EA0169001768108000
B1147094958329N01130979EA0168301760112000
B1147134958400N01130995EA0168401760116000
K114713306011
B1147174958441N01131091EA0168901768107000
B1147214958400N01131195EA0168301760121000
B1147254958325N01131175EA0168001752122000
B1147294958308N01131062EA0168401760122004
B1147334958358N01130979EA0168801768113000
K114733250005
B1147374958433N01130983EA0168801768117004
B1147414958487N01131066EA0169501776113004
B1147454958500N01131179EA0170301784105000
B1147494958454N01131266EA0170301784106000
B1147534958379N01131258EA0169901776114000
K114753264009
B1147574958337N01131170EA0170401776112000
B1148014958341N01131058EA0170001784118000
B1148054958395N01130979EA0168301760134000
B1148094958483N01130995EA0168401760127004
B1148134958533N01131095EA0169001768119000
K114813278011
B1148174958529N01131225EA0169901776112004
B1148214958487N01131333EA0170301784112004
B1148254958420N01131391EA0170601784116000
B1148294958345N01131395EA0171201792107000
B1148334958279N01131345EA0170701784111000
K114833290013
B1148374958237N01131254EA0170301784113000
B1148414958229N01131145EA0170801784110000
B1148454958266N01131062EA0170901792102000
B1148494958325N01131004EA0169201768117000
B1148534958404N01131004EA0168301760121000
K114853288008
B1148574958470N01131070EA0168001752120000
B1149014958500N01131187EA0167801752120000
B1149054958479N01131312EA0167901752116004
B1149094958420N01131395EA0168201760112000
B1149134958350N01131404EA0168401760108004
K114913302008
B1149174958291N01131341EA0167501752107004
B1149214958262N01131245EA0166901744109000
B1149254958250N01131129EA0166301736118000
B1149294958245N01131008EA0164601728127000
B1149334958241N01130875EA0163701712132000
K114933300007
B1149374958266N01130745EA0163401704131000
B1149414958312N01130633EA0162601704130000
B1149454958375N01130537EA0162401704134000
B1149494958437N01130454EA0164001720125000
B1149534958495N01130375EA0164501720117004
K114953000010
B1149574958554N01130300EA0164701720110000
B1150014958616N01130220EA0164701720114004
B1150054958670N01130141EA0164301720114004
B1150094958729N01130058EA0163701712116000
B1150134958791N01129991EA0163701712116000
K115013000004
B1150174958858N01129933EA0163701712116004
B1150214958929N01129891EA0163101704122000
B1150254959000N01129850EA0162601696124000
B1150294959070N01129812EA0162601696116000
B1150334959137N01129770EA0163301704117000
K115033000010
B1150374959204N01129733EA0164001712115000
B1150414959275N01129708EA0165501728105004
B1150454959345N01129716EA0165601728104000
B1150494959412N01129770EA0165601728111000
B1150534959458N01129866EA0167401752106000
K115053000009
B1150574959470N01129979EA0167901752108000
B1151014959433N01130070EA0167001744108000
B1151054959362N01130095EA0166001736113000
B1151094959295N01130058EA0165901728109000
B1151134959245N01129979EA0165601728105000
K115113000009
B1151174959241N01129879EA0165601728107000
B1151214959275N01129791EA0165601736107004
B1151254959333N01129737EA0165601736110000
B1151294959404N01129745EA0166601744108000
B1151334959462N01129825EA0166901744109000
K115133248006
B1151374959487N01129950EA0167101752118004
B1151414959462N01130066EA0168401760112000
B1151454959408N01130150EA0168401760108004
B1151494959337N01130179EA0168401760109004
B1151534959270N01130141EA0167801752110000
K115153276007
B1151574959220N01130066EA0167801752106000
B1152014959204N01129966EA0167501752104000
B1152054959220N01129866EA0167301752108000
B1152094959262N01129787EA0167101752107000
B1152134959320N01129745EA0167101752108000
K115213274008
B1152174959391N01129741EA0167101752104000
B1152214959458N01129795EA0166901752108000
B1152254959504N01129900EA0167001744113000
B1152294959504N01130025EA0167401752110000
B1152334959462N01130129EA0167401752110000
K115233272010
B1152374959395N01130183EA0167401752109000
B1152414959325N01130175EA0167401752107000
B1152454959270N01130120EA0166701744107000
B1152494959233N01130025EA0165901736112000
B1152534959229N01129908EA0165301728115000
K115253266010
B1152574959270N01129816EA0165501736114000
B1153014959341N01129795EA0165901736108000
B1153054959408N01129841EA0165901736114000
B1153094959450N01129945EA0165901736115000
B1153134959458N01130070EA0165901736114000
K115313274007
B1153174959433N01130191EA0166101736112000
B1153214959366N01130295EA0166101736106000
B1153254959312N01130320EA0166001736104000
B1153294959245N01130295EA0164901728109000
B1153334959200N01130212EA0164001720111000
K115333000009
B1153374959191N01130100EA0163401704115000
B1153414959208N01129983EA0162601704117000
B1153454959250N01129883EA0162101696117000
B1153494959316N01129820EA0162501704110000
B1153534959387N01129825EA0163401712105004
K115353000009
B1153574959450N01129887EA0163201704110000
B1154014959483N01129995EA0162901704110000
B1154054959479N01130112EA0162601704109000
B1154094959445N01130208EA0162101696106000
B1154134959379N01130262EA0161401688109000
K115413000009
B1154174959304N01130262EA0160601680116000
B1154214959229N01130233EA0160601680115000
B1154254959170N01130170EA0161201688107000
B1154294959141N01130070EA0161201688106000
B1154334959145N01129966EA0160901680106000
K115433242003
B1154374959175N01129866EA0160201680109000
B1154414959220N01129779EA0160201672115000
B1154454959270N01129691EA0159101664126000
B1154494959329N01129600EA0158601656129000
B1154534959391N01129508EA0158501656130000
K115453000009
B1154574959454N01129408EA0159701664134004
B1155014959516N01129325EA0161501696121000
B1155054959575N01129250EA0162001696115000
B1155094959637N01129166EA0161101680127000
B1155134959691N01129066EA0161301688122000
K115513000005
B1155174959737N01128962EA0161501688121000
B1155214959783N01128854EA0161001680125000
B1155254959820N01128737EA0160501680127000
B1155294959866N01128620EA0160001672129000
B1155334959908N01128508EA0159101664133000
K115533000005
B1155374959945N01128383EA0158001648141004
B1155414959983N01128258EA0157601648142000
B1155455000016N01128137EA0157501648137004
B1155495000045N01128012EA0157501648134004
B1155535000066N01127891EA0157601648134004
K115553000013
B1155575000083N01127770EA0158201656129004
B1156015000108N01127662EA0159601672120004
B1156055000162N01127591EA0161001680117004
B1156095000229N01127554EA0161301688114004
B1156135000308N01127562EA0161301688114004
K115613000016
B1156175000379N01127633EA0161501688118004
B1156215000433N01127741EA0161701688120004
B1156255000450N01127866EA0164401712112000
B1156295000429N01127979EA0164401712108000
B1156335000370N01128045EA0162901704112004
K115633000016
B1156375000295N01128045EA0162101696117000
B1156415000229N01128000EA0162501704111000
B1156455000170N01127929EA0161701696118000
B1156495000120N01127825EA0160401680140000
B1156535000108N01127695EA0160401680143000
K115653000016
B1156575000154N01127583EA0160801680135004
B1157015000229N01127541EA0161601688128000
B1157055000312N01127579EA0162001696126004
B1157095000370N01127675EA0162801704124004
B1157135000395N01127795EA0163301712121004
K115713264010
B1157175000383N01127925EA0163701720122004
B1157215000337N01128029EA0165901728112004
B1157255000275N01128083EA0165901736111004
B1157295000200N01128083EA0165801728109000
B1157335000133N01128029EA0165801736114000
K115733272010
B1157375000091N01127933EA0165901736116004
B1157415000091N01127825EA0166701744112000
B1157455000133N01127737EA0166901744114000
B1157495000195N01127687EA0166901744114000
B1157535000270N01127670EA0166901744112004
K115753282008
B1157575000345N01127679EA0166901744116000
B1158015000420N01127716EA0167401752112000
B1158055000479N01127795EA0167901760109000
B1158095000516N01127900EA0166701744110000
B1158135000520N01128029EA0166301736119000
K115813274008
B1158175000479N01128141EA0165901728117000
B1158215000416N01128220EA0164901728120000
B1158255000345N01128266EA0164501720113004
B1158295000270N01128283EA0163101712113000
B1158335000191N01128266EA0162401696118000
K115833000016
B1158375000129N01128195EA0162401696120000
B1158415000091N01128095EA0163301712109000
B1158455000087N01127979EA0163601712115000
B1158495000116N01127879EA0164501720111000
B1158535000166N01127812EA0165101728107000
K115853000016
B1158575000229N01127787EA0165401728106004
B1159015000300N01127795EA0165501728109000
B1159055000370N01127841EA0166201736107004
B1159095000425N01127929EA0166501744111004
B1159135000437N01128050EA0166101736118000
K115913000016
B1159175000395N01128158EA0166301744115000
B1159215000333N01128225EA0166701744112000
B1159255000258N01128241EA0167101752115000
B1159295000183N01128229EA0168201760108000
B1159335000125N01128170EA0168201760113000
K115933288004
B1159375000095N01128075EA0169101768108004
B1159415000091N01127975EA0169101768109000
B1159455000125N01127887EA0168401760114000
B1159495000191N01127845EA0168301760112000
B1159535000266N01127854EA0168701768111000
K115953278009
B1159575000337N01127904EA0170401776110000
B1200015000395N01127975EA0171501792108000
B1200055000433N01128079EA0171201792112000
B1200095000437N01128200EA0170301784116000
B1200135000408N01128316EA0170401784113000
K120013276010
B1200175000358N01128412EA0169501776120000
B1200215000291N01128500EA0166601744132000
B1200255000212N01128575EA0165101728137004
B1200295000125N01128633EA0164601720133000
B1200335000037N01128683EA0164001712129004
K120033000016
B1200374959950N01128733EA0162601704138004
B1200414959858N01128783EA0161101688140004
B1200454959762N01128837EA0160201680151004
B1200494959670N01128895EA0160501680148004
B1200534959587N01128966EA0160701680141004
K120053000002
B1200574959512N01129041EA0160201680138004
B1201014959437N01129120EA0159301672135004
B1201054959366N01129212EA0157701656138004
B1201094959295N01129308EA0157101640133004
B1201134959212N01129370EA0157901656129004
K120113000001
B1201174959129N01129375EA0160201672120004
B1201214959062N01129329EA0162001696109004
B1201254959033N01129237EA0163001704107004
B1201294959066N01129137EA0162901704114004
B1201334959141N01129116EA0164401720115004
K120133000001
B1201374959204N01129187EA0165501736111004
B1201414959220N01129312EA0166301744113004
B1201454959183N01129420EA0167601752111000
B1201494959112N01129445EA0168201760110000
B1201534959054N01129370EA0168501760116000
K120153266009
B1201574959054N01129258EA0169601776112000
B1202014959091N01129158EA0170001784113000
B1202054959158N01129104EA0171101792117000
B1202094959233N01129108EA0172201808114000
B1202134959304N01129170EA0173001808116000
K120213256007
B1202174959354N01129279EA0173001808116000
B1202214959375N01129400EA0172301800118000
B1202254959329N01129495EA0171001792120004
B1202294959254N01129537EA0171701800114000
B1202334959183N01129537EA0172301800109004
K120233230005
B1202374959112N01129504EA0172401808108004
B1202414959062N01129425EA0172801808108000
B1202454959050N01129316EA0172801808109000
B1202494959087N01129220EA0173001816110000
B1202534959158N01129195EA0173901816111000
K120253246002
B1202574959229N01129254EA0175001832108000
B1203014959262N01129366EA0175701840109000
B1203054959254N01129491EA0175801840112000
B1203094959200N01129583EA0176001848117000
B1203134959120N01129616EA0176301848116000
K120313270006
B1203174959050N01129570EA0176101840118000
B1203214959020N01129462EA0175801840118000
B1203254959033N01129341EA0175801840116000
B1203294959083N01129245EA0176301848114004
B1203334959154N01129229EA0177501856110000
K120333252007
B1203374959225N01129287EA0177601856112000
B1203414959258N01129408EA0178401864115000
B1203454959254N01129537EA0179301872112004
B1203494959200N01129625EA0179301880112000
B1203534959129N01129645EA0179201872115000
K120353248006
B1203574959058N01129591EA0179201872116000
B1204014959020N01129495EA0178501864115000
B1204054959020N01129375EA0177901864118000
B1204094959045N01129262EA0178401864117000
B1204134959108N01129187EA0179301872115000
K120413242007
B1204174959183N01129158EA0180001880118000
B1204214959258N01129208EA0180701888119000
B1204254959312N01129308EA0180901896120004
B1204294959333N01129437EA0181301896117000
B1204334959320N01129562EA0181401896116004
K120433246006
B1204374959266N01129662EA0180801888121004
B1204414959191N01129712EA0180101880125004
B1204454959108N01129704EA0179901880123004
B1204494959045N01129633EA0179601880126004
B1204534959029N01129512EA0179501872126004
K120453236007
B1204574959050N01129391EA0179301872125000
B1205014959100N01129295EA0180201888117000
B1205054959166N01129241EA0180601888118004
B1205094959245N01129250EA0180601888117000
B1205134959312N01129329EA0180401888123000
K120513242008
B1205174959350N01129441EA0181301896113000
B1205214959358N01129566EA0181701896112000
B1205254959341N01129687EA0180801888116000
B1205294959287N01129783EA0179901880120000
B1205334959216N01129833EA0179601880119000
K120533242008
B1205374959137N01129845EA0179301872115004
B1205414959058N01129820EA0178801864121000
B1205454958995N01129754EA0178001864120000
B1205494958954N01129650EA0177701856120000
B1205534958941N01129533EA0176901848122004
K120553252007
B1205574958945N01129412EA0176301840122000
B1206014958970N01129295EA0176201840121000
B1206054959012N01129191EA0176301840123000
B1206094959070N01129100EA0176101840123004
B1206134959145N01129029EA0174601824132000
K120613000001
B1206174959225N01128954EA0174101816137004
B1206214959295N01128875EA0173901816128004
B1206254959366N01128791EA0173201808138004
B1206294959445N01128720EA0173301808134004
B1206334959520N01128658EA0173501816132004
K120633000006
B1206374959591N01128595EA0173801816126004
B1206414959658N01128520EA0173701816131004
B1206454959725N01128445EA0173701816128004
B1206494959791N01128370EA0172701808130000
B1206534959862N01128295EA0172601800132000
K120653000010
B1206574959937N01128225EA0172001800137000
B1207015000020N01128175EA0172501808136000
B1207055000083N01128108EA0174401824120000
B1207095000095N01128000EA0173901824119000
B1207135000075N01127887EA0173201808123004
K120713000009
B1207175000033N01127783EA0171601800129000
B1207214959979N01127675EA0170201776134000
B1207254959937N01127554EA0169801776138000
B1207294959941N01127420EA0171601792134000
B1207335000008N01127366EA0173301808117000
K120733000009
B1207375000079N01127416EA0174201824114004
B1207415000095N01127537EA0174401824114000
B1207455000045N01127629EA0174501824115000
B1207494959970N01127616EA0175201832114000
B1207534959929N01127520EA0175401840116000
K120753000009
B1207574959950N01127420EA0175901840112000
B1208015000012N01127375EA0176801848110000
B1208055000079N01127420EA0177501856111000
B1208095000112N01127525EA0177901864111000
B1208135000083N01127633EA0177901864112000
K120813276005
B1208175000016N01127691EA0177901864113000
B1208214959941N01127675EA0178101864111000
B1208254959895N01127591EA0178401864108000
B1208294959895N01127487EA0178401864108000
B1208334959929N01127400EA0178101856109000
K120833296004
B1208375000000N01127366EA0178101864113000
B1208415000062N01127425EA0179101872113004
B1208455000087N01127541EA0179301872118000
B1208495000058N01127662EA0179701880118000
B1208534959987N01127725EA0179801880118000
K120853296005
B1208574959912N01127700EA0180301888114000
B1209014959866N01127612EA0180301888116000
B1209054959866N01127500EA0179301872121000
B1209094959920N01127412EA0177801856131000
B1209135000004N01127383EA0177201856136000
K120913296009
B1209175000095N01127425EA0177201848145000
B1209215000162N01127541EA0176901848148004
B1209255000170N01127695EA0177601856145000
B1209295000133N01127841EA0177201856150004
B1209335000066N01127966EA0176701848151004
K120933296009
B1209375000016N01128104EA0175901840150004
B1209415000000N01128262EA0175701832148004
B1209454959975N01128416EA0175701840145004
B1209494959945N01128566EA0175701832139004
B1209534959920N01128712EA0175101832139004
K120953180002
B1209574959895N01128862EA0174601824140004
B1210014959870N01129012EA0174101824139004
B1210054959854N01129162EA0174101816137004
B1210094959820N01129304EA0173201808137004
B1210134959766N01129429EA0171601792142004
K121013180004
B1210174959691N01129541EA0170701784146004
B1210214959608N01129641EA0169901776151004
B1210254959520N01129737EA0169401768154004
B1210294959441N01129829EA0170001776147004
B1210334959362N01129912EA0170501784135004
K121033180002
B1210374959287N01129991EA0170901784132004
B1210414959212N01130054EA0172001800123004
B1210454959137N01130083EA0172801808115004
B1210494959058N01130066EA0173001808115000
B1210534958995N01130008EA0173701816109000
K121053180002
B1210574958950N01129916EA0173201808111000
B1211014958937N01129808EA0173201808109000
B1211054958950N01129704EA0173201808108000
B1211094958987N01129608EA0173301808108000
B1211134959041N01129533EA0173701816113000
K121113180002
B1211174959108N01129533EA0173801816105000
B1211214959162N01129604EA0171801800114000
B1211254959200N01129716EA0170201784123000
B1211294959212N01129845EA0169901776120000
B1211334959187N01129970EA0170401784116000
K121133180002
B1211374959129N01130054EA0171901792111000
B1211414959062N01130075EA0172501808103000
B1211454958995N01130037EA0172401800103000
B1211494958950N01129958EA0171301792111000
B1211534958929N01129850EA0170701784112000
K121153312006
B1211574958933N01129737EA0170001776107000
B1212014958962N01129629EA0169401768119000
B1212054959020N01129545EA0168601760130000
B1212094959091N01129479EA0166901744131004
B1212134959170N01129433EA0164901728141000
K121213314007
B1212174959266N01129404EA0164101712148004
B1212214959362N01129370EA0165001728147004
B1212254959437N01129295EA0167101744135004
B1212294959470N01129187EA0168801760115004
B1212334959450N01129070EA0168801760120004
K121233180002
B1212374959383N01129008EA0168801768122004
B1212414959300N01129012EA0168901768122004
B1212454959241N01129095EA0169301768118004
B1212494959237N01129220EA0169301768124004
B1212534959300N01129283EA0169601776119004
K121253180002
B1212574959366N01129229EA0170401784119000
B1213014959358N01129116EA0170501784117000
B1213054959287N01129050EA0170501784121004
B1213094959212N01129095EA0170801784120000
B1213134959195N01129220EA0170501784126004
K121313344006
B1213174959250N01129312EA0170901792120004
B1213214959325N01129312EA0171901792120004
B1213254959383N01129245EA0172501800117004
B1213294959379N01129133EA0172801800113004
B1213334959329N01129050EA0172301800118004
K121333350004
B1213374959245N01129054EA0172301800120004
B1213414959183N01129137EA0172301800114004
B1213454959162N01129258EA0171501792123000
B1213494959187N01129375EA0171301792121000
B1213534959250N01129450EA0170801784123000
K121353330006
B1213574959325N01129450EA0171201784122000
B1214014959387N01129383EA0171501792120004
B1214054959412N01129270EA0171601792119000
B1214094959404N01129141EA0171601792128004
B1214134959350N01129041EA0172001800124004
K121413342005
B1214174959266N01129012EA0172401800121000
B1214214959195N01129058EA0172801808115000
B1214254959145N01129154EA0172001800116000
B1214294959145N01129279EA0170901792123000
B1214334959195N01129370EA0170801784124000
K121433358005
B1214374959270N01129429EA0170701784126000
B1214414959350N01129420EA0171901800118004
B1214454959404N01129345EA0172801808114000
B1214494959433N01129237EA0173701816111004
B1214534959412N01129125EA0173801816115004
K121453018003
B1214574959345N01129070EA0173801816114004
B1215014959270N01129087EA0173801816108004
B1215054959208N01129166EA0173201808111000
B1215094959183N01129279EA0173301816107000
B1215134959208N01129387EA0173401816109000
K121513326005
B1215174959270N01129441EA0173501816107000
B1215214959337N01129429EA0173701816111000
B1215254959391N01129358EA0174701824111000
B1215294959433N01129275EA0175501840105000
B1215334959470N01129187EA0175501832108000
K121533324007
B1215374959512N01129104EA0174801832109004
B1215414959554N01129012EA0173901824110000
B1215454959587N01128908EA0171801792126000
B1215494959620N01128791EA0170301784133000
B1215534959662N01128675EA0171501792126000
K121553000013
B1215574959695N01128566EA0171501792122000
B1216014959737N01128458EA0170301784129000
B1216054959783N01128354EA0169901776131000
B1216094959837N01128254EA0169401768131000
B1216134959904N01128179EA0168801768130000
K121613000013
B1216174959983N01128137EA0169101768126004
B1216215000062N01128137EA0169901776114000
B1216255000133N01128179EA0170101784111004
B1216295000187N01128262EA0170101776111004
B1216335000220N01128370EA0170101784107004
K121633000013
B1216375000216N01128491EA0170401784106004
B1216415000179N01128595EA0170201776109000
B1216455000112N01128641EA0170001776107000
B1216495000045N01128620EA0169501768107000
B1216534959983N01128562EA0169401768107000
K121653000013
B1216574959925N01128508EA0169401776106000
B1217014959887N01128425EA0169401768107000
B1217054959891N01128329EA0169101768108000
B1217094959933N01128250EA0168601760107000
B1217134959995N01128212EA0168601760105000
K121713000013
B1217175000070N01128208EA0168001760108000
B1217215000141N01128245EA0168001752113000
B1217255000191N01128341EA0167501752108000
B1217295000191N01128462EA0167501752109000
B1217335000145N01128558EA0166901744111000
K121733000013
B1217375000075N01128612EA0166401736117000
B1217414959995N01128616EA0166101736118000
B1217454959929N01128554EA0166201736114000
B1217494959891N01128458EA0166501744111000
B1217534959887N01128345EA0166101736122000
K121753274009
B1217574959908N01128229EA0164501728130000
B1218014959945N01128104EA0163801712139000
B1218054959979N01127975EA0164401720131000
B1218094959991N01127845EA0166101736123004
B1218134959966N01127733EA0167901752108000
K121813000013
B1218174959908N01127666EA0168401760107004
B1218214959829N01127679EA0167801752112004
B1218254959779N01127775EA0167801752114000
B1218294959783N01127891EA0168401760109000
B1218334959845N01127962EA0168901760118000
K121833000013
B1218374959912N01127912EA0169901776113000
B1218414959912N01127800EA0169901776120000
B1218454959845N01127754EA0170401784116000
B1218494959779N01127820EA0170501784115000
B1218534959750N01127945EA0170001776123000
K121853274007
B1218574959779N01128075EA0170001784122000
B1219014959845N01128141EA0171501792119000
B1219054959920N01128108EA0172801808112000
B1219094959950N01128012EA0172901816111000
B1219134959916N01127908EA0172601808124000
K121913248007
B1219174959841N01127895EA0173501816117000
B1219214959787N01127983EA0174201824112000
B1219254959795N01128104EA0174201824116000
B1219294959870N01128162EA0173901824122000
B1219334959945N01128116EA0174501824120000
K121933262004
B1219374959987N01128016EA0174701832119000
B1219414959970N01127900EA0175501840116000
B1219454959904N01127841EA0175701840115000
B1219494959829N01127866EA0176201848111000
B1219534959775N01127954EA0176301848109000
K121953332002
B1219574959750N01128066EA0176801848106000
B1220014959762N01128183EA0177201856104000
B1220054959812N01128270EA0177201856109000
B1220094959879N01128308EA0178101856110000
B1220134959950N01128287EA0179801880101000
K122013270005
B1220175000004N01128220EA0180001888103000
B1220215000033N01128116EA0179601880110000
B1220255000029N01128004EA0178601872113000
B1220294959987N01127904EA0178501864115000
B1220334959925N01127841EA0178501872108000
K122033264005
B1220374959850N01127833EA0178501864112000
B1220414959779N01127879EA0177401856118000
B1220454959725N01127979EA0176301848125000
B1220494959695N01128112EA0175401840130000
B1220534959691N01128262EA0174701824135000
K122053238003
B1220574959700N01128412EA0174301824137000
B1221014959733N01128550EA0174801824135000
B1221054959791N01128645EA0177601856120000
B1221094959858N01128683EA0178701872106000
B1221134959925N01128666EA0178301864109004
K122113000013
B1221174959983N01128595EA0177801856112000
B1221215000012N01128491EA0178101864108000
B1221255000016N01128375EA0177901864115000
B1221294959966N01128291EA0177901864116000
B1221334959891N01128291EA0178401864111000
K122133260005
B1221374959845N01128391EA0177801864115000
B1221414959883N01128508EA0177201856123000
B1221454959958N01128516EA0178401864113000
B1221495000012N01128437EA0178901872106000
B1221535000004N01128329EA0178601872113000
K122153246002
B1221574959954N01128245EA0178701872113000
B1222014959879N01128220EA0178601872112000
B1222054959804N01128258EA0178701872113000
B1222094959754N01128354EA0178801872113000
B1222134959729N01128470EA0178801872111000
K122213276003
B1222174959737N01128595EA0178501864114000
B1222214959766N01128708EA0178501864115000
B1222254959812N01128795EA0179101872109000
B1222294959875N01128845EA0179501880105000
B1222334959945N01128858EA0179501880105004
K122233270006
B1222375000020N01128837EA0179201872115000
B1222415000083N01128770EA0180401888111004
B1222455000112N01128666EA0180401888115004
B1222495000120N01128550EA0180101880117004
B1222535000104N01128441EA0180101880106004
K122253278005
B1222575000050N01128375EA0179601880107004
B1223014959983N01128354EA0179501872107004
B1223054959912N01128387EA0178801872109000
B1223094959858N01128466EA0178601872109000
B1223134959829N01128575EA0178801864104000
K122313000013
B1223174959816N01128691EA0178101864105000
B1223214959829N01128812EA0177800000111000
B1223254959908N01128870EA0178401864103000
B1223294959975N01128866EA0178501864103000
B1223335000029N01128791EA0178101864109000
K122333000013
B1223375000045N01128687EA0177901856110000
B1223415000037N01128579EA0177901856111000
B1223455000004N01128483EA0177901864106000
B1223494959945N01128429EA0177901856107000
B1223534959875N01128429EA0177401856107000
K122353000013
B1223574959812N01128491EA0176701848112000
B1224014959770N01128600EA0175901840114000
B1224054959745N01128725EA0174901824115000
B1224094959720N01128845EA0174401824115000
B1224134959695N01128979EA0173201808123000
K122413000013
B1224174959658N01129112EA0172601800124000
B1224214959620N01129241EA0173701816125000
B1224254959579N01129358EA0174901832117004
B1224294959537N01129470EA0174201824120000
B1224334959508N01129604EA0173201808127000
K122433180006
B1224374959508N01129745EA0173201808130000
B1224414959545N01129866EA0173801816121000
B1224454959612N01129941EA0173901816116000
B1224494959687N01129962EA0174701824111000
B1224534959754N01129933EA0174901832107000
K122453180005
B1224574959795N01129858EA0175401840103000
B1225014959795N01129766EA0175601840101000
B1225054959754N01129687EA0174701824105000
B1225094959691N01129641EA0174301824107000
B1225134959620N01129637EA0174301824105000
K122513180005
B1225174959554N01129679EA0174301824107000
B1225214959500N01129766EA0174301824108000
B1225254959487N01129879EA0174301824106000
B1225294959525N01129970EA0174201824104000
B1225334959595N01129995EA0173201808108000
K122533272009
B1225374959670N01129975EA0172101800117000
B1225414959741N01129933EA0172101800124000
B1225454959791N01129850EA0172301808116000
B1225494959820N01129750EA0171501800117000
B1225534959858N01129645EA0170301784120000
K122553284009
B1225574959916N01129554EA0170301784120000
B1226014959975N01129458EA0170301784129000
B1226054959991N01129341EA0172001800120000
B1226094959945N01129250EA0172201800116000
B1226134959870N01129216EA0172301808116000
K122613180005
B1226174959795N01129241EA0173001808113000
B1226214959733N01129325EA0173301816112000
B1226254959716N01129450EA0173301816111000
B1226294959754N01129562EA0173801816116000
B1226334959829N01129595EA0174501832116000
K122633180005
B1226374959895N01129541EA0175001832115000
B1226414959916N01129433EA0175501832116000
B1226454959879N01129337EA0176201840117000
B1226494959808N01129304EA0176301848110000
B1226534959733N01129350EA0176301840112000
K122653280011
B1226574959683N01129445EA0176701848104000
B1227014959662N01129566EA0176601848106000
B1227054959687N01129683EA0177001848110000
B1227094959750N01129741EA0177601856108000
B1227134959820N01129733EA0177601856106000
K122713284011
B1227174959870N01129658EA0177201856109000
B1227214959891N01129550EA0177501856113000
B1227254959862N01129454EA0177901864113000
B1227294959800N01129404EA0178201864109000
B1227334959725N01129412EA0178101864108000
K122733284010
B1227374959654N01129466EA0177901856108000
B1227414959600N01129562EA0177601856109000
B1227454959575N01129683EA0177401856110000
B1227494959591N01129804EA0177401856113000
B1227534959650N01129879EA0177201856111000
K122753290009
B1227574959720N01129887EA0176901848110000
B1228014959787N01129837EA0176301848109000
B1228054959837N01129754EA0175901840112000
B1228094959866N01129650EA0176201840116000
B1228134959858N01129537EA0176301848120000
K122813288008
B1228174959808N01129466EA0176701848110000
B1228214959737N01129475EA0176601848109000
B1228254959687N01129566EA0176601848105000
B1228294959670N01129691EA0176401848111000
B1228334959691N01129816EA0176501848111000
K122833274008
B1228374959741N01129900EA0176801856110000
B1228414959816N01129920EA0176801848110000
B1228454959879N01129879EA0176701848107000
B1228494959925N01129791EA0176701848107000
B1228534959937N01129691EA0176801848112000
K122853270010
B1228574959920N01129591EA0177001856110000
B1229014959866N01129525EA0177001856112000
B1229054959795N01129525EA0176601848110000
B1229094959729N01129583EA0176401848110000
B1229134959691N01129687EA0176801848103000
K122913262010
B1229174959683N01129808EA0177201856100000
B1229214959716N01129920EA0176901848107000
B1229254959783N01129979EA0176801848108000
B1229294959850N01129962EA0176701848109000
B1229334959904N01129887EA0176401848111000
K122933262012
B1229374959941N01129791EA0175401840114000
B1229414959975N01129683EA0174601824123000
B1229455000000N01129566EA0174801824119000
B1229495000016N01129450EA0174401824124000
B1229535000020N01129325EA0174401824123000
K122953180005
B1229575000020N01129208EA0175001832121000
B1230015000000N01129091EA0174801832126000
B1230054959958N01128987EA0174601824124000
B1230094959895N01128912EA0174201824123000
B1230134959820N01128883EA0174201824117000
K123013180005
B1230174959741N01128904EA0174401824113000
B1230214959683N01128983EA0175301832111000
B1230254959679N01129095EA0175901840107000
B1230294959733N01129170EA0175901840106000
B1230334959804N01129183EA0175901840105000
K123033180005
B1230374959870N01129133EA0175801840110000
B1230414959883N01129037EA0176301848102004
B1230454959833N01128975EA0175401840108000
B1230494959766N01128995EA0175101832106000
B1230534959725N01129087EA0175301832102000
K123053242007
B1230574959729N01129204EA0175401832108000
B1231014959770N01129295EA0176201848098000
B1231054959833N01129350EA0175701840101000
B1231094959904N01129358EA0174701832104000
B1231134959966N01129300EA0174101824107000
K123113236011
B1231174959983N01129191EA0172801808119000
B1231214959966N01129075EA0171301800128000
B1231254959937N01128958EA0170001784134000
B1231294959895N01128845EA0168901768135000
B1231334959854N01128725EA0168001760135000
K123133246011
B1231374959812N01128600EA0166601744141000
B1231414959775N01128470EA0165801736143000
B1231454959733N01128345EA0167001744140004
B1231494959695N01128229EA0169301760125000
B1231534959645N01128133EA0171101784116004
K123153000005
B1231574959570N01128104EA0172801808102004
B1232014959508N01128166EA0173901816103004
B1232054959495N01128279EA0174801824110004
B1232094959533N01128366EA0174901832106004
B1232134959600N01128391EA0174701824107004
K123213000006
B1232174959662N01128354EA0174701824107004
B1232214959708N01128279EA0174701832107004
B1232254959720N01128175EA0175201832107000
B1232294959687N01128079EA0175301832106000
B1232334959616N01128037EA0175001832115000
K123233338007
B1232374959545N01128075EA0175401832114000
B1232414959504N01128179EA0176301840117000
B1232454959520N01128295EA0177301856117000
B1232494959587N01128337EA0178201864109000
B1232534959650N01128287EA0178901872110000
K123253308003
B1232574959670N01128183EA0180201880106000
B1233014959645N01128087EA0180301888107000
B1233054959579N01128041EA0180401888108000
B1233094959508N01128066EA0180601888110000
B1233134959462N01128158EA0180701888113000
K123313302002
B1233174959445N01128266EA0181701896112000
B1233214959491N01128379EA0181700000114000
B1233254959558N01128420EA0181701896112000
B1233294959629N01128391EA0181901896112000
B1233334959675N01128304EA0182101904110000
K123333000006
B1233374959675N01128191EA0182801912110000
B1233414959620N01128120EA0183101920108000
B1233454959550N01128120EA0183801928104000
B1233494959495N01128195EA0184101928105000
B1233534959479N01128304EA0184701928110000
K123353000006
B1233574959512N01128400EA0185301936108000
B1234014959579N01128429EA0185401936107000
B1234054959637N01128379EA0185301936108000
B1234094959666N01128279EA0185401944106000
B1234134959658N01128166EA0185401944110000
K123413006004
B1234174959608N01128079EA0185701944112000
B1234214959533N01128075EA0185701936112000
B1234254959466N01128129EA0185601944110000
B1234294959420N01128225EA0186101952107000
B1234334959408N01128333EA0186301952109000
K123433004004
B1234374959416N01128441EA0186801952105000
B1234414959450N01128529EA0186301952105000
B1234454959516N01128566EA0185501944107000
B1234494959587N01128541EA0185201936109000
B1234534959650N01128470EA0185301936116000
K123453000002
B1234574959687N01128375EA0186101952108000
B1235014959695N01128262EA0186101944109000
B1235054959662N01128162EA0186101944111000
B1235094959595N01128112EA0186301952107000
B1235134959525N01128125EA0185701944108000
K123513010002
B1235174959462N01128187EA0185201936107000
B1235214959416N01128275EA0185101936113000
B1235254959395N01128387EA0184801936117000
B1235294959395N01128500EA0184801936112000
B1235334959395N01128616EA0184801936110000
K123533054002
B1235374959400N01128729EA0185101936109000
B1235414959400N01128850EA0185301944111000
B1235454959395N01128970EA0186801952107000
B1235494959391N01129087EA0186701960105000
B1235534959408N01129204EA0185701944115000
K123553180001
B1235574959445N01129304EA0185501936112000
B1236014959504N01129379EA0185201936109000
B1236054959570N01129433EA0184601928111000
B1236094959625N01129520EA0184101928107000
B1236134959625N01129637EA0183301920111000
K123613180001
B1236174959579N01129733EA0183001912110000
B1236214959520N01129812EA0182801912106000
B1236254959479N01129920EA0182801912106000
B1236294959495N01130045EA0182801912109000
B1236334959558N01130095EA0183801920099000
K123633180001
B1236374959616N01130066EA0183901928095000
B1236414959654N01129995EA0183001912104000
B1236454959666N01129904EA0182701912107000
B1236494959670N01129800EA0182901912105000
B1236534959658N01129700EA0183201912106000
K123653180001
B1236574959645N01129600EA0183201920103000
B1237014959629N01129500EA0182201904108000
B1237054959616N01129391EA0181101896112000
B1237094959616N01129279EA0180601888114000
B1237134959620N01129162EA0180801888113000
K123713000011
B1237174959629N01129050EA0181901904110000
B1237214959620N01128937EA0182301904112000
B1237254959600N01128825EA0182901912114000
B1237294959558N01128725EA0183101912114000
B1237334959500N01128650EA0183701920110000
K123733000008
B1237374959429N01128608EA0183801928110000
B1237414959354N01128620EA0184801928106000
B1237454959304N01128695EA0185601944100000
B1237494959283N01128795EA0185801944102000
B1237534959295N01128908EA0186101944104000
K123753000008
B1237574959341N01129000EA0186901952104000
B1238014959404N01129037EA0187301960107000
B1238054959475N01129008EA0188201968106000
B1238094959525N01128929EA0188801976109000
B1238134959541N01128820EA0189401984109000
K123813000008
B1238174959516N01128716EA0189701984109000
B1238214959454N01128662EA0189701984111000
B1238254959379N01128658EA0189801984106000
B1238294959312N01128708EA0189901984108000
B1238334959262N01128795EA0190301992107000
K123833292003
B1238374959233N01128900EA0190301992107000
B1238414959225N01129020EA0190901992108000
B1238454959225N01129141EA0191802000103000
B1238494959200N01129254EA0191902008111000
B1238534959145N01129337EA0191202000105000
K123853000008
B1238574959070N01129375EA0188801976115000
B1239014958987N01129391EA0186601952126000
B1239054958895N01129400EA0185801944128000
B1239094958808N01129425EA0185301936131000
B1239134958716N01129450EA0184301928134000
K123913000008
B1239174958625N01129491EA0183501920137000
B1239214958537N01129537EA0183201920132000
B1239254958450N01129587EA0182101904136000
B1239294958366N01129650EA0181701896136000
B1239334958291N01129737EA0182201904128000
K123933180002
B1239374958225N01129820EA0183701920118000
B1239414958150N01129816EA0184901928113000
B1239454958116N01129716EA0184901936112004
B1239494958141N01129612EA0184501928113000
B1239534958212N01129566EA0184101920119000
K123953180004
B1239574958287N01129604EA0184301928116000
B1240014958337N01129691EA0185101936115000
B1240054958387N01129775EA0184801936115000
B1240094958458N01129829EA0182601920123000
B1240134958545N01129833EA0180101888138000
K124013180004
B1240174958637N01129800EA0178601872147000
B1240214958729N01129750EA0177601856151000
B1240254958820N01129695EA0176701848157000
B1240294958912N01129637EA0177201856151000
B1240334959000N01129583EA0177401856150000
K124033000013
B1240374959087N01129537EA0177201848150000
B1240414959175N01129495EA0176901848144004
B1240454959262N01129454EA0176201840144000
B1240494959345N01129404EA0176801848141004
B1240534959429N01129345EA0178901864131004
K124053000011
B1240574959495N01129262EA0181101896124004
B1241014959508N01129154EA0183101912109004
B1241054959454N01129091EA0183401920102004
B1241094959383N01129129EA0183401920109004
B1241134959345N01129233EA0184601928108000
K124113000007
B1241174959370N01129345EA0184701928108000
B1241214959433N01129391EA0185701936109000
B1241254959500N01129350EA0185901944110000
B1241294959529N01129250EA0186301952111000
B1241334959525N01129145EA0186601952107000
K124133282006
B1241374959487N01129054EA0186901952110000
B1241414959429N01128987EA0188701968107000
B1241454959358N01128954EA0188601968112000
B1241494959279N01128958EA0188701968112000
B1241534959204N01129004EA0188901976113000
K124153304007
B1241574959150N01129095EA0188901976111000
B1242014959137N01129212EA0189201976110000
B1242054959166N01129312EA0189901984108000
B1242094959220N01129370EA0190701992106000
B1242134959291N01129391EA0191402000112000
K124213316007
B1242174959358N01129358EA0192302008109000
B1242214959412N01129287EA0194102024104000
B1242254959445N01129187EA0193802024111000
B1242294959445N01129070EA0194202032118000
B1242334959420N01128954EA0194802040118000
K124233324006
B1242374959395N01128837EA0192202016132000
B1242414959358N01128704EA0189001976149000
B1242454959308N01128554EA0186201952165000
B1242494959254N01128400EA0185501936172000
B1242534959200N01128245EA0186701952161000
K124253000007
B1242574959145N01128104EA0187101960153004
B1243014959095N01127962EA0185301936163000
B1243054959037N01127816EA0185901944159004
B1243094958987N01127683EA0186401960150004
B1243134958933N01127545EA0186101960156004
K124313000008
B1243174958883N01127416EA0186301952151004
B1243214958829N01127295EA0187201968141004
B1243254958779N01127170EA0186601960142004
B1243294958729N01127041EA0186101960142004
B1243334958675N01126908EA0183701936155004
K124333000011
B1243374958620N01126762EA0182001904164004
B1243414958562N01126612EA0181101896164004
B1243454958508N01126462EA0180801896164004
B1243494958450N01126312EA0179901888166004
B1243534958391N01126162EA0179301880167004
K124353000005
B1243574958329N01126016EA0178101872169004
B1244014958270N01125862EA0177201856168004
B1244054958208N01125708EA0176701848168004
B1244094958150N01125558EA0176201848168004
B1244134958091N01125404EA0175701840169004
K124413000002
B1244174958025N01125254EA0175401840166004
B1244214957962N01125108EA0174801832167004
B1244254957895N01124966EA0174701832167004
B1244294957829N01124833EA0175001832161004
B1244334957758N01124708EA0175001832160004
K124433000002
B1244374957695N01124575EA0173901824161004
B1244414957637N01124433EA0173201816164004
B1244454957595N01124287EA0174801824152004
B1244494957562N01124145EA0176701848140004
B1244534957533N01124016EA0176201848136004
K124453000002
B1244574957512N01123870EA0173901824149004
B1245014957495N01123716EA0172701808155004
B1245054957475N01123558EA0171901800157004
B1245094957458N01123395EA0171301792160004
B1245134957441N01123237EA0170901784159004
K124513000008
B1245174957420N01123079EA0169901776161004
B1245214957395N01122916EA0168901768161004
B1245254957370N01122754EA0168801768162004
B1245294957345N01122595EA0168801760158004
B1245334957320N01122437EA0168301760156004
K124533000006
B1245374957295N01122283EA0167801752160004
B1245414957275N01122125EA0167501752160004
B1245454957258N01121970EA0167501752157004
B1245494957245N01121820EA0167601752154004
B1245534957229N01121670EA0168401760151004
K124553000010
B1245574957208N01121529EA0168401760149004
B1246014957179N01121383EA0167801752153004
B1246054957141N01121237EA0166101744157004
B1246094957095N01121091EA0164801728168004
B1246134957037N01120958EA0165101728162004
K124613000012
B1246174956970N01120829EA0164001712163004
B1246214956904N01120704EA0163401712158004
B1246254956829N01120587EA0163401712155004
B1246294956754N01120475EA0162701704159004
B1246334956679N01120362EA0162601704156004
K124633000006
B1246374956608N01120245EA0161701696159004
B1246414956533N01120125EA0160901680161004
B1246454956462N01120008EA0160601680162004
B1246494956395N01119887EA0160701688158004
B1246534956333N01119762EA0160001680160004
K124653000008
B1246574956270N01119637EA0159601672158004
B1247014956208N01119516EA0159301672156004
B1247054956145N01119387EA0158801664155004
B1247094956087N01119258EA0158601656156004
B1247134956025N01119133EA0159201664156004
K124713000007
B1247174955962N01119012EA0159201672155004
B1247214955900N01118895EA0159201672152004
B1247254955841N01118779EA0157101656157004
B1247294955783N01118645EA0156601640159004
B1247334955733N01118512EA0156201632157004
K124733000011
B1247374955683N01118379EA0156301640151004
B1247414955633N01118245EA0156101640150004
B1247454955587N01118116EA0155201624154004
B1247494955537N01117979EA0154801624152004
B1247534955491N01117845EA0154601616151004
K124753000009
B1247574955441N01117712EA0153801616152004
B1248014955395N01117579EA0152801600155004
B1248054955350N01117441EA0152501592158004
B1248094955304N01117308EA0152701600147004
B1248134955266N01117179EA0153201608149004
K124813000009
B1248174955220N01117050EA0154401616140004
B1248214955170N01116933EA0155701624133004
B1248254955125N01116833EA0157201648119004
B1248294955091N01116725EA0157901656118004
B1248334955075N01116608EA0157801656117000
K124833000003
B1248374955050N01116491EA0157101648123000
B1248414955012N01116375EA0156101640129004
B1248454954975N01116250EA0154301616136000
B1248494954937N01116112EA0153401608143004
B1248534954912N01115970EA0152801600147004
K124853000007
B1248574954891N01115829EA0152601600149004
B1249014954870N01115691EA0152201592152004
B1249054954850N01115550EA0151001584158004
B1249094954825N01115404EA0150301576162004
B1249134954800N01115262EA0149701568157004
K124913000018
B1249174954775N01115125EA0149001560156004
B1249214954745N01114983EA0148301552155004
B1249254954712N01114841EA0147501552154004
B1249294954675N01114700EA0146701536153004
B1249334954633N01114566EA0147701552148004
K124933000012
B1249374954591N01114441EA0150301568141004
B1249414954570N01114320EA0151901592127004
B1249454954554N01114200EA0151201584133004
B1249494954533N01114070EA0151501584139004
B1249534954516N01113945EA0152501600132000
K124953000013
B1249574954495N01113829EA0152201600129000
B1250014954475N01113700EA0150501576141004
B1250054954454N01113566EA0149101568149000
B1250094954433N01113425EA0147801552150004
B1250134954412N01113279EA0146601544153004
K125013000015
B1250174954391N01113129EA0146701536151004
B1250214954375N01112987EA0146701536146004
B1250254954350N01112845EA0146001528147004
B1250294954316N01112708EA0145501528151004
B1250334954283N01112570EA0145001520148004
K125033000010
B1250374954250N01112437EA0144501512149004
B1250414954229N01112295EA0143901512149004
B1250454954200N01112158EA0143301504149004
B1250494954162N01112020EA0142801504148004
B1250534954129N01111879EA0143401504147004
K125053000009
B1250574954104N01111750EA0146701536123004
B1251014954095N01111637EA0148501552111004
B1251054954137N01111562EA0150001568103004
B1251094954200N01111566EA0148801560110004
B1251134954237N01111670EA0148501552116004
K125113000003
B1251174954204N01111787EA0149401568116004
B1251214954137N01111858EA0150901576106000
B1251254954058N01111870EA0151301592106000
B1251294953995N01111820EA0151401584111004
B1251334953950N01111733EA0149701568116000
K125133000003
B1251374953920N01111620EA0147901552130000
B1251414953891N01111495EA0146401536138000
B1251454953858N01111366EA0145201528145000
B1251494953820N01111233EA0145501528145000
B1251534953775N01111112EA0146601536137004
K125153000003
B1251574953725N01111000EA0147601544130000
B1252014953679N01110883EA0147701552131004
B1252054953637N01110762EA0147701552135004
B1252094953604N01110645EA0150001568128004
B1252134953575N01110545EA0150801584115004
K125213000004
B1252174953537N01110445EA0149201568124004
B1252214953495N01110333EA0148301560137004
B1252254953450N01110212EA0147101552141000
B1252294953408N01110083EA0146101536145000
B1252334953370N01109950EA0145101528146004
K125233000010
B1252374953333N01109816EA0144701520146000
B1252414953304N01109679EA0144501520148000
B1252454953258N01109550EA0143601512151000
B1252494953195N01109429EA0143001504158004
B1252534953133N01109308EA0142301496155000
K125253000011
B1252574953066N01109187EA0141201480160004
B1253014952991N01109083EA0140701480159004
B1253054952912N01108991EA0140501472158004
B1253094952854N01108925EV0141800000141004
B1253134952758N01108816EA0142601504139004
K125313000018
B1253174952687N01108737EA0144701512127004
B1253214952629N01108654EA0145701528118004
B1253254952587N01108558EA0145101520124004
B1253294952550N01108445EA0144201512134000
B1253334952516N01108316EA0144301512141000
K125333000022
B1253374952487N01108200EA0146501536121000
B1253414952458N01108091EA0145901528128000
B1253454952429N01107979EA0144201512128004
B1253494952395N01107854EA0143001496141000
B1253534952362N01107729EA0143501504141000
K125353000014
B1253574952325N01107612EA0145201520125000
B1254014952291N01107495EA0145201520129000
B1254054952258N01107375EA0145801520132000
B1254094952254N01107266EA0149601552108000
B1254134952308N01107225EA0149201560110000
K125413000007
B1254174952366N01107295EA0148401552120004
B1254214952375N01107420EA0149901560113000
B1254254952345N01107525EA0151301584104000
B1254294952270N01107545EA0151301584106000
B1254334952220N01107466EA0151301584111004
K125433000007
B1254374952229N01107366EA0151801584109000
B1254414952283N01107337EA0152401600101000
B1254454952329N01107416EA0152201592109000
B1254494952320N01107533EA0152501600109000
B1254534952258N01107604EA0153301608105000
K125453322011
B1254574952187N01107579EA0153501608111000
B1255014952158N01107479EA0153301608117000
B1255054952175N01107375EA0153101600122000
B1255094952237N01107333EA0153801616112000
B1255134952295N01107383EA0154601624102004
K125513308012
B1255174952316N01107491EA0154801624109000
B1255214952279N01107591EA0155701632105000
B1255254952212N01107641EA0156201640103000
B1255294952137N01107616EA0155801632110000
B1255334952075N01107537EA0154201616127000
K125533300012
B1255374952029N01107420EA0152801600141000
B1255414951991N01107295EA0150501584146000
B1255454951962N01107154EA0149701568153000
B1255494951933N01107008EA0148101552159000
B1255534951900N01106858EA0147001536162004
K125553000007
B1255574951862N01106712EA0146601536163000
B1256014951816N01106570EA0146601536159004
B1256054951766N01106433EA0146101528159004
B1256094951716N01106295EA0145101520161004
B1256134951670N01106154EA0144501520163004
K125613000011
B1256174951616N01106004EA0143301504165004
B1256214951566N01105858EA0142201496167004
B1256254951512N01105704EA0141701488172004
B1256294951462N01105554EA0141301488169004
B1256334951408N01105404EA0140601472171004
K125633000008
B1256374951358N01105254EA0140201472173004
B1256414951312N01105104EA0140201472173004
B1256454951262N01104958EA0138701456176004
B1256494951216N01104804EA0137401448176004
B1256534951175N01104641EA0136401440176004
K125653000013
B1256574951141N01104479EA0135501424178004
B1257014951112N01104308EA0134501416176004
B1257054951083N01104141EA0133701400175004
B1257094951058N01103970EA0133101400175004
B1257134951033N01103808EA0132501392173004
K125713000010
B1257174951004N01103645EA0131701384173004
B1257214950975N01103479EA0130501368174004
B1257254950937N01103316EA0129701360177004
B1257294950900N01103154EA0129301360175004
B1257334950866N01102995EA0128301352175004
K125733000011
B1257374950829N01102833EA0127901344176004
B1257414950795N01102670EA0127501336179004
B1257454950770N01102504EA0126801336178004
B1257494950754N01102337EA0126401328177004
B1257534950737N01102166EA0125601320175004
K125753000012
B1257574950720N01102000EA0124801312173004
B1258014950700N01101837EA0124501304173004
B1258054950679N01101670EA0123901304172004
B1258094950650N01101512EA0123601296169004
B1258134950616N01101354EA0122901288170004
K125813000010
B1258174950575N01101195EA0122201280169004
B1258214950533N01101045EA0122501288166004
B1258254950483N01100908EA0123601296158004
B1258294950433N01100779EA0125201312149004
B1258334950400N01100645EA0127201328141004
K125833000005
B1258374950395N01100512EA0129301352134004
B1258414950375N01100395EA0131601376115004
B1258454950320N01100329EA0132901392111004
B1258494950245N01100341EA0133301400105000
B1258534950208N01100441EA0132301392114000
K125853000005
B1258574950233N01100562EA0132601392120000
B1259014950300N01100625EA0134501400115000
B1259054950370N01100608EA0136001424105000
B1259094950387N01100520EA0136401432105000
B1259134950341N01100450EA0136701440103000
K125913280007
B1259174950283N01100487EA0136801440105000
B1259214950275N01100608EA0135901424121000
B1259254950325N01100700EA0137801440109000
B1259294950395N01100712EA0138601456106000
B1259334950445N01100645EA0139301464106000
K125933216006
B1259374950433N01100545EA0139301464105000
B1259414950370N01100495EA0139301464109000
B1259454950300N01100529EA0140201472111000
B1259494950266N01100625EA0141301480105000
B1259534950291N01100720EA0141301480105000
K125953264005
B1259574950362N01100733EA0141801488106000
B1300014950400N01100658EA0142401496101000
B1300054950391N01100562EA0142401496101000
B1300094950341N01100495EA0142201488108000
B1300134950270N01100491EA0142201496109000
K130013298005
B1300174950220N01100575EA0142301496109000
B1300214950233N01100687EA0142901504108000
B1300254950300N01100729EA0143401504106000
B1300294950358N01100683EA0144301512102000
B1300334950387N01100595EA0144301512104004
K130033276004
B1300374950387N01100491EA0144201512108000
B1300414950366N01100387EA0144101512111004
B1300454950337N01100291EA0144301512111004
B1300494950304N01100191EA0142501504123000
B1300534950258N01100079EA0139701464138000
K130053276004
B1300574950200N01059962EA0138801456147000
B1301014950141N01059850EA0138701456146000
B1301054950075N01059741EA0139801456138004
B1301094950016N01059645EA0140201472134000
B1301134949950N01059550EA0139701464139004
K130113000005
B1301174949883N01059458EA0139901472138004
B1301214949816N01059362EA0139301464143004
B1301254949745N01059254EA0138901456148004
B1301294949679N01059145EA0138001448148004
B1301334949612N01059020EA0136101424155004
K130133000004
B1301374949545N01058895EA0135501424159004
B1301414949479N01058766EA0134701416162004
B1301454949412N01058637EA0134001408161004
B1301494949345N01058504EA0133101392165004
B1301534949275N01058375EA0133001400162004
K130153000003
B1301574949212N01058250EA0132501392162004
B1302014949154N01058116EA0132201384161004
B1302054949095N01057979EA0132401392157004
B1302094949045N01057845EA0133801400147004
B1302134948991N01057716EA0133701408152004
K130213000001
B1302174948941N01057583EA0132301392157004
B1302214948887N01057445EA0130201368162004
B1302254948833N01057304EA0129701360164000
B1302294948775N01057162EA0129701360162000
B1302334948720N01057025EA0129501360164004
K130233000005
B1302374948670N01056883EA0128801352165000
B1302414948620N01056737EA0128301344165004
B1302454948575N01056591EA0128101344164004
B1302494948525N01056445EA0127601344164004
B1302534948479N01056300EA0127001336161004
K130253000006
B1302574948433N01056150EA0126501328161004
B1303014948395N01056000EA0126101328162004
B1303054948358N01055850EA0125401320164004
B1303094948329N01055695EA0125001312162004
B1303134948291N01055545EA0124301304165004
K130313000008
B1303174948254N01055395EA0123601296165004
B1303214948216N01055245EA0122401288166004
B1303254948175N01055095EA0121901280166004
B1303294948137N01054941EA0120901272166004
B1303334948100N01054791EA0119501256166004
K130333000008
B1303374948058N01054641EA0118601248169004
B1303414948016N01054491EA0118301240167004
B1303454947975N01054341EA0117701232167004
B1303494947933N01054195EA0116801232166004
B1303534947895N01054041EA0116301224167004
K130353000010
B1303574947862N01053891EA0115301208167004
B1304014947825N01053737EA0114801208170004
B1304054947783N01053587EA0114201200169004
B1304094947741N01053433EA0113301192176004
B1304134947695N01053287EA0113201192171004
K130413000011
B1304174947645N01053141EA0113101184169004
B1304214947587N01053004EA0112401184167004
B1304254947533N01052862EA0111501168170004
B1304294947483N01052716EA0110501160170004
B1304334947433N01052570EA0109701152171004
K130433000009
B1304374947387N01052416EA0109001144171004
B1304414947341N01052266EA0108301136173004
B1304454947295N01052112EA0108301136168004
B1304494947250N01051962EA0107401128172004
B1304534947204N01051812EA0106901120169004
K130453000007
B1304574947162N01051658EA0106601120166004
B1305014947120N01051504EA0106201112166004
B1305054947075N01051350EA0106101112166004
B1305094947037N01051200EA0106501120162004
B1305134947004N01051058EA0106501120156004
K130513000004
B1305174946970N01050916EA0106501120157004
B1305214946945N01050770EA0108101128149004
B1305254946925N01050637EA0111101168131004
B1305294946908N01050520EA0113001184116004
B1305334946887N01050412EA0113801200113004
K130533000001
B1305374946862N01050295EA0114501200115000
B1305414946841N01050183EA0115001208117000
B1305454946820N01050066EA0115301208117000
B1305494946800N01049950EA0115701216118000
B1305534946779N01049833EA0115301208122000
K130553000001
B1305574946754N01049712EA0114301200125000
B1306014946729N01049583EA0113401192132000
B1306054946700N01049454EA0113001184135000
B1306094946666N01049325EA0112801184138000
B1306134946637N01049204EA0113401184135000
K130613000003
B1306174946608N01049091EA0113801192127004
B1306214946570N01048979EA0113301184126000
B1306254946516N01048879EA0112401176131004
B1306294946450N01048787EA0112401176132004
B1306334946379N01048700EA0112101176133004
K130633000002
B1306374946304N01048616EA0111201168135004
B1306414946229N01048537EA0111201168137004
B1306454946150N01048454EA0110601160143004
B1306494946075N01048370EA0110501160139004
B1306534946008N01048270EA0110101152140004
K130653180002
B1306574945950N01048158EA0109401152143004
B1307014945891N01048037EA0108201136145004
B1307054945825N01047925EA0107601128148004
B1307094945754N01047816EA0107301128150004
B1307134945679N01047712EA0108001128149004
K130713180001
B1307174945608N01047612EA0109301144141004
B1307214945537N01047512EA0108801136147004
B1307254945466N01047412EA0108601136149004
B1307294945387N01047325EA0110101152141004
B1307334945312N01047254EA0111801176136004
K130733180001
B1307374945262N01047162EA0114901200119004
B1307414945295N01047083EA0116701224107004
B1307454945362N01047116EA0117101224114004
B1307494945375N01047233EA0117901232115004
B1307534945325N01047320EA0118801248107000
K130753180001
B1307574945258N01047316EA0119101248109000
B1308014945229N01047233EA0119901256110000
B1308054945262N01047154EA0120801264106000
B1308094945333N01047141EA0121101264111004
B1308134945395N01047208EA0122701280112000
K130813274010
B1308174945383N01047320EA0123801296108000
B1308214945316N01047350EA0123801296110000
B1308254945275N01047270EA0124601304110000
B1308294945320N01047195EA0125001312114000
B1308334945391N01047225EA0125601312119000
K130833274010
B1308374945420N01047333EA0127601336106000
B1308414945379N01047420EA0127701336106000
B1308454945308N01047433EA0127901336107000
B1308494945262N01047354EA0128401344112000
B1308534945283N01047262EA0129301352107000
K130853292010
B1308574945350N01047245EA0129601352110004
B1309014945395N01047333EA0130401360110000
B1309054945370N01047441EA0131801376104000
B1309094945316N01047495EA0132101384096000
B1309134945250N01047466EA0132101376105000
K130913300008
B1309174945220N01047375EA0132601384110000
B1309214945250N01047291EA0133601400109000
B1309254945320N01047308EA0134001400116000
B1309294945337N01047416EA0134801408110000
B1309334945283N01047487EA0135401416106000
K130933306009
B1309374945216N01047466EA0135701416107000
B1309414945187N01047375EA0137001432104000
B1309454945220N01047295EA0137201440112000
B1309494945291N01047316EA0139001448113000
B1309534945308N01047425EA0139301464109000
K130953300009
B1309574945254N01047504EA0139801464114000
B1310014945187N01047479EA0140701472112000
B1310054945170N01047383EA0141801480106000
B1310094945216N01047316EA0142801496110004
B1310134945287N01047337EA0143801504111000
K131013284005
B1310174945316N01047441EA0144601512115000
B1310214945262N01047520EA0145101520112000
B1310254945200N01047479EA0145701528109004
B1310294945200N01047375EA0146001528112000
B1310334945254N01047312EA0148001544108000
K131033268005
B1310374945320N01047345EA0148801552111000
B1310414945329N01047458EA0149401560108000
B1310454945270N01047520EA0150001568107000
B1310494945204N01047491EA0150001568108000
B1310534945175N01047400EA0151501584106000
K131053282005
B1310574945212N01047320EA0152401592105000
B1311014945279N01047341EA0152201584116000
B1311054945308N01047454EA0153201600109000
B1311094945270N01047550EA0153901608106000
B1311134945204N01047579EA0154201616102000
K131113306010
B1311174945141N01047529EA0153901608110000
B1311214945108N01047433EA0154601616113000
B1311254945087N01047320EA0153601608125000
B1311294945070N01047191EA0151501584139000
B1311334945050N01047045EA0149001560156000
K131133306010
B1311374945029N01046891EA0147501544161000
B1311414945008N01046737EA0147101544163000
B1311454944987N01046583EA0146101528162004
B1311494944970N01046429EA0145401520164000
B1311534944950N01046270EA0144701520165004
K131153000013
B1311574944929N01046112EA0144101512165004
B1312014944908N01045958EA0143101504163004
B1312054944883N01045804EA0142501496162004
B1312094944858N01045645EA0141801488164004
B1312134944829N01045491EA0141301488166004
K131213000011
B1312174944808N01045341EA0144101512156004
B1312214944787N01045208EA0146601536138004
B1312254944770N01045083EA0147501552131004
B1312294944750N01044954EA0147901552133004
B1312334944720N01044829EA0148201560134004
K131233000009
B1312374944683N01044704EA0147801552139004
B1312414944637N01044575EA0147501552143004
B1312454944591N01044458EA0149101568136004
B1312494944541N01044341EA0148001552145004
B1312534944491N01044212EA0146901544151004
K131253000009
B1312574944441N01044083EA0146001536150004
B1313014944391N01043950EA0144701520153004
B1313054944341N01043812EA0144101512155004
B1313094944295N01043675EA0143201504157004
B1313134944250N01043537EA0142601496156004
K131313000014
